{
  "contractName": "UnqTreasury",
  "abi": [
    {
      "inputs": [],
      "stateMutability": "nonpayable",
      "type": "constructor"
    },
    {
      "anonymous": false,
      "inputs": [
        {
          "indexed": false,
          "internalType": "uint256",
          "name": "",
          "type": "uint256"
        }
      ],
      "name": "ClaimFundsEvent",
      "type": "event"
    },
    {
      "anonymous": false,
      "inputs": [
        {
          "indexed": false,
          "internalType": "uint256",
          "name": "",
          "type": "uint256"
        }
      ],
      "name": "DepositEvent",
      "type": "event"
    },
    {
      "anonymous": false,
      "inputs": [
        {
          "indexed": false,
          "internalType": "uint8",
          "name": "version",
          "type": "uint8"
        }
      ],
      "name": "Initialized",
      "type": "event"
    },
    {
      "anonymous": false,
      "inputs": [
        {
          "components": [
            {
              "internalType": "bytes32",
              "name": "solanaTreasury",
              "type": "bytes32"
            },
            {
              "internalType": "bytes32",
              "name": "solanaAddress",
              "type": "bytes32"
            },
            {
              "internalType": "enum UnqWormholeStructs.MemberStatus",
              "name": "status",
              "type": "uint8"
            },
            {
              "internalType": "uint256",
              "name": "joinedAt",
              "type": "uint256"
            },
            {
              "internalType": "address",
              "name": "ethAddress",
              "type": "address"
            }
          ],
          "indexed": false,
          "internalType": "struct UnqWormholeStructs.MemberData",
          "name": "",
          "type": "tuple"
        }
      ],
      "name": "MemberAddedEvent",
      "type": "event"
    },
    {
      "anonymous": false,
      "inputs": [
        {
          "components": [
            {
              "internalType": "bytes32",
              "name": "buyer",
              "type": "bytes32"
            },
            {
              "internalType": "bytes32",
              "name": "seller",
              "type": "bytes32"
            },
            {
              "internalType": "bytes32",
              "name": "solanaTreasury",
              "type": "bytes32"
            },
            {
              "internalType": "uint256",
              "name": "amount",
              "type": "uint256"
            }
          ],
          "indexed": false,
          "internalType": "struct UnqWormholeStructs.SharesBought",
          "name": "",
          "type": "tuple"
        }
      ],
      "name": "SharesBoughtEvent",
      "type": "event"
    },
    {
      "anonymous": false,
      "inputs": [
        {
          "indexed": false,
          "internalType": "uint256",
          "name": "",
          "type": "uint256"
        }
      ],
      "name": "TransferFundsEvent",
      "type": "event"
    },
    {
      "anonymous": false,
      "inputs": [
        {
          "indexed": false,
          "internalType": "bytes32",
          "name": "",
          "type": "bytes32"
        }
      ],
      "name": "TreasuryCreatedEvent",
      "type": "event"
    },
    {
      "anonymous": false,
      "inputs": [
        {
          "indexed": false,
          "internalType": "uint256",
          "name": "",
          "type": "uint256"
        }
      ],
      "name": "WithdrawFundsEvent",
      "type": "event"
    },
    {
      "inputs": [
        {
          "internalType": "bytes32",
          "name": "solanaTreasury",
          "type": "bytes32"
        },
        {
          "internalType": "bytes32",
          "name": "treasuryAuthority",
          "type": "bytes32"
        },
        {
          "internalType": "address",
          "name": "denominatedCurrency",
          "type": "address"
        },
        {
          "internalType": "address",
          "name": "factoryContract",
          "type": "address"
        },
        {
          "internalType": "address",
          "name": "creator",
          "type": "address"
        },
        {
          "internalType": "address",
          "name": "relayerSigner",
          "type": "address"
        },
        {
          "internalType": "address",
          "name": "platformFeeDestination",
          "type": "address"
        },
        {
          "internalType": "uint256",
          "name": "platformFeePercentage",
          "type": "uint256"
        }
      ],
      "name": "initialize",
      "outputs": [],
      "stateMutability": "nonpayable",
      "type": "function"
    },
    {
      "inputs": [
        {
          "components": [
            {
              "internalType": "uint8",
              "name": "action",
              "type": "uint8"
            },
            {
              "internalType": "bytes32",
              "name": "realmAddress",
              "type": "bytes32"
            },
            {
              "internalType": "bytes32",
              "name": "solanaAddress",
              "type": "bytes32"
            },
            {
              "internalType": "address",
              "name": "ethAddress",
              "type": "address"
            }
          ],
          "internalType": "struct UnqWormholeStructs.AddMemberAction",
          "name": "newMember",
          "type": "tuple"
        }
      ],
      "name": "addNewMember",
      "outputs": [],
      "stateMutability": "nonpayable",
      "type": "function"
    },
    {
      "inputs": [
        {
          "internalType": "bytes32",
          "name": "memberAddress",
          "type": "bytes32"
        },
        {
          "internalType": "uint8",
          "name": "nonce",
          "type": "uint8"
        }
      ],
      "name": "receiveFunds",
      "outputs": [],
      "stateMutability": "payable",
      "type": "function",
      "payable": true
    },
    {
      "inputs": [
        {
          "internalType": "bytes32",
          "name": "memberAddress",
          "type": "bytes32"
        }
      ],
      "name": "getMemberData",
      "outputs": [
        {
          "components": [
            {
              "internalType": "bytes32",
              "name": "solanaTreasury",
              "type": "bytes32"
            },
            {
              "internalType": "bytes32",
              "name": "solanaAddress",
              "type": "bytes32"
            },
            {
              "internalType": "enum UnqWormholeStructs.MemberStatus",
              "name": "status",
              "type": "uint8"
            },
            {
              "internalType": "uint256",
              "name": "joinedAt",
              "type": "uint256"
            },
            {
              "internalType": "address",
              "name": "ethAddress",
              "type": "address"
            }
          ],
          "internalType": "struct UnqWormholeStructs.MemberData",
          "name": "",
          "type": "tuple"
        }
      ],
      "stateMutability": "view",
      "type": "function",
      "constant": true
    },
    {
      "inputs": [
        {
          "internalType": "address payable",
          "name": "destination",
          "type": "address"
        },
        {
          "internalType": "uint256",
          "name": "amount",
          "type": "uint256"
        },
        {
          "internalType": "address",
          "name": "currency",
          "type": "address"
        }
      ],
      "name": "transferFunds",
      "outputs": [],
      "stateMutability": "nonpayable",
      "type": "function"
    },
    {
      "inputs": [
        {
          "internalType": "bytes32",
          "name": "solanaAddress",
          "type": "bytes32"
        },
        {
          "internalType": "address payable",
          "name": "destination",
          "type": "address"
        },
        {
          "internalType": "uint256",
          "name": "amount",
          "type": "uint256"
        },
        {
          "internalType": "address",
          "name": "currency",
          "type": "address"
        }
      ],
      "name": "withdrawFunds",
      "outputs": [],
      "stateMutability": "nonpayable",
      "type": "function"
    },
    {
      "inputs": [
        {
          "internalType": "address payable",
          "name": "receiver",
          "type": "address"
        },
        {
          "internalType": "bytes32",
          "name": "treasury",
          "type": "bytes32"
        },
        {
          "internalType": "bytes32",
          "name": "financialOffer",
          "type": "bytes32"
        },
        {
          "internalType": "bytes32",
          "name": "seller",
          "type": "bytes32"
        },
        {
          "internalType": "bytes32",
          "name": "buyer",
          "type": "bytes32"
        }
      ],
      "name": "sellFinancialRights",
      "outputs": [],
      "stateMutability": "payable",
      "type": "function",
      "payable": true
    },
    {
      "inputs": [
        {
          "internalType": "bytes32",
          "name": "solanaAddress",
          "type": "bytes32"
        },
        {
          "internalType": "address payable",
          "name": "destination",
          "type": "address"
        },
        {
          "internalType": "uint256",
          "name": "amount",
          "type": "uint256"
        },
        {
          "internalType": "address",
          "name": "currency",
          "type": "address"
        }
      ],
      "name": "claimFunds",
      "outputs": [],
      "stateMutability": "nonpayable",
      "type": "function"
    },
    {
      "inputs": [
        {
          "internalType": "bytes32",
          "name": "sellerSolanaAddress",
          "type": "bytes32"
        },
        {
          "internalType": "bytes32",
          "name": "buyerSolanaAddress",
          "type": "bytes32"
        },
        {
          "internalType": "bytes32",
          "name": "treasury",
          "type": "bytes32"
        },
        {
          "internalType": "address",
          "name": "receiver",
          "type": "address"
        },
        {
          "internalType": "bytes32",
          "name": "financialOffer",
          "type": "bytes32"
        },
        {
          "internalType": "uint256",
          "name": "amount",
          "type": "uint256"
        }
      ],
      "name": "sellSharesDenominatedCurrency",
      "outputs": [],
      "stateMutability": "payable",
      "type": "function",
      "payable": true
    },
    {
      "inputs": [
        {
          "internalType": "address",
          "name": "currency",
          "type": "address"
        },
        {
          "internalType": "uint256",
          "name": "amount",
          "type": "uint256"
        }
      ],
      "name": "executeWithdrawal",
      "outputs": [],
      "stateMutability": "payable",
      "type": "function",
      "payable": true
    },
    {
      "inputs": [],
      "name": "getEscrowAddress",
      "outputs": [
        {
          "internalType": "address",
          "name": "",
          "type": "address"
        }
      ],
      "stateMutability": "view",
      "type": "function",
      "constant": true
    },
    {
      "inputs": [
        {
          "internalType": "bytes32",
          "name": "solanaAddress",
          "type": "bytes32"
        },
        {
          "internalType": "uint256",
          "name": "amount",
          "type": "uint256"
        },
        {
          "internalType": "uint8",
          "name": "nonce",
          "type": "uint8"
        }
      ],
      "name": "depositDenominatedCurrency",
      "outputs": [],
      "stateMutability": "payable",
      "type": "function",
      "payable": true
    },
    {
      "inputs": [],
      "name": "getDenominatedCurrency",
      "outputs": [
        {
          "internalType": "address",
          "name": "",
          "type": "address"
        }
      ],
      "stateMutability": "view",
      "type": "function",
      "constant": true
    },
    {
      "inputs": [
        {
          "internalType": "address payable",
          "name": "destination",
          "type": "address"
        },
        {
          "internalType": "uint256",
          "name": "percentage",
          "type": "uint256"
        }
      ],
      "name": "setPlatformFees",
      "outputs": [],
      "stateMutability": "nonpayable",
      "type": "function"
    },
    {
      "inputs": [
        {
          "internalType": "uint256",
          "name": "depositAmount",
          "type": "uint256"
        }
      ],
      "name": "transferFees",
      "outputs": [],
      "stateMutability": "payable",
      "type": "function",
      "payable": true
    }
  ],
  "bytecode": "0x6080604052612710600b553480156200001757600080fd5b50620000286200002e60201b60201c565b620001d9565b600060019054906101000a900460ff161562000081576040517f08c379a000000000000000000000000000000000000000000000000000000000815260040162000078906200017c565b60405180910390fd5b60ff801660008054906101000a900460ff1660ff161015620000f35760ff6000806101000a81548160ff021916908360ff1602179055507f7f26b83ff96e1f2b6a682f133852f6798a09c465da95921460cefb384740249860ff604051620000ea9190620001bc565b60405180910390a15b565b600082825260208201905092915050565b7f496e697469616c697a61626c653a20636f6e747261637420697320696e69746960008201527f616c697a696e6700000000000000000000000000000000000000000000000000602082015250565b600062000164602783620000f5565b9150620001718262000106565b604082019050919050565b60006020820190508181036000830152620001978162000155565b9050919050565b600060ff82169050919050565b620001b6816200019e565b82525050565b6000602082019050620001d36000830184620001ab565b92915050565b613f7680620001e96000396000f3fe608060405260043610620000fe5760003560e01c8063bc2fea451162000097578063d0e4e1511162000061578063d0e4e15114620002cf578063d15c484e14620002ef578063f25dfaf7146200031d578063fb1d97dc146200034d57620000fe565b8063bc2fea45146200022b578063bd35f321146200024b578063bf19d77a146200026b578063c74e2493146200028b57620000fe565b80631d978e4911620000d95780631d978e49146200018f5780637ac9245614620001af578063a8432cac14620001cf578063badd4e1c14620001fd57620000fe565b8063122fd48a146200010357806314ef5cfa146200013357806319e64f581462000161575b600080fd5b3480156200011057600080fd5b506200011b6200037b565b6040516200012a91906200251e565b60405180910390f35b3480156200014057600080fd5b506200015f600480360381019062000159919062002636565b620003a5565b005b3480156200016e57600080fd5b506200018d6004803603810190620001879190620026a8565b620005bd565b005b620001ad6004803603810190620001a7919062002742565b6200079c565b005b620001cd6004803603810190620001c7919062002789565b62000a85565b005b348015620001dc57600080fd5b50620001fb6004803603810190620001f59190620027d0565b62000c6e565b005b3480156200020a57600080fd5b5062000229600480360381019062000223919062002817565b62000da1565b005b620002496004803603810190620002439190620028e0565b620011be565b005b6200026960048036038101906200026391906200297c565b62001427565b005b620002896004803603810190620002839190620029d8565b62001777565b005b3480156200029857600080fd5b50620002b76004803603810190620002b1919062002a0a565b62001920565b604051620002c6919062002b61565b60405180910390f35b620002ed6004803603810190620002e7919062002b7e565b62001a04565b005b348015620002fc57600080fd5b506200031b600480360381019062000315919062002636565b62001ef2565b005b3480156200032a57600080fd5b50620003356200217d565b6040516200034491906200251e565b60405180910390f35b3480156200035a57600080fd5b5062000379600480360381019062000373919062002d25565b620021a7565b005b6000600660009054906101000a900473ffffffffffffffffffffffffffffffffffffffff16905090565b600960009054906101000a900473ffffffffffffffffffffffffffffffffffffffff1673ffffffffffffffffffffffffffffffffffffffff163273ffffffffffffffffffffffffffffffffffffffff161462000438576040517f08c379a00000000000000000000000000000000000000000000000000000000081526004016200042f9062002db8565b60405180910390fd5b83838073ffffffffffffffffffffffffffffffffffffffff166008600084815260200190815260200160002060040160009054906101000a900473ffffffffffffffffffffffffffffffffffffffff1673ffffffffffffffffffffffffffffffffffffffff1614620004e1576040517f08c379a0000000000000000000000000000000000000000000000000000000008152600401620004d89062002e50565b60405180910390fd5b6000600660009054906101000a900473ffffffffffffffffffffffffffffffffffffffff1690508073ffffffffffffffffffffffffffffffffffffffff16633e0a943c8786886040518463ffffffff1660e01b8152600401620005479392919062002e94565b600060405180830381600087803b1580156200056257600080fd5b505af115801562000577573d6000803e3d6000fd5b505050507f5057b927f141ba401de87daf806c060c2bd6cd63cc7d2168173aceafc765843e85604051620005ac919062002ed1565b60405180910390a150505050505050565b600960009054906101000a900473ffffffffffffffffffffffffffffffffffffffff1673ffffffffffffffffffffffffffffffffffffffff163273ffffffffffffffffffffffffffffffffffffffff161462000650576040517f08c379a0000000000000000000000000000000000000000000000000000000008152600401620006479062002db8565b60405180910390fd5b600073ffffffffffffffffffffffffffffffffffffffff168173ffffffffffffffffffffffffffffffffffffffff1603620006d3578273ffffffffffffffffffffffffffffffffffffffff166108fc839081150290604051600060405180830381858888f19350505050158015620006cc573d6000803e3d6000fd5b506200075e565b60008190508073ffffffffffffffffffffffffffffffffffffffff1663a9059cbb85856040518363ffffffff1660e01b81526004016200071592919062002f59565b6020604051808303816000875af115801562000735573d6000803e3d6000fd5b505050506040513d601f19601f820116820180604052508101906200075b919062002fc3565b50505b7f7659805158d7560b5fea9106dd42c0023c0e2b1fb05ba48aa64f5cd6464b739f826040516200078f919062002ed1565b60405180910390a1505050565b81338073ffffffffffffffffffffffffffffffffffffffff166008600084815260200190815260200160002060040160009054906101000a900473ffffffffffffffffffffffffffffffffffffffff1673ffffffffffffffffffffffffffffffffffffffff161462000845576040517f08c379a00000000000000000000000000000000000000000000000000000000081526004016200083c9062002e50565b60405180910390fd5b60008060015486346040516020016200086294939291906200307b565b6040516020818303038152906040529050600460009054906101000a900473ffffffffffffffffffffffffffffffffffffffff1673ffffffffffffffffffffffffffffffffffffffff1663ac9a3db382866040518363ffffffff1660e01b8152600401620008d29291906200316b565b600060405180830381600087803b158015620008ed57600080fd5b505af115801562000902573d6000803e3d6000fd5b505050506001808111156200091c576200091b62002a4d565b5b6008600087815260200190815260200160002060020160009054906101000a900460ff16600181111562000955576200095462002a4d565b5b1462000998576040517f08c379a00000000000000000000000000000000000000000000000000000000081526004016200098f90620031ef565b60405180910390fd5b633b9aca00341015620009e2576040517f08c379a0000000000000000000000000000000000000000000000000000000008152600401620009d99062003261565b60405180910390fd5b34600a60003273ffffffffffffffffffffffffffffffffffffffff1673ffffffffffffffffffffffffffffffffffffffff168152602001908152602001600020600082825462000a339190620032b2565b9250508190555062000a453462001777565b7f0adeae8759aabaf58fb5029d7519173f1f604ef94b5a157fb8f6f2a6af34b13d3460405162000a76919062002ed1565b60405180910390a15050505050565b600960009054906101000a900473ffffffffffffffffffffffffffffffffffffffff1673ffffffffffffffffffffffffffffffffffffffff163273ffffffffffffffffffffffffffffffffffffffff161462000b18576040517f08c379a000000000000000000000000000000000000000000000000000000000815260040162000b0f9062002db8565b60405180910390fd5b600073ffffffffffffffffffffffffffffffffffffffff168273ffffffffffffffffffffffffffffffffffffffff160362000bbd57600660009054906101000a900473ffffffffffffffffffffffffffffffffffffffff1673ffffffffffffffffffffffffffffffffffffffff166108fc829081150290604051600060405180830381858888f1935050505015801562000bb6573d6000803e3d6000fd5b5062000c6a565b60008290508073ffffffffffffffffffffffffffffffffffffffff1663a9059cbb600660009054906101000a900473ffffffffffffffffffffffffffffffffffffffff16846040518363ffffffff1660e01b815260040162000c21929190620032ed565b6020604051808303816000875af115801562000c41573d6000803e3d6000fd5b505050506040513d601f19601f8201168201806040525081019062000c67919062002fc3565b50505b5050565b600960009054906101000a900473ffffffffffffffffffffffffffffffffffffffff1673ffffffffffffffffffffffffffffffffffffffff163273ffffffffffffffffffffffffffffffffffffffff161462000d01576040517f08c379a000000000000000000000000000000000000000000000000000000000815260040162000cf89062002db8565b60405180910390fd5b600081108062000d12575061271081115b1562000d55576040517f08c379a000000000000000000000000000000000000000000000000000000000815260040162000d4c906200336a565b60405180910390fd5b81600760006101000a81548173ffffffffffffffffffffffffffffffffffffffff021916908373ffffffffffffffffffffffffffffffffffffffff160217905550806005819055505050565b60008060019054906101000a900460ff1615905080801562000dd35750600160008054906101000a900460ff1660ff16105b8062000e04575062000de530620023ee565b15801562000e035750600160008054906101000a900460ff1660ff16145b5b62000e46576040517f08c379a000000000000000000000000000000000000000000000000000000000815260040162000e3d9062003402565b60405180910390fd5b60016000806101000a81548160ff021916908360ff160217905550801562000e84576001600060016101000a81548160ff0219169083151502179055505b886001819055508760028190555086600360006101000a81548173ffffffffffffffffffffffffffffffffffffffff021916908373ffffffffffffffffffffffffffffffffffffffff16021790555085600460006101000a81548173ffffffffffffffffffffffffffffffffffffffff021916908373ffffffffffffffffffffffffffffffffffffffff16021790555083600960006101000a81548173ffffffffffffffffffffffffffffffffffffffff021916908373ffffffffffffffffffffffffffffffffffffffff16021790555082600760006101000a81548173ffffffffffffffffffffffffffffffffffffffff021916908373ffffffffffffffffffffffffffffffffffffffff1602179055508160058190555060003060405162000fae906200246b565b62000fba91906200251e565b604051809103906000f08015801562000fd7573d6000803e3d6000fd5b50905080600660006101000a81548173ffffffffffffffffffffffffffffffffffffffff021916908373ffffffffffffffffffffffffffffffffffffffff1602179055506040518060a0016040528060015481526020018a81526020016001808111156200104a576200104962002a4d565b5b81526020014281526020018773ffffffffffffffffffffffffffffffffffffffff16815250600860008b8152602001908152602001600020600082015181600001556020820151816001015560408201518160020160006101000a81548160ff02191690836001811115620010c457620010c362002a4d565b5b02179055506060820151816003015560808201518160040160006101000a81548173ffffffffffffffffffffffffffffffffffffffff021916908373ffffffffffffffffffffffffffffffffffffffff1602179055509050507f4ccd63ea06a2303708404d91dd8142bf6b6d829eb91ce48e05efc4dabdd551198a6040516200114e919062003435565b60405180910390a1508015620011b35760008060016101000a81548160ff0219169083151502179055507f7f26b83ff96e1f2b6a682f133852f6798a09c465da95921460cefb38474024986001604051620011aa919062003495565b60405180910390a15b505050505050505050565b600073ffffffffffffffffffffffffffffffffffffffff16600360009054906101000a900473ffffffffffffffffffffffffffffffffffffffff1673ffffffffffffffffffffffffffffffffffffffff160362001252576040517f08c379a0000000000000000000000000000000000000000000000000000000008152600401620012499062003528565b60405180910390fd5b6000600360009054906101000a900473ffffffffffffffffffffffffffffffffffffffff1690508073ffffffffffffffffffffffffffffffffffffffff166323b872dd3386856040518463ffffffff1660e01b8152600401620012b8939291906200354a565b6020604051808303816000875af1158015620012d8573d6000803e3d6000fd5b505050506040513d601f19601f82011682018060405250810190620012fe919062002fc3565b50600060018688868b876040516020016200131f9695949392919062003587565b6040516020818303038152906040529050600460009054906101000a900473ffffffffffffffffffffffffffffffffffffffff1673ffffffffffffffffffffffffffffffffffffffff1663ac9a3db38260006040518363ffffffff1660e01b81526004016200139092919062003646565b600060405180830381600087803b158015620013ab57600080fd5b505af1158015620013c0573d6000803e3d6000fd5b505050507f94581681b8a0d4e7c6a54f2ffbeee19c917bb4ec133f0692f032cb1687b88a3460405180608001604052808981526020018a815260200188815260200185815250604051620014159190620036d7565b60405180910390a15050505050505050565b600073ffffffffffffffffffffffffffffffffffffffff16600360009054906101000a900473ffffffffffffffffffffffffffffffffffffffff1673ffffffffffffffffffffffffffffffffffffffff1603620014bb576040517f08c379a0000000000000000000000000000000000000000000000000000000008152600401620014b29062003744565b60405180910390fd5b82338073ffffffffffffffffffffffffffffffffffffffff166008600084815260200190815260200160002060040160009054906101000a900473ffffffffffffffffffffffffffffffffffffffff1673ffffffffffffffffffffffffffffffffffffffff161462001564576040517f08c379a00000000000000000000000000000000000000000000000000000000081526004016200155b9062002e50565b60405180910390fd5b60008060015487876040516020016200158194939291906200307b565b6040516020818303038152906040529050600460009054906101000a900473ffffffffffffffffffffffffffffffffffffffff1673ffffffffffffffffffffffffffffffffffffffff1663ac9a3db382866040518363ffffffff1660e01b8152600401620015f19291906200316b565b600060405180830381600087803b1580156200160c57600080fd5b505af115801562001621573d6000803e3d6000fd5b505050506000600360009054906101000a900473ffffffffffffffffffffffffffffffffffffffff1690508073ffffffffffffffffffffffffffffffffffffffff166323b872dd3330896040518463ffffffff1660e01b81526004016200168b939291906200354a565b6020604051808303816000875af1158015620016ab573d6000803e3d6000fd5b505050506040513d601f19601f82011682018060405250810190620016d1919062002fc3565b50620016dd8662001777565b85600a60003373ffffffffffffffffffffffffffffffffffffffff1673ffffffffffffffffffffffffffffffffffffffff16815260200190815260200160002060008282546200172e9190620032b2565b925050819055507f0adeae8759aabaf58fb5029d7519173f1f604ef94b5a157fb8f6f2a6af34b13d8660405162001766919062002ed1565b60405180910390a150505050505050565b6000620017848262002411565b9050600073ffffffffffffffffffffffffffffffffffffffff16600360009054906101000a900473ffffffffffffffffffffffffffffffffffffffff1673ffffffffffffffffffffffffffffffffffffffff1614620018b1576000600360009054906101000a900473ffffffffffffffffffffffffffffffffffffffff1690508073ffffffffffffffffffffffffffffffffffffffff1663a9059cbb600760009054906101000a900473ffffffffffffffffffffffffffffffffffffffff16846040518363ffffffff1660e01b815260040162001863929190620032ed565b6020604051808303816000875af115801562001883573d6000803e3d6000fd5b505050506040513d601f19601f82011682018060405250810190620018a9919062002fc3565b50506200191c565b600760009054906101000a900473ffffffffffffffffffffffffffffffffffffffff1673ffffffffffffffffffffffffffffffffffffffff166108fc829081150290604051600060405180830381858888f193505050501580156200191a573d6000803e3d6000fd5b505b5050565b6200192a62002479565b600860008381526020019081526020016000206040518060a001604052908160008201548152602001600182015481526020016002820160009054906101000a900460ff16600181111562001984576200198362002a4d565b5b600181111562001999576200199862002a4d565b5b8152602001600382015481526020016004820160009054906101000a900473ffffffffffffffffffffffffffffffffffffffff1673ffffffffffffffffffffffffffffffffffffffff1673ffffffffffffffffffffffffffffffffffffffff16815250509050919050565b803383876000600860008681526020019081526020016000206040518060a001604052908160008201548152602001600182015481526020016002820160009054906101000a900460ff16600181111562001a645762001a6362002a4d565b5b600181111562001a795762001a7862002a4d565b5b8152602001600382015481526020016004820160009054906101000a900473ffffffffffffffffffffffffffffffffffffffff1673ffffffffffffffffffffffffffffffffffffffff1673ffffffffffffffffffffffffffffffffffffffff168152505090508373ffffffffffffffffffffffffffffffffffffffff16816080015173ffffffffffffffffffffffffffffffffffffffff161462001b54576040517f08c379a000000000000000000000000000000000000000000000000000000000815260040162001b4b90620037b6565b60405180910390fd5b6000600860008581526020019081526020016000206040518060a001604052908160008201548152602001600182015481526020016002820160009054906101000a900460ff16600181111562001bb05762001baf62002a4d565b5b600181111562001bc55762001bc462002a4d565b5b8152602001600382015481526020016004820160009054906101000a900473ffffffffffffffffffffffffffffffffffffffff1673ffffffffffffffffffffffffffffffffffffffff1673ffffffffffffffffffffffffffffffffffffffff168152505090508273ffffffffffffffffffffffffffffffffffffffff16816080015173ffffffffffffffffffffffffffffffffffffffff161462001ca0576040517f08c379a000000000000000000000000000000000000000000000000000000000815260040162001c979062003828565b60405180910390fd5b600073ffffffffffffffffffffffffffffffffffffffff16600360009054906101000a900473ffffffffffffffffffffffffffffffffffffffff1673ffffffffffffffffffffffffffffffffffffffff161462001d34576040517f08c379a000000000000000000000000000000000000000000000000000000000815260040162001d2b90620038c0565b60405180910390fd5b8a73ffffffffffffffffffffffffffffffffffffffff166108fc349081150290604051600060405180830381858888f1935050505015801562001d7b573d6000803e3d6000fd5b50633b9aca0034101562001dc6576040517f08c379a000000000000000000000000000000000000000000000000000000000815260040162001dbd9062003932565b60405180910390fd5b600060018b898c8c3460405160200162001de69695949392919062003587565b6040516020818303038152906040529050600460009054906101000a900473ffffffffffffffffffffffffffffffffffffffff1673ffffffffffffffffffffffffffffffffffffffff1663ac9a3db38260006040518363ffffffff1660e01b815260040162001e5792919062003646565b600060405180830381600087803b15801562001e7257600080fd5b505af115801562001e87573d6000803e3d6000fd5b505050507f94581681b8a0d4e7c6a54f2ffbeee19c917bb4ec133f0692f032cb1687b88a3460405180608001604052808a81526020018b81526020018d81526020013481525060405162001edc9190620036d7565b60405180910390a1505050505050505050505050565b83838073ffffffffffffffffffffffffffffffffffffffff166008600084815260200190815260200160002060040160009054906101000a900473ffffffffffffffffffffffffffffffffffffffff1673ffffffffffffffffffffffffffffffffffffffff161462001f9b576040517f08c379a000000000000000000000000000000000000000000000000000000000815260040162001f929062002e50565b60405180910390fd5b600960009054906101000a900473ffffffffffffffffffffffffffffffffffffffff1673ffffffffffffffffffffffffffffffffffffffff163273ffffffffffffffffffffffffffffffffffffffff16146200202e576040517f08c379a0000000000000000000000000000000000000000000000000000000008152600401620020259062002db8565b60405180910390fd5b600073ffffffffffffffffffffffffffffffffffffffff168373ffffffffffffffffffffffffffffffffffffffff1603620020b1578473ffffffffffffffffffffffffffffffffffffffff166108fc859081150290604051600060405180830381858888f19350505050158015620020aa573d6000803e3d6000fd5b506200213c565b60008390508073ffffffffffffffffffffffffffffffffffffffff1663a9059cbb87876040518363ffffffff1660e01b8152600401620020f392919062002f59565b6020604051808303816000875af115801562002113573d6000803e3d6000fd5b505050506040513d601f19601f8201168201806040525081019062002139919062002fc3565b50505b7feb0ddac3776609d3ac57bc634103c5386c9e9dd7fd86947c4ee46e5b90f270ef846040516200216d919062002ed1565b60405180910390a1505050505050565b6000600360009054906101000a900473ffffffffffffffffffffffffffffffffffffffff16905090565b806000801b600860008360400151815260200190815260200160002060010154146200220a576040517f08c379a00000000000000000000000000000000000000000000000000000000081526004016200220190620039a4565b60405180910390fd5b600960009054906101000a900473ffffffffffffffffffffffffffffffffffffffff1673ffffffffffffffffffffffffffffffffffffffff163273ffffffffffffffffffffffffffffffffffffffff16146200229d576040517f08c379a0000000000000000000000000000000000000000000000000000000008152600401620022949062002db8565b60405180910390fd5b60006040518060a00160405280600154815260200184604001518152602001600180811115620022d257620022d162002a4d565b5b8152602001428152602001846060015173ffffffffffffffffffffffffffffffffffffffff168152509050806008600085604001518152602001908152602001600020600082015181600001556020820151816001015560408201518160020160006101000a81548160ff0219169083600181111562002357576200235662002a4d565b5b02179055506060820151816003015560808201518160040160006101000a81548173ffffffffffffffffffffffffffffffffffffffff021916908373ffffffffffffffffffffffffffffffffffffffff1602179055509050507f2034f42176ad2fb457ff86d86cfb31612b60d88b9f42a8af6d3e5d316a12eb6a81604051620023e1919062002b61565b60405180910390a1505050565b6000808273ffffffffffffffffffffffffffffffffffffffff163b119050919050565b6000806005540362002427576000905062002466565b6064600b546005546200243b9190620039c6565b62002447919062003a40565b600b548362002457919062003a40565b620024639190620039c6565b90505b919050565b6104c88062003a7983390190565b6040518060a00160405280600080191681526020016000801916815260200160006001811115620024af57620024ae62002a4d565b5b815260200160008152602001600073ffffffffffffffffffffffffffffffffffffffff1681525090565b600073ffffffffffffffffffffffffffffffffffffffff82169050919050565b60006200250682620024d9565b9050919050565b6200251881620024f9565b82525050565b60006020820190506200253560008301846200250d565b92915050565b6000604051905090565b600080fd5b6000819050919050565b6200255f816200254a565b81146200256b57600080fd5b50565b6000813590506200257f8162002554565b92915050565b60006200259282620024d9565b9050919050565b620025a48162002585565b8114620025b057600080fd5b50565b600081359050620025c48162002599565b92915050565b6000819050919050565b620025df81620025ca565b8114620025eb57600080fd5b50565b600081359050620025ff81620025d4565b92915050565b6200261081620024f9565b81146200261c57600080fd5b50565b600081359050620026308162002605565b92915050565b6000806000806080858703121562002653576200265262002545565b5b600062002663878288016200256e565b94505060206200267687828801620025b3565b93505060406200268987828801620025ee565b92505060606200269c878288016200261f565b91505092959194509250565b600080600060608486031215620026c457620026c362002545565b5b6000620026d486828701620025b3565b9350506020620026e786828701620025ee565b9250506040620026fa868287016200261f565b9150509250925092565b600060ff82169050919050565b6200271c8162002704565b81146200272857600080fd5b50565b6000813590506200273c8162002711565b92915050565b600080604083850312156200275c576200275b62002545565b5b60006200276c858286016200256e565b92505060206200277f858286016200272b565b9150509250929050565b60008060408385031215620027a357620027a262002545565b5b6000620027b3858286016200261f565b9250506020620027c685828601620025ee565b9150509250929050565b60008060408385031215620027ea57620027e962002545565b5b6000620027fa85828601620025b3565b92505060206200280d85828601620025ee565b9150509250929050565b600080600080600080600080610100898b0312156200283b576200283a62002545565b5b60006200284b8b828c016200256e565b98505060206200285e8b828c016200256e565b9750506040620028718b828c016200261f565b9650506060620028848b828c016200261f565b9550506080620028978b828c016200261f565b94505060a0620028aa8b828c016200261f565b93505060c0620028bd8b828c016200261f565b92505060e0620028d08b828c01620025ee565b9150509295985092959890939650565b60008060008060008060c087890312156200290057620028ff62002545565b5b60006200291089828a016200256e565b96505060206200292389828a016200256e565b95505060406200293689828a016200256e565b94505060606200294989828a016200261f565b93505060806200295c89828a016200256e565b92505060a06200296f89828a01620025ee565b9150509295509295509295565b60008060006060848603121562002998576200299762002545565b5b6000620029a8868287016200256e565b9350506020620029bb86828701620025ee565b9250506040620029ce868287016200272b565b9150509250925092565b600060208284031215620029f157620029f062002545565b5b600062002a0184828501620025ee565b91505092915050565b60006020828403121562002a235762002a2262002545565b5b600062002a33848285016200256e565b91505092915050565b62002a47816200254a565b82525050565b7f4e487b7100000000000000000000000000000000000000000000000000000000600052602160045260246000fd5b6002811062002a905762002a8f62002a4d565b5b50565b600081905062002aa38262002a7c565b919050565b600062002ab58262002a93565b9050919050565b62002ac78162002aa8565b82525050565b62002ad881620025ca565b82525050565b62002ae981620024f9565b82525050565b60a08201600082015162002b07600085018262002a3c565b50602082015162002b1c602085018262002a3c565b50604082015162002b31604085018262002abc565b50606082015162002b46606085018262002acd565b50608082015162002b5b608085018262002ade565b50505050565b600060a08201905062002b78600083018462002aef565b92915050565b600080600080600060a0868803121562002b9d5762002b9c62002545565b5b600062002bad88828901620025b3565b955050602062002bc0888289016200256e565b945050604062002bd3888289016200256e565b935050606062002be6888289016200256e565b925050608062002bf9888289016200256e565b9150509295509295909350565b600080fd5b6000601f19601f8301169050919050565b7f4e487b7100000000000000000000000000000000000000000000000000000000600052604160045260246000fd5b62002c568262002c0b565b810181811067ffffffffffffffff8211171562002c785762002c7762002c1c565b5b80604052505050565b600062002c8d6200253b565b905062002c9b828262002c4b565b919050565b60006080828403121562002cb95762002cb862002c06565b5b62002cc5608062002c81565b9050600062002cd7848285016200272b565b600083015250602062002ced848285016200256e565b602083015250604062002d03848285016200256e565b604083015250606062002d19848285016200261f565b60608301525092915050565b60006080828403121562002d3e5762002d3d62002545565b5b600062002d4e8482850162002ca0565b91505092915050565b600082825260208201905092915050565b7f496e76616c696420617574686f726974792063616c6c21000000000000000000600082015250565b600062002da060178362002d57565b915062002dad8262002d68565b602082019050919050565b6000602082019050818103600083015262002dd38162002d91565b9050919050565b7f57726f6e6720457468657265756d2064657374696e6174696f6e20616464726560008201527f7373210000000000000000000000000000000000000000000000000000000000602082015250565b600062002e3860238362002d57565b915062002e458262002dda565b604082019050919050565b6000602082019050818103600083015262002e6b8162002e29565b9050919050565b62002e7d8162002585565b82525050565b62002e8e81620025ca565b82525050565b600060608201905062002eab600083018662002e72565b62002eba60208301856200250d565b62002ec9604083018462002e83565b949350505050565b600060208201905062002ee8600083018462002e83565b92915050565b6000819050919050565b600062002f1962002f1362002f0d84620024d9565b62002eee565b620024d9565b9050919050565b600062002f2d8262002ef8565b9050919050565b600062002f418262002f20565b9050919050565b62002f538162002f34565b82525050565b600060408201905062002f70600083018562002f48565b62002f7f602083018462002e83565b9392505050565b60008115159050919050565b62002f9d8162002f86565b811462002fa957600080fd5b50565b60008151905062002fbd8162002f92565b92915050565b60006020828403121562002fdc5762002fdb62002545565b5b600062002fec8482850162002fac565b91505092915050565b60008160f81b9050919050565b60006200300f8262002ff5565b9050919050565b6200302b620030258262002704565b62003002565b82525050565b6000819050919050565b620030506200304a826200254a565b62003031565b82525050565b6000819050919050565b620030756200306f82620025ca565b62003056565b82525050565b600062003089828762003016565b6001820191506200309b82866200303b565b602082019150620030ad82856200303b565b602082019150620030bf828462003060565b60208201915081905095945050505050565b600081519050919050565b600082825260208201905092915050565b60005b838110156200310d578082015181840152602081019050620030f0565b60008484015250505050565b60006200312682620030d1565b620031328185620030dc565b935062003144818560208601620030ed565b6200314f8162002c0b565b840191505092915050565b620031658162002704565b82525050565b6000604082019050818103600083015262003187818562003119565b90506200319860208301846200315a565b9392505050565b7f4e6f742061206d656d6265720000000000000000000000000000000000000000600082015250565b6000620031d7600c8362002d57565b9150620031e4826200319f565b602082019050919050565b600060208201905081810360008301526200320a81620031c8565b9050919050565b7f496e76616c6964206465706f73697420616d6f756e7400000000000000000000600082015250565b60006200324960168362002d57565b9150620032568262003211565b602082019050919050565b600060208201905081810360008301526200327c816200323a565b9050919050565b7f4e487b7100000000000000000000000000000000000000000000000000000000600052601160045260246000fd5b6000620032bf82620025ca565b9150620032cc83620025ca565b9250828201905080821115620032e757620032e662003283565b5b92915050565b60006040820190506200330460008301856200250d565b62003313602083018462002e83565b9392505050565b7f496e76616c69642070657263656e7461676520616d6f756e7400000000000000600082015250565b60006200335260198362002d57565b91506200335f826200331a565b602082019050919050565b60006020820190508181036000830152620033858162003343565b9050919050565b7f496e697469616c697a61626c653a20636f6e747261637420697320616c72656160008201527f647920696e697469616c697a6564000000000000000000000000000000000000602082015250565b6000620033ea602e8362002d57565b9150620033f7826200338c565b604082019050919050565b600060208201905081810360008301526200341d81620033db565b9050919050565b6200342f816200254a565b82525050565b60006020820190506200344c600083018462003424565b92915050565b6000819050919050565b60006200347d62003477620034718462003452565b62002eee565b62002704565b9050919050565b6200348f816200345c565b82525050565b6000602082019050620034ac600083018462003484565b92915050565b7f547265617375727920646f6573206e6f7420686176652064656e6f6d696e617460008201527f65642063757272656e6379000000000000000000000000000000000000000000602082015250565b600062003510602b8362002d57565b91506200351d82620034b2565b604082019050919050565b60006020820190508181036000830152620035438162003501565b9050919050565b60006060820190506200356160008301866200250d565b6200357060208301856200250d565b6200357f604083018462002e83565b949350505050565b600062003595828962003016565b600182019150620035a782886200303b565b602082019150620035b982876200303b565b602082019150620035cb82866200303b565b602082019150620035dd82856200303b565b602082019150620035ef828462003060565b602082019150819050979650505050505050565b6000819050919050565b60006200362e62003628620036228462003603565b62002eee565b62002704565b9050919050565b62003640816200360d565b82525050565b6000604082019050818103600083015262003662818562003119565b905062003673602083018462003635565b9392505050565b60808201600082015162003692600085018262002a3c565b506020820151620036a7602085018262002a3c565b506040820151620036bc604085018262002a3c565b506060820151620036d1606085018262002acd565b50505050565b6000608082019050620036ee60008301846200367a565b92915050565b7f496e76616c69642064656e6f6d696e617465642063757272656e637921000000600082015250565b60006200372c601d8362002d57565b91506200373982620036f4565b602082019050919050565b600060208201905081810360008301526200375f816200371d565b9050919050565b7f496e76616c6964204554482073656e6465722061646472657373000000000000600082015250565b60006200379e601a8362002d57565b9150620037ab8262003766565b602082019050919050565b60006020820190508181036000830152620037d1816200378f565b9050919050565b7f496e76616c69642064657374696e6174696f6e20455448206164647265737300600082015250565b600062003810601f8362002d57565b91506200381d82620037d8565b602082019050919050565b60006020820190508181036000830152620038438162003801565b9050919050565b7f43616e27742073656c6c2073686172657320696e206e6174697665206375727260008201527f656e637900000000000000000000000000000000000000000000000000000000602082015250565b6000620038a860248362002d57565b9150620038b5826200384a565b604082019050919050565b60006020820190508181036000830152620038db8162003899565b9050919050565b7f496e76616c69642073656c6c2073686172657320616d6f756e74000000000000600082015250565b60006200391a601a8362002d57565b91506200392782620038e2565b602082019050919050565b600060208201905081810360008301526200394d816200390b565b9050919050565b7f4d656d62657220616c7265647920696e20636c75622100000000000000000000600082015250565b60006200398c60168362002d57565b9150620039998262003954565b602082019050919050565b60006020820190508181036000830152620039bf816200397d565b9050919050565b6000620039d382620025ca565b9150620039e083620025ca565b9250828202620039f081620025ca565b9150828204841483151762003a0a5762003a0962003283565b5b5092915050565b7f4e487b7100000000000000000000000000000000000000000000000000000000600052601260045260246000fd5b600062003a4d82620025ca565b915062003a5a83620025ca565b92508262003a6d5762003a6c62003a11565b5b82820490509291505056fe608060405234801561001057600080fd5b506040516104c83803806104c8833981810160405281019061003291906100db565b806000806101000a81548173ffffffffffffffffffffffffffffffffffffffff021916908373ffffffffffffffffffffffffffffffffffffffff16021790555050610108565b600080fd5b600073ffffffffffffffffffffffffffffffffffffffff82169050919050565b60006100a88261007d565b9050919050565b6100b88161009d565b81146100c357600080fd5b50565b6000815190506100d5816100af565b92915050565b6000602082840312156100f1576100f0610078565b5b60006100ff848285016100c6565b91505092915050565b6103b1806101176000396000f3fe6080604052600436106100225760003560e01c80633e0a943c1461002e57610029565b3661002957005b600080fd5b6100486004803603810190610043919061022c565b61004a565b005b600073ffffffffffffffffffffffffffffffffffffffff168273ffffffffffffffffffffffffffffffffffffffff16036100ca578273ffffffffffffffffffffffffffffffffffffffff166108fc829081150290604051600060405180830381858888f193505050501580156100c4573d6000803e3d6000fd5b50610150565b60008290508073ffffffffffffffffffffffffffffffffffffffff1663a9059cbb85846040518363ffffffff1660e01b815260040161010a9291906102ed565b6020604051808303816000875af1158015610129573d6000803e3d6000fd5b505050506040513d601f19601f8201168201806040525081019061014d919061034e565b50505b505050565b600080fd5b600073ffffffffffffffffffffffffffffffffffffffff82169050919050565b60006101858261015a565b9050919050565b6101958161017a565b81146101a057600080fd5b50565b6000813590506101b28161018c565b92915050565b60006101c38261015a565b9050919050565b6101d3816101b8565b81146101de57600080fd5b50565b6000813590506101f0816101ca565b92915050565b6000819050919050565b610209816101f6565b811461021457600080fd5b50565b60008135905061022681610200565b92915050565b60008060006060848603121561024557610244610155565b5b6000610253868287016101a3565b9350506020610264868287016101e1565b925050604061027586828701610217565b9150509250925092565b6000819050919050565b60006102a461029f61029a8461015a565b61027f565b61015a565b9050919050565b60006102b682610289565b9050919050565b60006102c8826102ab565b9050919050565b6102d8816102bd565b82525050565b6102e7816101f6565b82525050565b600060408201905061030260008301856102cf565b61030f60208301846102de565b9392505050565b60008115159050919050565b61032b81610316565b811461033657600080fd5b50565b60008151905061034881610322565b92915050565b60006020828403121561036457610363610155565b5b600061037284828501610339565b9150509291505056fea2646970667358221220549f975cb70b057b74614d3ae8fc047b21f4e0d5997bff2772dcf0831cefc92464736f6c63430008130033a2646970667358221220f12460c056c3c3a7b33114caf9dbe768a8206c4c85b8543a11ac307c04e5ce3964736f6c63430008130033",
  "immutableReferences": {},
  "source": "// SPDX-License-Identifier: Apache 2\npragma solidity 0.8.19;\nimport \"@openzeppelin/contracts-upgradeable/proxy/utils/Initializable.sol\";\nimport \"../structs/UnqWormholeStructs.sol\";\nimport \"@openzeppelin/contracts/token/ERC20/ERC20.sol\";\nimport \"../interface/IWormhole.sol\";\nimport \"../Wormhole/WormholeUnq.sol\";\nimport \"./UnqEscrow.sol\";\n\ncontract UnqTreasury is Initializable {\n    bytes32 _solanaTreasury;\n    bytes32 _treasuryAuthority;\n    address _denominatedCurrency;\n    WormholeUnq factory_contract;\n    uint256 _platformFeePercentage;\n    address _escrowAddress;\n    address _platformFeeDestination;\n    mapping(bytes32 => UnqWormholeStructs.MemberData) members;\n    address _relayerSigner;\n    mapping(address => uint256) memberDeposits;\n\n    uint256 MULTIPLIER = 10000;\n\n    constructor() {\n        _disableInitializers();\n    }\n\n    modifier nonExistingMember(\n        UnqWormholeStructs.AddMemberAction memory member\n    ) {\n        require(\n            members[member.solanaAddress].solanaAddress == bytes32(0),\n            \"Member alredy in club!\"\n        );\n        _;\n    }\n\n    modifier onlyAuthority(bytes32 authority) {\n        require(authority == _treasuryAuthority, \"Invalid permission\");\n        _;\n    }\n\n    modifier existingMember(bytes32 solanaAddress, address ethereumAddress) {\n        require(\n            members[solanaAddress].ethAddress == ethereumAddress,\n            \"Wrong Ethereum destination address!\"\n        );\n        _;\n    }\n\n    modifier onlyTreasuryMembers(\n        bytes32 senderSolanaAddress,\n        address senderEthAddress,\n        bytes32 receiverSolanaAddress,\n        address receiverEthAddress\n    ) {\n        UnqWormholeStructs.MemberData memory sender = members[\n            senderSolanaAddress\n        ];\n\n        require(\n            sender.ethAddress == senderEthAddress,\n            \"Invalid ETH sender address\"\n        );\n\n        UnqWormholeStructs.MemberData memory receiver = members[\n            receiverSolanaAddress\n        ];\n\n        require(\n            receiver.ethAddress == receiverEthAddress,\n            \"Invalid destination ETH address\"\n        );\n\n        _;\n    }\n\n    modifier onlyRelayerSigner() {\n        require(tx.origin == _relayerSigner, \"Invalid authority call!\");\n        _;\n    }\n\n    modifier denominatedCurrencyRestrict() {\n        require(\n            _denominatedCurrency != address(0),\n            \"Invalid denominated currency!\"\n        );\n\n        _;\n    }\n\n    event MemberAddedEvent(UnqWormholeStructs.MemberData);\n    event DepositEvent(uint256);\n    event WithdrawFundsEvent(uint256);\n    event TransferFundsEvent(uint256);\n    event TreasuryCreatedEvent(bytes32);\n    event SharesBoughtEvent(UnqWormholeStructs.SharesBought);\n    event ClaimFundsEvent(uint256);\n\n    function initialize(\n        bytes32 solanaTreasury,\n        bytes32 treasuryAuthority,\n        address denominatedCurrency,\n        address factoryContract,\n        address creator,\n        address relayerSigner,\n        address platformFeeDestination,\n        uint256 platformFeePercentage\n    ) external initializer {\n        _solanaTreasury = solanaTreasury;\n\n        _treasuryAuthority = treasuryAuthority;\n\n        _denominatedCurrency = denominatedCurrency;\n\n        factory_contract = WormholeUnq(factoryContract);\n\n        _relayerSigner = relayerSigner;\n\n        _platformFeeDestination = platformFeeDestination;\n\n        _platformFeePercentage = platformFeePercentage;\n\n        UnqEscrow escrowContract = new UnqEscrow(address(this));\n\n        _escrowAddress = address(escrowContract);\n\n        members[treasuryAuthority] = UnqWormholeStructs.MemberData({\n            solanaAddress: treasuryAuthority,\n            ethAddress: creator,\n            status: UnqWormholeStructs.MemberStatus.Accepted,\n            joinedAt: block.timestamp,\n            solanaTreasury: _solanaTreasury\n        });\n\n        emit TreasuryCreatedEvent(solanaTreasury);\n    }\n\n    function addNewMember(\n        UnqWormholeStructs.AddMemberAction memory newMember\n    ) external nonExistingMember(newMember) onlyRelayerSigner {\n        UnqWormholeStructs.MemberData memory memberData = UnqWormholeStructs\n            .MemberData({\n                solanaTreasury: _solanaTreasury,\n                solanaAddress: newMember.solanaAddress,\n                ethAddress: newMember.ethAddress,\n                status: UnqWormholeStructs.MemberStatus.Accepted,\n                joinedAt: block.timestamp\n            });\n        members[newMember.solanaAddress] = memberData;\n        emit MemberAddedEvent(memberData);\n    }\n\n    function receiveFunds(\n        bytes32 memberAddress,\n        uint8 nonce\n    ) external payable existingMember(memberAddress, msg.sender) {\n        bytes memory vaaBytes = abi.encodePacked(\n            uint8(0),\n            _solanaTreasury,\n            memberAddress,\n            msg.value\n        );\n        factory_contract.pushWomrholeMessage(vaaBytes, nonce);\n        require(\n            members[memberAddress].status ==\n                UnqWormholeStructs.MemberStatus.Accepted,\n            \"Not a member\"\n        );\n\n        require(msg.value >= 1000000000 wei, \"Invalid deposit amount\");\n\n        memberDeposits[tx.origin] += msg.value;\n\n        transferFees(msg.value);\n\n        emit DepositEvent(msg.value);\n    }\n\n    function getMemberData(\n        bytes32 memberAddress\n    ) public view returns (UnqWormholeStructs.MemberData memory) {\n        return members[memberAddress];\n    }\n\n    function transferFunds(\n        address payable destination,\n        uint256 amount,\n        address currency\n    ) external onlyRelayerSigner {\n        if (currency == address(0)) {\n            destination.transfer(amount);\n        } else {\n            ERC20 denominatedToken = ERC20(currency);\n            denominatedToken.transfer(destination, amount);\n        }\n        emit TransferFundsEvent(amount);\n    }\n\n    function withdrawFunds(\n        bytes32 solanaAddress,\n        address payable destination,\n        uint256 amount,\n        address currency\n    ) external existingMember(solanaAddress, destination) onlyRelayerSigner {\n        if (currency == address(0)) {\n            destination.transfer(amount);\n        } else {\n            ERC20 token = ERC20(currency);\n            token.transfer(destination, amount);\n        }\n        emit WithdrawFundsEvent(amount);\n    }\n\n    function sellFinancialRights(\n        address payable receiver,\n        bytes32 treasury,\n        bytes32 financialOffer,\n        bytes32 seller,\n        bytes32 buyer\n    ) public payable onlyTreasuryMembers(buyer, msg.sender, seller, receiver) {\n        require(\n            _denominatedCurrency == address(0),\n            \"Can't sell shares in native currency\"\n        );\n\n        receiver.transfer(msg.value);\n\n        require(msg.value >= 1000000000 wei, \"Invalid sell shares amount\");\n\n        bytes memory encodedPayload = abi.encodePacked(\n            uint8(1),\n            treasury,\n            buyer,\n            financialOffer,\n            seller,\n            msg.value\n        );\n\n        factory_contract.pushWomrholeMessage(encodedPayload, 0);\n\n        emit SharesBoughtEvent(\n            UnqWormholeStructs.SharesBought({\n                buyer: buyer,\n                seller: seller,\n                solanaTreasury: treasury,\n                amount: msg.value\n            })\n        );\n    }\n\n    function claimFunds(\n        bytes32 solanaAddress,\n        address payable destination,\n        uint256 amount,\n        address currency\n    ) public onlyRelayerSigner existingMember(solanaAddress, destination) {\n        UnqEscrow escrow = UnqEscrow(payable(_escrowAddress));\n\n        escrow.transferToMember(destination, currency, amount);\n\n        emit ClaimFundsEvent(amount);\n    }\n\n    function sellSharesDenominatedCurrency(\n        bytes32 sellerSolanaAddress,\n        bytes32 buyerSolanaAddress,\n        bytes32 treasury,\n        address receiver,\n        bytes32 financialOffer,\n        uint256 amount\n    ) public payable {\n        require(\n            _denominatedCurrency != address(0),\n            \"Treasury does not have denominated currency\"\n        );\n        ERC20 token = ERC20(_denominatedCurrency);\n        token.transferFrom(msg.sender, receiver, amount);\n        bytes memory encodedVaa = abi.encodePacked(\n            uint8(1),\n            treasury,\n            buyerSolanaAddress,\n            financialOffer,\n            sellerSolanaAddress,\n            amount\n        );\n        factory_contract.pushWomrholeMessage(encodedVaa, 0);\n\n        emit SharesBoughtEvent(\n            UnqWormholeStructs.SharesBought({\n                buyer: buyerSolanaAddress,\n                seller: sellerSolanaAddress,\n                solanaTreasury: treasury,\n                amount: amount\n            })\n        );\n    }\n\n    function executeWithdrawal(\n        address currency,\n        uint256 amount\n    ) public payable onlyRelayerSigner {\n        if (currency == address(0)) {\n            payable(_escrowAddress).transfer(amount);\n        } else {\n            ERC20 token = ERC20(currency);\n            token.transfer(_escrowAddress, amount);\n        }\n    }\n\n    function getEscrowAddress() public view returns (address) {\n        return _escrowAddress;\n    }\n\n    function depositDenominatedCurrency(\n        bytes32 solanaAddress,\n        uint256 amount,\n        uint8 nonce\n    )\n        public\n        payable\n        denominatedCurrencyRestrict\n        existingMember(solanaAddress, msg.sender)\n    {\n        bytes memory vaaBytes = abi.encodePacked(\n            uint8(0),\n            _solanaTreasury,\n            solanaAddress,\n            amount\n        );\n        factory_contract.pushWomrholeMessage(vaaBytes, nonce);\n        ERC20 token = ERC20(_denominatedCurrency);\n\n        token.transferFrom(msg.sender, address(this), amount);\n\n        transferFees(amount);\n\n        memberDeposits[msg.sender] += amount;\n\n        emit DepositEvent(amount);\n    }\n\n    function getDenominatedCurrency() public view returns (address) {\n        return _denominatedCurrency;\n    }\n\n    function setPlatformFees(\n        address payable destination,\n        uint256 percentage\n    ) external onlyRelayerSigner {\n        if (percentage < 0 || percentage > 10000) {\n            revert(\"Invalid percentage amount\");\n        }\n\n        _platformFeeDestination = destination;\n        _platformFeePercentage = percentage;\n    }\n\n    function calculatePercentageAmount(\n        uint256 depositAmount\n    ) private view returns (uint256 fee) {\n        if (_platformFeePercentage == 0) return 0;\n\n        fee =\n            (depositAmount / MULTIPLIER) *\n            ((_platformFeePercentage * MULTIPLIER) / 100);\n    }\n\n    function transferFees(uint256 depositAmount) public payable {\n        uint256 feeAmount = calculatePercentageAmount(depositAmount);\n        if (_denominatedCurrency != address(0)) {\n            ERC20 token = ERC20(_denominatedCurrency);\n\n            token.transfer(_platformFeeDestination, feeAmount);\n        } else {\n            payable(_platformFeeDestination).transfer(feeAmount);\n        }\n    }\n}\n",
  "sourcePath": "/Users/gorangutovic/Desktop/unique/unq-treasury-eth/contracts/Treasury/UnqTreasury.sol",
  "compiler": {
    "name": "solc",
    "version": "0.8.19+commit.7dd6d404.Emscripten.clang"
  },
  "schemaVersion": "3.4.11",
  "updatedAt": "2023-05-26T08:48:11.812Z",
  "networkType": "ethereum",
  "devdoc": {
    "events": {
      "Initialized(uint8)": {
        "details": "Triggered when the contract has been initialized or reinitialized."
      }
    },
    "kind": "dev",
    "methods": {},
    "version": 1
  },
  "userdoc": {
    "kind": "user",
    "methods": {},
    "version": 1
  }
}