{
  "contractName": "UnqTreasury",
  "abi": [
    {
      "inputs": [],
      "stateMutability": "nonpayable",
      "type": "constructor"
    },
    {
      "anonymous": false,
      "inputs": [
        {
          "indexed": false,
          "internalType": "uint8",
          "name": "version",
          "type": "uint8"
        }
      ],
      "name": "Initialized",
      "type": "event"
    },
    {
      "anonymous": false,
      "inputs": [
        {
          "components": [
            {
              "internalType": "bytes32",
              "name": "realmAddress",
              "type": "bytes32"
            },
            {
              "internalType": "bytes32",
              "name": "solanaAddress",
              "type": "bytes32"
            },
            {
              "internalType": "enum UnqWormholeStructs.MemberStatus",
              "name": "status",
              "type": "uint8"
            },
            {
              "internalType": "uint256",
              "name": "joinedAt",
              "type": "uint256"
            },
            {
              "internalType": "address",
              "name": "ethAddress",
              "type": "address"
            }
          ],
          "indexed": false,
          "internalType": "struct UnqWormholeStructs.MemberData",
          "name": "",
          "type": "tuple"
        }
      ],
      "name": "MemberAddedEvent",
      "type": "event"
    },
    {
      "inputs": [
        {
          "internalType": "bytes32",
          "name": "realmAddress",
          "type": "bytes32"
        },
        {
          "internalType": "bytes32",
          "name": "treasuryAuthority",
          "type": "bytes32"
        },
        {
          "internalType": "address",
          "name": "denominatedCurrency",
          "type": "address"
        },
        {
          "internalType": "address",
          "name": "wormholeBridge",
          "type": "address"
        }
      ],
      "name": "initialize",
      "outputs": [],
      "stateMutability": "nonpayable",
      "type": "function"
    },
    {
      "inputs": [
        {
          "components": [
            {
              "internalType": "uint8",
              "name": "action",
              "type": "uint8"
            },
            {
              "internalType": "bytes32",
              "name": "realmAddress",
              "type": "bytes32"
            },
            {
              "internalType": "bytes32",
              "name": "solanaAddress",
              "type": "bytes32"
            },
            {
              "internalType": "bytes32",
              "name": "authority",
              "type": "bytes32"
            },
            {
              "internalType": "address",
              "name": "ethAddress",
              "type": "address"
            }
          ],
          "internalType": "struct UnqWormholeStructs.AddMemberAction",
          "name": "newMember",
          "type": "tuple"
        }
      ],
      "name": "addNewMember",
      "outputs": [],
      "stateMutability": "nonpayable",
      "type": "function"
    },
    {
      "inputs": [
        {
          "internalType": "bytes32",
          "name": "memberAddress",
          "type": "bytes32"
        }
      ],
      "name": "receiveFunds",
      "outputs": [],
      "stateMutability": "payable",
      "type": "function",
      "payable": true
    },
    {
      "inputs": [
        {
          "internalType": "bytes32",
          "name": "memberAddress",
          "type": "bytes32"
        }
      ],
      "name": "getMemberData",
      "outputs": [
        {
          "components": [
            {
              "internalType": "bytes32",
              "name": "realmAddress",
              "type": "bytes32"
            },
            {
              "internalType": "bytes32",
              "name": "solanaAddress",
              "type": "bytes32"
            },
            {
              "internalType": "enum UnqWormholeStructs.MemberStatus",
              "name": "status",
              "type": "uint8"
            },
            {
              "internalType": "uint256",
              "name": "joinedAt",
              "type": "uint256"
            },
            {
              "internalType": "address",
              "name": "ethAddress",
              "type": "address"
            }
          ],
          "internalType": "struct UnqWormholeStructs.MemberData",
          "name": "",
          "type": "tuple"
        }
      ],
      "stateMutability": "view",
      "type": "function",
      "constant": true
    },
    {
      "inputs": [
        {
          "internalType": "address payable",
          "name": "destination",
          "type": "address"
        },
        {
          "internalType": "uint256",
          "name": "amount",
          "type": "uint256"
        }
      ],
      "name": "transferFunds",
      "outputs": [],
      "stateMutability": "nonpayable",
      "type": "function"
    },
    {
      "inputs": [
        {
          "internalType": "bytes32",
          "name": "solanaAddress",
          "type": "bytes32"
        },
        {
          "internalType": "address payable",
          "name": "destination",
          "type": "address"
        },
        {
          "internalType": "uint256",
          "name": "amount",
          "type": "uint256"
        }
      ],
      "name": "claimReward",
      "outputs": [],
      "stateMutability": "nonpayable",
      "type": "function"
    },
    {
      "inputs": [
        {
          "internalType": "bytes32",
          "name": "solanaAddress",
          "type": "bytes32"
        },
        {
          "internalType": "uint256",
          "name": "amount",
          "type": "uint256"
        }
      ],
      "name": "depositDenominatedCurrency",
      "outputs": [],
      "stateMutability": "nonpayable",
      "type": "function"
    },
    {
      "inputs": [],
      "name": "getDenominatedCurrency",
      "outputs": [
        {
          "internalType": "address",
          "name": "",
          "type": "address"
        }
      ],
      "stateMutability": "view",
      "type": "function",
      "constant": true
    }
  ],
  "bytecode": "0x60806040523480156200001157600080fd5b50620000226200002860201b60201c565b620001d3565b600060019054906101000a900460ff16156200007b576040517f08c379a0000000000000000000000000000000000000000000000000000000008152600401620000729062000176565b60405180910390fd5b60ff801660008054906101000a900460ff1660ff161015620000ed5760ff6000806101000a81548160ff021916908360ff1602179055507f7f26b83ff96e1f2b6a682f133852f6798a09c465da95921460cefb384740249860ff604051620000e49190620001b6565b60405180910390a15b565b600082825260208201905092915050565b7f496e697469616c697a61626c653a20636f6e747261637420697320696e69746960008201527f616c697a696e6700000000000000000000000000000000000000000000000000602082015250565b60006200015e602783620000ef565b91506200016b8262000100565b604082019050919050565b6000602082019050818103600083015262000191816200014f565b9050919050565b600060ff82169050919050565b620001b08162000198565b82525050565b6000602082019050620001cd6000830184620001a5565b92915050565b611cd080620001e36000396000f3fe60806040526004361061007b5760003560e01c80639548f3e51161004e5780639548f3e514610124578063990dc9db14610140578063c74e249314610169578063f25dfaf7146101a65761007b565b80631f57365e146100805780634675f125146100a9578063606a2bf3146100d257806363f66834146100fb575b600080fd5b34801561008c57600080fd5b506100a760048036038101906100a291906110f8565b6101d1565b005b3480156100b557600080fd5b506100d060048036038101906100cb91906112b5565b610497565b005b3480156100de57600080fd5b506100f960048036038101906100f49190611318565b610640565b005b34801561010757600080fd5b50610122600480360381019061011d9190611396565b610804565b005b61013e600480360381019061013991906113e9565b610a8d565b005b34801561014c57600080fd5b5061016760048036038101906101629190611416565b610c47565b005b34801561017557600080fd5b50610190600480360381019061018b91906113e9565b610e27565b60405161019d9190611562565b60405180910390f35b3480156101b257600080fd5b506101bb610f03565b6040516101c8919061158c565b60405180910390f35b60008060019054906101000a900460ff161590508080156102025750600160008054906101000a900460ff1660ff16105b8061022f575061021130610f2d565b15801561022e5750600160008054906101000a900460ff1660ff16145b5b61026e576040517f08c379a00000000000000000000000000000000000000000000000000000000081526004016102659061162a565b60405180910390fd5b60016000806101000a81548160ff021916908360ff16021790555080156102ab576001600060016101000a81548160ff0219169083151502179055505b846001819055508360028190555082600360006101000a81548173ffffffffffffffffffffffffffffffffffffffff021916908373ffffffffffffffffffffffffffffffffffffffff16021790555081600460006101000a81548173ffffffffffffffffffffffffffffffffffffffff021916908373ffffffffffffffffffffffffffffffffffffffff1602179055506040518060a00160405280600154815260200185815260200160018081111561036757610366611465565b5b81526020014281526020013273ffffffffffffffffffffffffffffffffffffffff1681525060056000868152602001908152602001600020600082015181600001556020820151816001015560408201518160020160006101000a81548160ff021916908360018111156103de576103dd611465565b5b02179055506060820151816003015560808201518160040160006101000a81548173ffffffffffffffffffffffffffffffffffffffff021916908373ffffffffffffffffffffffffffffffffffffffff16021790555090505080156104905760008060016101000a81548160ff0219169083151502179055507f7f26b83ff96e1f2b6a682f133852f6798a09c465da95921460cefb38474024986001604051610487919061168f565b60405180910390a15b5050505050565b806000801b600560008360400151815260200190815260200160002060010154146104f7576040517f08c379a00000000000000000000000000000000000000000000000000000000081526004016104ee906116f6565b60405180910390fd5b60006040518060a0016040528060015481526020018460400151815260200160018081111561052957610528611465565b5b8152602001428152602001846080015173ffffffffffffffffffffffffffffffffffffffff168152509050806005600085604001518152602001908152602001600020600082015181600001556020820151816001015560408201518160020160006101000a81548160ff021916908360018111156105ab576105aa611465565b5b02179055506060820151816003015560808201518160040160006101000a81548173ffffffffffffffffffffffffffffffffffffffff021916908373ffffffffffffffffffffffffffffffffffffffff1602179055509050507f2034f42176ad2fb457ff86d86cfb31612b60d88b9f42a8af6d3e5d316a12eb6a816040516106339190611562565b60405180910390a1505050565b600073ffffffffffffffffffffffffffffffffffffffff16600360009054906101000a900473ffffffffffffffffffffffffffffffffffffffff1673ffffffffffffffffffffffffffffffffffffffff16036106d1576040517f08c379a00000000000000000000000000000000000000000000000000000000081526004016106c890611762565b60405180910390fd5b6000600360009054906101000a900473ffffffffffffffffffffffffffffffffffffffff1690508073ffffffffffffffffffffffffffffffffffffffff166323b872dd3330856040518463ffffffff1660e01b815260040161073593929190611791565b6020604051808303816000875af1158015610754573d6000803e3d6000fd5b505050506040513d601f19601f820116820180604052508101906107789190611800565b5081600760003373ffffffffffffffffffffffffffffffffffffffff1673ffffffffffffffffffffffffffffffffffffffff16815260200190815260200160002060008282546107c8919061185c565b92505081905550600083836040516020016107e49291906118d2565b60405160208183030381529060405290506107fe81610f50565b50505050565b82828073ffffffffffffffffffffffffffffffffffffffff166005600084815260200190815260200160002060040160009054906101000a900473ffffffffffffffffffffffffffffffffffffffff1673ffffffffffffffffffffffffffffffffffffffff16146108aa576040517f08c379a00000000000000000000000000000000000000000000000000000000081526004016108a190611970565b60405180910390fd5b600660009054906101000a900473ffffffffffffffffffffffffffffffffffffffff1673ffffffffffffffffffffffffffffffffffffffff163273ffffffffffffffffffffffffffffffffffffffff161461093a576040517f08c379a0000000000000000000000000000000000000000000000000000000008152600401610931906119dc565b60405180910390fd5b600073ffffffffffffffffffffffffffffffffffffffff16600360009054906101000a900473ffffffffffffffffffffffffffffffffffffffff1673ffffffffffffffffffffffffffffffffffffffff16146109dc578373ffffffffffffffffffffffffffffffffffffffff166108fc849081150290604051600060405180830381858888f193505050501580156109d6573d6000803e3d6000fd5b50610a86565b6000600360009054906101000a900473ffffffffffffffffffffffffffffffffffffffff1690508073ffffffffffffffffffffffffffffffffffffffff166323b872dd3087876040518463ffffffff1660e01b8152600401610a4093929190611a51565b6020604051808303816000875af1158015610a5f573d6000803e3d6000fd5b505050506040513d601f19601f82011682018060405250810190610a839190611800565b50505b5050505050565b80338073ffffffffffffffffffffffffffffffffffffffff166005600084815260200190815260200160002060040160009054906101000a900473ffffffffffffffffffffffffffffffffffffffff1673ffffffffffffffffffffffffffffffffffffffff1614610b33576040517f08c379a0000000000000000000000000000000000000000000000000000000008152600401610b2a90611970565b60405180910390fd5b600180811115610b4657610b45611465565b5b6005600085815260200190815260200160002060020160009054906101000a900460ff166001811115610b7c57610b7b611465565b5b14610bbc576040517f08c379a0000000000000000000000000000000000000000000000000000000008152600401610bb390611ad4565b60405180910390fd5b34600760003273ffffffffffffffffffffffffffffffffffffffff1673ffffffffffffffffffffffffffffffffffffffff1681526020019081526020016000206000828254610c0b919061185c565b9250508190555060008334604051602001610c279291906118d2565b6040516020818303038152906040529050610c4181610f50565b50505050565b600660009054906101000a900473ffffffffffffffffffffffffffffffffffffffff1673ffffffffffffffffffffffffffffffffffffffff163273ffffffffffffffffffffffffffffffffffffffff1614610cd7576040517f08c379a0000000000000000000000000000000000000000000000000000000008152600401610cce906119dc565b60405180910390fd5b600073ffffffffffffffffffffffffffffffffffffffff16600360009054906101000a900473ffffffffffffffffffffffffffffffffffffffff1673ffffffffffffffffffffffffffffffffffffffff1614610d79578173ffffffffffffffffffffffffffffffffffffffff166108fc829081150290604051600060405180830381858888f19350505050158015610d73573d6000803e3d6000fd5b50610e23565b6000600360009054906101000a900473ffffffffffffffffffffffffffffffffffffffff1690508073ffffffffffffffffffffffffffffffffffffffff166323b872dd3085856040518463ffffffff1660e01b8152600401610ddd93929190611a51565b6020604051808303816000875af1158015610dfc573d6000803e3d6000fd5b505050506040513d601f19601f82011682018060405250810190610e209190611800565b50505b5050565b610e2f610ff8565b600560008381526020019081526020016000206040518060a001604052908160008201548152602001600182015481526020016002820160009054906101000a900460ff166001811115610e8657610e85611465565b5b6001811115610e9857610e97611465565b5b8152602001600382015481526020016004820160009054906101000a900473ffffffffffffffffffffffffffffffffffffffff1673ffffffffffffffffffffffffffffffffffffffff1673ffffffffffffffffffffffffffffffffffffffff16815250509050919050565b6000600360009054906101000a900473ffffffffffffffffffffffffffffffffffffffff16905090565b6000808273ffffffffffffffffffffffffffffffffffffffff163b119050919050565b600460009054906101000a900473ffffffffffffffffffffffffffffffffffffffff1673ffffffffffffffffffffffffffffffffffffffff1663b19a437e60008360006040518463ffffffff1660e01b8152600401610fb193929190611bef565b6020604051808303816000875af1158015610fd0573d6000803e3d6000fd5b505050506040513d601f19601f82011682018060405250810190610ff49190611c6d565b5050565b6040518060a0016040528060008019168152602001600080191681526020016000600181111561102b5761102a611465565b5b815260200160008152602001600073ffffffffffffffffffffffffffffffffffffffff1681525090565b6000604051905090565b600080fd5b6000819050919050565b61107781611064565b811461108257600080fd5b50565b6000813590506110948161106e565b92915050565b600073ffffffffffffffffffffffffffffffffffffffff82169050919050565b60006110c58261109a565b9050919050565b6110d5816110ba565b81146110e057600080fd5b50565b6000813590506110f2816110cc565b92915050565b600080600080608085870312156111125761111161105f565b5b600061112087828801611085565b945050602061113187828801611085565b9350506040611142878288016110e3565b9250506060611153878288016110e3565b91505092959194509250565b600080fd5b6000601f19601f8301169050919050565b7f4e487b7100000000000000000000000000000000000000000000000000000000600052604160045260246000fd5b6111ad82611164565b810181811067ffffffffffffffff821117156111cc576111cb611175565b5b80604052505050565b60006111df611055565b90506111eb82826111a4565b919050565b600060ff82169050919050565b611206816111f0565b811461121157600080fd5b50565b600081359050611223816111fd565b92915050565b600060a0828403121561123f5761123e61115f565b5b61124960a06111d5565b9050600061125984828501611214565b600083015250602061126d84828501611085565b602083015250604061128184828501611085565b604083015250606061129584828501611085565b60608301525060806112a9848285016110e3565b60808301525092915050565b600060a082840312156112cb576112ca61105f565b5b60006112d984828501611229565b91505092915050565b6000819050919050565b6112f5816112e2565b811461130057600080fd5b50565b600081359050611312816112ec565b92915050565b6000806040838503121561132f5761132e61105f565b5b600061133d85828601611085565b925050602061134e85828601611303565b9150509250929050565b60006113638261109a565b9050919050565b61137381611358565b811461137e57600080fd5b50565b6000813590506113908161136a565b92915050565b6000806000606084860312156113af576113ae61105f565b5b60006113bd86828701611085565b93505060206113ce86828701611381565b92505060406113df86828701611303565b9150509250925092565b6000602082840312156113ff576113fe61105f565b5b600061140d84828501611085565b91505092915050565b6000806040838503121561142d5761142c61105f565b5b600061143b85828601611381565b925050602061144c85828601611303565b9150509250929050565b61145f81611064565b82525050565b7f4e487b7100000000000000000000000000000000000000000000000000000000600052602160045260246000fd5b600281106114a5576114a4611465565b5b50565b60008190506114b682611494565b919050565b60006114c6826114a8565b9050919050565b6114d6816114bb565b82525050565b6114e5816112e2565b82525050565b6114f4816110ba565b82525050565b60a0820160008201516115106000850182611456565b5060208201516115236020850182611456565b50604082015161153660408501826114cd565b50606082015161154960608501826114dc565b50608082015161155c60808501826114eb565b50505050565b600060a08201905061157760008301846114fa565b92915050565b611586816110ba565b82525050565b60006020820190506115a1600083018461157d565b92915050565b600082825260208201905092915050565b7f496e697469616c697a61626c653a20636f6e747261637420697320616c72656160008201527f647920696e697469616c697a6564000000000000000000000000000000000000602082015250565b6000611614602e836115a7565b915061161f826115b8565b604082019050919050565b6000602082019050818103600083015261164381611607565b9050919050565b6000819050919050565b6000819050919050565b600061167961167461166f8461164a565b611654565b6111f0565b9050919050565b6116898161165e565b82525050565b60006020820190506116a46000830184611680565b92915050565b7f4d656d62657220616c7265647920696e20636c75622100000000000000000000600082015250565b60006116e06016836115a7565b91506116eb826116aa565b602082019050919050565b6000602082019050818103600083015261170f816116d3565b9050919050565b7f496e76616c69642064656e6f6d696e617465642063757272656e637921000000600082015250565b600061174c601d836115a7565b915061175782611716565b602082019050919050565b6000602082019050818103600083015261177b8161173f565b9050919050565b61178b816112e2565b82525050565b60006060820190506117a6600083018661157d565b6117b3602083018561157d565b6117c06040830184611782565b949350505050565b60008115159050919050565b6117dd816117c8565b81146117e857600080fd5b50565b6000815190506117fa816117d4565b92915050565b6000602082840312156118165761181561105f565b5b6000611824848285016117eb565b91505092915050565b7f4e487b7100000000000000000000000000000000000000000000000000000000600052601160045260246000fd5b6000611867826112e2565b9150611872836112e2565b925082820190508082111561188a5761188961182d565b5b92915050565b6000819050919050565b6118ab6118a682611064565b611890565b82525050565b6000819050919050565b6118cc6118c7826112e2565b6118b1565b82525050565b60006118de828561189a565b6020820191506118ee82846118bb565b6020820191508190509392505050565b7f57726f6e6720457468657265756d2064657374696e6174696f6e20616464726560008201527f7373210000000000000000000000000000000000000000000000000000000000602082015250565b600061195a6023836115a7565b9150611965826118fe565b604082019050919050565b600060208201905081810360008301526119898161194d565b9050919050565b7f496e76616c696420617574686f726974792063616c6c21000000000000000000600082015250565b60006119c66017836115a7565b91506119d182611990565b602082019050919050565b600060208201905081810360008301526119f5816119b9565b9050919050565b6000611a17611a12611a0d8461109a565b611654565b61109a565b9050919050565b6000611a29826119fc565b9050919050565b6000611a3b82611a1e565b9050919050565b611a4b81611a30565b82525050565b6000606082019050611a66600083018661157d565b611a736020830185611a42565b611a806040830184611782565b949350505050565b7f4e6f742061206d656d6265720000000000000000000000000000000000000000600082015250565b6000611abe600c836115a7565b9150611ac982611a88565b602082019050919050565b60006020820190508181036000830152611aed81611ab1565b9050919050565b6000819050919050565b600063ffffffff82169050919050565b6000611b29611b24611b1f84611af4565b611654565b611afe565b9050919050565b611b3981611b0e565b82525050565b600081519050919050565b600082825260208201905092915050565b60005b83811015611b79578082015181840152602081019050611b5e565b60008484015250505050565b6000611b9082611b3f565b611b9a8185611b4a565b9350611baa818560208601611b5b565b611bb381611164565b840191505092915050565b6000611bd9611bd4611bcf84611af4565b611654565b6111f0565b9050919050565b611be981611bbe565b82525050565b6000606082019050611c046000830186611b30565b8181036020830152611c168185611b85565b9050611c256040830184611be0565b949350505050565b600067ffffffffffffffff82169050919050565b611c4a81611c2d565b8114611c5557600080fd5b50565b600081519050611c6781611c41565b92915050565b600060208284031215611c8357611c8261105f565b5b6000611c9184828501611c58565b9150509291505056fea26469706673582212209ac8ab7a94e750eb0be4cef1aa22640484bfd15cba663493e44e7b6ff98aa51764736f6c63430008110033",
  "immutableReferences": {},
  "source": "// SPDX-License-Identifier: Apache 2\npragma solidity 0.8.17;\nimport \"@openzeppelin/contracts-upgradeable/proxy/utils/Initializable.sol\";\nimport \"../structs/UnqWormholeStructs.sol\";\nimport \"@openzeppelin/contracts/token/ERC20/ERC20.sol\";\nimport \"../interface/IWormhole.sol\";\n\ncontract UnqTreasury is Initializable {\n    bytes32 _realmAddress;\n    bytes32 _treasuryAuthority;\n    address _denominatedCurrency;\n    IWormhole core_contract;\n    mapping(bytes32 => UnqWormholeStructs.MemberData) members;\n    address _relayerSigner;\n    mapping(address => uint256) memberDeposits;\n\n    constructor() {\n        _disableInitializers();\n    }\n\n    //TODO:Make modifier that encodes address to bytes32 format and use it in every function that accepts bytes32 sender\n    modifier nonExistingMember(\n        UnqWormholeStructs.AddMemberAction memory member\n    ) {\n        require(\n            members[member.solanaAddress].solanaAddress == bytes32(0),\n            \"Member alredy in club!\"\n        );\n        _;\n    }\n\n    modifier onlyAuthority(bytes32 authority) {\n        require(authority == _treasuryAuthority, \"Invalid permission\");\n        _;\n    }\n\n    modifier existingMember(bytes32 solanaAddress, address ethereumAddress) {\n        require(\n            members[solanaAddress].ethAddress == ethereumAddress,\n            \"Wrong Ethereum destination address!\"\n        );\n        _;\n    }\n\n    modifier onlyRelayerSigner() {\n        require(tx.origin == _relayerSigner, \"Invalid authority call!\");\n        _;\n    }\n\n    modifier denominatedCurrencyRestrict() {\n        require(\n            _denominatedCurrency != address(0),\n            \"Invalid denominated currency!\"\n        );\n\n        _;\n    }\n\n    event MemberAddedEvent(UnqWormholeStructs.MemberData);\n\n    function initialize(\n        bytes32 realmAddress,\n        bytes32 treasuryAuthority,\n        address denominatedCurrency,\n        address wormholeBridge\n    ) external initializer {\n        _realmAddress = realmAddress;\n\n        _treasuryAuthority = treasuryAuthority;\n\n        _denominatedCurrency = denominatedCurrency;\n\n        core_contract = IWormhole(wormholeBridge);\n\n        members[treasuryAuthority] = UnqWormholeStructs.MemberData({\n            solanaAddress: treasuryAuthority,\n            ethAddress: tx.origin,\n            status: UnqWormholeStructs.MemberStatus.Accepted,\n            joinedAt: block.timestamp,\n            realmAddress: _realmAddress\n        });\n    }\n\n    function addNewMember(UnqWormholeStructs.AddMemberAction memory newMember)\n        external\n        nonExistingMember(newMember)\n    {\n        UnqWormholeStructs.MemberData memory memberData = UnqWormholeStructs\n            .MemberData({\n                realmAddress: _realmAddress,\n                solanaAddress: newMember.solanaAddress,\n                ethAddress: newMember.ethAddress,\n                status: UnqWormholeStructs.MemberStatus.Accepted,\n                joinedAt: block.timestamp\n            });\n        members[newMember.solanaAddress] = memberData;\n        emit MemberAddedEvent(memberData);\n    }\n\n    function receiveFunds(bytes32 memberAddress)\n        external\n        payable\n        existingMember(memberAddress, msg.sender)\n    {\n        require(\n            members[memberAddress].status ==\n                UnqWormholeStructs.MemberStatus.Accepted,\n            \"Not a member\"\n        );\n        memberDeposits[tx.origin] += msg.value;\n\n        bytes memory vaaBytes = abi.encodePacked(memberAddress, msg.value);\n        postVaa(vaaBytes);\n    }\n\n    function getMemberData(bytes32 memberAddress)\n        public\n        view\n        returns (UnqWormholeStructs.MemberData memory)\n    {\n        return members[memberAddress];\n    }\n\n    function transferFunds(address payable destination, uint256 amount)\n        external\n        onlyRelayerSigner\n    {\n        if (_denominatedCurrency != address(0)) {\n            destination.transfer(amount);\n        } else {\n            ERC20 token = ERC20(_denominatedCurrency);\n            token.transferFrom(address(this), destination, amount);\n        }\n    }\n\n    function claimReward(\n        bytes32 solanaAddress,\n        address payable destination,\n        uint256 amount\n    ) external existingMember(solanaAddress, destination) onlyRelayerSigner {\n        if (_denominatedCurrency != address(0)) {\n            destination.transfer(amount);\n        } else {\n            ERC20 token = ERC20(_denominatedCurrency);\n            token.transferFrom(address(this), destination, amount);\n        }\n    }\n\n    function depositDenominatedCurrency(bytes32 solanaAddress, uint256 amount)\n        public\n        denominatedCurrencyRestrict\n    {\n        ERC20 token = ERC20(_denominatedCurrency);\n\n        token.transferFrom(msg.sender, address(this), amount);\n        memberDeposits[msg.sender] += amount;\n\n        bytes memory vaaBytes = abi.encodePacked(solanaAddress, amount);\n        postVaa(vaaBytes);\n    }\n\n    function getDenominatedCurrency() public view returns (address) {\n        return _denominatedCurrency;\n    }\n\n    function postVaa(bytes memory payload) private {\n        //TODO:Use consistency level finalized on production.Check how to generate random nonce\n        core_contract.publishMessage(0, payload, 0);\n    }\n}\n",
  "sourcePath": "/Users/gorangutovic/Desktop/unique/unq-treasury-eth/contracts/Treasury/UnqTreasury.sol",
  "compiler": {
    "name": "solc",
    "version": "0.8.17+commit.8df45f5f.Emscripten.clang"
  },
  "schemaVersion": "3.4.11",
  "updatedAt": "2023-02-09T09:07:46.969Z",
  "networkType": "ethereum",
  "devdoc": {
    "kind": "dev",
    "methods": {},
    "version": 1
  },
  "userdoc": {
    "kind": "user",
    "methods": {},
    "version": 1
  }
}