{
  "contractName": "UnqTreasury",
  "abi": [
    {
      "inputs": [],
      "stateMutability": "nonpayable",
      "type": "constructor"
    },
    {
      "anonymous": false,
      "inputs": [
        {
          "indexed": false,
          "internalType": "uint256",
          "name": "",
          "type": "uint256"
        }
      ],
      "name": "ClaimFundsEvent",
      "type": "event"
    },
    {
      "anonymous": false,
      "inputs": [
        {
          "indexed": false,
          "internalType": "uint256",
          "name": "",
          "type": "uint256"
        }
      ],
      "name": "DepositEvent",
      "type": "event"
    },
    {
      "anonymous": false,
      "inputs": [
        {
          "indexed": false,
          "internalType": "uint8",
          "name": "version",
          "type": "uint8"
        }
      ],
      "name": "Initialized",
      "type": "event"
    },
    {
      "anonymous": false,
      "inputs": [
        {
          "components": [
            {
              "internalType": "bytes32",
              "name": "realmAddress",
              "type": "bytes32"
            },
            {
              "internalType": "bytes32",
              "name": "solanaAddress",
              "type": "bytes32"
            },
            {
              "internalType": "enum UnqWormholeStructs.MemberStatus",
              "name": "status",
              "type": "uint8"
            },
            {
              "internalType": "uint256",
              "name": "joinedAt",
              "type": "uint256"
            },
            {
              "internalType": "address",
              "name": "ethAddress",
              "type": "address"
            }
          ],
          "indexed": false,
          "internalType": "struct UnqWormholeStructs.MemberData",
          "name": "",
          "type": "tuple"
        }
      ],
      "name": "MemberAddedEvent",
      "type": "event"
    },
    {
      "anonymous": false,
      "inputs": [
        {
          "indexed": false,
          "internalType": "uint256",
          "name": "",
          "type": "uint256"
        }
      ],
      "name": "TransferFundsEvent",
      "type": "event"
    },
    {
      "inputs": [
        {
          "internalType": "bytes32",
          "name": "realmAddress",
          "type": "bytes32"
        },
        {
          "internalType": "bytes32",
          "name": "treasuryAuthority",
          "type": "bytes32"
        },
        {
          "internalType": "address",
          "name": "denominatedCurrency",
          "type": "address"
        },
        {
          "internalType": "address",
          "name": "factoryContract",
          "type": "address"
        },
        {
          "internalType": "address",
          "name": "creator",
          "type": "address"
        }
      ],
      "name": "initialize",
      "outputs": [],
      "stateMutability": "nonpayable",
      "type": "function"
    },
    {
      "inputs": [
        {
          "components": [
            {
              "internalType": "uint8",
              "name": "action",
              "type": "uint8"
            },
            {
              "internalType": "bytes32",
              "name": "realmAddress",
              "type": "bytes32"
            },
            {
              "internalType": "bytes32",
              "name": "solanaAddress",
              "type": "bytes32"
            },
            {
              "internalType": "address",
              "name": "ethAddress",
              "type": "address"
            }
          ],
          "internalType": "struct UnqWormholeStructs.AddMemberAction",
          "name": "newMember",
          "type": "tuple"
        }
      ],
      "name": "addNewMember",
      "outputs": [],
      "stateMutability": "nonpayable",
      "type": "function"
    },
    {
      "inputs": [
        {
          "internalType": "bytes32",
          "name": "memberAddress",
          "type": "bytes32"
        },
        {
          "internalType": "uint8",
          "name": "nonce",
          "type": "uint8"
        }
      ],
      "name": "receiveFunds",
      "outputs": [],
      "stateMutability": "payable",
      "type": "function",
      "payable": true
    },
    {
      "inputs": [
        {
          "internalType": "bytes32",
          "name": "memberAddress",
          "type": "bytes32"
        }
      ],
      "name": "getMemberData",
      "outputs": [
        {
          "components": [
            {
              "internalType": "bytes32",
              "name": "realmAddress",
              "type": "bytes32"
            },
            {
              "internalType": "bytes32",
              "name": "solanaAddress",
              "type": "bytes32"
            },
            {
              "internalType": "enum UnqWormholeStructs.MemberStatus",
              "name": "status",
              "type": "uint8"
            },
            {
              "internalType": "uint256",
              "name": "joinedAt",
              "type": "uint256"
            },
            {
              "internalType": "address",
              "name": "ethAddress",
              "type": "address"
            }
          ],
          "internalType": "struct UnqWormholeStructs.MemberData",
          "name": "",
          "type": "tuple"
        }
      ],
      "stateMutability": "view",
      "type": "function",
      "constant": true
    },
    {
      "inputs": [
        {
          "internalType": "address payable",
          "name": "destination",
          "type": "address"
        },
        {
          "internalType": "uint256",
          "name": "amount",
          "type": "uint256"
        }
      ],
      "name": "transferFunds",
      "outputs": [],
      "stateMutability": "nonpayable",
      "type": "function"
    },
    {
      "inputs": [
        {
          "internalType": "bytes32",
          "name": "solanaAddress",
          "type": "bytes32"
        },
        {
          "internalType": "address payable",
          "name": "destination",
          "type": "address"
        },
        {
          "internalType": "uint256",
          "name": "amount",
          "type": "uint256"
        }
      ],
      "name": "claimReward",
      "outputs": [],
      "stateMutability": "nonpayable",
      "type": "function"
    },
    {
      "inputs": [
        {
          "internalType": "address payable",
          "name": "receiver",
          "type": "address"
        },
        {
          "internalType": "bytes32",
          "name": "_clubAddress",
          "type": "bytes32"
        },
        {
          "internalType": "bytes32",
          "name": "treasury",
          "type": "bytes32"
        },
        {
          "internalType": "bytes32",
          "name": "financialOffer",
          "type": "bytes32"
        },
        {
          "internalType": "bytes32",
          "name": "seller",
          "type": "bytes32"
        },
        {
          "internalType": "bytes32",
          "name": "buyer",
          "type": "bytes32"
        }
      ],
      "name": "sellFinancialRights",
      "outputs": [],
      "stateMutability": "payable",
      "type": "function",
      "payable": true
    },
    {
      "inputs": [
        {
          "internalType": "bytes32",
          "name": "sellerSolanaAddress",
          "type": "bytes32"
        },
        {
          "internalType": "bytes32",
          "name": "buyerSolanaAddress",
          "type": "bytes32"
        },
        {
          "internalType": "bytes32",
          "name": "treasury",
          "type": "bytes32"
        },
        {
          "internalType": "address",
          "name": "receiver",
          "type": "address"
        },
        {
          "internalType": "bytes32",
          "name": "financialOffer",
          "type": "bytes32"
        },
        {
          "internalType": "uint128",
          "name": "amount",
          "type": "uint128"
        }
      ],
      "name": "sellSharesDenominatedCurrency",
      "outputs": [],
      "stateMutability": "payable",
      "type": "function",
      "payable": true
    },
    {
      "inputs": [
        {
          "internalType": "bytes32",
          "name": "solanaAddress",
          "type": "bytes32"
        },
        {
          "internalType": "uint256",
          "name": "amount",
          "type": "uint256"
        },
        {
          "internalType": "uint8",
          "name": "nonce",
          "type": "uint8"
        }
      ],
      "name": "depositDenominatedCurrency",
      "outputs": [],
      "stateMutability": "nonpayable",
      "type": "function"
    },
    {
      "inputs": [],
      "name": "getDenominatedCurrency",
      "outputs": [
        {
          "internalType": "address",
          "name": "",
          "type": "address"
        }
      ],
      "stateMutability": "view",
      "type": "function",
      "constant": true
    }
  ],
  "bytecode": "0x60806040523480156200001157600080fd5b50620000226200002860201b60201c565b620001d3565b600060019054906101000a900460ff16156200007b576040517f08c379a0000000000000000000000000000000000000000000000000000000008152600401620000729062000176565b60405180910390fd5b60ff801660008054906101000a900460ff1660ff161015620000ed5760ff6000806101000a81548160ff021916908360ff1602179055507f7f26b83ff96e1f2b6a682f133852f6798a09c465da95921460cefb384740249860ff604051620000e49190620001b6565b60405180910390a15b565b600082825260208201905092915050565b7f496e697469616c697a61626c653a20636f6e747261637420697320696e69746960008201527f616c697a696e6700000000000000000000000000000000000000000000000000602082015250565b60006200015e602783620000ef565b91506200016b8262000100565b604082019050919050565b6000602082019050818103600083015262000191816200014f565b9050919050565b600060ff82169050919050565b620001b08162000198565b82525050565b6000602082019050620001cd6000830184620001a5565b92915050565b61286280620001e36000396000f3fe6080604052600436106100915760003560e01c8063b8f01cfd11610059578063b8f01cfd14610149578063bd35f32114610165578063c74e24931461018e578063f25dfaf7146101cb578063fb1d97dc146101f657610091565b80631d978e4914610096578063392a6753146100b257806346499770146100ce57806363f66834146100f7578063990dc9db14610120575b600080fd5b6100b060048036038101906100ab91906116d4565b61021f565b005b6100cc60048036038101906100c791906117ba565b6104e4565b005b3480156100da57600080fd5b506100f560048036038101906100f09190611847565b6106e6565b005b34801561010357600080fd5b5061011e60048036038101906101199190611936565b6109ad565b005b34801561012c57600080fd5b5061014760048036038101906101429190611989565b610bdd565b005b610163600480360381019061015e91906119c9565b610c5f565b005b34801561017157600080fd5b5061018c60048036038101906101879190611a56565b6110d6565b005b34801561019a57600080fd5b506101b560048036038101906101b09190611aa9565b611327565b6040516101c29190611be2565b60405180910390f35b3480156101d757600080fd5b506101e0611403565b6040516101ed9190611c0c565b60405180910390f35b34801561020257600080fd5b5061021d60048036038101906102189190611d30565b61142d565b005b81338073ffffffffffffffffffffffffffffffffffffffff166005600084815260200190815260200160002060040160009054906101000a900473ffffffffffffffffffffffffffffffffffffffff1673ffffffffffffffffffffffffffffffffffffffff16146102c5576040517f08c379a00000000000000000000000000000000000000000000000000000000081526004016102bc90611de0565b60405180910390fd5b6001808111156102d8576102d7611ae5565b5b6005600086815260200190815260200160002060020160009054906101000a900460ff16600181111561030e5761030d611ae5565b5b1461034e576040517f08c379a000000000000000000000000000000000000000000000000000000000815260040161034590611e4c565b60405180910390fd5b633b9aca00341015610395576040517f08c379a000000000000000000000000000000000000000000000000000000000815260040161038c90611eb8565b60405180910390fd5b34600760003273ffffffffffffffffffffffffffffffffffffffff1673ffffffffffffffffffffffffffffffffffffffff16815260200190815260200160002060008282546103e49190611f07565b9250508190555060008060015486346040516020016104069493929190611fb3565b6040516020818303038152906040529050600460009054906101000a900473ffffffffffffffffffffffffffffffffffffffff1673ffffffffffffffffffffffffffffffffffffffff1663ac9a3db382866040518363ffffffff1660e01b815260040161047492919061208f565b600060405180830381600087803b15801561048e57600080fd5b505af11580156104a2573d6000803e3d6000fd5b505050507f0adeae8759aabaf58fb5029d7519173f1f604ef94b5a157fb8f6f2a6af34b13d346040516104d591906120ce565b60405180910390a15050505050565b600073ffffffffffffffffffffffffffffffffffffffff16600360009054906101000a900473ffffffffffffffffffffffffffffffffffffffff1673ffffffffffffffffffffffffffffffffffffffff1603610575576040517f08c379a000000000000000000000000000000000000000000000000000000000815260040161056c9061215b565b60405180910390fd5b6000600360009054906101000a900473ffffffffffffffffffffffffffffffffffffffff1690508073ffffffffffffffffffffffffffffffffffffffff166323b872dd3386856040518463ffffffff1660e01b81526004016105d9939291906121b6565b6020604051808303816000875af11580156105f8573d6000803e3d6000fd5b505050506040513d601f19601f8201168201806040525081019061061c9190612225565b50600060018688868b8760405160200161063b96959493929190612288565b6040516020818303038152906040529050600460009054906101000a900473ffffffffffffffffffffffffffffffffffffffff1673ffffffffffffffffffffffffffffffffffffffff1663ac9a3db38260006040518363ffffffff1660e01b81526004016106aa929190612333565b600060405180830381600087803b1580156106c457600080fd5b505af11580156106d8573d6000803e3d6000fd5b505050505050505050505050565b60008060019054906101000a900460ff161590508080156107175750600160008054906101000a900460ff1660ff16105b806107445750610726306115d6565b1580156107435750600160008054906101000a900460ff1660ff16145b5b610783576040517f08c379a000000000000000000000000000000000000000000000000000000000815260040161077a906123d5565b60405180910390fd5b60016000806101000a81548160ff021916908360ff16021790555080156107c0576001600060016101000a81548160ff0219169083151502179055505b856001819055508460028190555083600360006101000a81548173ffffffffffffffffffffffffffffffffffffffff021916908373ffffffffffffffffffffffffffffffffffffffff16021790555082600460006101000a81548173ffffffffffffffffffffffffffffffffffffffff021916908373ffffffffffffffffffffffffffffffffffffffff1602179055506040518060a00160405280600154815260200186815260200160018081111561087c5761087b611ae5565b5b81526020014281526020018373ffffffffffffffffffffffffffffffffffffffff1681525060056000878152602001908152602001600020600082015181600001556020820151816001015560408201518160020160006101000a81548160ff021916908360018111156108f3576108f2611ae5565b5b02179055506060820151816003015560808201518160040160006101000a81548173ffffffffffffffffffffffffffffffffffffffff021916908373ffffffffffffffffffffffffffffffffffffffff16021790555090505080156109a55760008060016101000a81548160ff0219169083151502179055507f7f26b83ff96e1f2b6a682f133852f6798a09c465da95921460cefb3847402498600160405161099c9190612430565b60405180910390a15b505050505050565b82828073ffffffffffffffffffffffffffffffffffffffff166005600084815260200190815260200160002060040160009054906101000a900473ffffffffffffffffffffffffffffffffffffffff1673ffffffffffffffffffffffffffffffffffffffff1614610a53576040517f08c379a0000000000000000000000000000000000000000000000000000000008152600401610a4a90611de0565b60405180910390fd5b600073ffffffffffffffffffffffffffffffffffffffff16600360009054906101000a900473ffffffffffffffffffffffffffffffffffffffff1673ffffffffffffffffffffffffffffffffffffffff1603610af5578373ffffffffffffffffffffffffffffffffffffffff166108fc849081150290604051600060405180830381858888f19350505050158015610aef573d6000803e3d6000fd5b50610b9f565b6000600360009054906101000a900473ffffffffffffffffffffffffffffffffffffffff1690508073ffffffffffffffffffffffffffffffffffffffff166323b872dd3087876040518463ffffffff1660e01b8152600401610b59939291906124a0565b6020604051808303816000875af1158015610b78573d6000803e3d6000fd5b505050506040513d601f19601f82011682018060405250810190610b9c9190612225565b50505b7f5057b927f141ba401de87daf806c060c2bd6cd63cc7d2168173aceafc765843e83604051610bce91906120ce565b60405180910390a15050505050565b8173ffffffffffffffffffffffffffffffffffffffff166108fc829081150290604051600060405180830381858888f19350505050158015610c23573d6000803e3d6000fd5b507f7659805158d7560b5fea9106dd42c0023c0e2b1fb05ba48aa64f5cd6464b739f81604051610c5391906120ce565b60405180910390a15050565b803383886000600560008681526020019081526020016000206040518060a001604052908160008201548152602001600182015481526020016002820160009054906101000a900460ff166001811115610cbc57610cbb611ae5565b5b6001811115610cce57610ccd611ae5565b5b8152602001600382015481526020016004820160009054906101000a900473ffffffffffffffffffffffffffffffffffffffff1673ffffffffffffffffffffffffffffffffffffffff1673ffffffffffffffffffffffffffffffffffffffff168152505090508373ffffffffffffffffffffffffffffffffffffffff16816080015173ffffffffffffffffffffffffffffffffffffffff1614610da6576040517f08c379a0000000000000000000000000000000000000000000000000000000008152600401610d9d90612523565b60405180910390fd5b6000600560008581526020019081526020016000206040518060a001604052908160008201548152602001600182015481526020016002820160009054906101000a900460ff166001811115610dff57610dfe611ae5565b5b6001811115610e1157610e10611ae5565b5b8152602001600382015481526020016004820160009054906101000a900473ffffffffffffffffffffffffffffffffffffffff1673ffffffffffffffffffffffffffffffffffffffff1673ffffffffffffffffffffffffffffffffffffffff168152505090508273ffffffffffffffffffffffffffffffffffffffff16816080015173ffffffffffffffffffffffffffffffffffffffff1614610ee9576040517f08c379a0000000000000000000000000000000000000000000000000000000008152600401610ee09061258f565b60405180910390fd5b600073ffffffffffffffffffffffffffffffffffffffff16600360009054906101000a900473ffffffffffffffffffffffffffffffffffffffff1673ffffffffffffffffffffffffffffffffffffffff1614610f7a576040517f08c379a0000000000000000000000000000000000000000000000000000000008152600401610f7190612621565b60405180910390fd5b8b73ffffffffffffffffffffffffffffffffffffffff166108fc349081150290604051600060405180830381858888f19350505050158015610fc0573d6000803e3d6000fd5b50633b9aca00341015611008576040517f08c379a0000000000000000000000000000000000000000000000000000000008152600401610fff9061268d565b60405180910390fd5b600060018b898c8c34604051602001611026969594939291906126ad565b6040516020818303038152906040529050600460009054906101000a900473ffffffffffffffffffffffffffffffffffffffff1673ffffffffffffffffffffffffffffffffffffffff1663ac9a3db38260006040518363ffffffff1660e01b8152600401611095929190612333565b600060405180830381600087803b1580156110af57600080fd5b505af11580156110c3573d6000803e3d6000fd5b5050505050505050505050505050505050565b600073ffffffffffffffffffffffffffffffffffffffff16600360009054906101000a900473ffffffffffffffffffffffffffffffffffffffff1673ffffffffffffffffffffffffffffffffffffffff1603611167576040517f08c379a000000000000000000000000000000000000000000000000000000000815260040161115e90612769565b60405180910390fd5b6000600360009054906101000a900473ffffffffffffffffffffffffffffffffffffffff1690508073ffffffffffffffffffffffffffffffffffffffff166323b872dd3330866040518463ffffffff1660e01b81526004016111cb93929190612789565b6020604051808303816000875af11580156111ea573d6000803e3d6000fd5b505050506040513d601f19601f8201168201806040525081019061120e9190612225565b5082600760003373ffffffffffffffffffffffffffffffffffffffff1673ffffffffffffffffffffffffffffffffffffffff168152602001908152602001600020600082825461125e9190611f07565b9250508190555060008060015486866040516020016112809493929190611fb3565b6040516020818303038152906040529050600460009054906101000a900473ffffffffffffffffffffffffffffffffffffffff1673ffffffffffffffffffffffffffffffffffffffff1663ac9a3db382856040518363ffffffff1660e01b81526004016112ee92919061208f565b600060405180830381600087803b15801561130857600080fd5b505af115801561131c573d6000803e3d6000fd5b505050505050505050565b61132f6115f9565b600560008381526020019081526020016000206040518060a001604052908160008201548152602001600182015481526020016002820160009054906101000a900460ff16600181111561138657611385611ae5565b5b600181111561139857611397611ae5565b5b8152602001600382015481526020016004820160009054906101000a900473ffffffffffffffffffffffffffffffffffffffff1673ffffffffffffffffffffffffffffffffffffffff1673ffffffffffffffffffffffffffffffffffffffff16815250509050919050565b6000600360009054906101000a900473ffffffffffffffffffffffffffffffffffffffff16905090565b806000801b6005600083604001518152602001908152602001600020600101541461148d576040517f08c379a00000000000000000000000000000000000000000000000000000000081526004016114849061280c565b60405180910390fd5b60006040518060a001604052806001548152602001846040015181526020016001808111156114bf576114be611ae5565b5b8152602001428152602001846060015173ffffffffffffffffffffffffffffffffffffffff168152509050806005600085604001518152602001908152602001600020600082015181600001556020820151816001015560408201518160020160006101000a81548160ff0219169083600181111561154157611540611ae5565b5b02179055506060820151816003015560808201518160040160006101000a81548173ffffffffffffffffffffffffffffffffffffffff021916908373ffffffffffffffffffffffffffffffffffffffff1602179055509050507f2034f42176ad2fb457ff86d86cfb31612b60d88b9f42a8af6d3e5d316a12eb6a816040516115c99190611be2565b60405180910390a1505050565b6000808273ffffffffffffffffffffffffffffffffffffffff163b119050919050565b6040518060a0016040528060008019168152602001600080191681526020016000600181111561162c5761162b611ae5565b5b815260200160008152602001600073ffffffffffffffffffffffffffffffffffffffff1681525090565b6000604051905090565b600080fd5b6000819050919050565b61167881611665565b811461168357600080fd5b50565b6000813590506116958161166f565b92915050565b600060ff82169050919050565b6116b18161169b565b81146116bc57600080fd5b50565b6000813590506116ce816116a8565b92915050565b600080604083850312156116eb576116ea611660565b5b60006116f985828601611686565b925050602061170a858286016116bf565b9150509250929050565b600073ffffffffffffffffffffffffffffffffffffffff82169050919050565b600061173f82611714565b9050919050565b61174f81611734565b811461175a57600080fd5b50565b60008135905061176c81611746565b92915050565b60006fffffffffffffffffffffffffffffffff82169050919050565b61179781611772565b81146117a257600080fd5b50565b6000813590506117b48161178e565b92915050565b60008060008060008060c087890312156117d7576117d6611660565b5b60006117e589828a01611686565b96505060206117f689828a01611686565b955050604061180789828a01611686565b945050606061181889828a0161175d565b935050608061182989828a01611686565b92505060a061183a89828a016117a5565b9150509295509295509295565b600080600080600060a0868803121561186357611862611660565b5b600061187188828901611686565b955050602061188288828901611686565b94505060406118938882890161175d565b93505060606118a48882890161175d565b92505060806118b58882890161175d565b9150509295509295909350565b60006118cd82611714565b9050919050565b6118dd816118c2565b81146118e857600080fd5b50565b6000813590506118fa816118d4565b92915050565b6000819050919050565b61191381611900565b811461191e57600080fd5b50565b6000813590506119308161190a565b92915050565b60008060006060848603121561194f5761194e611660565b5b600061195d86828701611686565b935050602061196e868287016118eb565b925050604061197f86828701611921565b9150509250925092565b600080604083850312156119a05761199f611660565b5b60006119ae858286016118eb565b92505060206119bf85828601611921565b9150509250929050565b60008060008060008060c087890312156119e6576119e5611660565b5b60006119f489828a016118eb565b9650506020611a0589828a01611686565b9550506040611a1689828a01611686565b9450506060611a2789828a01611686565b9350506080611a3889828a01611686565b92505060a0611a4989828a01611686565b9150509295509295509295565b600080600060608486031215611a6f57611a6e611660565b5b6000611a7d86828701611686565b9350506020611a8e86828701611921565b9250506040611a9f868287016116bf565b9150509250925092565b600060208284031215611abf57611abe611660565b5b6000611acd84828501611686565b91505092915050565b611adf81611665565b82525050565b7f4e487b7100000000000000000000000000000000000000000000000000000000600052602160045260246000fd5b60028110611b2557611b24611ae5565b5b50565b6000819050611b3682611b14565b919050565b6000611b4682611b28565b9050919050565b611b5681611b3b565b82525050565b611b6581611900565b82525050565b611b7481611734565b82525050565b60a082016000820151611b906000850182611ad6565b506020820151611ba36020850182611ad6565b506040820151611bb66040850182611b4d565b506060820151611bc96060850182611b5c565b506080820151611bdc6080850182611b6b565b50505050565b600060a082019050611bf76000830184611b7a565b92915050565b611c0681611734565b82525050565b6000602082019050611c216000830184611bfd565b92915050565b600080fd5b6000601f19601f8301169050919050565b7f4e487b7100000000000000000000000000000000000000000000000000000000600052604160045260246000fd5b611c7582611c2c565b810181811067ffffffffffffffff82111715611c9457611c93611c3d565b5b80604052505050565b6000611ca7611656565b9050611cb38282611c6c565b919050565b600060808284031215611cce57611ccd611c27565b5b611cd86080611c9d565b90506000611ce8848285016116bf565b6000830152506020611cfc84828501611686565b6020830152506040611d1084828501611686565b6040830152506060611d248482850161175d565b60608301525092915050565b600060808284031215611d4657611d45611660565b5b6000611d5484828501611cb8565b91505092915050565b600082825260208201905092915050565b7f57726f6e6720457468657265756d2064657374696e6174696f6e20616464726560008201527f7373210000000000000000000000000000000000000000000000000000000000602082015250565b6000611dca602383611d5d565b9150611dd582611d6e565b604082019050919050565b60006020820190508181036000830152611df981611dbd565b9050919050565b7f4e6f742061206d656d6265720000000000000000000000000000000000000000600082015250565b6000611e36600c83611d5d565b9150611e4182611e00565b602082019050919050565b60006020820190508181036000830152611e6581611e29565b9050919050565b7f496e76616c6964206465706f73697420616d6f756e7400000000000000000000600082015250565b6000611ea2601683611d5d565b9150611ead82611e6c565b602082019050919050565b60006020820190508181036000830152611ed181611e95565b9050919050565b7f4e487b7100000000000000000000000000000000000000000000000000000000600052601160045260246000fd5b6000611f1282611900565b9150611f1d83611900565b9250828201905080821115611f3557611f34611ed8565b5b92915050565b60008160f81b9050919050565b6000611f5382611f3b565b9050919050565b611f6b611f668261169b565b611f48565b82525050565b6000819050919050565b611f8c611f8782611665565b611f71565b82525050565b6000819050919050565b611fad611fa882611900565b611f92565b82525050565b6000611fbf8287611f5a565b600182019150611fcf8286611f7b565b602082019150611fdf8285611f7b565b602082019150611fef8284611f9c565b60208201915081905095945050505050565b600081519050919050565b600082825260208201905092915050565b60005b8381101561203b578082015181840152602081019050612020565b60008484015250505050565b600061205282612001565b61205c818561200c565b935061206c81856020860161201d565b61207581611c2c565b840191505092915050565b6120898161169b565b82525050565b600060408201905081810360008301526120a98185612047565b90506120b86020830184612080565b9392505050565b6120c881611900565b82525050565b60006020820190506120e360008301846120bf565b92915050565b7f547265617375727920646f6573206e6f7420686176652064656e6f6d696e617460008201527f65642063757272656e6379000000000000000000000000000000000000000000602082015250565b6000612145602b83611d5d565b9150612150826120e9565b604082019050919050565b6000602082019050818103600083015261217481612138565b9050919050565b6000819050919050565b60006121a061219b61219684611772565b61217b565b611900565b9050919050565b6121b081612185565b82525050565b60006060820190506121cb6000830186611bfd565b6121d86020830185611bfd565b6121e560408301846121a7565b949350505050565b60008115159050919050565b612202816121ed565b811461220d57600080fd5b50565b60008151905061221f816121f9565b92915050565b60006020828403121561223b5761223a611660565b5b600061224984828501612210565b91505092915050565b60008160801b9050919050565b600061226a82612252565b9050919050565b61228261227d82611772565b61225f565b82525050565b60006122948289611f5a565b6001820191506122a48288611f7b565b6020820191506122b48287611f7b565b6020820191506122c48286611f7b565b6020820191506122d48285611f7b565b6020820191506122e48284612271565b601082019150819050979650505050505050565b6000819050919050565b600061231d612318612313846122f8565b61217b565b61169b565b9050919050565b61232d81612302565b82525050565b6000604082019050818103600083015261234d8185612047565b905061235c6020830184612324565b9392505050565b7f496e697469616c697a61626c653a20636f6e747261637420697320616c72656160008201527f647920696e697469616c697a6564000000000000000000000000000000000000602082015250565b60006123bf602e83611d5d565b91506123ca82612363565b604082019050919050565b600060208201905081810360008301526123ee816123b2565b9050919050565b6000819050919050565b600061241a612415612410846123f5565b61217b565b61169b565b9050919050565b61242a816123ff565b82525050565b60006020820190506124456000830184612421565b92915050565b600061246661246161245c84611714565b61217b565b611714565b9050919050565b60006124788261244b565b9050919050565b600061248a8261246d565b9050919050565b61249a8161247f565b82525050565b60006060820190506124b56000830186611bfd565b6124c26020830185612491565b6124cf60408301846120bf565b949350505050565b7f496e76616c6964204554482073656e6465722061646472657373000000000000600082015250565b600061250d601a83611d5d565b9150612518826124d7565b602082019050919050565b6000602082019050818103600083015261253c81612500565b9050919050565b7f496e76616c69642064657374696e6174696f6e20455448206164647265737300600082015250565b6000612579601f83611d5d565b915061258482612543565b602082019050919050565b600060208201905081810360008301526125a88161256c565b9050919050565b7f43616e27742073656c6c2073686172657320696e206e6174697665206375727260008201527f656e637900000000000000000000000000000000000000000000000000000000602082015250565b600061260b602483611d5d565b9150612616826125af565b604082019050919050565b6000602082019050818103600083015261263a816125fe565b9050919050565b7f496e76616c69642073656c6c2073686172657320616d6f756e74000000000000600082015250565b6000612677601a83611d5d565b915061268282612641565b602082019050919050565b600060208201905081810360008301526126a68161266a565b9050919050565b60006126b98289611f5a565b6001820191506126c98288611f7b565b6020820191506126d98287611f7b565b6020820191506126e98286611f7b565b6020820191506126f98285611f7b565b6020820191506127098284611f9c565b602082019150819050979650505050505050565b7f496e76616c69642064656e6f6d696e617465642063757272656e637921000000600082015250565b6000612753601d83611d5d565b915061275e8261271d565b602082019050919050565b6000602082019050818103600083015261278281612746565b9050919050565b600060608201905061279e6000830186611bfd565b6127ab6020830185611bfd565b6127b860408301846120bf565b949350505050565b7f4d656d62657220616c7265647920696e20636c75622100000000000000000000600082015250565b60006127f6601683611d5d565b9150612801826127c0565b602082019050919050565b60006020820190508181036000830152612825816127e9565b905091905056fea2646970667358221220374d10f6f488686640958be48f678a1c6b215ccf954647628869e0f0394624d964736f6c63430008130033",
  "immutableReferences": {},
  "source": "// SPDX-License-Identifier: Apache 2\npragma solidity 0.8.19;\nimport \"@openzeppelin/contracts-upgradeable/proxy/utils/Initializable.sol\";\nimport \"../structs/UnqWormholeStructs.sol\";\nimport \"@openzeppelin/contracts/token/ERC20/ERC20.sol\";\nimport \"../interface/IWormhole.sol\";\nimport \"../Wormhole/WormholeUnq.sol\";\n\ncontract UnqTreasury is Initializable {\n    bytes32 _realmAddress;\n    bytes32 _treasuryAuthority;\n    address _denominatedCurrency;\n    WormholeUnq factory_contract;\n    mapping(bytes32 => UnqWormholeStructs.MemberData) members;\n    address _relayerSigner;\n    mapping(address => uint256) memberDeposits;\n\n    constructor() {\n        _disableInitializers();\n    }\n\n    modifier nonExistingMember(\n        UnqWormholeStructs.AddMemberAction memory member\n    ) {\n        require(\n            members[member.solanaAddress].solanaAddress == bytes32(0),\n            \"Member alredy in club!\"\n        );\n        _;\n    }\n\n    modifier onlyAuthority(bytes32 authority) {\n        require(authority == _treasuryAuthority, \"Invalid permission\");\n        _;\n    }\n\n    modifier existingMember(bytes32 solanaAddress, address ethereumAddress) {\n        require(\n            members[solanaAddress].ethAddress == ethereumAddress,\n            \"Wrong Ethereum destination address!\"\n        );\n        _;\n    }\n\n    modifier onlyTreasuryMembers(\n        bytes32 senderSolanaAddress,\n        address senderEthAddress,\n        bytes32 receiverSolanaAddress,\n        address receiverEthAddress\n    ) {\n        UnqWormholeStructs.MemberData memory sender = members[\n            senderSolanaAddress\n        ];\n\n        require(\n            sender.ethAddress == senderEthAddress,\n            \"Invalid ETH sender address\"\n        );\n\n        UnqWormholeStructs.MemberData memory receiver = members[\n            receiverSolanaAddress\n        ];\n\n        require(\n            receiver.ethAddress == receiverEthAddress,\n            \"Invalid destination ETH address\"\n        );\n\n        _;\n    }\n\n    modifier onlyRelayerSigner() {\n        require(tx.origin == _relayerSigner, \"Invalid authority call!\");\n        _;\n    }\n\n    modifier denominatedCurrencyRestrict() {\n        require(\n            _denominatedCurrency != address(0),\n            \"Invalid denominated currency!\"\n        );\n\n        _;\n    }\n\n    event MemberAddedEvent(UnqWormholeStructs.MemberData);\n    event DepositEvent(uint256);\n    event ClaimFundsEvent(uint256);\n    event TransferFundsEvent(uint256);\n\n    function initialize(\n        bytes32 realmAddress,\n        bytes32 treasuryAuthority,\n        address denominatedCurrency,\n        address factoryContract,\n        address creator\n    ) external initializer {\n        _realmAddress = realmAddress;\n\n        _treasuryAuthority = treasuryAuthority;\n\n        _denominatedCurrency = denominatedCurrency;\n\n        factory_contract = WormholeUnq(factoryContract);\n\n        members[treasuryAuthority] = UnqWormholeStructs.MemberData({\n            solanaAddress: treasuryAuthority,\n            ethAddress: creator,\n            status: UnqWormholeStructs.MemberStatus.Accepted,\n            joinedAt: block.timestamp,\n            realmAddress: _realmAddress\n        });\n    }\n\n    function addNewMember(\n        UnqWormholeStructs.AddMemberAction memory newMember\n    ) external nonExistingMember(newMember) {\n        UnqWormholeStructs.MemberData memory memberData = UnqWormholeStructs\n            .MemberData({\n                realmAddress: _realmAddress,\n                solanaAddress: newMember.solanaAddress,\n                ethAddress: newMember.ethAddress,\n                status: UnqWormholeStructs.MemberStatus.Accepted,\n                joinedAt: block.timestamp\n            });\n        members[newMember.solanaAddress] = memberData;\n        emit MemberAddedEvent(memberData);\n    }\n\n    function receiveFunds(\n        bytes32 memberAddress,\n        uint8 nonce\n    ) external payable existingMember(memberAddress, msg.sender) {\n        require(\n            members[memberAddress].status ==\n                UnqWormholeStructs.MemberStatus.Accepted,\n            \"Not a member\"\n        );\n\n        require(msg.value >= 1000000000 wei, \"Invalid deposit amount\");\n\n        memberDeposits[tx.origin] += msg.value;\n\n        bytes memory vaaBytes = abi.encodePacked(\n            uint8(0),\n            _realmAddress,\n            memberAddress,\n            msg.value\n        );\n        factory_contract.pushWomrholeMessage(vaaBytes, nonce);\n        emit DepositEvent(msg.value);\n    }\n\n    function getMemberData(\n        bytes32 memberAddress\n    ) public view returns (UnqWormholeStructs.MemberData memory) {\n        return members[memberAddress];\n    }\n\n    function transferFunds(\n        address payable destination,\n        uint256 amount //onlyRelayerSigner\n    ) external {\n        destination.transfer(amount);\n        emit TransferFundsEvent(amount);\n    }\n\n    function claimReward(\n        bytes32 solanaAddress,\n        address payable destination,\n        uint256 amount\n    )\n        external\n        existingMember(solanaAddress, destination) //onlyRelayerSigner\n    {\n        if (_denominatedCurrency == address(0)) {\n            destination.transfer(amount);\n        } else {\n            ERC20 token = ERC20(_denominatedCurrency);\n            token.transferFrom(address(this), destination, amount);\n        }\n        emit ClaimFundsEvent(amount);\n    }\n\n    function sellFinancialRights(\n        address payable receiver,\n        bytes32 _clubAddress,\n        bytes32 treasury,\n        bytes32 financialOffer,\n        bytes32 seller,\n        bytes32 buyer\n    ) public payable onlyTreasuryMembers(buyer, msg.sender, seller, receiver) {\n        require(\n            _denominatedCurrency == address(0),\n            \"Can't sell shares in native currency\"\n        );\n\n        receiver.transfer(msg.value);\n\n        require(msg.value >= 1000000000 wei, \"Invalid sell shares amount\");\n\n        bytes memory encodedPayload = abi.encodePacked(\n            uint8(1),\n            treasury,\n            buyer,\n            financialOffer,\n            seller,\n            msg.value\n        );\n\n        factory_contract.pushWomrholeMessage(encodedPayload, 0);\n    }\n\n    //TODO:use modifier\n    function sellSharesDenominatedCurrency(\n        bytes32 sellerSolanaAddress,\n        bytes32 buyerSolanaAddress,\n        bytes32 treasury,\n        address receiver,\n        bytes32 financialOffer,\n        uint128 amount\n    ) public payable {\n        require(\n            _denominatedCurrency != address(0),\n            \"Treasury does not have denominated currency\"\n        );\n\n        ERC20 token = ERC20(_denominatedCurrency);\n\n        token.transferFrom(msg.sender, receiver, amount);\n\n        bytes memory encodedVaa = abi.encodePacked(\n            uint8(1),\n            treasury,\n            buyerSolanaAddress,\n            financialOffer,\n            sellerSolanaAddress,\n            amount\n        );\n\n        factory_contract.pushWomrholeMessage(encodedVaa, 0);\n    }\n\n    function depositDenominatedCurrency(\n        bytes32 solanaAddress,\n        uint256 amount,\n        uint8 nonce\n    ) public denominatedCurrencyRestrict {\n        ERC20 token = ERC20(_denominatedCurrency);\n\n        token.transferFrom(msg.sender, address(this), amount);\n        memberDeposits[msg.sender] += amount;\n\n        bytes memory vaaBytes = abi.encodePacked(\n            uint8(0),\n            _realmAddress,\n            solanaAddress,\n            amount\n        );\n        factory_contract.pushWomrholeMessage(vaaBytes, nonce);\n    }\n\n    function getDenominatedCurrency() public view returns (address) {\n        return _denominatedCurrency;\n    }\n}\n",
  "sourcePath": "/Users/gorangutovic/Desktop/unique/unq-treasury-eth/contracts/Treasury/UnqTreasury.sol",
  "compiler": {
    "name": "solc",
    "version": "0.8.19+commit.7dd6d404.Emscripten.clang"
  },
  "schemaVersion": "3.4.11",
  "updatedAt": "2023-04-05T10:09:09.190Z",
  "networkType": "ethereum",
  "devdoc": {
    "events": {
      "Initialized(uint8)": {
        "details": "Triggered when the contract has been initialized or reinitialized."
      }
    },
    "kind": "dev",
    "methods": {},
    "version": 1
  },
  "userdoc": {
    "kind": "user",
    "methods": {},
    "version": 1
  }
}