{
  "contractName": "UnqTreasury",
  "abi": [
    {
      "inputs": [],
      "stateMutability": "nonpayable",
      "type": "constructor"
    },
    {
      "anonymous": false,
      "inputs": [
        {
          "indexed": false,
          "internalType": "uint8",
          "name": "version",
          "type": "uint8"
        }
      ],
      "name": "Initialized",
      "type": "event"
    },
    {
      "anonymous": false,
      "inputs": [
        {
          "components": [
            {
              "internalType": "bytes32",
              "name": "realmAddress",
              "type": "bytes32"
            },
            {
              "internalType": "bytes32",
              "name": "solanaAddress",
              "type": "bytes32"
            },
            {
              "internalType": "enum UnqWormholeStructs.MemberStatus",
              "name": "status",
              "type": "uint8"
            },
            {
              "internalType": "uint256",
              "name": "joinedAt",
              "type": "uint256"
            },
            {
              "internalType": "address",
              "name": "ethAddress",
              "type": "address"
            }
          ],
          "indexed": false,
          "internalType": "struct UnqWormholeStructs.MemberData",
          "name": "",
          "type": "tuple"
        }
      ],
      "name": "MemberAddedEvent",
      "type": "event"
    },
    {
      "inputs": [
        {
          "internalType": "bytes32",
          "name": "realmAddress",
          "type": "bytes32"
        },
        {
          "internalType": "bytes32",
          "name": "treasuryAuthority",
          "type": "bytes32"
        },
        {
          "internalType": "address",
          "name": "denominatedCurrency",
          "type": "address"
        },
        {
          "internalType": "address",
          "name": "wormholeBridge",
          "type": "address"
        }
      ],
      "name": "initialize",
      "outputs": [],
      "stateMutability": "nonpayable",
      "type": "function"
    },
    {
      "inputs": [
        {
          "components": [
            {
              "internalType": "uint8",
              "name": "action",
              "type": "uint8"
            },
            {
              "internalType": "bytes32",
              "name": "realmAddress",
              "type": "bytes32"
            },
            {
              "internalType": "bytes32",
              "name": "solanaAddress",
              "type": "bytes32"
            },
            {
              "internalType": "bytes32",
              "name": "authority",
              "type": "bytes32"
            },
            {
              "internalType": "address",
              "name": "ethAddress",
              "type": "address"
            }
          ],
          "internalType": "struct UnqWormholeStructs.AddMemberAction",
          "name": "newMember",
          "type": "tuple"
        }
      ],
      "name": "addNewMember",
      "outputs": [],
      "stateMutability": "nonpayable",
      "type": "function"
    },
    {
      "inputs": [
        {
          "internalType": "bytes32",
          "name": "memberAddress",
          "type": "bytes32"
        },
        {
          "internalType": "uint8",
          "name": "nonce",
          "type": "uint8"
        }
      ],
      "name": "receiveFunds",
      "outputs": [],
      "stateMutability": "payable",
      "type": "function",
      "payable": true
    },
    {
      "inputs": [
        {
          "internalType": "bytes32",
          "name": "memberAddress",
          "type": "bytes32"
        }
      ],
      "name": "getMemberData",
      "outputs": [
        {
          "components": [
            {
              "internalType": "bytes32",
              "name": "realmAddress",
              "type": "bytes32"
            },
            {
              "internalType": "bytes32",
              "name": "solanaAddress",
              "type": "bytes32"
            },
            {
              "internalType": "enum UnqWormholeStructs.MemberStatus",
              "name": "status",
              "type": "uint8"
            },
            {
              "internalType": "uint256",
              "name": "joinedAt",
              "type": "uint256"
            },
            {
              "internalType": "address",
              "name": "ethAddress",
              "type": "address"
            }
          ],
          "internalType": "struct UnqWormholeStructs.MemberData",
          "name": "",
          "type": "tuple"
        }
      ],
      "stateMutability": "view",
      "type": "function",
      "constant": true
    },
    {
      "inputs": [
        {
          "internalType": "address payable",
          "name": "destination",
          "type": "address"
        },
        {
          "internalType": "uint256",
          "name": "amount",
          "type": "uint256"
        }
      ],
      "name": "transferFunds",
      "outputs": [],
      "stateMutability": "nonpayable",
      "type": "function"
    },
    {
      "inputs": [
        {
          "internalType": "bytes32",
          "name": "solanaAddress",
          "type": "bytes32"
        },
        {
          "internalType": "address payable",
          "name": "destination",
          "type": "address"
        },
        {
          "internalType": "uint256",
          "name": "amount",
          "type": "uint256"
        }
      ],
      "name": "claimReward",
      "outputs": [],
      "stateMutability": "nonpayable",
      "type": "function"
    },
    {
      "inputs": [
        {
          "internalType": "bytes32",
          "name": "solanaAddress",
          "type": "bytes32"
        },
        {
          "internalType": "uint256",
          "name": "amount",
          "type": "uint256"
        },
        {
          "internalType": "uint8",
          "name": "nonce",
          "type": "uint8"
        }
      ],
      "name": "depositDenominatedCurrency",
      "outputs": [],
      "stateMutability": "nonpayable",
      "type": "function"
    },
    {
      "inputs": [],
      "name": "getDenominatedCurrency",
      "outputs": [
        {
          "internalType": "address",
          "name": "",
          "type": "address"
        }
      ],
      "stateMutability": "view",
      "type": "function",
      "constant": true
    }
  ],
  "bytecode": "0x60806040523480156200001157600080fd5b50620000226200002860201b60201c565b620001d3565b600060019054906101000a900460ff16156200007b576040517f08c379a0000000000000000000000000000000000000000000000000000000008152600401620000729062000176565b60405180910390fd5b60ff801660008054906101000a900460ff1660ff161015620000ed5760ff6000806101000a81548160ff021916908360ff1602179055507f7f26b83ff96e1f2b6a682f133852f6798a09c465da95921460cefb384740249860ff604051620000e49190620001b6565b60405180910390a15b565b600082825260208201905092915050565b7f496e697469616c697a61626c653a20636f6e747261637420697320696e69746960008201527f616c697a696e6700000000000000000000000000000000000000000000000000602082015250565b60006200015e602783620000ef565b91506200016b8262000100565b604082019050919050565b6000602082019050818103600083015262000191816200014f565b9050919050565b600060ff82169050919050565b620001b08162000198565b82525050565b6000602082019050620001cd6000830184620001a5565b92915050565b611d6980620001e36000396000f3fe60806040526004361061007b5760003560e01c8063990dc9db1161004e578063990dc9db14610117578063bd35f32114610140578063c74e249314610169578063f25dfaf7146101a65761007b565b80631d978e49146100805780631f57365e1461009c5780634675f125146100c557806363f66834146100ee575b600080fd5b61009a600480360381019061009591906110f1565b6101d1565b005b3480156100a857600080fd5b506100c360048036038101906100be919061118f565b610393565b005b3480156100d157600080fd5b506100ec60048036038101906100e79190611313565b61066d565b005b3480156100fa57600080fd5b50610115600480360381019061011091906113b4565b610816565b005b34801561012357600080fd5b5061013e60048036038101906101399190611407565b610a9f565b005b34801561014c57600080fd5b5061016760048036038101906101629190611447565b610c7f565b005b34801561017557600080fd5b50610190600480360381019061018b919061149a565b610e45565b60405161019d91906115d3565b60405180910390f35b3480156101b257600080fd5b506101bb610f21565b6040516101c891906115fd565b60405180910390f35b81338073ffffffffffffffffffffffffffffffffffffffff166005600084815260200190815260200160002060040160009054906101000a900473ffffffffffffffffffffffffffffffffffffffff1673ffffffffffffffffffffffffffffffffffffffff1614610277576040517f08c379a000000000000000000000000000000000000000000000000000000000815260040161026e9061169b565b60405180910390fd5b60018081111561028a576102896114d6565b5b6005600086815260200190815260200160002060020160009054906101000a900460ff1660018111156102c0576102bf6114d6565b5b14610300576040517f08c379a00000000000000000000000000000000000000000000000000000000081526004016102f790611707565b60405180910390fd5b34600760003273ffffffffffffffffffffffffffffffffffffffff1673ffffffffffffffffffffffffffffffffffffffff168152602001908152602001600020600082825461034f9190611756565b92505081905550600060018054863460405160200161037194939291906117b7565b604051602081830303815290604052905061038c8185610f4b565b5050505050565b60008060019054906101000a900460ff161590508080156103c45750600160008054906101000a900460ff1660ff16105b806103f157506103d330610ff3565b1580156103f05750600160008054906101000a900460ff1660ff16145b5b610430576040517f08c379a00000000000000000000000000000000000000000000000000000000081526004016104279061186e565b60405180910390fd5b60016000806101000a81548160ff021916908360ff160217905550801561046d576001600060016101000a81548160ff0219169083151502179055505b846001819055508360028190555082600360006101000a81548173ffffffffffffffffffffffffffffffffffffffff021916908373ffffffffffffffffffffffffffffffffffffffff16021790555073c89ce4735882c9f0f0fe26686c53074e09b0d550600460006101000a81548173ffffffffffffffffffffffffffffffffffffffff021916908373ffffffffffffffffffffffffffffffffffffffff1602179055506040518060a00160405280600154815260200185815260200160018081111561053d5761053c6114d6565b5b81526020014281526020013273ffffffffffffffffffffffffffffffffffffffff1681525060056000868152602001908152602001600020600082015181600001556020820151816001015560408201518160020160006101000a81548160ff021916908360018111156105b4576105b36114d6565b5b02179055506060820151816003015560808201518160040160006101000a81548173ffffffffffffffffffffffffffffffffffffffff021916908373ffffffffffffffffffffffffffffffffffffffff16021790555090505080156106665760008060016101000a81548160ff0219169083151502179055507f7f26b83ff96e1f2b6a682f133852f6798a09c465da95921460cefb3847402498600160405161065d91906118d3565b60405180910390a15b5050505050565b806000801b600560008360400151815260200190815260200160002060010154146106cd576040517f08c379a00000000000000000000000000000000000000000000000000000000081526004016106c49061193a565b60405180910390fd5b60006040518060a001604052806001548152602001846040015181526020016001808111156106ff576106fe6114d6565b5b8152602001428152602001846080015173ffffffffffffffffffffffffffffffffffffffff168152509050806005600085604001518152602001908152602001600020600082015181600001556020820151816001015560408201518160020160006101000a81548160ff02191690836001811115610781576107806114d6565b5b02179055506060820151816003015560808201518160040160006101000a81548173ffffffffffffffffffffffffffffffffffffffff021916908373ffffffffffffffffffffffffffffffffffffffff1602179055509050507f2034f42176ad2fb457ff86d86cfb31612b60d88b9f42a8af6d3e5d316a12eb6a8160405161080991906115d3565b60405180910390a1505050565b82828073ffffffffffffffffffffffffffffffffffffffff166005600084815260200190815260200160002060040160009054906101000a900473ffffffffffffffffffffffffffffffffffffffff1673ffffffffffffffffffffffffffffffffffffffff16146108bc576040517f08c379a00000000000000000000000000000000000000000000000000000000081526004016108b39061169b565b60405180910390fd5b600660009054906101000a900473ffffffffffffffffffffffffffffffffffffffff1673ffffffffffffffffffffffffffffffffffffffff163273ffffffffffffffffffffffffffffffffffffffff161461094c576040517f08c379a0000000000000000000000000000000000000000000000000000000008152600401610943906119a6565b60405180910390fd5b600073ffffffffffffffffffffffffffffffffffffffff16600360009054906101000a900473ffffffffffffffffffffffffffffffffffffffff1673ffffffffffffffffffffffffffffffffffffffff16146109ee578373ffffffffffffffffffffffffffffffffffffffff166108fc849081150290604051600060405180830381858888f193505050501580156109e8573d6000803e3d6000fd5b50610a98565b6000600360009054906101000a900473ffffffffffffffffffffffffffffffffffffffff1690508073ffffffffffffffffffffffffffffffffffffffff166323b872dd3087876040518463ffffffff1660e01b8152600401610a5293929190611a1b565b6020604051808303816000875af1158015610a71573d6000803e3d6000fd5b505050506040513d601f19601f82011682018060405250810190610a959190611a8a565b50505b5050505050565b600660009054906101000a900473ffffffffffffffffffffffffffffffffffffffff1673ffffffffffffffffffffffffffffffffffffffff163273ffffffffffffffffffffffffffffffffffffffff1614610b2f576040517f08c379a0000000000000000000000000000000000000000000000000000000008152600401610b26906119a6565b60405180910390fd5b600073ffffffffffffffffffffffffffffffffffffffff16600360009054906101000a900473ffffffffffffffffffffffffffffffffffffffff1673ffffffffffffffffffffffffffffffffffffffff1614610bd1578173ffffffffffffffffffffffffffffffffffffffff166108fc829081150290604051600060405180830381858888f19350505050158015610bcb573d6000803e3d6000fd5b50610c7b565b6000600360009054906101000a900473ffffffffffffffffffffffffffffffffffffffff1690508073ffffffffffffffffffffffffffffffffffffffff166323b872dd3085856040518463ffffffff1660e01b8152600401610c3593929190611a1b565b6020604051808303816000875af1158015610c54573d6000803e3d6000fd5b505050506040513d601f19601f82011682018060405250810190610c789190611a8a565b50505b5050565b600073ffffffffffffffffffffffffffffffffffffffff16600360009054906101000a900473ffffffffffffffffffffffffffffffffffffffff1673ffffffffffffffffffffffffffffffffffffffff1603610d10576040517f08c379a0000000000000000000000000000000000000000000000000000000008152600401610d0790611b03565b60405180910390fd5b6000600360009054906101000a900473ffffffffffffffffffffffffffffffffffffffff1690508073ffffffffffffffffffffffffffffffffffffffff166323b872dd3330866040518463ffffffff1660e01b8152600401610d7493929190611b23565b6020604051808303816000875af1158015610d93573d6000803e3d6000fd5b505050506040513d601f19601f82011682018060405250810190610db79190611a8a565b5082600760003373ffffffffffffffffffffffffffffffffffffffff1673ffffffffffffffffffffffffffffffffffffffff1681526020019081526020016000206000828254610e079190611756565b9250508190555060008484604051602001610e23929190611b9c565b6040516020818303038152906040529050610e3e8184610f4b565b5050505050565b610e4d611016565b600560008381526020019081526020016000206040518060a001604052908160008201548152602001600182015481526020016002820160009054906101000a900460ff166001811115610ea457610ea36114d6565b5b6001811115610eb657610eb56114d6565b5b8152602001600382015481526020016004820160009054906101000a900473ffffffffffffffffffffffffffffffffffffffff1673ffffffffffffffffffffffffffffffffffffffff1673ffffffffffffffffffffffffffffffffffffffff16815250509050919050565b6000600360009054906101000a900473ffffffffffffffffffffffffffffffffffffffff16905090565b600460009054906101000a900473ffffffffffffffffffffffffffffffffffffffff1673ffffffffffffffffffffffffffffffffffffffff1663b19a437e828460016040518463ffffffff1660e01b8152600401610fab93929190611c88565b6020604051808303816000875af1158015610fca573d6000803e3d6000fd5b505050506040513d601f19601f82011682018060405250810190610fee9190611d06565b505050565b6000808273ffffffffffffffffffffffffffffffffffffffff163b119050919050565b6040518060a00160405280600080191681526020016000801916815260200160006001811115611049576110486114d6565b5b815260200160008152602001600073ffffffffffffffffffffffffffffffffffffffff1681525090565b6000604051905090565b600080fd5b6000819050919050565b61109581611082565b81146110a057600080fd5b50565b6000813590506110b28161108c565b92915050565b600060ff82169050919050565b6110ce816110b8565b81146110d957600080fd5b50565b6000813590506110eb816110c5565b92915050565b600080604083850312156111085761110761107d565b5b6000611116858286016110a3565b9250506020611127858286016110dc565b9150509250929050565b600073ffffffffffffffffffffffffffffffffffffffff82169050919050565b600061115c82611131565b9050919050565b61116c81611151565b811461117757600080fd5b50565b60008135905061118981611163565b92915050565b600080600080608085870312156111a9576111a861107d565b5b60006111b7878288016110a3565b94505060206111c8878288016110a3565b93505060406111d98782880161117a565b92505060606111ea8782880161117a565b91505092959194509250565b600080fd5b6000601f19601f8301169050919050565b7f4e487b7100000000000000000000000000000000000000000000000000000000600052604160045260246000fd5b611244826111fb565b810181811067ffffffffffffffff821117156112635761126261120c565b5b80604052505050565b6000611276611073565b9050611282828261123b565b919050565b600060a0828403121561129d5761129c6111f6565b5b6112a760a061126c565b905060006112b7848285016110dc565b60008301525060206112cb848285016110a3565b60208301525060406112df848285016110a3565b60408301525060606112f3848285016110a3565b60608301525060806113078482850161117a565b60808301525092915050565b600060a082840312156113295761132861107d565b5b600061133784828501611287565b91505092915050565b600061134b82611131565b9050919050565b61135b81611340565b811461136657600080fd5b50565b60008135905061137881611352565b92915050565b6000819050919050565b6113918161137e565b811461139c57600080fd5b50565b6000813590506113ae81611388565b92915050565b6000806000606084860312156113cd576113cc61107d565b5b60006113db868287016110a3565b93505060206113ec86828701611369565b92505060406113fd8682870161139f565b9150509250925092565b6000806040838503121561141e5761141d61107d565b5b600061142c85828601611369565b925050602061143d8582860161139f565b9150509250929050565b6000806000606084860312156114605761145f61107d565b5b600061146e868287016110a3565b935050602061147f8682870161139f565b9250506040611490868287016110dc565b9150509250925092565b6000602082840312156114b0576114af61107d565b5b60006114be848285016110a3565b91505092915050565b6114d081611082565b82525050565b7f4e487b7100000000000000000000000000000000000000000000000000000000600052602160045260246000fd5b60028110611516576115156114d6565b5b50565b600081905061152782611505565b919050565b600061153782611519565b9050919050565b6115478161152c565b82525050565b6115568161137e565b82525050565b61156581611151565b82525050565b60a08201600082015161158160008501826114c7565b50602082015161159460208501826114c7565b5060408201516115a7604085018261153e565b5060608201516115ba606085018261154d565b5060808201516115cd608085018261155c565b50505050565b600060a0820190506115e8600083018461156b565b92915050565b6115f781611151565b82525050565b600060208201905061161260008301846115ee565b92915050565b600082825260208201905092915050565b7f57726f6e6720457468657265756d2064657374696e6174696f6e20616464726560008201527f7373210000000000000000000000000000000000000000000000000000000000602082015250565b6000611685602383611618565b915061169082611629565b604082019050919050565b600060208201905081810360008301526116b481611678565b9050919050565b7f4e6f742061206d656d6265720000000000000000000000000000000000000000600082015250565b60006116f1600c83611618565b91506116fc826116bb565b602082019050919050565b60006020820190508181036000830152611720816116e4565b9050919050565b7f4e487b7100000000000000000000000000000000000000000000000000000000600052601160045260246000fd5b60006117618261137e565b915061176c8361137e565b925082820190508082111561178457611783611727565b5b92915050565b611793816110b8565b82525050565b6117a281611082565b82525050565b6117b18161137e565b82525050565b60006080820190506117cc600083018761178a565b6117d96020830186611799565b6117e66040830185611799565b6117f360608301846117a8565b95945050505050565b7f496e697469616c697a61626c653a20636f6e747261637420697320616c72656160008201527f647920696e697469616c697a6564000000000000000000000000000000000000602082015250565b6000611858602e83611618565b9150611863826117fc565b604082019050919050565b600060208201905081810360008301526118878161184b565b9050919050565b6000819050919050565b6000819050919050565b60006118bd6118b86118b38461188e565b611898565b6110b8565b9050919050565b6118cd816118a2565b82525050565b60006020820190506118e860008301846118c4565b92915050565b7f4d656d62657220616c7265647920696e20636c75622100000000000000000000600082015250565b6000611924601683611618565b915061192f826118ee565b602082019050919050565b6000602082019050818103600083015261195381611917565b9050919050565b7f496e76616c696420617574686f726974792063616c6c21000000000000000000600082015250565b6000611990601783611618565b915061199b8261195a565b602082019050919050565b600060208201905081810360008301526119bf81611983565b9050919050565b60006119e16119dc6119d784611131565b611898565b611131565b9050919050565b60006119f3826119c6565b9050919050565b6000611a05826119e8565b9050919050565b611a15816119fa565b82525050565b6000606082019050611a3060008301866115ee565b611a3d6020830185611a0c565b611a4a60408301846117a8565b949350505050565b60008115159050919050565b611a6781611a52565b8114611a7257600080fd5b50565b600081519050611a8481611a5e565b92915050565b600060208284031215611aa057611a9f61107d565b5b6000611aae84828501611a75565b91505092915050565b7f496e76616c69642064656e6f6d696e617465642063757272656e637921000000600082015250565b6000611aed601d83611618565b9150611af882611ab7565b602082019050919050565b60006020820190508181036000830152611b1c81611ae0565b9050919050565b6000606082019050611b3860008301866115ee565b611b4560208301856115ee565b611b5260408301846117a8565b949350505050565b6000819050919050565b611b75611b7082611082565b611b5a565b82525050565b6000819050919050565b611b96611b918261137e565b611b7b565b82525050565b6000611ba88285611b64565b602082019150611bb88284611b85565b6020820191508190509392505050565b600063ffffffff82169050919050565b6000611bf3611bee611be9846110b8565b611898565b611bc8565b9050919050565b611c0381611bd8565b82525050565b600081519050919050565b600082825260208201905092915050565b60005b83811015611c43578082015181840152602081019050611c28565b60008484015250505050565b6000611c5a82611c09565b611c648185611c14565b9350611c74818560208601611c25565b611c7d816111fb565b840191505092915050565b6000606082019050611c9d6000830186611bfa565b8181036020830152611caf8185611c4f565b9050611cbe60408301846118c4565b949350505050565b600067ffffffffffffffff82169050919050565b611ce381611cc6565b8114611cee57600080fd5b50565b600081519050611d0081611cda565b92915050565b600060208284031215611d1c57611d1b61107d565b5b6000611d2a84828501611cf1565b9150509291505056fea2646970667358221220de7280a09716466e33a73882bd802dcf4ea801d17dfbe43fd347fc459dbf7e6e64736f6c63430008110033",
  "immutableReferences": {},
  "source": "// SPDX-License-Identifier: Apache 2\npragma solidity 0.8.17;\nimport \"@openzeppelin/contracts-upgradeable/proxy/utils/Initializable.sol\";\nimport \"../structs/UnqWormholeStructs.sol\";\nimport \"@openzeppelin/contracts/token/ERC20/ERC20.sol\";\nimport \"../interface/IWormhole.sol\";\n\ncontract UnqTreasury is Initializable {\n    bytes32 _realmAddress;\n    bytes32 _treasuryAuthority;\n    address _denominatedCurrency;\n    IWormhole core_contract;\n    mapping(bytes32 => UnqWormholeStructs.MemberData) members;\n    address _relayerSigner;\n    mapping(address => uint256) memberDeposits;\n\n    constructor() {\n        _disableInitializers();\n    }\n\n    //TODO:Make modifier that encodes address to bytes32 format and use it in every function that accepts bytes32 sender\n    modifier nonExistingMember(\n        UnqWormholeStructs.AddMemberAction memory member\n    ) {\n        require(\n            members[member.solanaAddress].solanaAddress == bytes32(0),\n            \"Member alredy in club!\"\n        );\n        _;\n    }\n\n    modifier onlyAuthority(bytes32 authority) {\n        require(authority == _treasuryAuthority, \"Invalid permission\");\n        _;\n    }\n\n    modifier existingMember(bytes32 solanaAddress, address ethereumAddress) {\n        require(\n            members[solanaAddress].ethAddress == ethereumAddress,\n            \"Wrong Ethereum destination address!\"\n        );\n        _;\n    }\n\n    modifier onlyRelayerSigner() {\n        require(tx.origin == _relayerSigner, \"Invalid authority call!\");\n        _;\n    }\n\n    modifier denominatedCurrencyRestrict() {\n        require(\n            _denominatedCurrency != address(0),\n            \"Invalid denominated currency!\"\n        );\n\n        _;\n    }\n\n    event MemberAddedEvent(UnqWormholeStructs.MemberData);\n\n    function initialize(\n        bytes32 realmAddress,\n        bytes32 treasuryAuthority,\n        address denominatedCurrency,\n        address wormholeBridge\n    ) external initializer {\n        _realmAddress = realmAddress;\n\n        _treasuryAuthority = treasuryAuthority;\n\n        _denominatedCurrency = denominatedCurrency;\n\n        //TODO:set this from constructor\n        core_contract = IWormhole(0xC89Ce4735882C9F0f0FE26686c53074E09B0D550);\n\n        members[treasuryAuthority] = UnqWormholeStructs.MemberData({\n            solanaAddress: treasuryAuthority,\n            ethAddress: tx.origin,\n            status: UnqWormholeStructs.MemberStatus.Accepted,\n            joinedAt: block.timestamp,\n            realmAddress: _realmAddress\n        });\n    }\n\n    function addNewMember(UnqWormholeStructs.AddMemberAction memory newMember)\n        external\n        nonExistingMember(newMember)\n    {\n        UnqWormholeStructs.MemberData memory memberData = UnqWormholeStructs\n            .MemberData({\n                realmAddress: _realmAddress,\n                solanaAddress: newMember.solanaAddress,\n                ethAddress: newMember.ethAddress,\n                status: UnqWormholeStructs.MemberStatus.Accepted,\n                joinedAt: block.timestamp\n            });\n        members[newMember.solanaAddress] = memberData;\n        emit MemberAddedEvent(memberData);\n    }\n\n    function receiveFunds(bytes32 memberAddress, uint8 nonce)\n        external\n        payable\n        existingMember(memberAddress, msg.sender)\n    {\n        require(\n            members[memberAddress].status ==\n                UnqWormholeStructs.MemberStatus.Accepted,\n            \"Not a member\"\n        );\n        memberDeposits[tx.origin] += msg.value;\n\n        bytes memory vaaBytes = abi.encode(\n            uint8(1),\n            _realmAddress,\n            memberAddress,\n            msg.value\n        );\n        postVaa(vaaBytes, nonce);\n    }\n\n    function getMemberData(bytes32 memberAddress)\n        public\n        view\n        returns (UnqWormholeStructs.MemberData memory)\n    {\n        return members[memberAddress];\n    }\n\n    function transferFunds(address payable destination, uint256 amount)\n        external\n        onlyRelayerSigner\n    {\n        if (_denominatedCurrency != address(0)) {\n            destination.transfer(amount);\n        } else {\n            ERC20 token = ERC20(_denominatedCurrency);\n            token.transferFrom(address(this), destination, amount);\n        }\n    }\n\n    function claimReward(\n        bytes32 solanaAddress,\n        address payable destination,\n        uint256 amount\n    ) external existingMember(solanaAddress, destination) onlyRelayerSigner {\n        if (_denominatedCurrency != address(0)) {\n            destination.transfer(amount);\n        } else {\n            ERC20 token = ERC20(_denominatedCurrency);\n            token.transferFrom(address(this), destination, amount);\n        }\n    }\n\n    function depositDenominatedCurrency(\n        bytes32 solanaAddress,\n        uint256 amount,\n        uint8 nonce\n    ) public denominatedCurrencyRestrict {\n        ERC20 token = ERC20(_denominatedCurrency);\n\n        token.transferFrom(msg.sender, address(this), amount);\n        memberDeposits[msg.sender] += amount;\n\n        bytes memory vaaBytes = abi.encodePacked(solanaAddress, amount);\n        postVaa(vaaBytes, nonce);\n    }\n\n    function getDenominatedCurrency() public view returns (address) {\n        return _denominatedCurrency;\n    }\n\n    function postVaa(bytes memory payload, uint8 nonce) private {\n        //TODO:Use consistency level finalized on production.Check how to generate random nonce\n        core_contract.publishMessage(nonce, payload, 1);\n    }\n}\n",
  "sourcePath": "/Users/gorangutovic/Desktop/unique/unq-treasury-eth/contracts/Treasury/UnqTreasury.sol",
  "compiler": {
    "name": "solc",
    "version": "0.8.17+commit.8df45f5f.Emscripten.clang"
  },
  "schemaVersion": "3.4.11",
  "updatedAt": "2023-02-09T20:01:28.790Z",
  "networkType": "ethereum",
  "devdoc": {
    "kind": "dev",
    "methods": {},
    "version": 1
  },
  "userdoc": {
    "kind": "user",
    "methods": {},
    "version": 1
  }
}