{
  "contractName": "UnqTreasury",
  "abi": [
    {
      "inputs": [],
      "stateMutability": "nonpayable",
      "type": "constructor"
    },
    {
      "anonymous": false,
      "inputs": [
        {
          "indexed": false,
          "internalType": "uint256",
          "name": "",
          "type": "uint256"
        }
      ],
      "name": "ClaimFundsEvent",
      "type": "event"
    },
    {
      "anonymous": false,
      "inputs": [
        {
          "indexed": false,
          "internalType": "uint256",
          "name": "",
          "type": "uint256"
        }
      ],
      "name": "DepositEvent",
      "type": "event"
    },
    {
      "anonymous": false,
      "inputs": [
        {
          "indexed": false,
          "internalType": "uint8",
          "name": "version",
          "type": "uint8"
        }
      ],
      "name": "Initialized",
      "type": "event"
    },
    {
      "anonymous": false,
      "inputs": [
        {
          "components": [
            {
              "internalType": "bytes32",
              "name": "solanaTreasury",
              "type": "bytes32"
            },
            {
              "internalType": "bytes32",
              "name": "solanaAddress",
              "type": "bytes32"
            },
            {
              "internalType": "enum UnqWormholeStructs.MemberStatus",
              "name": "status",
              "type": "uint8"
            },
            {
              "internalType": "uint256",
              "name": "joinedAt",
              "type": "uint256"
            },
            {
              "internalType": "address",
              "name": "ethAddress",
              "type": "address"
            }
          ],
          "indexed": false,
          "internalType": "struct UnqWormholeStructs.MemberData",
          "name": "",
          "type": "tuple"
        }
      ],
      "name": "MemberAddedEvent",
      "type": "event"
    },
    {
      "anonymous": false,
      "inputs": [
        {
          "components": [
            {
              "internalType": "bytes32",
              "name": "buyer",
              "type": "bytes32"
            },
            {
              "internalType": "bytes32",
              "name": "seller",
              "type": "bytes32"
            },
            {
              "internalType": "bytes32",
              "name": "solanaTreasury",
              "type": "bytes32"
            },
            {
              "internalType": "uint256",
              "name": "amount",
              "type": "uint256"
            }
          ],
          "indexed": false,
          "internalType": "struct UnqWormholeStructs.SharesBought",
          "name": "",
          "type": "tuple"
        }
      ],
      "name": "SharesBoughtEvent",
      "type": "event"
    },
    {
      "anonymous": false,
      "inputs": [
        {
          "indexed": false,
          "internalType": "uint256",
          "name": "",
          "type": "uint256"
        }
      ],
      "name": "TransferFundsEvent",
      "type": "event"
    },
    {
      "anonymous": false,
      "inputs": [
        {
          "indexed": false,
          "internalType": "bytes32",
          "name": "",
          "type": "bytes32"
        }
      ],
      "name": "TreasuryCreatedEvent",
      "type": "event"
    },
    {
      "anonymous": false,
      "inputs": [
        {
          "indexed": false,
          "internalType": "uint256",
          "name": "",
          "type": "uint256"
        }
      ],
      "name": "WithdrawFundsEvent",
      "type": "event"
    },
    {
      "inputs": [
        {
          "internalType": "bytes32",
          "name": "solanaTreasury",
          "type": "bytes32"
        },
        {
          "internalType": "bytes32",
          "name": "treasuryAuthority",
          "type": "bytes32"
        },
        {
          "internalType": "address",
          "name": "denominatedCurrency",
          "type": "address"
        },
        {
          "internalType": "address",
          "name": "factoryContract",
          "type": "address"
        },
        {
          "internalType": "address",
          "name": "creator",
          "type": "address"
        },
        {
          "internalType": "address",
          "name": "relayerSigner",
          "type": "address"
        }
      ],
      "name": "initialize",
      "outputs": [],
      "stateMutability": "nonpayable",
      "type": "function"
    },
    {
      "inputs": [
        {
          "components": [
            {
              "internalType": "uint8",
              "name": "action",
              "type": "uint8"
            },
            {
              "internalType": "bytes32",
              "name": "realmAddress",
              "type": "bytes32"
            },
            {
              "internalType": "bytes32",
              "name": "solanaAddress",
              "type": "bytes32"
            },
            {
              "internalType": "address",
              "name": "ethAddress",
              "type": "address"
            }
          ],
          "internalType": "struct UnqWormholeStructs.AddMemberAction",
          "name": "newMember",
          "type": "tuple"
        }
      ],
      "name": "addNewMember",
      "outputs": [],
      "stateMutability": "nonpayable",
      "type": "function"
    },
    {
      "inputs": [
        {
          "internalType": "bytes32",
          "name": "memberAddress",
          "type": "bytes32"
        },
        {
          "internalType": "uint8",
          "name": "nonce",
          "type": "uint8"
        }
      ],
      "name": "receiveFunds",
      "outputs": [],
      "stateMutability": "payable",
      "type": "function",
      "payable": true
    },
    {
      "inputs": [
        {
          "internalType": "bytes32",
          "name": "memberAddress",
          "type": "bytes32"
        }
      ],
      "name": "getMemberData",
      "outputs": [
        {
          "components": [
            {
              "internalType": "bytes32",
              "name": "solanaTreasury",
              "type": "bytes32"
            },
            {
              "internalType": "bytes32",
              "name": "solanaAddress",
              "type": "bytes32"
            },
            {
              "internalType": "enum UnqWormholeStructs.MemberStatus",
              "name": "status",
              "type": "uint8"
            },
            {
              "internalType": "uint256",
              "name": "joinedAt",
              "type": "uint256"
            },
            {
              "internalType": "address",
              "name": "ethAddress",
              "type": "address"
            }
          ],
          "internalType": "struct UnqWormholeStructs.MemberData",
          "name": "",
          "type": "tuple"
        }
      ],
      "stateMutability": "view",
      "type": "function",
      "constant": true
    },
    {
      "inputs": [
        {
          "internalType": "address payable",
          "name": "destination",
          "type": "address"
        },
        {
          "internalType": "uint256",
          "name": "amount",
          "type": "uint256"
        },
        {
          "internalType": "address",
          "name": "currency",
          "type": "address"
        }
      ],
      "name": "transferFunds",
      "outputs": [],
      "stateMutability": "nonpayable",
      "type": "function"
    },
    {
      "inputs": [
        {
          "internalType": "bytes32",
          "name": "solanaAddress",
          "type": "bytes32"
        },
        {
          "internalType": "address payable",
          "name": "destination",
          "type": "address"
        },
        {
          "internalType": "uint256",
          "name": "amount",
          "type": "uint256"
        },
        {
          "internalType": "address",
          "name": "currency",
          "type": "address"
        }
      ],
      "name": "withdrawFunds",
      "outputs": [],
      "stateMutability": "nonpayable",
      "type": "function"
    },
    {
      "inputs": [
        {
          "internalType": "address payable",
          "name": "receiver",
          "type": "address"
        },
        {
          "internalType": "bytes32",
          "name": "treasury",
          "type": "bytes32"
        },
        {
          "internalType": "bytes32",
          "name": "financialOffer",
          "type": "bytes32"
        },
        {
          "internalType": "bytes32",
          "name": "seller",
          "type": "bytes32"
        },
        {
          "internalType": "bytes32",
          "name": "buyer",
          "type": "bytes32"
        }
      ],
      "name": "sellFinancialRights",
      "outputs": [],
      "stateMutability": "payable",
      "type": "function",
      "payable": true
    },
    {
      "inputs": [
        {
          "internalType": "bytes32",
          "name": "solanaAddress",
          "type": "bytes32"
        },
        {
          "internalType": "address payable",
          "name": "destination",
          "type": "address"
        },
        {
          "internalType": "uint256",
          "name": "amount",
          "type": "uint256"
        },
        {
          "internalType": "address",
          "name": "currency",
          "type": "address"
        }
      ],
      "name": "claimFunds",
      "outputs": [],
      "stateMutability": "nonpayable",
      "type": "function"
    },
    {
      "inputs": [
        {
          "internalType": "bytes32",
          "name": "sellerSolanaAddress",
          "type": "bytes32"
        },
        {
          "internalType": "bytes32",
          "name": "buyerSolanaAddress",
          "type": "bytes32"
        },
        {
          "internalType": "bytes32",
          "name": "treasury",
          "type": "bytes32"
        },
        {
          "internalType": "address",
          "name": "receiver",
          "type": "address"
        },
        {
          "internalType": "bytes32",
          "name": "financialOffer",
          "type": "bytes32"
        },
        {
          "internalType": "uint256",
          "name": "amount",
          "type": "uint256"
        }
      ],
      "name": "sellSharesDenominatedCurrency",
      "outputs": [],
      "stateMutability": "payable",
      "type": "function",
      "payable": true
    },
    {
      "inputs": [
        {
          "internalType": "address",
          "name": "currency",
          "type": "address"
        },
        {
          "internalType": "uint256",
          "name": "amount",
          "type": "uint256"
        }
      ],
      "name": "executeWithdrawal",
      "outputs": [],
      "stateMutability": "payable",
      "type": "function",
      "payable": true
    },
    {
      "inputs": [
        {
          "internalType": "bytes32",
          "name": "solanaAddress",
          "type": "bytes32"
        },
        {
          "internalType": "uint256",
          "name": "amount",
          "type": "uint256"
        },
        {
          "internalType": "uint8",
          "name": "nonce",
          "type": "uint8"
        }
      ],
      "name": "depositDenominatedCurrency",
      "outputs": [],
      "stateMutability": "payable",
      "type": "function",
      "payable": true
    },
    {
      "inputs": [],
      "name": "getDenominatedCurrency",
      "outputs": [
        {
          "internalType": "address",
          "name": "",
          "type": "address"
        }
      ],
      "stateMutability": "view",
      "type": "function",
      "constant": true
    },
    {
      "inputs": [
        {
          "internalType": "address payable",
          "name": "destination",
          "type": "address"
        },
        {
          "internalType": "uint256",
          "name": "percentage",
          "type": "uint256"
        }
      ],
      "name": "setPlatformFees",
      "outputs": [],
      "stateMutability": "nonpayable",
      "type": "function"
    },
    {
      "inputs": [
        {
          "internalType": "uint256",
          "name": "depositAmount",
          "type": "uint256"
        }
      ],
      "name": "transferFees",
      "outputs": [],
      "stateMutability": "payable",
      "type": "function",
      "payable": true
    }
  ],
  "bytecode": "0x6080604052612710600b553480156200001757600080fd5b50620000286200002e60201b60201c565b620001d9565b600060019054906101000a900460ff161562000081576040517f08c379a000000000000000000000000000000000000000000000000000000000815260040162000078906200017c565b60405180910390fd5b60ff801660008054906101000a900460ff1660ff161015620000f35760ff6000806101000a81548160ff021916908360ff1602179055507f7f26b83ff96e1f2b6a682f133852f6798a09c465da95921460cefb384740249860ff604051620000ea9190620001bc565b60405180910390a15b565b600082825260208201905092915050565b7f496e697469616c697a61626c653a20636f6e747261637420697320696e69746960008201527f616c697a696e6700000000000000000000000000000000000000000000000000602082015250565b600062000164602783620000f5565b9150620001718262000106565b604082019050919050565b60006020820190508181036000830152620001978162000155565b9050919050565b600060ff82169050919050565b620001b6816200019e565b82525050565b6000602082019050620001d36000830184620001ab565b92915050565b613e8e80620001e96000396000f3fe608060405260043610620000f25760003560e01c8063bd35f321116200008b578063d0e4e1511162000061578063d0e4e1511462000293578063d15c484e14620002b3578063f25dfaf714620002e1578063fb1d97dc146200031157620000f2565b8063bd35f321146200020f578063bf19d77a146200022f578063c74e2493146200024f57620000f2565b80637ac9245611620000cd5780637ac92456146200017357806389d29c4c1462000193578063a8432cac14620001c1578063bc2fea4514620001ef57620000f2565b806314ef5cfa14620000f757806319e64f5814620001255780631d978e491462000153575b600080fd5b3480156200010457600080fd5b506200012360048036038101906200011d919062002558565b6200033f565b005b3480156200013257600080fd5b506200015160048036038101906200014b9190620025ca565b62000557565b005b6200017160048036038101906200016b919062002664565b62000736565b005b6200019160048036038101906200018b9190620026ab565b62000a1f565b005b348015620001a057600080fd5b50620001bf6004803603810190620001b99190620026f2565b62000c08565b005b348015620001ce57600080fd5b50620001ed6004803603810190620001e791906200278e565b62000fdb565b005b6200020d6004803603810190620002079190620027d5565b6200110e565b005b6200022d600480360381019062000227919062002871565b62001377565b005b6200024d6004803603810190620002479190620028cd565b620016c7565b005b3480156200025c57600080fd5b506200027b6004803603810190620002759190620028ff565b62001870565b6040516200028a919062002a56565b60405180910390f35b620002b16004803603810190620002ab919062002a73565b62001954565b005b348015620002c057600080fd5b50620002df6004803603810190620002d9919062002558565b62001e42565b005b348015620002ee57600080fd5b50620002f9620020cd565b60405162000308919062002b0c565b60405180910390f35b3480156200031e57600080fd5b506200033d600480360381019062000337919062002c48565b620020f7565b005b600960009054906101000a900473ffffffffffffffffffffffffffffffffffffffff1673ffffffffffffffffffffffffffffffffffffffff163273ffffffffffffffffffffffffffffffffffffffff1614620003d2576040517f08c379a0000000000000000000000000000000000000000000000000000000008152600401620003c99062002cdb565b60405180910390fd5b83838073ffffffffffffffffffffffffffffffffffffffff166008600084815260200190815260200160002060040160009054906101000a900473ffffffffffffffffffffffffffffffffffffffff1673ffffffffffffffffffffffffffffffffffffffff16146200047b576040517f08c379a0000000000000000000000000000000000000000000000000000000008152600401620004729062002d73565b60405180910390fd5b6000600660009054906101000a900473ffffffffffffffffffffffffffffffffffffffff1690508073ffffffffffffffffffffffffffffffffffffffff16633e0a943c8786886040518463ffffffff1660e01b8152600401620004e19392919062002db7565b600060405180830381600087803b158015620004fc57600080fd5b505af115801562000511573d6000803e3d6000fd5b505050507f5057b927f141ba401de87daf806c060c2bd6cd63cc7d2168173aceafc765843e8560405162000546919062002df4565b60405180910390a150505050505050565b600960009054906101000a900473ffffffffffffffffffffffffffffffffffffffff1673ffffffffffffffffffffffffffffffffffffffff163273ffffffffffffffffffffffffffffffffffffffff1614620005ea576040517f08c379a0000000000000000000000000000000000000000000000000000000008152600401620005e19062002cdb565b60405180910390fd5b600073ffffffffffffffffffffffffffffffffffffffff168173ffffffffffffffffffffffffffffffffffffffff16036200066d578273ffffffffffffffffffffffffffffffffffffffff166108fc839081150290604051600060405180830381858888f1935050505015801562000666573d6000803e3d6000fd5b50620006f8565b60008190508073ffffffffffffffffffffffffffffffffffffffff1663a9059cbb85856040518363ffffffff1660e01b8152600401620006af92919062002e7c565b6020604051808303816000875af1158015620006cf573d6000803e3d6000fd5b505050506040513d601f19601f82011682018060405250810190620006f5919062002ee6565b50505b7f7659805158d7560b5fea9106dd42c0023c0e2b1fb05ba48aa64f5cd6464b739f8260405162000729919062002df4565b60405180910390a1505050565b81338073ffffffffffffffffffffffffffffffffffffffff166008600084815260200190815260200160002060040160009054906101000a900473ffffffffffffffffffffffffffffffffffffffff1673ffffffffffffffffffffffffffffffffffffffff1614620007df576040517f08c379a0000000000000000000000000000000000000000000000000000000008152600401620007d69062002d73565b60405180910390fd5b6000806001548634604051602001620007fc949392919062002f9e565b6040516020818303038152906040529050600460009054906101000a900473ffffffffffffffffffffffffffffffffffffffff1673ffffffffffffffffffffffffffffffffffffffff1663ac9a3db382866040518363ffffffff1660e01b81526004016200086c9291906200308e565b600060405180830381600087803b1580156200088757600080fd5b505af11580156200089c573d6000803e3d6000fd5b50505050600180811115620008b657620008b562002942565b5b6008600087815260200190815260200160002060020160009054906101000a900460ff166001811115620008ef57620008ee62002942565b5b1462000932576040517f08c379a0000000000000000000000000000000000000000000000000000000008152600401620009299062003112565b60405180910390fd5b633b9aca003410156200097c576040517f08c379a0000000000000000000000000000000000000000000000000000000008152600401620009739062003184565b60405180910390fd5b34600a60003273ffffffffffffffffffffffffffffffffffffffff1673ffffffffffffffffffffffffffffffffffffffff1681526020019081526020016000206000828254620009cd9190620031d5565b92505081905550620009df34620016c7565b7f0adeae8759aabaf58fb5029d7519173f1f604ef94b5a157fb8f6f2a6af34b13d3460405162000a10919062002df4565b60405180910390a15050505050565b600960009054906101000a900473ffffffffffffffffffffffffffffffffffffffff1673ffffffffffffffffffffffffffffffffffffffff163273ffffffffffffffffffffffffffffffffffffffff161462000ab2576040517f08c379a000000000000000000000000000000000000000000000000000000000815260040162000aa99062002cdb565b60405180910390fd5b600073ffffffffffffffffffffffffffffffffffffffff168273ffffffffffffffffffffffffffffffffffffffff160362000b5757600660009054906101000a900473ffffffffffffffffffffffffffffffffffffffff1673ffffffffffffffffffffffffffffffffffffffff166108fc829081150290604051600060405180830381858888f1935050505015801562000b50573d6000803e3d6000fd5b5062000c04565b60008290508073ffffffffffffffffffffffffffffffffffffffff1663a9059cbb600660009054906101000a900473ffffffffffffffffffffffffffffffffffffffff16846040518363ffffffff1660e01b815260040162000bbb92919062003210565b6020604051808303816000875af115801562000bdb573d6000803e3d6000fd5b505050506040513d601f19601f8201168201806040525081019062000c01919062002ee6565b50505b5050565b60008060019054906101000a900460ff1615905080801562000c3a5750600160008054906101000a900460ff1660ff16105b8062000c6b575062000c4c306200233e565b15801562000c6a5750600160008054906101000a900460ff1660ff16145b5b62000cad576040517f08c379a000000000000000000000000000000000000000000000000000000000815260040162000ca490620032b3565b60405180910390fd5b60016000806101000a81548160ff021916908360ff160217905550801562000ceb576001600060016101000a81548160ff0219169083151502179055505b866001819055508560028190555084600360006101000a81548173ffffffffffffffffffffffffffffffffffffffff021916908373ffffffffffffffffffffffffffffffffffffffff16021790555083600460006101000a81548173ffffffffffffffffffffffffffffffffffffffff021916908373ffffffffffffffffffffffffffffffffffffffff16021790555081600960006101000a81548173ffffffffffffffffffffffffffffffffffffffff021916908373ffffffffffffffffffffffffffffffffffffffff16021790555060003060405162000dcd90620023bb565b62000dd9919062002b0c565b604051809103906000f08015801562000df6573d6000803e3d6000fd5b50905080600660006101000a81548173ffffffffffffffffffffffffffffffffffffffff021916908373ffffffffffffffffffffffffffffffffffffffff1602179055506040518060a00160405280600154815260200188815260200160018081111562000e695762000e6862002942565b5b81526020014281526020018573ffffffffffffffffffffffffffffffffffffffff1681525060086000898152602001908152602001600020600082015181600001556020820151816001015560408201518160020160006101000a81548160ff0219169083600181111562000ee35762000ee262002942565b5b02179055506060820151816003015560808201518160040160006101000a81548173ffffffffffffffffffffffffffffffffffffffff021916908373ffffffffffffffffffffffffffffffffffffffff1602179055509050507f4ccd63ea06a2303708404d91dd8142bf6b6d829eb91ce48e05efc4dabdd551198860405162000f6d9190620032e6565b60405180910390a150801562000fd25760008060016101000a81548160ff0219169083151502179055507f7f26b83ff96e1f2b6a682f133852f6798a09c465da95921460cefb3847402498600160405162000fc9919062003346565b60405180910390a15b50505050505050565b600960009054906101000a900473ffffffffffffffffffffffffffffffffffffffff1673ffffffffffffffffffffffffffffffffffffffff163273ffffffffffffffffffffffffffffffffffffffff16146200106e576040517f08c379a0000000000000000000000000000000000000000000000000000000008152600401620010659062002cdb565b60405180910390fd5b60008110806200107f575061271081115b15620010c2576040517f08c379a0000000000000000000000000000000000000000000000000000000008152600401620010b990620033b3565b60405180910390fd5b81600760006101000a81548173ffffffffffffffffffffffffffffffffffffffff021916908373ffffffffffffffffffffffffffffffffffffffff160217905550806005819055505050565b600073ffffffffffffffffffffffffffffffffffffffff16600360009054906101000a900473ffffffffffffffffffffffffffffffffffffffff1673ffffffffffffffffffffffffffffffffffffffff1603620011a2576040517f08c379a000000000000000000000000000000000000000000000000000000000815260040162001199906200344b565b60405180910390fd5b6000600360009054906101000a900473ffffffffffffffffffffffffffffffffffffffff1690508073ffffffffffffffffffffffffffffffffffffffff166323b872dd3386856040518463ffffffff1660e01b815260040162001208939291906200346d565b6020604051808303816000875af115801562001228573d6000803e3d6000fd5b505050506040513d601f19601f820116820180604052508101906200124e919062002ee6565b50600060018688868b876040516020016200126f96959493929190620034aa565b6040516020818303038152906040529050600460009054906101000a900473ffffffffffffffffffffffffffffffffffffffff1673ffffffffffffffffffffffffffffffffffffffff1663ac9a3db38260006040518363ffffffff1660e01b8152600401620012e092919062003569565b600060405180830381600087803b158015620012fb57600080fd5b505af115801562001310573d6000803e3d6000fd5b505050507f94581681b8a0d4e7c6a54f2ffbeee19c917bb4ec133f0692f032cb1687b88a3460405180608001604052808981526020018a815260200188815260200185815250604051620013659190620035fa565b60405180910390a15050505050505050565b600073ffffffffffffffffffffffffffffffffffffffff16600360009054906101000a900473ffffffffffffffffffffffffffffffffffffffff1673ffffffffffffffffffffffffffffffffffffffff16036200140b576040517f08c379a0000000000000000000000000000000000000000000000000000000008152600401620014029062003667565b60405180910390fd5b82338073ffffffffffffffffffffffffffffffffffffffff166008600084815260200190815260200160002060040160009054906101000a900473ffffffffffffffffffffffffffffffffffffffff1673ffffffffffffffffffffffffffffffffffffffff1614620014b4576040517f08c379a0000000000000000000000000000000000000000000000000000000008152600401620014ab9062002d73565b60405180910390fd5b6000806001548787604051602001620014d1949392919062002f9e565b6040516020818303038152906040529050600460009054906101000a900473ffffffffffffffffffffffffffffffffffffffff1673ffffffffffffffffffffffffffffffffffffffff1663ac9a3db382866040518363ffffffff1660e01b8152600401620015419291906200308e565b600060405180830381600087803b1580156200155c57600080fd5b505af115801562001571573d6000803e3d6000fd5b505050506000600360009054906101000a900473ffffffffffffffffffffffffffffffffffffffff1690508073ffffffffffffffffffffffffffffffffffffffff166323b872dd3330896040518463ffffffff1660e01b8152600401620015db939291906200346d565b6020604051808303816000875af1158015620015fb573d6000803e3d6000fd5b505050506040513d601f19601f8201168201806040525081019062001621919062002ee6565b506200162d86620016c7565b85600a60003373ffffffffffffffffffffffffffffffffffffffff1673ffffffffffffffffffffffffffffffffffffffff16815260200190815260200160002060008282546200167e9190620031d5565b925050819055507f0adeae8759aabaf58fb5029d7519173f1f604ef94b5a157fb8f6f2a6af34b13d86604051620016b6919062002df4565b60405180910390a150505050505050565b6000620016d48262002361565b9050600073ffffffffffffffffffffffffffffffffffffffff16600360009054906101000a900473ffffffffffffffffffffffffffffffffffffffff1673ffffffffffffffffffffffffffffffffffffffff161462001801576000600360009054906101000a900473ffffffffffffffffffffffffffffffffffffffff1690508073ffffffffffffffffffffffffffffffffffffffff1663a9059cbb600760009054906101000a900473ffffffffffffffffffffffffffffffffffffffff16846040518363ffffffff1660e01b8152600401620017b392919062002e7c565b6020604051808303816000875af1158015620017d3573d6000803e3d6000fd5b505050506040513d601f19601f82011682018060405250810190620017f9919062002ee6565b50506200186c565b600760009054906101000a900473ffffffffffffffffffffffffffffffffffffffff1673ffffffffffffffffffffffffffffffffffffffff166108fc829081150290604051600060405180830381858888f193505050501580156200186a573d6000803e3d6000fd5b505b5050565b6200187a620023c9565b600860008381526020019081526020016000206040518060a001604052908160008201548152602001600182015481526020016002820160009054906101000a900460ff166001811115620018d457620018d362002942565b5b6001811115620018e957620018e862002942565b5b8152602001600382015481526020016004820160009054906101000a900473ffffffffffffffffffffffffffffffffffffffff1673ffffffffffffffffffffffffffffffffffffffff1673ffffffffffffffffffffffffffffffffffffffff16815250509050919050565b803383876000600860008681526020019081526020016000206040518060a001604052908160008201548152602001600182015481526020016002820160009054906101000a900460ff166001811115620019b457620019b362002942565b5b6001811115620019c957620019c862002942565b5b8152602001600382015481526020016004820160009054906101000a900473ffffffffffffffffffffffffffffffffffffffff1673ffffffffffffffffffffffffffffffffffffffff1673ffffffffffffffffffffffffffffffffffffffff168152505090508373ffffffffffffffffffffffffffffffffffffffff16816080015173ffffffffffffffffffffffffffffffffffffffff161462001aa4576040517f08c379a000000000000000000000000000000000000000000000000000000000815260040162001a9b90620036d9565b60405180910390fd5b6000600860008581526020019081526020016000206040518060a001604052908160008201548152602001600182015481526020016002820160009054906101000a900460ff16600181111562001b005762001aff62002942565b5b600181111562001b155762001b1462002942565b5b8152602001600382015481526020016004820160009054906101000a900473ffffffffffffffffffffffffffffffffffffffff1673ffffffffffffffffffffffffffffffffffffffff1673ffffffffffffffffffffffffffffffffffffffff168152505090508273ffffffffffffffffffffffffffffffffffffffff16816080015173ffffffffffffffffffffffffffffffffffffffff161462001bf0576040517f08c379a000000000000000000000000000000000000000000000000000000000815260040162001be7906200374b565b60405180910390fd5b600073ffffffffffffffffffffffffffffffffffffffff16600360009054906101000a900473ffffffffffffffffffffffffffffffffffffffff1673ffffffffffffffffffffffffffffffffffffffff161462001c84576040517f08c379a000000000000000000000000000000000000000000000000000000000815260040162001c7b90620037e3565b60405180910390fd5b8a73ffffffffffffffffffffffffffffffffffffffff166108fc349081150290604051600060405180830381858888f1935050505015801562001ccb573d6000803e3d6000fd5b50633b9aca0034101562001d16576040517f08c379a000000000000000000000000000000000000000000000000000000000815260040162001d0d9062003855565b60405180910390fd5b600060018b898c8c3460405160200162001d3696959493929190620034aa565b6040516020818303038152906040529050600460009054906101000a900473ffffffffffffffffffffffffffffffffffffffff1673ffffffffffffffffffffffffffffffffffffffff1663ac9a3db38260006040518363ffffffff1660e01b815260040162001da792919062003569565b600060405180830381600087803b15801562001dc257600080fd5b505af115801562001dd7573d6000803e3d6000fd5b505050507f94581681b8a0d4e7c6a54f2ffbeee19c917bb4ec133f0692f032cb1687b88a3460405180608001604052808a81526020018b81526020018d81526020013481525060405162001e2c9190620035fa565b60405180910390a1505050505050505050505050565b83838073ffffffffffffffffffffffffffffffffffffffff166008600084815260200190815260200160002060040160009054906101000a900473ffffffffffffffffffffffffffffffffffffffff1673ffffffffffffffffffffffffffffffffffffffff161462001eeb576040517f08c379a000000000000000000000000000000000000000000000000000000000815260040162001ee29062002d73565b60405180910390fd5b600960009054906101000a900473ffffffffffffffffffffffffffffffffffffffff1673ffffffffffffffffffffffffffffffffffffffff163273ffffffffffffffffffffffffffffffffffffffff161462001f7e576040517f08c379a000000000000000000000000000000000000000000000000000000000815260040162001f759062002cdb565b60405180910390fd5b600073ffffffffffffffffffffffffffffffffffffffff168373ffffffffffffffffffffffffffffffffffffffff160362002001578473ffffffffffffffffffffffffffffffffffffffff166108fc859081150290604051600060405180830381858888f1935050505015801562001ffa573d6000803e3d6000fd5b506200208c565b60008390508073ffffffffffffffffffffffffffffffffffffffff1663a9059cbb87876040518363ffffffff1660e01b81526004016200204392919062002e7c565b6020604051808303816000875af115801562002063573d6000803e3d6000fd5b505050506040513d601f19601f8201168201806040525081019062002089919062002ee6565b50505b7feb0ddac3776609d3ac57bc634103c5386c9e9dd7fd86947c4ee46e5b90f270ef84604051620020bd919062002df4565b60405180910390a1505050505050565b6000600360009054906101000a900473ffffffffffffffffffffffffffffffffffffffff16905090565b806000801b600860008360400151815260200190815260200160002060010154146200215a576040517f08c379a00000000000000000000000000000000000000000000000000000000081526004016200215190620038c7565b60405180910390fd5b600960009054906101000a900473ffffffffffffffffffffffffffffffffffffffff1673ffffffffffffffffffffffffffffffffffffffff163273ffffffffffffffffffffffffffffffffffffffff1614620021ed576040517f08c379a0000000000000000000000000000000000000000000000000000000008152600401620021e49062002cdb565b60405180910390fd5b60006040518060a0016040528060015481526020018460400151815260200160018081111562002222576200222162002942565b5b8152602001428152602001846060015173ffffffffffffffffffffffffffffffffffffffff168152509050806008600085604001518152602001908152602001600020600082015181600001556020820151816001015560408201518160020160006101000a81548160ff02191690836001811115620022a757620022a662002942565b5b02179055506060820151816003015560808201518160040160006101000a81548173ffffffffffffffffffffffffffffffffffffffff021916908373ffffffffffffffffffffffffffffffffffffffff1602179055509050507f2034f42176ad2fb457ff86d86cfb31612b60d88b9f42a8af6d3e5d316a12eb6a8160405162002331919062002a56565b60405180910390a1505050565b6000808273ffffffffffffffffffffffffffffffffffffffff163b119050919050565b60008060055403620023775760009050620023b6565b6064600b546005546200238b9190620038e9565b62002397919062003963565b600b5483620023a7919062003963565b620023b39190620038e9565b90505b919050565b6104bd806200399c83390190565b6040518060a00160405280600080191681526020016000801916815260200160006001811115620023ff57620023fe62002942565b5b815260200160008152602001600073ffffffffffffffffffffffffffffffffffffffff1681525090565b6000604051905090565b600080fd5b6000819050919050565b6200244d8162002438565b81146200245957600080fd5b50565b6000813590506200246d8162002442565b92915050565b600073ffffffffffffffffffffffffffffffffffffffff82169050919050565b6000620024a08262002473565b9050919050565b620024b28162002493565b8114620024be57600080fd5b50565b600081359050620024d281620024a7565b92915050565b6000819050919050565b620024ed81620024d8565b8114620024f957600080fd5b50565b6000813590506200250d81620024e2565b92915050565b6000620025208262002473565b9050919050565b620025328162002513565b81146200253e57600080fd5b50565b600081359050620025528162002527565b92915050565b6000806000806080858703121562002575576200257462002433565b5b600062002585878288016200245c565b94505060206200259887828801620024c1565b9350506040620025ab87828801620024fc565b9250506060620025be8782880162002541565b91505092959194509250565b600080600060608486031215620025e657620025e562002433565b5b6000620025f686828701620024c1565b93505060206200260986828701620024fc565b92505060406200261c8682870162002541565b9150509250925092565b600060ff82169050919050565b6200263e8162002626565b81146200264a57600080fd5b50565b6000813590506200265e8162002633565b92915050565b600080604083850312156200267e576200267d62002433565b5b60006200268e858286016200245c565b9250506020620026a1858286016200264d565b9150509250929050565b60008060408385031215620026c557620026c462002433565b5b6000620026d58582860162002541565b9250506020620026e885828601620024fc565b9150509250929050565b60008060008060008060c0878903121562002712576200271162002433565b5b60006200272289828a016200245c565b96505060206200273589828a016200245c565b95505060406200274889828a0162002541565b94505060606200275b89828a0162002541565b93505060806200276e89828a0162002541565b92505060a06200278189828a0162002541565b9150509295509295509295565b60008060408385031215620027a857620027a762002433565b5b6000620027b885828601620024c1565b9250506020620027cb85828601620024fc565b9150509250929050565b60008060008060008060c08789031215620027f557620027f462002433565b5b60006200280589828a016200245c565b96505060206200281889828a016200245c565b95505060406200282b89828a016200245c565b94505060606200283e89828a0162002541565b93505060806200285189828a016200245c565b92505060a06200286489828a01620024fc565b9150509295509295509295565b6000806000606084860312156200288d576200288c62002433565b5b60006200289d868287016200245c565b9350506020620028b086828701620024fc565b9250506040620028c3868287016200264d565b9150509250925092565b600060208284031215620028e657620028e562002433565b5b6000620028f684828501620024fc565b91505092915050565b60006020828403121562002918576200291762002433565b5b600062002928848285016200245c565b91505092915050565b6200293c8162002438565b82525050565b7f4e487b7100000000000000000000000000000000000000000000000000000000600052602160045260246000fd5b6002811062002985576200298462002942565b5b50565b6000819050620029988262002971565b919050565b6000620029aa8262002988565b9050919050565b620029bc816200299d565b82525050565b620029cd81620024d8565b82525050565b620029de8162002513565b82525050565b60a082016000820151620029fc600085018262002931565b50602082015162002a11602085018262002931565b50604082015162002a266040850182620029b1565b50606082015162002a3b6060850182620029c2565b50608082015162002a506080850182620029d3565b50505050565b600060a08201905062002a6d6000830184620029e4565b92915050565b600080600080600060a0868803121562002a925762002a9162002433565b5b600062002aa288828901620024c1565b955050602062002ab5888289016200245c565b945050604062002ac8888289016200245c565b935050606062002adb888289016200245c565b925050608062002aee888289016200245c565b9150509295509295909350565b62002b068162002513565b82525050565b600060208201905062002b23600083018462002afb565b92915050565b600080fd5b6000601f19601f8301169050919050565b7f4e487b7100000000000000000000000000000000000000000000000000000000600052604160045260246000fd5b62002b798262002b2e565b810181811067ffffffffffffffff8211171562002b9b5762002b9a62002b3f565b5b80604052505050565b600062002bb062002429565b905062002bbe828262002b6e565b919050565b60006080828403121562002bdc5762002bdb62002b29565b5b62002be8608062002ba4565b9050600062002bfa848285016200264d565b600083015250602062002c10848285016200245c565b602083015250604062002c26848285016200245c565b604083015250606062002c3c8482850162002541565b60608301525092915050565b60006080828403121562002c615762002c6062002433565b5b600062002c718482850162002bc3565b91505092915050565b600082825260208201905092915050565b7f496e76616c696420617574686f726974792063616c6c21000000000000000000600082015250565b600062002cc360178362002c7a565b915062002cd08262002c8b565b602082019050919050565b6000602082019050818103600083015262002cf68162002cb4565b9050919050565b7f57726f6e6720457468657265756d2064657374696e6174696f6e20616464726560008201527f7373210000000000000000000000000000000000000000000000000000000000602082015250565b600062002d5b60238362002c7a565b915062002d688262002cfd565b604082019050919050565b6000602082019050818103600083015262002d8e8162002d4c565b9050919050565b62002da08162002493565b82525050565b62002db181620024d8565b82525050565b600060608201905062002dce600083018662002d95565b62002ddd602083018562002afb565b62002dec604083018462002da6565b949350505050565b600060208201905062002e0b600083018462002da6565b92915050565b6000819050919050565b600062002e3c62002e3662002e308462002473565b62002e11565b62002473565b9050919050565b600062002e508262002e1b565b9050919050565b600062002e648262002e43565b9050919050565b62002e768162002e57565b82525050565b600060408201905062002e93600083018562002e6b565b62002ea2602083018462002da6565b9392505050565b60008115159050919050565b62002ec08162002ea9565b811462002ecc57600080fd5b50565b60008151905062002ee08162002eb5565b92915050565b60006020828403121562002eff5762002efe62002433565b5b600062002f0f8482850162002ecf565b91505092915050565b60008160f81b9050919050565b600062002f328262002f18565b9050919050565b62002f4e62002f488262002626565b62002f25565b82525050565b6000819050919050565b62002f7362002f6d8262002438565b62002f54565b82525050565b6000819050919050565b62002f9862002f9282620024d8565b62002f79565b82525050565b600062002fac828762002f39565b60018201915062002fbe828662002f5e565b60208201915062002fd0828562002f5e565b60208201915062002fe2828462002f83565b60208201915081905095945050505050565b600081519050919050565b600082825260208201905092915050565b60005b838110156200303057808201518184015260208101905062003013565b60008484015250505050565b6000620030498262002ff4565b62003055818562002fff565b93506200306781856020860162003010565b620030728162002b2e565b840191505092915050565b620030888162002626565b82525050565b60006040820190508181036000830152620030aa81856200303c565b9050620030bb60208301846200307d565b9392505050565b7f4e6f742061206d656d6265720000000000000000000000000000000000000000600082015250565b6000620030fa600c8362002c7a565b91506200310782620030c2565b602082019050919050565b600060208201905081810360008301526200312d81620030eb565b9050919050565b7f496e76616c6964206465706f73697420616d6f756e7400000000000000000000600082015250565b60006200316c60168362002c7a565b9150620031798262003134565b602082019050919050565b600060208201905081810360008301526200319f816200315d565b9050919050565b7f4e487b7100000000000000000000000000000000000000000000000000000000600052601160045260246000fd5b6000620031e282620024d8565b9150620031ef83620024d8565b92508282019050808211156200320a5762003209620031a6565b5b92915050565b600060408201905062003227600083018562002afb565b62003236602083018462002da6565b9392505050565b7f496e697469616c697a61626c653a20636f6e747261637420697320616c72656160008201527f647920696e697469616c697a6564000000000000000000000000000000000000602082015250565b60006200329b602e8362002c7a565b9150620032a8826200323d565b604082019050919050565b60006020820190508181036000830152620032ce816200328c565b9050919050565b620032e08162002438565b82525050565b6000602082019050620032fd6000830184620032d5565b92915050565b6000819050919050565b60006200332e62003328620033228462003303565b62002e11565b62002626565b9050919050565b62003340816200330d565b82525050565b60006020820190506200335d600083018462003335565b92915050565b7f496e76616c69642070657263656e7461676520616d6f756e7400000000000000600082015250565b60006200339b60198362002c7a565b9150620033a88262003363565b602082019050919050565b60006020820190508181036000830152620033ce816200338c565b9050919050565b7f547265617375727920646f6573206e6f7420686176652064656e6f6d696e617460008201527f65642063757272656e6379000000000000000000000000000000000000000000602082015250565b600062003433602b8362002c7a565b91506200344082620033d5565b604082019050919050565b60006020820190508181036000830152620034668162003424565b9050919050565b600060608201905062003484600083018662002afb565b62003493602083018562002afb565b620034a2604083018462002da6565b949350505050565b6000620034b8828962002f39565b600182019150620034ca828862002f5e565b602082019150620034dc828762002f5e565b602082019150620034ee828662002f5e565b60208201915062003500828562002f5e565b60208201915062003512828462002f83565b602082019150819050979650505050505050565b6000819050919050565b6000620035516200354b620035458462003526565b62002e11565b62002626565b9050919050565b620035638162003530565b82525050565b600060408201905081810360008301526200358581856200303c565b905062003596602083018462003558565b9392505050565b608082016000820151620035b5600085018262002931565b506020820151620035ca602085018262002931565b506040820151620035df604085018262002931565b506060820151620035f46060850182620029c2565b50505050565b60006080820190506200361160008301846200359d565b92915050565b7f496e76616c69642064656e6f6d696e617465642063757272656e637921000000600082015250565b60006200364f601d8362002c7a565b91506200365c8262003617565b602082019050919050565b60006020820190508181036000830152620036828162003640565b9050919050565b7f496e76616c6964204554482073656e6465722061646472657373000000000000600082015250565b6000620036c1601a8362002c7a565b9150620036ce8262003689565b602082019050919050565b60006020820190508181036000830152620036f481620036b2565b9050919050565b7f496e76616c69642064657374696e6174696f6e20455448206164647265737300600082015250565b600062003733601f8362002c7a565b91506200374082620036fb565b602082019050919050565b60006020820190508181036000830152620037668162003724565b9050919050565b7f43616e27742073656c6c2073686172657320696e206e6174697665206375727260008201527f656e637900000000000000000000000000000000000000000000000000000000602082015250565b6000620037cb60248362002c7a565b9150620037d8826200376d565b604082019050919050565b60006020820190508181036000830152620037fe81620037bc565b9050919050565b7f496e76616c69642073656c6c2073686172657320616d6f756e74000000000000600082015250565b60006200383d601a8362002c7a565b91506200384a8262003805565b602082019050919050565b6000602082019050818103600083015262003870816200382e565b9050919050565b7f4d656d62657220616c7265647920696e20636c75622100000000000000000000600082015250565b6000620038af60168362002c7a565b9150620038bc8262003877565b602082019050919050565b60006020820190508181036000830152620038e281620038a0565b9050919050565b6000620038f682620024d8565b91506200390383620024d8565b92508282026200391381620024d8565b915082820484148315176200392d576200392c620031a6565b5b5092915050565b7f4e487b7100000000000000000000000000000000000000000000000000000000600052601260045260246000fd5b60006200397082620024d8565b91506200397d83620024d8565b92508262003990576200398f62003934565b5b82820490509291505056fe608060405234801561001057600080fd5b506040516104bd3803806104bd833981810160405281019061003291906100db565b806000806101000a81548173ffffffffffffffffffffffffffffffffffffffff021916908373ffffffffffffffffffffffffffffffffffffffff16021790555050610108565b600080fd5b600073ffffffffffffffffffffffffffffffffffffffff82169050919050565b60006100a88261007d565b9050919050565b6100b88161009d565b81146100c357600080fd5b50565b6000815190506100d5816100af565b92915050565b6000602082840312156100f1576100f0610078565b5b60006100ff848285016100c6565b91505092915050565b6103a6806101176000396000f3fe60806040526004361061001e5760003560e01c80633e0a943c14610023575b600080fd5b61003d60048036038101906100389190610221565b61003f565b005b600073ffffffffffffffffffffffffffffffffffffffff168273ffffffffffffffffffffffffffffffffffffffff16036100bf578273ffffffffffffffffffffffffffffffffffffffff166108fc829081150290604051600060405180830381858888f193505050501580156100b9573d6000803e3d6000fd5b50610145565b60008290508073ffffffffffffffffffffffffffffffffffffffff1663a9059cbb85846040518363ffffffff1660e01b81526004016100ff9291906102e2565b6020604051808303816000875af115801561011e573d6000803e3d6000fd5b505050506040513d601f19601f820116820180604052508101906101429190610343565b50505b505050565b600080fd5b600073ffffffffffffffffffffffffffffffffffffffff82169050919050565b600061017a8261014f565b9050919050565b61018a8161016f565b811461019557600080fd5b50565b6000813590506101a781610181565b92915050565b60006101b88261014f565b9050919050565b6101c8816101ad565b81146101d357600080fd5b50565b6000813590506101e5816101bf565b92915050565b6000819050919050565b6101fe816101eb565b811461020957600080fd5b50565b60008135905061021b816101f5565b92915050565b60008060006060848603121561023a5761023961014a565b5b600061024886828701610198565b9350506020610259868287016101d6565b925050604061026a8682870161020c565b9150509250925092565b6000819050919050565b600061029961029461028f8461014f565b610274565b61014f565b9050919050565b60006102ab8261027e565b9050919050565b60006102bd826102a0565b9050919050565b6102cd816102b2565b82525050565b6102dc816101eb565b82525050565b60006040820190506102f760008301856102c4565b61030460208301846102d3565b9392505050565b60008115159050919050565b6103208161030b565b811461032b57600080fd5b50565b60008151905061033d81610317565b92915050565b6000602082840312156103595761035861014a565b5b60006103678482850161032e565b9150509291505056fea264697066735822122079d5f8b5c4ed0b2f39960df0c1c3186c8f737f4cb5f813e4e3164e93d8f8741464736f6c63430008130033a2646970667358221220dcb0f4fb5aadc1642d3f4845ae7f8ce7865042f14eed75add7249d60b831adec64736f6c63430008130033",
  "immutableReferences": {},
  "source": "// SPDX-License-Identifier: Apache 2\npragma solidity 0.8.19;\nimport \"@openzeppelin/contracts-upgradeable/proxy/utils/Initializable.sol\";\nimport \"../structs/UnqWormholeStructs.sol\";\nimport \"@openzeppelin/contracts/token/ERC20/ERC20.sol\";\nimport \"../interface/IWormhole.sol\";\nimport \"../Wormhole/WormholeUnq.sol\";\nimport \"./UnqEscrow.sol\";\n\ncontract UnqTreasury is Initializable {\n    bytes32 _solanaTreasury;\n    bytes32 _treasuryAuthority;\n    address _denominatedCurrency;\n    WormholeUnq factory_contract;\n    uint256 _platformFeesPercentage;\n    address _escrowAddress;\n    address payable _platformFeeDestination;\n    mapping(bytes32 => UnqWormholeStructs.MemberData) members;\n    address _relayerSigner;\n    mapping(address => uint256) memberDeposits;\n\n    uint256 MULTIPLIER = 10000;\n\n    constructor() {\n        _disableInitializers();\n    }\n\n    modifier nonExistingMember(\n        UnqWormholeStructs.AddMemberAction memory member\n    ) {\n        require(\n            members[member.solanaAddress].solanaAddress == bytes32(0),\n            \"Member alredy in club!\"\n        );\n        _;\n    }\n\n    modifier onlyAuthority(bytes32 authority) {\n        require(authority == _treasuryAuthority, \"Invalid permission\");\n        _;\n    }\n\n    modifier existingMember(bytes32 solanaAddress, address ethereumAddress) {\n        require(\n            members[solanaAddress].ethAddress == ethereumAddress,\n            \"Wrong Ethereum destination address!\"\n        );\n        _;\n    }\n\n    modifier onlyTreasuryMembers(\n        bytes32 senderSolanaAddress,\n        address senderEthAddress,\n        bytes32 receiverSolanaAddress,\n        address receiverEthAddress\n    ) {\n        UnqWormholeStructs.MemberData memory sender = members[\n            senderSolanaAddress\n        ];\n\n        require(\n            sender.ethAddress == senderEthAddress,\n            \"Invalid ETH sender address\"\n        );\n\n        UnqWormholeStructs.MemberData memory receiver = members[\n            receiverSolanaAddress\n        ];\n\n        require(\n            receiver.ethAddress == receiverEthAddress,\n            \"Invalid destination ETH address\"\n        );\n\n        _;\n    }\n\n    modifier onlyRelayerSigner() {\n        require(tx.origin == _relayerSigner, \"Invalid authority call!\");\n        _;\n    }\n\n    modifier denominatedCurrencyRestrict() {\n        require(\n            _denominatedCurrency != address(0),\n            \"Invalid denominated currency!\"\n        );\n\n        _;\n    }\n\n    event MemberAddedEvent(UnqWormholeStructs.MemberData);\n    event DepositEvent(uint256);\n    event WithdrawFundsEvent(uint256);\n    event TransferFundsEvent(uint256);\n    event TreasuryCreatedEvent(bytes32);\n    event SharesBoughtEvent(UnqWormholeStructs.SharesBought);\n    event ClaimFundsEvent(uint256);\n\n    function initialize(\n        bytes32 solanaTreasury,\n        bytes32 treasuryAuthority,\n        address denominatedCurrency,\n        address factoryContract,\n        address creator,\n        address relayerSigner\n    ) external initializer {\n        _solanaTreasury = solanaTreasury;\n\n        _treasuryAuthority = treasuryAuthority;\n\n        _denominatedCurrency = denominatedCurrency;\n\n        factory_contract = WormholeUnq(factoryContract);\n\n        _relayerSigner = relayerSigner;\n\n        UnqEscrow escrowContract = new UnqEscrow(address(this));\n\n        _escrowAddress = address(escrowContract);\n\n        members[treasuryAuthority] = UnqWormholeStructs.MemberData({\n            solanaAddress: treasuryAuthority,\n            ethAddress: creator,\n            status: UnqWormholeStructs.MemberStatus.Accepted,\n            joinedAt: block.timestamp,\n            solanaTreasury: _solanaTreasury\n        });\n\n        emit TreasuryCreatedEvent(solanaTreasury);\n    }\n\n    function addNewMember(\n        UnqWormholeStructs.AddMemberAction memory newMember\n    ) external nonExistingMember(newMember) onlyRelayerSigner {\n        UnqWormholeStructs.MemberData memory memberData = UnqWormholeStructs\n            .MemberData({\n                solanaTreasury: _solanaTreasury,\n                solanaAddress: newMember.solanaAddress,\n                ethAddress: newMember.ethAddress,\n                status: UnqWormholeStructs.MemberStatus.Accepted,\n                joinedAt: block.timestamp\n            });\n        members[newMember.solanaAddress] = memberData;\n        emit MemberAddedEvent(memberData);\n    }\n\n    function receiveFunds(\n        bytes32 memberAddress,\n        uint8 nonce\n    ) external payable existingMember(memberAddress, msg.sender) {\n        bytes memory vaaBytes = abi.encodePacked(\n            uint8(0),\n            _solanaTreasury,\n            memberAddress,\n            msg.value\n        );\n        factory_contract.pushWomrholeMessage(vaaBytes, nonce);\n        require(\n            members[memberAddress].status ==\n                UnqWormholeStructs.MemberStatus.Accepted,\n            \"Not a member\"\n        );\n\n        require(msg.value >= 1000000000 wei, \"Invalid deposit amount\");\n\n        memberDeposits[tx.origin] += msg.value;\n\n        transferFees(msg.value);\n\n        emit DepositEvent(msg.value);\n    }\n\n    function getMemberData(\n        bytes32 memberAddress\n    ) public view returns (UnqWormholeStructs.MemberData memory) {\n        return members[memberAddress];\n    }\n\n    function transferFunds(\n        address payable destination,\n        uint256 amount,\n        address currency\n    ) external onlyRelayerSigner {\n        if (currency == address(0)) {\n            destination.transfer(amount);\n        } else {\n            ERC20 denominatedToken = ERC20(currency);\n            denominatedToken.transfer(destination, amount);\n        }\n        emit TransferFundsEvent(amount);\n    }\n\n    function withdrawFunds(\n        bytes32 solanaAddress,\n        address payable destination,\n        uint256 amount,\n        address currency\n    ) external existingMember(solanaAddress, destination) onlyRelayerSigner {\n        if (currency == address(0)) {\n            destination.transfer(amount);\n        } else {\n            ERC20 token = ERC20(currency);\n            token.transfer(destination, amount);\n        }\n        emit WithdrawFundsEvent(amount);\n    }\n\n    function sellFinancialRights(\n        address payable receiver,\n        bytes32 treasury,\n        bytes32 financialOffer,\n        bytes32 seller,\n        bytes32 buyer\n    ) public payable onlyTreasuryMembers(buyer, msg.sender, seller, receiver) {\n        require(\n            _denominatedCurrency == address(0),\n            \"Can't sell shares in native currency\"\n        );\n\n        receiver.transfer(msg.value);\n\n        require(msg.value >= 1000000000 wei, \"Invalid sell shares amount\");\n\n        bytes memory encodedPayload = abi.encodePacked(\n            uint8(1),\n            treasury,\n            buyer,\n            financialOffer,\n            seller,\n            msg.value\n        );\n\n        factory_contract.pushWomrholeMessage(encodedPayload, 0);\n\n        emit SharesBoughtEvent(\n            UnqWormholeStructs.SharesBought({\n                buyer: buyer,\n                seller: seller,\n                solanaTreasury: treasury,\n                amount: msg.value\n            })\n        );\n    }\n\n    function claimFunds(\n        bytes32 solanaAddress,\n        address payable destination,\n        uint256 amount,\n        address currency\n    ) public onlyRelayerSigner existingMember(solanaAddress, destination) {\n        UnqEscrow escrow = UnqEscrow(_escrowAddress);\n\n        escrow.transferToMember(destination, currency, amount);\n\n        emit ClaimFundsEvent(amount);\n    }\n\n    function sellSharesDenominatedCurrency(\n        bytes32 sellerSolanaAddress,\n        bytes32 buyerSolanaAddress,\n        bytes32 treasury,\n        address receiver,\n        bytes32 financialOffer,\n        uint256 amount\n    ) public payable {\n        require(\n            _denominatedCurrency != address(0),\n            \"Treasury does not have denominated currency\"\n        );\n        ERC20 token = ERC20(_denominatedCurrency);\n        token.transferFrom(msg.sender, receiver, amount);\n        bytes memory encodedVaa = abi.encodePacked(\n            uint8(1),\n            treasury,\n            buyerSolanaAddress,\n            financialOffer,\n            sellerSolanaAddress,\n            amount\n        );\n        factory_contract.pushWomrholeMessage(encodedVaa, 0);\n\n        emit SharesBoughtEvent(\n            UnqWormholeStructs.SharesBought({\n                buyer: buyerSolanaAddress,\n                seller: sellerSolanaAddress,\n                solanaTreasury: treasury,\n                amount: amount\n            })\n        );\n    }\n\n    function executeWithdrawal(\n        address currency,\n        uint256 amount\n    ) public payable onlyRelayerSigner {\n        if (currency == address(0)) {\n            payable(_escrowAddress).transfer(amount);\n        } else {\n            ERC20 token = ERC20(currency);\n            token.transfer(_escrowAddress, amount);\n        }\n    }\n\n    function depositDenominatedCurrency(\n        bytes32 solanaAddress,\n        uint256 amount,\n        uint8 nonce\n    )\n        public\n        payable\n        denominatedCurrencyRestrict\n        existingMember(solanaAddress, msg.sender)\n    {\n        bytes memory vaaBytes = abi.encodePacked(\n            uint8(0),\n            _solanaTreasury,\n            solanaAddress,\n            amount\n        );\n        factory_contract.pushWomrholeMessage(vaaBytes, nonce);\n        ERC20 token = ERC20(_denominatedCurrency);\n\n        token.transferFrom(msg.sender, address(this), amount);\n\n        transferFees(amount);\n\n        memberDeposits[msg.sender] += amount;\n\n        emit DepositEvent(amount);\n    }\n\n    function getDenominatedCurrency() public view returns (address) {\n        return _denominatedCurrency;\n    }\n\n    function setPlatformFees(\n        address payable destination,\n        uint256 percentage\n    ) external onlyRelayerSigner {\n        if (percentage < 0 || percentage > 10000) {\n            revert(\"Invalid percentage amount\");\n        }\n\n        _platformFeeDestination = destination;\n        _platformFeesPercentage = percentage;\n    }\n\n    function calculatePercentageAmount(\n        uint256 depositAmount\n    ) private view returns (uint256 fee) {\n        if (_platformFeesPercentage == 0) return 0;\n\n        fee =\n            (depositAmount / MULTIPLIER) *\n            ((_platformFeesPercentage * MULTIPLIER) / 100);\n    }\n\n    function transferFees(uint256 depositAmount) public payable {\n        uint256 feeAmount = calculatePercentageAmount(depositAmount);\n        if (_denominatedCurrency != address(0)) {\n            ERC20 token = ERC20(_denominatedCurrency);\n\n            token.transfer(_platformFeeDestination, feeAmount);\n        } else {\n            _platformFeeDestination.transfer(feeAmount);\n        }\n    }\n}\n",
  "sourcePath": "/Users/gorangutovic/Desktop/unique/unq-treasury-eth/contracts/Treasury/UnqTreasury.sol",
  "compiler": {
    "name": "solc",
    "version": "0.8.19+commit.7dd6d404.Emscripten.clang"
  },
  "schemaVersion": "3.4.11",
  "updatedAt": "2023-05-25T10:45:06.718Z",
  "networkType": "ethereum",
  "devdoc": {
    "events": {
      "Initialized(uint8)": {
        "details": "Triggered when the contract has been initialized or reinitialized."
      }
    },
    "kind": "dev",
    "methods": {},
    "version": 1
  },
  "userdoc": {
    "kind": "user",
    "methods": {},
    "version": 1
  }
}