{
  "contractName": "UnqTreasury",
  "abi": [
    {
      "inputs": [],
      "stateMutability": "nonpayable",
      "type": "constructor"
    },
    {
      "anonymous": false,
      "inputs": [
        {
          "indexed": false,
          "internalType": "uint8",
          "name": "version",
          "type": "uint8"
        }
      ],
      "name": "Initialized",
      "type": "event"
    },
    {
      "anonymous": false,
      "inputs": [
        {
          "components": [
            {
              "internalType": "bytes32",
              "name": "realmAddress",
              "type": "bytes32"
            },
            {
              "internalType": "bytes32",
              "name": "solanaAddress",
              "type": "bytes32"
            },
            {
              "internalType": "enum UnqWormholeStructs.MemberStatus",
              "name": "status",
              "type": "uint8"
            },
            {
              "internalType": "uint256",
              "name": "joinedAt",
              "type": "uint256"
            },
            {
              "internalType": "address",
              "name": "ethAddress",
              "type": "address"
            }
          ],
          "indexed": false,
          "internalType": "struct UnqWormholeStructs.MemberData",
          "name": "",
          "type": "tuple"
        }
      ],
      "name": "MemberAddedEvent",
      "type": "event"
    },
    {
      "inputs": [
        {
          "internalType": "bytes32",
          "name": "realmAddress",
          "type": "bytes32"
        },
        {
          "internalType": "bytes32",
          "name": "treasuryAuthority",
          "type": "bytes32"
        },
        {
          "internalType": "address",
          "name": "denominatedCurrency",
          "type": "address"
        }
      ],
      "name": "initialize",
      "outputs": [],
      "stateMutability": "nonpayable",
      "type": "function"
    },
    {
      "inputs": [
        {
          "components": [
            {
              "internalType": "uint8",
              "name": "action",
              "type": "uint8"
            },
            {
              "internalType": "bytes32",
              "name": "realmAddress",
              "type": "bytes32"
            },
            {
              "internalType": "bytes32",
              "name": "solanaAddress",
              "type": "bytes32"
            },
            {
              "internalType": "bytes32",
              "name": "authority",
              "type": "bytes32"
            },
            {
              "internalType": "address",
              "name": "ethAddress",
              "type": "address"
            }
          ],
          "internalType": "struct UnqWormholeStructs.AddMemberAction",
          "name": "newMember",
          "type": "tuple"
        }
      ],
      "name": "addNewMember",
      "outputs": [],
      "stateMutability": "nonpayable",
      "type": "function"
    },
    {
      "inputs": [
        {
          "internalType": "bytes32",
          "name": "memberAddress",
          "type": "bytes32"
        }
      ],
      "name": "receiveFunds",
      "outputs": [],
      "stateMutability": "payable",
      "type": "function",
      "payable": true
    },
    {
      "inputs": [
        {
          "internalType": "bytes32",
          "name": "memberAddress",
          "type": "bytes32"
        }
      ],
      "name": "getMemberData",
      "outputs": [
        {
          "components": [
            {
              "internalType": "bytes32",
              "name": "realmAddress",
              "type": "bytes32"
            },
            {
              "internalType": "bytes32",
              "name": "solanaAddress",
              "type": "bytes32"
            },
            {
              "internalType": "enum UnqWormholeStructs.MemberStatus",
              "name": "status",
              "type": "uint8"
            },
            {
              "internalType": "uint256",
              "name": "joinedAt",
              "type": "uint256"
            },
            {
              "internalType": "address",
              "name": "ethAddress",
              "type": "address"
            }
          ],
          "internalType": "struct UnqWormholeStructs.MemberData",
          "name": "",
          "type": "tuple"
        }
      ],
      "stateMutability": "view",
      "type": "function",
      "constant": true
    },
    {
      "inputs": [
        {
          "internalType": "address payable",
          "name": "destination",
          "type": "address"
        },
        {
          "internalType": "uint256",
          "name": "amount",
          "type": "uint256"
        }
      ],
      "name": "transferFunds",
      "outputs": [],
      "stateMutability": "nonpayable",
      "type": "function"
    },
    {
      "inputs": [
        {
          "internalType": "bytes32",
          "name": "solanaAddress",
          "type": "bytes32"
        },
        {
          "internalType": "address payable",
          "name": "destination",
          "type": "address"
        },
        {
          "internalType": "uint256",
          "name": "amount",
          "type": "uint256"
        }
      ],
      "name": "claimReward",
      "outputs": [],
      "stateMutability": "nonpayable",
      "type": "function"
    },
    {
      "inputs": [
        {
          "internalType": "uint256",
          "name": "amount",
          "type": "uint256"
        }
      ],
      "name": "depositDenominatedCurrency",
      "outputs": [],
      "stateMutability": "nonpayable",
      "type": "function"
    },
    {
      "inputs": [],
      "name": "getDenominatedCurrency",
      "outputs": [
        {
          "internalType": "address",
          "name": "",
          "type": "address"
        }
      ],
      "stateMutability": "view",
      "type": "function",
      "constant": true
    }
  ],
  "bytecode": "0x60806040523480156200001157600080fd5b50620000226200002860201b60201c565b620001d3565b600060019054906101000a900460ff16156200007b576040517f08c379a0000000000000000000000000000000000000000000000000000000008152600401620000729062000176565b60405180910390fd5b60ff801660008054906101000a900460ff1660ff161015620000ed5760ff6000806101000a81548160ff021916908360ff1602179055507f7f26b83ff96e1f2b6a682f133852f6798a09c465da95921460cefb384740249860ff604051620000e49190620001b6565b60405180910390a15b565b600082825260208201905092915050565b7f496e697469616c697a61626c653a20636f6e747261637420697320696e69746960008201527f616c697a696e6700000000000000000000000000000000000000000000000000602082015250565b60006200015e602783620000ef565b91506200016b8262000100565b604082019050919050565b6000602082019050818103600083015262000191816200014f565b9050919050565b600060ff82169050919050565b620001b08162000198565b82525050565b6000602082019050620001cd6000830184620001a5565b92915050565b6116b480620001e36000396000f3fe60806040526004361061007b5760003560e01c8063990dc9db1161004e578063990dc9db14610117578063c74e249314610140578063ea427bfd1461017d578063f25dfaf7146101a65761007b565b80634675f1251461008057806363f66834146100a957806379172222146100d25780639548f3e5146100fb575b600080fd5b34801561008c57600080fd5b506100a760048036038101906100a29190610ef9565b6101d1565b005b3480156100b557600080fd5b506100d060048036038101906100cb9190610f9a565b61037a565b005b3480156100de57600080fd5b506100f960048036038101906100f49190610fed565b6104fe565b005b61011560048036038101906101109190611040565b610782565b005b34801561012357600080fd5b5061013e6004803603810190610139919061106d565b61090c565b005b34801561014c57600080fd5b5061016760048036038101906101629190611040565b6109e7565b60405161017491906111b9565b60405180910390f35b34801561018957600080fd5b506101a4600480360381019061019f91906111d4565b610ac3565b005b3480156101b257600080fd5b506101bb610c56565b6040516101c89190611210565b60405180910390f35b806000801b60046000836040015181526020019081526020016000206001015414610231576040517f08c379a000000000000000000000000000000000000000000000000000000000815260040161022890611288565b60405180910390fd5b60006040518060a00160405280600154815260200184604001518152602001600180811115610263576102626110bc565b5b8152602001428152602001846080015173ffffffffffffffffffffffffffffffffffffffff168152509050806004600085604001518152602001908152602001600020600082015181600001556020820151816001015560408201518160020160006101000a81548160ff021916908360018111156102e5576102e46110bc565b5b02179055506060820151816003015560808201518160040160006101000a81548173ffffffffffffffffffffffffffffffffffffffff021916908373ffffffffffffffffffffffffffffffffffffffff1602179055509050507f2034f42176ad2fb457ff86d86cfb31612b60d88b9f42a8af6d3e5d316a12eb6a8160405161036d91906111b9565b60405180910390a1505050565b82828073ffffffffffffffffffffffffffffffffffffffff166004600084815260200190815260200160002060040160009054906101000a900473ffffffffffffffffffffffffffffffffffffffff1673ffffffffffffffffffffffffffffffffffffffff1614610420576040517f08c379a00000000000000000000000000000000000000000000000000000000081526004016104179061131a565b60405180910390fd5b600560009054906101000a900473ffffffffffffffffffffffffffffffffffffffff1673ffffffffffffffffffffffffffffffffffffffff163273ffffffffffffffffffffffffffffffffffffffff16146104b0576040517f08c379a00000000000000000000000000000000000000000000000000000000081526004016104a790611386565b60405180910390fd5b8373ffffffffffffffffffffffffffffffffffffffff166108fc849081150290604051600060405180830381858888f193505050501580156104f6573d6000803e3d6000fd5b505050505050565b60008060019054906101000a900460ff1615905080801561052f5750600160008054906101000a900460ff1660ff16105b8061055c575061053e30610c80565b15801561055b5750600160008054906101000a900460ff1660ff16145b5b61059b576040517f08c379a000000000000000000000000000000000000000000000000000000000815260040161059290611418565b60405180910390fd5b60016000806101000a81548160ff021916908360ff16021790555080156105d8576001600060016101000a81548160ff0219169083151502179055505b836001819055508260028190555081600360006101000a81548173ffffffffffffffffffffffffffffffffffffffff021916908373ffffffffffffffffffffffffffffffffffffffff1602179055506040518060a001604052806001548152602001848152602001600180811115610653576106526110bc565b5b81526020014281526020013273ffffffffffffffffffffffffffffffffffffffff1681525060046000858152602001908152602001600020600082015181600001556020820151816001015560408201518160020160006101000a81548160ff021916908360018111156106ca576106c96110bc565b5b02179055506060820151816003015560808201518160040160006101000a81548173ffffffffffffffffffffffffffffffffffffffff021916908373ffffffffffffffffffffffffffffffffffffffff160217905550905050801561077c5760008060016101000a81548160ff0219169083151502179055507f7f26b83ff96e1f2b6a682f133852f6798a09c465da95921460cefb38474024986001604051610773919061147d565b60405180910390a15b50505050565b80338073ffffffffffffffffffffffffffffffffffffffff166004600084815260200190815260200160002060040160009054906101000a900473ffffffffffffffffffffffffffffffffffffffff1673ffffffffffffffffffffffffffffffffffffffff1614610828576040517f08c379a000000000000000000000000000000000000000000000000000000000815260040161081f9061131a565b60405180910390fd5b60018081111561083b5761083a6110bc565b5b6004600085815260200190815260200160002060020160009054906101000a900460ff166001811115610871576108706110bc565b5b146108b1576040517f08c379a00000000000000000000000000000000000000000000000000000000081526004016108a8906114e4565b60405180910390fd5b34600660003273ffffffffffffffffffffffffffffffffffffffff1673ffffffffffffffffffffffffffffffffffffffff16815260200190815260200160002060008282546109009190611533565b92505081905550505050565b600560009054906101000a900473ffffffffffffffffffffffffffffffffffffffff1673ffffffffffffffffffffffffffffffffffffffff163273ffffffffffffffffffffffffffffffffffffffff161461099c576040517f08c379a000000000000000000000000000000000000000000000000000000000815260040161099390611386565b60405180910390fd5b8173ffffffffffffffffffffffffffffffffffffffff166108fc829081150290604051600060405180830381858888f193505050501580156109e2573d6000803e3d6000fd5b505050565b6109ef610ca3565b600460008381526020019081526020016000206040518060a001604052908160008201548152602001600182015481526020016002820160009054906101000a900460ff166001811115610a4657610a456110bc565b5b6001811115610a5857610a576110bc565b5b8152602001600382015481526020016004820160009054906101000a900473ffffffffffffffffffffffffffffffffffffffff1673ffffffffffffffffffffffffffffffffffffffff1673ffffffffffffffffffffffffffffffffffffffff16815250509050919050565b600073ffffffffffffffffffffffffffffffffffffffff16600360009054906101000a900473ffffffffffffffffffffffffffffffffffffffff1673ffffffffffffffffffffffffffffffffffffffff1603610b54576040517f08c379a0000000000000000000000000000000000000000000000000000000008152600401610b4b906115b3565b60405180910390fd5b6000600360009054906101000a900473ffffffffffffffffffffffffffffffffffffffff1690508073ffffffffffffffffffffffffffffffffffffffff166323b872dd3330856040518463ffffffff1660e01b8152600401610bb8939291906115e2565b6020604051808303816000875af1158015610bd7573d6000803e3d6000fd5b505050506040513d601f19601f82011682018060405250810190610bfb9190611651565b5081600660003373ffffffffffffffffffffffffffffffffffffffff1673ffffffffffffffffffffffffffffffffffffffff1681526020019081526020016000206000828254610c4b9190611533565b925050819055505050565b6000600360009054906101000a900473ffffffffffffffffffffffffffffffffffffffff16905090565b6000808273ffffffffffffffffffffffffffffffffffffffff163b119050919050565b6040518060a00160405280600080191681526020016000801916815260200160006001811115610cd657610cd56110bc565b5b815260200160008152602001600073ffffffffffffffffffffffffffffffffffffffff1681525090565b6000604051905090565b600080fd5b600080fd5b6000601f19601f8301169050919050565b7f4e487b7100000000000000000000000000000000000000000000000000000000600052604160045260246000fd5b610d5d82610d14565b810181811067ffffffffffffffff82111715610d7c57610d7b610d25565b5b80604052505050565b6000610d8f610d00565b9050610d9b8282610d54565b919050565b600060ff82169050919050565b610db681610da0565b8114610dc157600080fd5b50565b600081359050610dd381610dad565b92915050565b6000819050919050565b610dec81610dd9565b8114610df757600080fd5b50565b600081359050610e0981610de3565b92915050565b600073ffffffffffffffffffffffffffffffffffffffff82169050919050565b6000610e3a82610e0f565b9050919050565b610e4a81610e2f565b8114610e5557600080fd5b50565b600081359050610e6781610e41565b92915050565b600060a08284031215610e8357610e82610d0f565b5b610e8d60a0610d85565b90506000610e9d84828501610dc4565b6000830152506020610eb184828501610dfa565b6020830152506040610ec584828501610dfa565b6040830152506060610ed984828501610dfa565b6060830152506080610eed84828501610e58565b60808301525092915050565b600060a08284031215610f0f57610f0e610d0a565b5b6000610f1d84828501610e6d565b91505092915050565b6000610f3182610e0f565b9050919050565b610f4181610f26565b8114610f4c57600080fd5b50565b600081359050610f5e81610f38565b92915050565b6000819050919050565b610f7781610f64565b8114610f8257600080fd5b50565b600081359050610f9481610f6e565b92915050565b600080600060608486031215610fb357610fb2610d0a565b5b6000610fc186828701610dfa565b9350506020610fd286828701610f4f565b9250506040610fe386828701610f85565b9150509250925092565b60008060006060848603121561100657611005610d0a565b5b600061101486828701610dfa565b935050602061102586828701610dfa565b925050604061103686828701610e58565b9150509250925092565b60006020828403121561105657611055610d0a565b5b600061106484828501610dfa565b91505092915050565b6000806040838503121561108457611083610d0a565b5b600061109285828601610f4f565b92505060206110a385828601610f85565b9150509250929050565b6110b681610dd9565b82525050565b7f4e487b7100000000000000000000000000000000000000000000000000000000600052602160045260246000fd5b600281106110fc576110fb6110bc565b5b50565b600081905061110d826110eb565b919050565b600061111d826110ff565b9050919050565b61112d81611112565b82525050565b61113c81610f64565b82525050565b61114b81610e2f565b82525050565b60a08201600082015161116760008501826110ad565b50602082015161117a60208501826110ad565b50604082015161118d6040850182611124565b5060608201516111a06060850182611133565b5060808201516111b36080850182611142565b50505050565b600060a0820190506111ce6000830184611151565b92915050565b6000602082840312156111ea576111e9610d0a565b5b60006111f884828501610f85565b91505092915050565b61120a81610e2f565b82525050565b60006020820190506112256000830184611201565b92915050565b600082825260208201905092915050565b7f4d656d62657220616c7265647920696e20636c75622100000000000000000000600082015250565b600061127260168361122b565b915061127d8261123c565b602082019050919050565b600060208201905081810360008301526112a181611265565b9050919050565b7f57726f6e6720457468657265756d2064657374696e6174696f6e20616464726560008201527f7373210000000000000000000000000000000000000000000000000000000000602082015250565b600061130460238361122b565b915061130f826112a8565b604082019050919050565b60006020820190508181036000830152611333816112f7565b9050919050565b7f496e76616c696420617574686f726974792063616c6c21000000000000000000600082015250565b600061137060178361122b565b915061137b8261133a565b602082019050919050565b6000602082019050818103600083015261139f81611363565b9050919050565b7f496e697469616c697a61626c653a20636f6e747261637420697320616c72656160008201527f647920696e697469616c697a6564000000000000000000000000000000000000602082015250565b6000611402602e8361122b565b915061140d826113a6565b604082019050919050565b60006020820190508181036000830152611431816113f5565b9050919050565b6000819050919050565b6000819050919050565b600061146761146261145d84611438565b611442565b610da0565b9050919050565b6114778161144c565b82525050565b6000602082019050611492600083018461146e565b92915050565b7f4e6f742061206d656d6265720000000000000000000000000000000000000000600082015250565b60006114ce600c8361122b565b91506114d982611498565b602082019050919050565b600060208201905081810360008301526114fd816114c1565b9050919050565b7f4e487b7100000000000000000000000000000000000000000000000000000000600052601160045260246000fd5b600061153e82610f64565b915061154983610f64565b925082820190508082111561156157611560611504565b5b92915050565b7f496e76616c69642064656e6f6d696e617465642063757272656e637921000000600082015250565b600061159d601d8361122b565b91506115a882611567565b602082019050919050565b600060208201905081810360008301526115cc81611590565b9050919050565b6115dc81610f64565b82525050565b60006060820190506115f76000830186611201565b6116046020830185611201565b61161160408301846115d3565b949350505050565b60008115159050919050565b61162e81611619565b811461163957600080fd5b50565b60008151905061164b81611625565b92915050565b60006020828403121561166757611666610d0a565b5b60006116758482850161163c565b9150509291505056fea26469706673582212209d0ba50660c2dac8fff4258a4a8e1d0a77b133722084584244b714ca4453ce6764736f6c63430008110033",
  "immutableReferences": {},
  "source": "// SPDX-License-Identifier: Apache 2\npragma solidity 0.8.17;\nimport \"@openzeppelin/contracts-upgradeable/proxy/utils/Initializable.sol\";\nimport \"../structs/UnqWormholeStructs.sol\";\nimport \"@openzeppelin/contracts/token/ERC20/ERC20.sol\";\n\ncontract UnqTreasury is Initializable {\n    bytes32 _realmAddress;\n    bytes32 _treasuryAuthority;\n    address _denominatedCurrency;\n    mapping(bytes32 => UnqWormholeStructs.MemberData) members;\n    address _relayerSigner;\n    mapping(address => uint256) memberDeposits;\n\n    constructor() {\n        _disableInitializers();\n    }\n\n    //TODO:Make modifier that encodes address to bytes32 format and use it in every function that accepts bytes32 sender\n    modifier nonExistingMember(\n        UnqWormholeStructs.AddMemberAction memory member\n    ) {\n        require(\n            members[member.solanaAddress].solanaAddress == bytes32(0),\n            \"Member alredy in club!\"\n        );\n        _;\n    }\n\n    modifier onlyAuthority(bytes32 authority) {\n        require(authority == _treasuryAuthority, \"Invalid permission\");\n        _;\n    }\n\n    modifier existingMember(bytes32 solanaAddress, address ethereumAddress) {\n        require(\n            members[solanaAddress].ethAddress == ethereumAddress,\n            \"Wrong Ethereum destination address!\"\n        );\n        _;\n    }\n\n    modifier onlyRelayerSigner() {\n        require(tx.origin == _relayerSigner, \"Invalid authority call!\");\n        _;\n    }\n\n    modifier denominatedCurrencyRestrict() {\n        require(\n            _denominatedCurrency != address(0),\n            \"Invalid denominated currency!\"\n        );\n\n        _;\n    }\n\n    event MemberAddedEvent(UnqWormholeStructs.MemberData);\n\n    function initialize(\n        bytes32 realmAddress,\n        bytes32 treasuryAuthority,\n        address denominatedCurrency\n    ) external initializer {\n        _realmAddress = realmAddress;\n\n        _treasuryAuthority = treasuryAuthority;\n\n        _denominatedCurrency = denominatedCurrency;\n\n        members[treasuryAuthority] = UnqWormholeStructs.MemberData({\n            solanaAddress: treasuryAuthority,\n            ethAddress: tx.origin,\n            status: UnqWormholeStructs.MemberStatus.Accepted,\n            joinedAt: block.timestamp,\n            realmAddress: _realmAddress\n        });\n    }\n\n    function addNewMember(UnqWormholeStructs.AddMemberAction memory newMember)\n        external\n        nonExistingMember(newMember)\n    {\n        UnqWormholeStructs.MemberData memory memberData = UnqWormholeStructs\n            .MemberData({\n                realmAddress: _realmAddress,\n                solanaAddress: newMember.solanaAddress,\n                ethAddress: newMember.ethAddress,\n                status: UnqWormholeStructs.MemberStatus.Accepted,\n                joinedAt: block.timestamp\n            });\n        members[newMember.solanaAddress] = memberData;\n        emit MemberAddedEvent(memberData);\n    }\n\n    function receiveFunds(bytes32 memberAddress)\n        external\n        payable\n        existingMember(memberAddress, msg.sender)\n    {\n        require(\n            members[memberAddress].status ==\n                UnqWormholeStructs.MemberStatus.Accepted,\n            \"Not a member\"\n        );\n        memberDeposits[tx.origin] += msg.value;\n    }\n\n    function getMemberData(bytes32 memberAddress)\n        public\n        view\n        returns (UnqWormholeStructs.MemberData memory)\n    {\n        return members[memberAddress];\n    }\n\n    function transferFunds(address payable destination, uint256 amount)\n        external\n        onlyRelayerSigner\n    {\n        destination.transfer(amount);\n    }\n\n    function claimReward(\n        bytes32 solanaAddress,\n        address payable destination,\n        uint256 amount\n    ) external existingMember(solanaAddress, destination) onlyRelayerSigner {\n        destination.transfer(amount);\n    }\n\n    function depositDenominatedCurrency(uint256 amount)\n        public\n        denominatedCurrencyRestrict\n    {\n        ERC20 token = ERC20(_denominatedCurrency);\n\n        token.transferFrom(msg.sender, address(this), amount);\n        memberDeposits[msg.sender] += amount;\n    }\n\n    function getDenominatedCurrency() public view returns (address) {\n        return _denominatedCurrency;\n    }\n}\n",
  "sourcePath": "/Users/gorangutovic/Desktop/unique/unq-treasury-eth/contracts/Treasury/UnqTreasury.sol",
  "compiler": {
    "name": "solc",
    "version": "0.8.17+commit.8df45f5f.Emscripten.clang"
  },
  "schemaVersion": "3.4.11",
  "updatedAt": "2023-02-07T09:14:11.601Z",
  "networkType": "ethereum",
  "devdoc": {
    "kind": "dev",
    "methods": {},
    "version": 1
  },
  "userdoc": {
    "kind": "user",
    "methods": {},
    "version": 1
  }
}