{
  "contractName": "UnqTreasury",
  "abi": [
    {
      "inputs": [],
      "stateMutability": "nonpayable",
      "type": "constructor"
    },
    {
      "anonymous": false,
      "inputs": [
        {
          "indexed": false,
          "internalType": "uint256",
          "name": "",
          "type": "uint256"
        }
      ],
      "name": "ClaimFundsEvent",
      "type": "event"
    },
    {
      "anonymous": false,
      "inputs": [
        {
          "indexed": false,
          "internalType": "uint256",
          "name": "",
          "type": "uint256"
        }
      ],
      "name": "DepositEvent",
      "type": "event"
    },
    {
      "anonymous": false,
      "inputs": [
        {
          "indexed": false,
          "internalType": "uint8",
          "name": "version",
          "type": "uint8"
        }
      ],
      "name": "Initialized",
      "type": "event"
    },
    {
      "anonymous": false,
      "inputs": [
        {
          "components": [
            {
              "internalType": "bytes32",
              "name": "solanaTreasury",
              "type": "bytes32"
            },
            {
              "internalType": "bytes32",
              "name": "solanaAddress",
              "type": "bytes32"
            },
            {
              "internalType": "enum UnqWormholeStructs.MemberStatus",
              "name": "status",
              "type": "uint8"
            },
            {
              "internalType": "uint256",
              "name": "joinedAt",
              "type": "uint256"
            },
            {
              "internalType": "address",
              "name": "ethAddress",
              "type": "address"
            }
          ],
          "indexed": false,
          "internalType": "struct UnqWormholeStructs.MemberData",
          "name": "",
          "type": "tuple"
        }
      ],
      "name": "MemberAddedEvent",
      "type": "event"
    },
    {
      "anonymous": false,
      "inputs": [
        {
          "components": [
            {
              "internalType": "bytes32",
              "name": "buyer",
              "type": "bytes32"
            },
            {
              "internalType": "bytes32",
              "name": "seller",
              "type": "bytes32"
            },
            {
              "internalType": "bytes32",
              "name": "solanaTreasury",
              "type": "bytes32"
            },
            {
              "internalType": "uint256",
              "name": "amount",
              "type": "uint256"
            }
          ],
          "indexed": false,
          "internalType": "struct UnqWormholeStructs.SharesBought",
          "name": "",
          "type": "tuple"
        }
      ],
      "name": "SharesBoughtEvent",
      "type": "event"
    },
    {
      "anonymous": false,
      "inputs": [
        {
          "indexed": false,
          "internalType": "uint256",
          "name": "",
          "type": "uint256"
        }
      ],
      "name": "TransferFundsEvent",
      "type": "event"
    },
    {
      "anonymous": false,
      "inputs": [
        {
          "indexed": false,
          "internalType": "bytes32",
          "name": "",
          "type": "bytes32"
        }
      ],
      "name": "TreasuryCreatedEvent",
      "type": "event"
    },
    {
      "inputs": [
        {
          "internalType": "bytes32",
          "name": "solanaTreasury",
          "type": "bytes32"
        },
        {
          "internalType": "bytes32",
          "name": "treasuryAuthority",
          "type": "bytes32"
        },
        {
          "internalType": "address",
          "name": "denominatedCurrency",
          "type": "address"
        },
        {
          "internalType": "address",
          "name": "factoryContract",
          "type": "address"
        },
        {
          "internalType": "address",
          "name": "creator",
          "type": "address"
        }
      ],
      "name": "initialize",
      "outputs": [],
      "stateMutability": "nonpayable",
      "type": "function"
    },
    {
      "inputs": [
        {
          "components": [
            {
              "internalType": "uint8",
              "name": "action",
              "type": "uint8"
            },
            {
              "internalType": "bytes32",
              "name": "realmAddress",
              "type": "bytes32"
            },
            {
              "internalType": "bytes32",
              "name": "solanaAddress",
              "type": "bytes32"
            },
            {
              "internalType": "address",
              "name": "ethAddress",
              "type": "address"
            }
          ],
          "internalType": "struct UnqWormholeStructs.AddMemberAction",
          "name": "newMember",
          "type": "tuple"
        }
      ],
      "name": "addNewMember",
      "outputs": [],
      "stateMutability": "nonpayable",
      "type": "function"
    },
    {
      "inputs": [
        {
          "internalType": "bytes32",
          "name": "memberAddress",
          "type": "bytes32"
        },
        {
          "internalType": "uint8",
          "name": "nonce",
          "type": "uint8"
        }
      ],
      "name": "receiveFunds",
      "outputs": [],
      "stateMutability": "payable",
      "type": "function",
      "payable": true
    },
    {
      "inputs": [
        {
          "internalType": "bytes32",
          "name": "memberAddress",
          "type": "bytes32"
        }
      ],
      "name": "getMemberData",
      "outputs": [
        {
          "components": [
            {
              "internalType": "bytes32",
              "name": "solanaTreasury",
              "type": "bytes32"
            },
            {
              "internalType": "bytes32",
              "name": "solanaAddress",
              "type": "bytes32"
            },
            {
              "internalType": "enum UnqWormholeStructs.MemberStatus",
              "name": "status",
              "type": "uint8"
            },
            {
              "internalType": "uint256",
              "name": "joinedAt",
              "type": "uint256"
            },
            {
              "internalType": "address",
              "name": "ethAddress",
              "type": "address"
            }
          ],
          "internalType": "struct UnqWormholeStructs.MemberData",
          "name": "",
          "type": "tuple"
        }
      ],
      "stateMutability": "view",
      "type": "function",
      "constant": true
    },
    {
      "inputs": [
        {
          "internalType": "address payable",
          "name": "destination",
          "type": "address"
        },
        {
          "internalType": "uint256",
          "name": "amount",
          "type": "uint256"
        },
        {
          "internalType": "address",
          "name": "currency",
          "type": "address"
        }
      ],
      "name": "transferFunds",
      "outputs": [],
      "stateMutability": "nonpayable",
      "type": "function"
    },
    {
      "inputs": [
        {
          "internalType": "bytes32",
          "name": "solanaAddress",
          "type": "bytes32"
        },
        {
          "internalType": "address payable",
          "name": "destination",
          "type": "address"
        },
        {
          "internalType": "uint256",
          "name": "amount",
          "type": "uint256"
        },
        {
          "internalType": "address",
          "name": "currency",
          "type": "address"
        }
      ],
      "name": "claimReward",
      "outputs": [],
      "stateMutability": "nonpayable",
      "type": "function"
    },
    {
      "inputs": [
        {
          "internalType": "address payable",
          "name": "receiver",
          "type": "address"
        },
        {
          "internalType": "bytes32",
          "name": "treasury",
          "type": "bytes32"
        },
        {
          "internalType": "bytes32",
          "name": "financialOffer",
          "type": "bytes32"
        },
        {
          "internalType": "bytes32",
          "name": "seller",
          "type": "bytes32"
        },
        {
          "internalType": "bytes32",
          "name": "buyer",
          "type": "bytes32"
        }
      ],
      "name": "sellFinancialRights",
      "outputs": [],
      "stateMutability": "payable",
      "type": "function",
      "payable": true
    },
    {
      "inputs": [
        {
          "internalType": "bytes32",
          "name": "sellerSolanaAddress",
          "type": "bytes32"
        },
        {
          "internalType": "bytes32",
          "name": "buyerSolanaAddress",
          "type": "bytes32"
        },
        {
          "internalType": "bytes32",
          "name": "treasury",
          "type": "bytes32"
        },
        {
          "internalType": "address",
          "name": "receiver",
          "type": "address"
        },
        {
          "internalType": "bytes32",
          "name": "financialOffer",
          "type": "bytes32"
        },
        {
          "internalType": "uint256",
          "name": "amount",
          "type": "uint256"
        }
      ],
      "name": "sellSharesDenominatedCurrency",
      "outputs": [],
      "stateMutability": "payable",
      "type": "function",
      "payable": true
    },
    {
      "inputs": [
        {
          "internalType": "bytes32",
          "name": "solanaAddress",
          "type": "bytes32"
        },
        {
          "internalType": "uint256",
          "name": "amount",
          "type": "uint256"
        },
        {
          "internalType": "uint8",
          "name": "nonce",
          "type": "uint8"
        }
      ],
      "name": "depositDenominatedCurrency",
      "outputs": [],
      "stateMutability": "payable",
      "type": "function",
      "payable": true
    },
    {
      "inputs": [],
      "name": "getDenominatedCurrency",
      "outputs": [
        {
          "internalType": "address",
          "name": "",
          "type": "address"
        }
      ],
      "stateMutability": "view",
      "type": "function",
      "constant": true
    }
  ],
  "bytecode": "0x60806040523480156200001157600080fd5b50620000226200002860201b60201c565b620001d3565b600060019054906101000a900460ff16156200007b576040517f08c379a0000000000000000000000000000000000000000000000000000000008152600401620000729062000176565b60405180910390fd5b60ff801660008054906101000a900460ff1660ff161015620000ed5760ff6000806101000a81548160ff021916908360ff1602179055507f7f26b83ff96e1f2b6a682f133852f6798a09c465da95921460cefb384740249860ff604051620000e49190620001b6565b60405180910390a15b565b600082825260208201905092915050565b7f496e697469616c697a61626c653a20636f6e747261637420697320696e69746960008201527f616c697a696e6700000000000000000000000000000000000000000000000000602082015250565b60006200015e602783620000ef565b91506200016b8262000100565b604082019050919050565b6000602082019050818103600083015262000191816200014f565b9050919050565b600060ff82169050919050565b620001b08162000198565b82525050565b6000602082019050620001cd6000830184620001a5565b92915050565b61293580620001e36000396000f3fe6080604052600436106100905760003560e01c8063bd35f32111610059578063bd35f32114610148578063c74e249314610164578063d0e4e151146101a1578063f25dfaf7146101bd578063fb1d97dc146101e857610090565b80628f5d131461009557806319e64f58146100be5780631d978e49146100e75780634649977014610103578063bc2fea451461012c575b600080fd5b3480156100a157600080fd5b506100bc60048036038101906100b791906118f5565b610211565b005b3480156100ca57600080fd5b506100e560048036038101906100e0919061195c565b6103fc565b005b61010160048036038101906100fc91906119e8565b61053e565b005b34801561010f57600080fd5b5061012a60048036038101906101259190611a28565b610803565b005b61014660048036038101906101419190611aa3565b610b01565b005b610162600480360381019061015d9190611b30565b610d5a565b005b34801561017057600080fd5b5061018b60048036038101906101869190611b83565b610fe2565b6040516101989190611cbc565b60405180910390f35b6101bb60048036038101906101b69190611cd7565b6110be565b005b3480156101c957600080fd5b506101d261158b565b6040516101df9190611d61565b60405180910390f35b3480156101f457600080fd5b5061020f600480360381019061020a9190611e85565b6115b5565b005b83838073ffffffffffffffffffffffffffffffffffffffff166005600084815260200190815260200160002060040160009054906101000a900473ffffffffffffffffffffffffffffffffffffffff1673ffffffffffffffffffffffffffffffffffffffff16146102b7576040517f08c379a00000000000000000000000000000000000000000000000000000000081526004016102ae90611f35565b60405180910390fd5b600073ffffffffffffffffffffffffffffffffffffffff168373ffffffffffffffffffffffffffffffffffffffff1603610337578473ffffffffffffffffffffffffffffffffffffffff166108fc859081150290604051600060405180830381858888f19350505050158015610331573d6000803e3d6000fd5b506103bd565b60008390508073ffffffffffffffffffffffffffffffffffffffff1663a9059cbb87876040518363ffffffff1660e01b8152600401610377929190611fc3565b6020604051808303816000875af1158015610396573d6000803e3d6000fd5b505050506040513d601f19601f820116820180604052508101906103ba9190612024565b50505b7f5057b927f141ba401de87daf806c060c2bd6cd63cc7d2168173aceafc765843e846040516103ec9190612051565b60405180910390a1505050505050565b600073ffffffffffffffffffffffffffffffffffffffff168173ffffffffffffffffffffffffffffffffffffffff160361047c578273ffffffffffffffffffffffffffffffffffffffff166108fc839081150290604051600060405180830381858888f19350505050158015610476573d6000803e3d6000fd5b50610502565b60008190508073ffffffffffffffffffffffffffffffffffffffff1663a9059cbb85856040518363ffffffff1660e01b81526004016104bc929190611fc3565b6020604051808303816000875af11580156104db573d6000803e3d6000fd5b505050506040513d601f19601f820116820180604052508101906104ff9190612024565b50505b7f7659805158d7560b5fea9106dd42c0023c0e2b1fb05ba48aa64f5cd6464b739f826040516105319190612051565b60405180910390a1505050565b81338073ffffffffffffffffffffffffffffffffffffffff166005600084815260200190815260200160002060040160009054906101000a900473ffffffffffffffffffffffffffffffffffffffff1673ffffffffffffffffffffffffffffffffffffffff16146105e4576040517f08c379a00000000000000000000000000000000000000000000000000000000081526004016105db90611f35565b60405180910390fd5b60008060015486346040516020016105ff94939291906120e4565b6040516020818303038152906040529050600460009054906101000a900473ffffffffffffffffffffffffffffffffffffffff1673ffffffffffffffffffffffffffffffffffffffff1663ac9a3db382866040518363ffffffff1660e01b815260040161066d9291906121c0565b600060405180830381600087803b15801561068757600080fd5b505af115801561069b573d6000803e3d6000fd5b505050506001808111156106b2576106b1611bbf565b5b6005600087815260200190815260200160002060020160009054906101000a900460ff1660018111156106e8576106e7611bbf565b5b14610728576040517f08c379a000000000000000000000000000000000000000000000000000000000815260040161071f9061223c565b60405180910390fd5b633b9aca0034101561076f576040517f08c379a0000000000000000000000000000000000000000000000000000000008152600401610766906122a8565b60405180910390fd5b34600760003273ffffffffffffffffffffffffffffffffffffffff1673ffffffffffffffffffffffffffffffffffffffff16815260200190815260200160002060008282546107be91906122f7565b925050819055507f0adeae8759aabaf58fb5029d7519173f1f604ef94b5a157fb8f6f2a6af34b13d346040516107f49190612051565b60405180910390a15050505050565b60008060019054906101000a900460ff161590508080156108345750600160008054906101000a900460ff1660ff16105b8061086157506108433061175e565b1580156108605750600160008054906101000a900460ff1660ff16145b5b6108a0576040517f08c379a00000000000000000000000000000000000000000000000000000000081526004016108979061239d565b60405180910390fd5b60016000806101000a81548160ff021916908360ff16021790555080156108dd576001600060016101000a81548160ff0219169083151502179055505b856001819055508460028190555083600360006101000a81548173ffffffffffffffffffffffffffffffffffffffff021916908373ffffffffffffffffffffffffffffffffffffffff16021790555082600460006101000a81548173ffffffffffffffffffffffffffffffffffffffff021916908373ffffffffffffffffffffffffffffffffffffffff1602179055506040518060a00160405280600154815260200186815260200160018081111561099957610998611bbf565b5b81526020014281526020018373ffffffffffffffffffffffffffffffffffffffff1681525060056000878152602001908152602001600020600082015181600001556020820151816001015560408201518160020160006101000a81548160ff02191690836001811115610a1057610a0f611bbf565b5b02179055506060820151816003015560808201518160040160006101000a81548173ffffffffffffffffffffffffffffffffffffffff021916908373ffffffffffffffffffffffffffffffffffffffff1602179055509050507f4ccd63ea06a2303708404d91dd8142bf6b6d829eb91ce48e05efc4dabdd5511986604051610a9891906123cc565b60405180910390a18015610af95760008060016101000a81548160ff0219169083151502179055507f7f26b83ff96e1f2b6a682f133852f6798a09c465da95921460cefb38474024986001604051610af09190612422565b60405180910390a15b505050505050565b600073ffffffffffffffffffffffffffffffffffffffff16600360009054906101000a900473ffffffffffffffffffffffffffffffffffffffff1673ffffffffffffffffffffffffffffffffffffffff1603610b92576040517f08c379a0000000000000000000000000000000000000000000000000000000008152600401610b89906124af565b60405180910390fd5b6000600360009054906101000a900473ffffffffffffffffffffffffffffffffffffffff1690508073ffffffffffffffffffffffffffffffffffffffff166323b872dd3386856040518463ffffffff1660e01b8152600401610bf6939291906124cf565b6020604051808303816000875af1158015610c15573d6000803e3d6000fd5b505050506040513d601f19601f82011682018060405250810190610c399190612024565b50600060018688868b87604051602001610c5896959493929190612506565b6040516020818303038152906040529050600460009054906101000a900473ffffffffffffffffffffffffffffffffffffffff1673ffffffffffffffffffffffffffffffffffffffff1663ac9a3db38260006040518363ffffffff1660e01b8152600401610cc79291906125b1565b600060405180830381600087803b158015610ce157600080fd5b505af1158015610cf5573d6000803e3d6000fd5b505050507f94581681b8a0d4e7c6a54f2ffbeee19c917bb4ec133f0692f032cb1687b88a3460405180608001604052808981526020018a815260200188815260200185815250604051610d489190612636565b60405180910390a15050505050505050565b600073ffffffffffffffffffffffffffffffffffffffff16600360009054906101000a900473ffffffffffffffffffffffffffffffffffffffff1673ffffffffffffffffffffffffffffffffffffffff1603610deb576040517f08c379a0000000000000000000000000000000000000000000000000000000008152600401610de29061269d565b60405180910390fd5b6000806001548585604051602001610e0694939291906120e4565b6040516020818303038152906040529050600460009054906101000a900473ffffffffffffffffffffffffffffffffffffffff1673ffffffffffffffffffffffffffffffffffffffff1663ac9a3db382846040518363ffffffff1660e01b8152600401610e749291906121c0565b600060405180830381600087803b158015610e8e57600080fd5b505af1158015610ea2573d6000803e3d6000fd5b505050506000600360009054906101000a900473ffffffffffffffffffffffffffffffffffffffff1690508073ffffffffffffffffffffffffffffffffffffffff166323b872dd3330876040518463ffffffff1660e01b8152600401610f0a939291906124cf565b6020604051808303816000875af1158015610f29573d6000803e3d6000fd5b505050506040513d601f19601f82011682018060405250810190610f4d9190612024565b5083600760003373ffffffffffffffffffffffffffffffffffffffff1673ffffffffffffffffffffffffffffffffffffffff1681526020019081526020016000206000828254610f9d91906122f7565b925050819055507f0adeae8759aabaf58fb5029d7519173f1f604ef94b5a157fb8f6f2a6af34b13d84604051610fd39190612051565b60405180910390a15050505050565b610fea611781565b600560008381526020019081526020016000206040518060a001604052908160008201548152602001600182015481526020016002820160009054906101000a900460ff16600181111561104157611040611bbf565b5b600181111561105357611052611bbf565b5b8152602001600382015481526020016004820160009054906101000a900473ffffffffffffffffffffffffffffffffffffffff1673ffffffffffffffffffffffffffffffffffffffff1673ffffffffffffffffffffffffffffffffffffffff16815250509050919050565b803383876000600560008681526020019081526020016000206040518060a001604052908160008201548152602001600182015481526020016002820160009054906101000a900460ff16600181111561111b5761111a611bbf565b5b600181111561112d5761112c611bbf565b5b8152602001600382015481526020016004820160009054906101000a900473ffffffffffffffffffffffffffffffffffffffff1673ffffffffffffffffffffffffffffffffffffffff1673ffffffffffffffffffffffffffffffffffffffff168152505090508373ffffffffffffffffffffffffffffffffffffffff16816080015173ffffffffffffffffffffffffffffffffffffffff1614611205576040517f08c379a00000000000000000000000000000000000000000000000000000000081526004016111fc90612709565b60405180910390fd5b6000600560008581526020019081526020016000206040518060a001604052908160008201548152602001600182015481526020016002820160009054906101000a900460ff16600181111561125e5761125d611bbf565b5b60018111156112705761126f611bbf565b5b8152602001600382015481526020016004820160009054906101000a900473ffffffffffffffffffffffffffffffffffffffff1673ffffffffffffffffffffffffffffffffffffffff1673ffffffffffffffffffffffffffffffffffffffff168152505090508273ffffffffffffffffffffffffffffffffffffffff16816080015173ffffffffffffffffffffffffffffffffffffffff1614611348576040517f08c379a000000000000000000000000000000000000000000000000000000000815260040161133f90612775565b60405180910390fd5b600073ffffffffffffffffffffffffffffffffffffffff16600360009054906101000a900473ffffffffffffffffffffffffffffffffffffffff1673ffffffffffffffffffffffffffffffffffffffff16146113d9576040517f08c379a00000000000000000000000000000000000000000000000000000000081526004016113d090612807565b60405180910390fd5b8a73ffffffffffffffffffffffffffffffffffffffff166108fc349081150290604051600060405180830381858888f1935050505015801561141f573d6000803e3d6000fd5b50633b9aca00341015611467576040517f08c379a000000000000000000000000000000000000000000000000000000000815260040161145e90612873565b60405180910390fd5b600060018b898c8c3460405160200161148596959493929190612506565b6040516020818303038152906040529050600460009054906101000a900473ffffffffffffffffffffffffffffffffffffffff1673ffffffffffffffffffffffffffffffffffffffff1663ac9a3db38260006040518363ffffffff1660e01b81526004016114f49291906125b1565b600060405180830381600087803b15801561150e57600080fd5b505af1158015611522573d6000803e3d6000fd5b505050507f94581681b8a0d4e7c6a54f2ffbeee19c917bb4ec133f0692f032cb1687b88a3460405180608001604052808a81526020018b81526020018d8152602001348152506040516115759190612636565b60405180910390a1505050505050505050505050565b6000600360009054906101000a900473ffffffffffffffffffffffffffffffffffffffff16905090565b806000801b60056000836040015181526020019081526020016000206001015414611615576040517f08c379a000000000000000000000000000000000000000000000000000000000815260040161160c906128df565b60405180910390fd5b60006040518060a0016040528060015481526020018460400151815260200160018081111561164757611646611bbf565b5b8152602001428152602001846060015173ffffffffffffffffffffffffffffffffffffffff168152509050806005600085604001518152602001908152602001600020600082015181600001556020820151816001015560408201518160020160006101000a81548160ff021916908360018111156116c9576116c8611bbf565b5b02179055506060820151816003015560808201518160040160006101000a81548173ffffffffffffffffffffffffffffffffffffffff021916908373ffffffffffffffffffffffffffffffffffffffff1602179055509050507f2034f42176ad2fb457ff86d86cfb31612b60d88b9f42a8af6d3e5d316a12eb6a816040516117519190611cbc565b60405180910390a1505050565b6000808273ffffffffffffffffffffffffffffffffffffffff163b119050919050565b6040518060a001604052806000801916815260200160008019168152602001600060018111156117b4576117b3611bbf565b5b815260200160008152602001600073ffffffffffffffffffffffffffffffffffffffff1681525090565b6000604051905090565b600080fd5b6000819050919050565b611800816117ed565b811461180b57600080fd5b50565b60008135905061181d816117f7565b92915050565b600073ffffffffffffffffffffffffffffffffffffffff82169050919050565b600061184e82611823565b9050919050565b61185e81611843565b811461186957600080fd5b50565b60008135905061187b81611855565b92915050565b6000819050919050565b61189481611881565b811461189f57600080fd5b50565b6000813590506118b18161188b565b92915050565b60006118c282611823565b9050919050565b6118d2816118b7565b81146118dd57600080fd5b50565b6000813590506118ef816118c9565b92915050565b6000806000806080858703121561190f5761190e6117e8565b5b600061191d8782880161180e565b945050602061192e8782880161186c565b935050604061193f878288016118a2565b9250506060611950878288016118e0565b91505092959194509250565b600080600060608486031215611975576119746117e8565b5b60006119838682870161186c565b9350506020611994868287016118a2565b92505060406119a5868287016118e0565b9150509250925092565b600060ff82169050919050565b6119c5816119af565b81146119d057600080fd5b50565b6000813590506119e2816119bc565b92915050565b600080604083850312156119ff576119fe6117e8565b5b6000611a0d8582860161180e565b9250506020611a1e858286016119d3565b9150509250929050565b600080600080600060a08688031215611a4457611a436117e8565b5b6000611a528882890161180e565b9550506020611a638882890161180e565b9450506040611a74888289016118e0565b9350506060611a85888289016118e0565b9250506080611a96888289016118e0565b9150509295509295909350565b60008060008060008060c08789031215611ac057611abf6117e8565b5b6000611ace89828a0161180e565b9650506020611adf89828a0161180e565b9550506040611af089828a0161180e565b9450506060611b0189828a016118e0565b9350506080611b1289828a0161180e565b92505060a0611b2389828a016118a2565b9150509295509295509295565b600080600060608486031215611b4957611b486117e8565b5b6000611b578682870161180e565b9350506020611b68868287016118a2565b9250506040611b79868287016119d3565b9150509250925092565b600060208284031215611b9957611b986117e8565b5b6000611ba78482850161180e565b91505092915050565b611bb9816117ed565b82525050565b7f4e487b7100000000000000000000000000000000000000000000000000000000600052602160045260246000fd5b60028110611bff57611bfe611bbf565b5b50565b6000819050611c1082611bee565b919050565b6000611c2082611c02565b9050919050565b611c3081611c15565b82525050565b611c3f81611881565b82525050565b611c4e816118b7565b82525050565b60a082016000820151611c6a6000850182611bb0565b506020820151611c7d6020850182611bb0565b506040820151611c906040850182611c27565b506060820151611ca36060850182611c36565b506080820151611cb66080850182611c45565b50505050565b600060a082019050611cd16000830184611c54565b92915050565b600080600080600060a08688031215611cf357611cf26117e8565b5b6000611d018882890161186c565b9550506020611d128882890161180e565b9450506040611d238882890161180e565b9350506060611d348882890161180e565b9250506080611d458882890161180e565b9150509295509295909350565b611d5b816118b7565b82525050565b6000602082019050611d766000830184611d52565b92915050565b600080fd5b6000601f19601f8301169050919050565b7f4e487b7100000000000000000000000000000000000000000000000000000000600052604160045260246000fd5b611dca82611d81565b810181811067ffffffffffffffff82111715611de957611de8611d92565b5b80604052505050565b6000611dfc6117de565b9050611e088282611dc1565b919050565b600060808284031215611e2357611e22611d7c565b5b611e2d6080611df2565b90506000611e3d848285016119d3565b6000830152506020611e518482850161180e565b6020830152506040611e658482850161180e565b6040830152506060611e79848285016118e0565b60608301525092915050565b600060808284031215611e9b57611e9a6117e8565b5b6000611ea984828501611e0d565b91505092915050565b600082825260208201905092915050565b7f57726f6e6720457468657265756d2064657374696e6174696f6e20616464726560008201527f7373210000000000000000000000000000000000000000000000000000000000602082015250565b6000611f1f602383611eb2565b9150611f2a82611ec3565b604082019050919050565b60006020820190508181036000830152611f4e81611f12565b9050919050565b6000819050919050565b6000611f7a611f75611f7084611823565b611f55565b611823565b9050919050565b6000611f8c82611f5f565b9050919050565b6000611f9e82611f81565b9050919050565b611fae81611f93565b82525050565b611fbd81611881565b82525050565b6000604082019050611fd86000830185611fa5565b611fe56020830184611fb4565b9392505050565b60008115159050919050565b61200181611fec565b811461200c57600080fd5b50565b60008151905061201e81611ff8565b92915050565b60006020828403121561203a576120396117e8565b5b60006120488482850161200f565b91505092915050565b60006020820190506120666000830184611fb4565b92915050565b60008160f81b9050919050565b60006120848261206c565b9050919050565b61209c612097826119af565b612079565b82525050565b6000819050919050565b6120bd6120b8826117ed565b6120a2565b82525050565b6000819050919050565b6120de6120d982611881565b6120c3565b82525050565b60006120f0828761208b565b60018201915061210082866120ac565b60208201915061211082856120ac565b60208201915061212082846120cd565b60208201915081905095945050505050565b600081519050919050565b600082825260208201905092915050565b60005b8381101561216c578082015181840152602081019050612151565b60008484015250505050565b600061218382612132565b61218d818561213d565b935061219d81856020860161214e565b6121a681611d81565b840191505092915050565b6121ba816119af565b82525050565b600060408201905081810360008301526121da8185612178565b90506121e960208301846121b1565b9392505050565b7f4e6f742061206d656d6265720000000000000000000000000000000000000000600082015250565b6000612226600c83611eb2565b9150612231826121f0565b602082019050919050565b6000602082019050818103600083015261225581612219565b9050919050565b7f496e76616c6964206465706f73697420616d6f756e7400000000000000000000600082015250565b6000612292601683611eb2565b915061229d8261225c565b602082019050919050565b600060208201905081810360008301526122c181612285565b9050919050565b7f4e487b7100000000000000000000000000000000000000000000000000000000600052601160045260246000fd5b600061230282611881565b915061230d83611881565b9250828201905080821115612325576123246122c8565b5b92915050565b7f496e697469616c697a61626c653a20636f6e747261637420697320616c72656160008201527f647920696e697469616c697a6564000000000000000000000000000000000000602082015250565b6000612387602e83611eb2565b91506123928261232b565b604082019050919050565b600060208201905081810360008301526123b68161237a565b9050919050565b6123c6816117ed565b82525050565b60006020820190506123e160008301846123bd565b92915050565b6000819050919050565b600061240c612407612402846123e7565b611f55565b6119af565b9050919050565b61241c816123f1565b82525050565b60006020820190506124376000830184612413565b92915050565b7f547265617375727920646f6573206e6f7420686176652064656e6f6d696e617460008201527f65642063757272656e6379000000000000000000000000000000000000000000602082015250565b6000612499602b83611eb2565b91506124a48261243d565b604082019050919050565b600060208201905081810360008301526124c88161248c565b9050919050565b60006060820190506124e46000830186611d52565b6124f16020830185611d52565b6124fe6040830184611fb4565b949350505050565b6000612512828961208b565b60018201915061252282886120ac565b60208201915061253282876120ac565b60208201915061254282866120ac565b60208201915061255282856120ac565b60208201915061256282846120cd565b602082019150819050979650505050505050565b6000819050919050565b600061259b61259661259184612576565b611f55565b6119af565b9050919050565b6125ab81612580565b82525050565b600060408201905081810360008301526125cb8185612178565b90506125da60208301846125a2565b9392505050565b6080820160008201516125f76000850182611bb0565b50602082015161260a6020850182611bb0565b50604082015161261d6040850182611bb0565b5060608201516126306060850182611c36565b50505050565b600060808201905061264b60008301846125e1565b92915050565b7f496e76616c69642064656e6f6d696e617465642063757272656e637921000000600082015250565b6000612687601d83611eb2565b915061269282612651565b602082019050919050565b600060208201905081810360008301526126b68161267a565b9050919050565b7f496e76616c6964204554482073656e6465722061646472657373000000000000600082015250565b60006126f3601a83611eb2565b91506126fe826126bd565b602082019050919050565b60006020820190508181036000830152612722816126e6565b9050919050565b7f496e76616c69642064657374696e6174696f6e20455448206164647265737300600082015250565b600061275f601f83611eb2565b915061276a82612729565b602082019050919050565b6000602082019050818103600083015261278e81612752565b9050919050565b7f43616e27742073656c6c2073686172657320696e206e6174697665206375727260008201527f656e637900000000000000000000000000000000000000000000000000000000602082015250565b60006127f1602483611eb2565b91506127fc82612795565b604082019050919050565b60006020820190508181036000830152612820816127e4565b9050919050565b7f496e76616c69642073656c6c2073686172657320616d6f756e74000000000000600082015250565b600061285d601a83611eb2565b915061286882612827565b602082019050919050565b6000602082019050818103600083015261288c81612850565b9050919050565b7f4d656d62657220616c7265647920696e20636c75622100000000000000000000600082015250565b60006128c9601683611eb2565b91506128d482612893565b602082019050919050565b600060208201905081810360008301526128f8816128bc565b905091905056fea26469706673582212203ca6dc82ba7444b105892a419bf06668de972dca15901fbf3f0466a40afeb59c64736f6c63430008130033",
  "immutableReferences": {},
  "source": "// SPDX-License-Identifier: Apache 2\npragma solidity 0.8.19;\nimport \"@openzeppelin/contracts-upgradeable/proxy/utils/Initializable.sol\";\nimport \"../structs/UnqWormholeStructs.sol\";\nimport \"@openzeppelin/contracts/token/ERC20/ERC20.sol\";\nimport \"../interface/IWormhole.sol\";\nimport \"../Wormhole/WormholeUnq.sol\";\n\ncontract UnqTreasury is Initializable {\n    bytes32 _solanaTreasury;\n    bytes32 _treasuryAuthority;\n    address _denominatedCurrency;\n    WormholeUnq factory_contract;\n    mapping(bytes32 => UnqWormholeStructs.MemberData) members;\n    address _relayerSigner;\n    mapping(address => uint256) memberDeposits;\n\n    constructor() {\n        _disableInitializers();\n    }\n\n    modifier nonExistingMember(\n        UnqWormholeStructs.AddMemberAction memory member\n    ) {\n        require(\n            members[member.solanaAddress].solanaAddress == bytes32(0),\n            \"Member alredy in club!\"\n        );\n        _;\n    }\n\n    modifier onlyAuthority(bytes32 authority) {\n        require(authority == _treasuryAuthority, \"Invalid permission\");\n        _;\n    }\n\n    modifier existingMember(bytes32 solanaAddress, address ethereumAddress) {\n        require(\n            members[solanaAddress].ethAddress == ethereumAddress,\n            \"Wrong Ethereum destination address!\"\n        );\n        _;\n    }\n\n    modifier onlyTreasuryMembers(\n        bytes32 senderSolanaAddress,\n        address senderEthAddress,\n        bytes32 receiverSolanaAddress,\n        address receiverEthAddress\n    ) {\n        UnqWormholeStructs.MemberData memory sender = members[\n            senderSolanaAddress\n        ];\n\n        require(\n            sender.ethAddress == senderEthAddress,\n            \"Invalid ETH sender address\"\n        );\n\n        UnqWormholeStructs.MemberData memory receiver = members[\n            receiverSolanaAddress\n        ];\n\n        require(\n            receiver.ethAddress == receiverEthAddress,\n            \"Invalid destination ETH address\"\n        );\n\n        _;\n    }\n\n    modifier onlyRelayerSigner() {\n        require(tx.origin == _relayerSigner, \"Invalid authority call!\");\n        _;\n    }\n\n    modifier denominatedCurrencyRestrict() {\n        require(\n            _denominatedCurrency != address(0),\n            \"Invalid denominated currency!\"\n        );\n\n        _;\n    }\n\n    event MemberAddedEvent(UnqWormholeStructs.MemberData);\n    event DepositEvent(uint256);\n    event ClaimFundsEvent(uint256);\n    event TransferFundsEvent(uint256);\n    event TreasuryCreatedEvent(bytes32);\n    event SharesBoughtEvent(UnqWormholeStructs.SharesBought);\n\n    function initialize(\n        bytes32 solanaTreasury,\n        bytes32 treasuryAuthority,\n        address denominatedCurrency,\n        address factoryContract,\n        address creator\n    ) external initializer {\n        _solanaTreasury = solanaTreasury;\n\n        _treasuryAuthority = treasuryAuthority;\n\n        _denominatedCurrency = denominatedCurrency;\n\n        factory_contract = WormholeUnq(factoryContract);\n\n        members[treasuryAuthority] = UnqWormholeStructs.MemberData({\n            solanaAddress: treasuryAuthority,\n            ethAddress: creator,\n            status: UnqWormholeStructs.MemberStatus.Accepted,\n            joinedAt: block.timestamp,\n            solanaTreasury: _solanaTreasury\n        });\n\n        emit TreasuryCreatedEvent(solanaTreasury);\n    }\n\n    function addNewMember(\n        UnqWormholeStructs.AddMemberAction memory newMember\n    ) external nonExistingMember(newMember) {\n        UnqWormholeStructs.MemberData memory memberData = UnqWormholeStructs\n            .MemberData({\n                solanaTreasury: _solanaTreasury,\n                solanaAddress: newMember.solanaAddress,\n                ethAddress: newMember.ethAddress,\n                status: UnqWormholeStructs.MemberStatus.Accepted,\n                joinedAt: block.timestamp\n            });\n        members[newMember.solanaAddress] = memberData;\n        emit MemberAddedEvent(memberData);\n    }\n\n    function receiveFunds(\n        bytes32 memberAddress,\n        uint8 nonce\n    ) external payable existingMember(memberAddress, msg.sender) {\n        bytes memory vaaBytes = abi.encodePacked(\n            uint8(0),\n            _solanaTreasury,\n            memberAddress,\n            msg.value\n        );\n        factory_contract.pushWomrholeMessage(vaaBytes, nonce);\n        require(\n            members[memberAddress].status ==\n                UnqWormholeStructs.MemberStatus.Accepted,\n            \"Not a member\"\n        );\n\n        require(msg.value >= 1000000000 wei, \"Invalid deposit amount\");\n\n        memberDeposits[tx.origin] += msg.value;\n\n        emit DepositEvent(msg.value);\n    }\n\n    function getMemberData(\n        bytes32 memberAddress\n    ) public view returns (UnqWormholeStructs.MemberData memory) {\n        return members[memberAddress];\n    }\n\n    function transferFunds(\n        address payable destination,\n        uint256 amount, //onlyRelayerSigner,\n        address currency\n    ) external {\n        if (currency == address(0)) {\n            destination.transfer(amount);\n        } else {\n            ERC20 denominatedToken = ERC20(currency);\n            denominatedToken.transfer(destination, amount);\n        }\n        emit TransferFundsEvent(amount);\n    }\n\n    function claimReward(\n        bytes32 solanaAddress,\n        address payable destination,\n        uint256 amount,\n        address currency\n    )\n        external\n        existingMember(solanaAddress, destination) //onlyRelayerSigner\n    {\n        if (currency == address(0)) {\n            destination.transfer(amount);\n        } else {\n            ERC20 token = ERC20(currency);\n            token.transfer(destination, amount);\n        }\n        emit ClaimFundsEvent(amount);\n    }\n\n    function sellFinancialRights(\n        address payable receiver,\n        bytes32 treasury,\n        bytes32 financialOffer,\n        bytes32 seller,\n        bytes32 buyer\n    ) public payable onlyTreasuryMembers(buyer, msg.sender, seller, receiver) {\n        require(\n            _denominatedCurrency == address(0),\n            \"Can't sell shares in native currency\"\n        );\n\n        receiver.transfer(msg.value);\n\n        require(msg.value >= 1000000000 wei, \"Invalid sell shares amount\");\n\n        bytes memory encodedPayload = abi.encodePacked(\n            uint8(1),\n            treasury,\n            buyer,\n            financialOffer,\n            seller,\n            msg.value\n        );\n\n        factory_contract.pushWomrholeMessage(encodedPayload, 0);\n\n        emit SharesBoughtEvent(\n            UnqWormholeStructs.SharesBought({\n                buyer: buyer,\n                seller: seller,\n                solanaTreasury: treasury,\n                amount: msg.value\n            })\n        );\n    }\n\n    //TODO:use modifier\n    function sellSharesDenominatedCurrency(\n        bytes32 sellerSolanaAddress,\n        bytes32 buyerSolanaAddress,\n        bytes32 treasury,\n        address receiver,\n        bytes32 financialOffer,\n        uint256 amount\n    ) public payable {\n        require(\n            _denominatedCurrency != address(0),\n            \"Treasury does not have denominated currency\"\n        );\n        ERC20 token = ERC20(_denominatedCurrency);\n        token.transferFrom(msg.sender, receiver, amount);\n        bytes memory encodedVaa = abi.encodePacked(\n            uint8(1),\n            treasury,\n            buyerSolanaAddress,\n            financialOffer,\n            sellerSolanaAddress,\n            amount\n        );\n        factory_contract.pushWomrholeMessage(encodedVaa, 0);\n\n        emit SharesBoughtEvent(\n            UnqWormholeStructs.SharesBought({\n                buyer: buyerSolanaAddress,\n                seller: sellerSolanaAddress,\n                solanaTreasury: treasury,\n                amount: amount\n            })\n        );\n    }\n\n    function depositDenominatedCurrency(\n        bytes32 solanaAddress,\n        uint256 amount,\n        uint8 nonce\n    ) public payable denominatedCurrencyRestrict {\n        bytes memory vaaBytes = abi.encodePacked(\n            uint8(0),\n            _solanaTreasury,\n            solanaAddress,\n            amount\n        );\n        factory_contract.pushWomrholeMessage(vaaBytes, nonce);\n        ERC20 token = ERC20(_denominatedCurrency);\n\n        token.transferFrom(msg.sender, address(this), amount);\n\n        memberDeposits[msg.sender] += amount;\n\n        emit DepositEvent(amount);\n    }\n\n    function getDenominatedCurrency() public view returns (address) {\n        return _denominatedCurrency;\n    }\n}\n",
  "sourcePath": "/Users/gorangutovic/Desktop/unique/unq-treasury-eth/contracts/Treasury/UnqTreasury.sol",
  "compiler": {
    "name": "solc",
    "version": "0.8.19+commit.7dd6d404.Emscripten.clang"
  },
  "schemaVersion": "3.4.11",
  "updatedAt": "2023-05-18T09:00:14.758Z",
  "networkType": "ethereum",
  "devdoc": {
    "events": {
      "Initialized(uint8)": {
        "details": "Triggered when the contract has been initialized or reinitialized."
      }
    },
    "kind": "dev",
    "methods": {},
    "version": 1
  },
  "userdoc": {
    "kind": "user",
    "methods": {},
    "version": 1
  }
}