{
  "contractName": "UnqTreasury",
  "abi": [
    {
      "inputs": [],
      "stateMutability": "nonpayable",
      "type": "constructor"
    },
    {
      "anonymous": false,
      "inputs": [
        {
          "indexed": false,
          "internalType": "uint8",
          "name": "version",
          "type": "uint8"
        }
      ],
      "name": "Initialized",
      "type": "event"
    },
    {
      "anonymous": false,
      "inputs": [
        {
          "components": [
            {
              "internalType": "bytes32",
              "name": "realmAddress",
              "type": "bytes32"
            },
            {
              "internalType": "bytes32",
              "name": "solanaAddress",
              "type": "bytes32"
            },
            {
              "internalType": "enum UnqWormholeStructs.MemberStatus",
              "name": "status",
              "type": "uint8"
            },
            {
              "internalType": "uint256",
              "name": "joinedAt",
              "type": "uint256"
            },
            {
              "internalType": "address",
              "name": "ethAddress",
              "type": "address"
            }
          ],
          "indexed": false,
          "internalType": "struct UnqWormholeStructs.MemberData",
          "name": "",
          "type": "tuple"
        }
      ],
      "name": "MemberAddedEvent",
      "type": "event"
    },
    {
      "inputs": [
        {
          "internalType": "bytes32",
          "name": "realmAddress",
          "type": "bytes32"
        },
        {
          "internalType": "bytes32",
          "name": "treasuryAuthority",
          "type": "bytes32"
        },
        {
          "internalType": "address",
          "name": "denominatedCurrency",
          "type": "address"
        },
        {
          "internalType": "address",
          "name": "factoryContract",
          "type": "address"
        }
      ],
      "name": "initialize",
      "outputs": [],
      "stateMutability": "nonpayable",
      "type": "function"
    },
    {
      "inputs": [
        {
          "components": [
            {
              "internalType": "uint8",
              "name": "action",
              "type": "uint8"
            },
            {
              "internalType": "bytes32",
              "name": "realmAddress",
              "type": "bytes32"
            },
            {
              "internalType": "bytes32",
              "name": "solanaAddress",
              "type": "bytes32"
            },
            {
              "internalType": "bytes32",
              "name": "authority",
              "type": "bytes32"
            },
            {
              "internalType": "address",
              "name": "ethAddress",
              "type": "address"
            }
          ],
          "internalType": "struct UnqWormholeStructs.AddMemberAction",
          "name": "newMember",
          "type": "tuple"
        }
      ],
      "name": "addNewMember",
      "outputs": [],
      "stateMutability": "nonpayable",
      "type": "function"
    },
    {
      "inputs": [
        {
          "internalType": "bytes32",
          "name": "memberAddress",
          "type": "bytes32"
        },
        {
          "internalType": "uint8",
          "name": "nonce",
          "type": "uint8"
        }
      ],
      "name": "receiveFunds",
      "outputs": [],
      "stateMutability": "payable",
      "type": "function",
      "payable": true
    },
    {
      "inputs": [
        {
          "internalType": "bytes32",
          "name": "memberAddress",
          "type": "bytes32"
        }
      ],
      "name": "getMemberData",
      "outputs": [
        {
          "components": [
            {
              "internalType": "bytes32",
              "name": "realmAddress",
              "type": "bytes32"
            },
            {
              "internalType": "bytes32",
              "name": "solanaAddress",
              "type": "bytes32"
            },
            {
              "internalType": "enum UnqWormholeStructs.MemberStatus",
              "name": "status",
              "type": "uint8"
            },
            {
              "internalType": "uint256",
              "name": "joinedAt",
              "type": "uint256"
            },
            {
              "internalType": "address",
              "name": "ethAddress",
              "type": "address"
            }
          ],
          "internalType": "struct UnqWormholeStructs.MemberData",
          "name": "",
          "type": "tuple"
        }
      ],
      "stateMutability": "view",
      "type": "function",
      "constant": true
    },
    {
      "inputs": [
        {
          "internalType": "address payable",
          "name": "destination",
          "type": "address"
        },
        {
          "internalType": "uint256",
          "name": "amount",
          "type": "uint256"
        }
      ],
      "name": "transferFunds",
      "outputs": [],
      "stateMutability": "nonpayable",
      "type": "function"
    },
    {
      "inputs": [
        {
          "internalType": "bytes32",
          "name": "solanaAddress",
          "type": "bytes32"
        },
        {
          "internalType": "address payable",
          "name": "destination",
          "type": "address"
        },
        {
          "internalType": "uint256",
          "name": "amount",
          "type": "uint256"
        }
      ],
      "name": "claimReward",
      "outputs": [],
      "stateMutability": "nonpayable",
      "type": "function"
    },
    {
      "inputs": [
        {
          "internalType": "bytes32",
          "name": "solanaAddress",
          "type": "bytes32"
        },
        {
          "internalType": "uint256",
          "name": "amount",
          "type": "uint256"
        },
        {
          "internalType": "uint8",
          "name": "nonce",
          "type": "uint8"
        }
      ],
      "name": "depositDenominatedCurrency",
      "outputs": [],
      "stateMutability": "nonpayable",
      "type": "function"
    },
    {
      "inputs": [],
      "name": "getDenominatedCurrency",
      "outputs": [
        {
          "internalType": "address",
          "name": "",
          "type": "address"
        }
      ],
      "stateMutability": "view",
      "type": "function",
      "constant": true
    }
  ],
  "bytecode": "0x60806040523480156200001157600080fd5b50620000226200002860201b60201c565b620001d3565b600060019054906101000a900460ff16156200007b576040517f08c379a0000000000000000000000000000000000000000000000000000000008152600401620000729062000176565b60405180910390fd5b60ff801660008054906101000a900460ff1660ff161015620000ed5760ff6000806101000a81548160ff021916908360ff1602179055507f7f26b83ff96e1f2b6a682f133852f6798a09c465da95921460cefb384740249860ff604051620000e49190620001b6565b60405180910390a15b565b600082825260208201905092915050565b7f496e697469616c697a61626c653a20636f6e747261637420697320696e69746960008201527f616c697a696e6700000000000000000000000000000000000000000000000000602082015250565b60006200015e602783620000ef565b91506200016b8262000100565b604082019050919050565b6000602082019050818103600083015262000191816200014f565b9050919050565b600060ff82169050919050565b620001b08162000198565b82525050565b6000602082019050620001cd6000830184620001a5565b92915050565b611c4980620001e36000396000f3fe60806040526004361061007b5760003560e01c8063990dc9db1161004e578063990dc9db14610117578063bd35f32114610140578063c74e249314610169578063f25dfaf7146101a65761007b565b80631d978e49146100805780631f57365e1461009c5780634675f125146100c557806363f66834146100ee575b600080fd5b61009a60048036038101906100959190610ff1565b6101d1565b005b3480156100a857600080fd5b506100c360048036038101906100be919061108f565b61045f565b005b3480156100d157600080fd5b506100ec60048036038101906100e79190611213565b610725565b005b3480156100fa57600080fd5b50610115600480360381019061011091906112b4565b6108ce565b005b34801561012357600080fd5b5061013e60048036038101906101399190611307565b610b57565b005b34801561014c57600080fd5b5061016760048036038101906101629190611347565b610ba2565b005b34801561017557600080fd5b50610190600480360381019061018b919061139a565b610ded565b60405161019d91906114d3565b60405180910390f35b3480156101b257600080fd5b506101bb610ec9565b6040516101c891906114fd565b60405180910390f35b81338073ffffffffffffffffffffffffffffffffffffffff166005600084815260200190815260200160002060040160009054906101000a900473ffffffffffffffffffffffffffffffffffffffff1673ffffffffffffffffffffffffffffffffffffffff1614610277576040517f08c379a000000000000000000000000000000000000000000000000000000000815260040161026e9061159b565b60405180910390fd5b60018081111561028a576102896113d6565b5b6005600086815260200190815260200160002060020160009054906101000a900460ff1660018111156102c0576102bf6113d6565b5b14610300576040517f08c379a00000000000000000000000000000000000000000000000000000000081526004016102f790611607565b60405180910390fd5b633b9aca00341015610347576040517f08c379a000000000000000000000000000000000000000000000000000000000815260040161033e90611673565b60405180910390fd5b34600760003273ffffffffffffffffffffffffffffffffffffffff1673ffffffffffffffffffffffffffffffffffffffff168152602001908152602001600020600082825461039691906116c2565b9250508190555060008060015486346040516020016103b8949392919061176e565b6040516020818303038152906040529050600460009054906101000a900473ffffffffffffffffffffffffffffffffffffffff1673ffffffffffffffffffffffffffffffffffffffff1663ac9a3db382866040518363ffffffff1660e01b815260040161042692919061184a565b600060405180830381600087803b15801561044057600080fd5b505af1158015610454573d6000803e3d6000fd5b505050505050505050565b60008060019054906101000a900460ff161590508080156104905750600160008054906101000a900460ff1660ff16105b806104bd575061049f30610ef3565b1580156104bc5750600160008054906101000a900460ff1660ff16145b5b6104fc576040517f08c379a00000000000000000000000000000000000000000000000000000000081526004016104f3906118ec565b60405180910390fd5b60016000806101000a81548160ff021916908360ff1602179055508015610539576001600060016101000a81548160ff0219169083151502179055505b846001819055508360028190555082600360006101000a81548173ffffffffffffffffffffffffffffffffffffffff021916908373ffffffffffffffffffffffffffffffffffffffff16021790555081600460006101000a81548173ffffffffffffffffffffffffffffffffffffffff021916908373ffffffffffffffffffffffffffffffffffffffff1602179055506040518060a0016040528060015481526020018581526020016001808111156105f5576105f46113d6565b5b81526020014281526020013273ffffffffffffffffffffffffffffffffffffffff1681525060056000868152602001908152602001600020600082015181600001556020820151816001015560408201518160020160006101000a81548160ff0219169083600181111561066c5761066b6113d6565b5b02179055506060820151816003015560808201518160040160006101000a81548173ffffffffffffffffffffffffffffffffffffffff021916908373ffffffffffffffffffffffffffffffffffffffff160217905550905050801561071e5760008060016101000a81548160ff0219169083151502179055507f7f26b83ff96e1f2b6a682f133852f6798a09c465da95921460cefb384740249860016040516107159190611951565b60405180910390a15b5050505050565b806000801b60056000836040015181526020019081526020016000206001015414610785576040517f08c379a000000000000000000000000000000000000000000000000000000000815260040161077c906119b8565b60405180910390fd5b60006040518060a001604052806001548152602001846040015181526020016001808111156107b7576107b66113d6565b5b8152602001428152602001846080015173ffffffffffffffffffffffffffffffffffffffff168152509050806005600085604001518152602001908152602001600020600082015181600001556020820151816001015560408201518160020160006101000a81548160ff02191690836001811115610839576108386113d6565b5b02179055506060820151816003015560808201518160040160006101000a81548173ffffffffffffffffffffffffffffffffffffffff021916908373ffffffffffffffffffffffffffffffffffffffff1602179055509050507f2034f42176ad2fb457ff86d86cfb31612b60d88b9f42a8af6d3e5d316a12eb6a816040516108c191906114d3565b60405180910390a1505050565b82828073ffffffffffffffffffffffffffffffffffffffff166005600084815260200190815260200160002060040160009054906101000a900473ffffffffffffffffffffffffffffffffffffffff1673ffffffffffffffffffffffffffffffffffffffff1614610974576040517f08c379a000000000000000000000000000000000000000000000000000000000815260040161096b9061159b565b60405180910390fd5b600660009054906101000a900473ffffffffffffffffffffffffffffffffffffffff1673ffffffffffffffffffffffffffffffffffffffff163273ffffffffffffffffffffffffffffffffffffffff1614610a04576040517f08c379a00000000000000000000000000000000000000000000000000000000081526004016109fb90611a24565b60405180910390fd5b600073ffffffffffffffffffffffffffffffffffffffff16600360009054906101000a900473ffffffffffffffffffffffffffffffffffffffff1673ffffffffffffffffffffffffffffffffffffffff1614610aa6578373ffffffffffffffffffffffffffffffffffffffff166108fc849081150290604051600060405180830381858888f19350505050158015610aa0573d6000803e3d6000fd5b50610b50565b6000600360009054906101000a900473ffffffffffffffffffffffffffffffffffffffff1690508073ffffffffffffffffffffffffffffffffffffffff166323b872dd3087876040518463ffffffff1660e01b8152600401610b0a93929190611aa8565b6020604051808303816000875af1158015610b29573d6000803e3d6000fd5b505050506040513d601f19601f82011682018060405250810190610b4d9190611b17565b50505b5050505050565b8173ffffffffffffffffffffffffffffffffffffffff166108fc829081150290604051600060405180830381858888f19350505050158015610b9d573d6000803e3d6000fd5b505050565b600073ffffffffffffffffffffffffffffffffffffffff16600360009054906101000a900473ffffffffffffffffffffffffffffffffffffffff1673ffffffffffffffffffffffffffffffffffffffff1603610c33576040517f08c379a0000000000000000000000000000000000000000000000000000000008152600401610c2a90611b90565b60405180910390fd5b6000600360009054906101000a900473ffffffffffffffffffffffffffffffffffffffff1690508073ffffffffffffffffffffffffffffffffffffffff166323b872dd3330866040518463ffffffff1660e01b8152600401610c9793929190611bb0565b6020604051808303816000875af1158015610cb6573d6000803e3d6000fd5b505050506040513d601f19601f82011682018060405250810190610cda9190611b17565b5082600760003373ffffffffffffffffffffffffffffffffffffffff1673ffffffffffffffffffffffffffffffffffffffff1681526020019081526020016000206000828254610d2a91906116c2565b9250508190555060008484604051602001610d46929190611be7565b6040516020818303038152906040529050600460009054906101000a900473ffffffffffffffffffffffffffffffffffffffff1673ffffffffffffffffffffffffffffffffffffffff1663ac9a3db382856040518363ffffffff1660e01b8152600401610db492919061184a565b600060405180830381600087803b158015610dce57600080fd5b505af1158015610de2573d6000803e3d6000fd5b505050505050505050565b610df5610f16565b600560008381526020019081526020016000206040518060a001604052908160008201548152602001600182015481526020016002820160009054906101000a900460ff166001811115610e4c57610e4b6113d6565b5b6001811115610e5e57610e5d6113d6565b5b8152602001600382015481526020016004820160009054906101000a900473ffffffffffffffffffffffffffffffffffffffff1673ffffffffffffffffffffffffffffffffffffffff1673ffffffffffffffffffffffffffffffffffffffff16815250509050919050565b6000600360009054906101000a900473ffffffffffffffffffffffffffffffffffffffff16905090565b6000808273ffffffffffffffffffffffffffffffffffffffff163b119050919050565b6040518060a00160405280600080191681526020016000801916815260200160006001811115610f4957610f486113d6565b5b815260200160008152602001600073ffffffffffffffffffffffffffffffffffffffff1681525090565b6000604051905090565b600080fd5b6000819050919050565b610f9581610f82565b8114610fa057600080fd5b50565b600081359050610fb281610f8c565b92915050565b600060ff82169050919050565b610fce81610fb8565b8114610fd957600080fd5b50565b600081359050610feb81610fc5565b92915050565b6000806040838503121561100857611007610f7d565b5b600061101685828601610fa3565b925050602061102785828601610fdc565b9150509250929050565b600073ffffffffffffffffffffffffffffffffffffffff82169050919050565b600061105c82611031565b9050919050565b61106c81611051565b811461107757600080fd5b50565b60008135905061108981611063565b92915050565b600080600080608085870312156110a9576110a8610f7d565b5b60006110b787828801610fa3565b94505060206110c887828801610fa3565b93505060406110d98782880161107a565b92505060606110ea8782880161107a565b91505092959194509250565b600080fd5b6000601f19601f8301169050919050565b7f4e487b7100000000000000000000000000000000000000000000000000000000600052604160045260246000fd5b611144826110fb565b810181811067ffffffffffffffff821117156111635761116261110c565b5b80604052505050565b6000611176610f73565b9050611182828261113b565b919050565b600060a0828403121561119d5761119c6110f6565b5b6111a760a061116c565b905060006111b784828501610fdc565b60008301525060206111cb84828501610fa3565b60208301525060406111df84828501610fa3565b60408301525060606111f384828501610fa3565b60608301525060806112078482850161107a565b60808301525092915050565b600060a0828403121561122957611228610f7d565b5b600061123784828501611187565b91505092915050565b600061124b82611031565b9050919050565b61125b81611240565b811461126657600080fd5b50565b60008135905061127881611252565b92915050565b6000819050919050565b6112918161127e565b811461129c57600080fd5b50565b6000813590506112ae81611288565b92915050565b6000806000606084860312156112cd576112cc610f7d565b5b60006112db86828701610fa3565b93505060206112ec86828701611269565b92505060406112fd8682870161129f565b9150509250925092565b6000806040838503121561131e5761131d610f7d565b5b600061132c85828601611269565b925050602061133d8582860161129f565b9150509250929050565b6000806000606084860312156113605761135f610f7d565b5b600061136e86828701610fa3565b935050602061137f8682870161129f565b925050604061139086828701610fdc565b9150509250925092565b6000602082840312156113b0576113af610f7d565b5b60006113be84828501610fa3565b91505092915050565b6113d081610f82565b82525050565b7f4e487b7100000000000000000000000000000000000000000000000000000000600052602160045260246000fd5b60028110611416576114156113d6565b5b50565b600081905061142782611405565b919050565b600061143782611419565b9050919050565b6114478161142c565b82525050565b6114568161127e565b82525050565b61146581611051565b82525050565b60a08201600082015161148160008501826113c7565b50602082015161149460208501826113c7565b5060408201516114a7604085018261143e565b5060608201516114ba606085018261144d565b5060808201516114cd608085018261145c565b50505050565b600060a0820190506114e8600083018461146b565b92915050565b6114f781611051565b82525050565b600060208201905061151260008301846114ee565b92915050565b600082825260208201905092915050565b7f57726f6e6720457468657265756d2064657374696e6174696f6e20616464726560008201527f7373210000000000000000000000000000000000000000000000000000000000602082015250565b6000611585602383611518565b915061159082611529565b604082019050919050565b600060208201905081810360008301526115b481611578565b9050919050565b7f4e6f742061206d656d6265720000000000000000000000000000000000000000600082015250565b60006115f1600c83611518565b91506115fc826115bb565b602082019050919050565b60006020820190508181036000830152611620816115e4565b9050919050565b7f496e76616c6964206465706f73697420616d6f756e7400000000000000000000600082015250565b600061165d601683611518565b915061166882611627565b602082019050919050565b6000602082019050818103600083015261168c81611650565b9050919050565b7f4e487b7100000000000000000000000000000000000000000000000000000000600052601160045260246000fd5b60006116cd8261127e565b91506116d88361127e565b92508282019050808211156116f0576116ef611693565b5b92915050565b60008160f81b9050919050565b600061170e826116f6565b9050919050565b61172661172182610fb8565b611703565b82525050565b6000819050919050565b61174761174282610f82565b61172c565b82525050565b6000819050919050565b6117686117638261127e565b61174d565b82525050565b600061177a8287611715565b60018201915061178a8286611736565b60208201915061179a8285611736565b6020820191506117aa8284611757565b60208201915081905095945050505050565b600081519050919050565b600082825260208201905092915050565b60005b838110156117f65780820151818401526020810190506117db565b60008484015250505050565b600061180d826117bc565b61181781856117c7565b93506118278185602086016117d8565b611830816110fb565b840191505092915050565b61184481610fb8565b82525050565b600060408201905081810360008301526118648185611802565b9050611873602083018461183b565b9392505050565b7f496e697469616c697a61626c653a20636f6e747261637420697320616c72656160008201527f647920696e697469616c697a6564000000000000000000000000000000000000602082015250565b60006118d6602e83611518565b91506118e18261187a565b604082019050919050565b60006020820190508181036000830152611905816118c9565b9050919050565b6000819050919050565b6000819050919050565b600061193b6119366119318461190c565b611916565b610fb8565b9050919050565b61194b81611920565b82525050565b60006020820190506119666000830184611942565b92915050565b7f4d656d62657220616c7265647920696e20636c75622100000000000000000000600082015250565b60006119a2601683611518565b91506119ad8261196c565b602082019050919050565b600060208201905081810360008301526119d181611995565b9050919050565b7f496e76616c696420617574686f726974792063616c6c21000000000000000000600082015250565b6000611a0e601783611518565b9150611a19826119d8565b602082019050919050565b60006020820190508181036000830152611a3d81611a01565b9050919050565b6000611a5f611a5a611a5584611031565b611916565b611031565b9050919050565b6000611a7182611a44565b9050919050565b6000611a8382611a66565b9050919050565b611a9381611a78565b82525050565b611aa28161127e565b82525050565b6000606082019050611abd60008301866114ee565b611aca6020830185611a8a565b611ad76040830184611a99565b949350505050565b60008115159050919050565b611af481611adf565b8114611aff57600080fd5b50565b600081519050611b1181611aeb565b92915050565b600060208284031215611b2d57611b2c610f7d565b5b6000611b3b84828501611b02565b91505092915050565b7f496e76616c69642064656e6f6d696e617465642063757272656e637921000000600082015250565b6000611b7a601d83611518565b9150611b8582611b44565b602082019050919050565b60006020820190508181036000830152611ba981611b6d565b9050919050565b6000606082019050611bc560008301866114ee565b611bd260208301856114ee565b611bdf6040830184611a99565b949350505050565b6000611bf38285611736565b602082019150611c038284611757565b602082019150819050939250505056fea2646970667358221220532ca415b2ec21cb0b9085d7e24bfad02240287da4034101d74e193603eda96664736f6c63430008110033",
  "immutableReferences": {},
  "source": "// SPDX-License-Identifier: Apache 2\npragma solidity 0.8.17;\nimport \"@openzeppelin/contracts-upgradeable/proxy/utils/Initializable.sol\";\nimport \"../structs/UnqWormholeStructs.sol\";\nimport \"@openzeppelin/contracts/token/ERC20/ERC20.sol\";\nimport \"../interface/IWormhole.sol\";\nimport \"../Wormhole/WormholeUnq.sol\";\n\ncontract UnqTreasury is Initializable {\n    bytes32 _realmAddress;\n    bytes32 _treasuryAuthority;\n    address _denominatedCurrency;\n    WormholeUnq factory_contract;\n    mapping(bytes32 => UnqWormholeStructs.MemberData) members;\n    address _relayerSigner;\n    mapping(address => uint256) memberDeposits;\n\n    constructor() {\n        _disableInitializers();\n    }\n\n    modifier nonExistingMember(\n        UnqWormholeStructs.AddMemberAction memory member\n    ) {\n        require(\n            members[member.solanaAddress].solanaAddress == bytes32(0),\n            \"Member alredy in club!\"\n        );\n        _;\n    }\n\n    modifier onlyAuthority(bytes32 authority) {\n        require(authority == _treasuryAuthority, \"Invalid permission\");\n        _;\n    }\n\n    modifier existingMember(bytes32 solanaAddress, address ethereumAddress) {\n        require(\n            members[solanaAddress].ethAddress == ethereumAddress,\n            \"Wrong Ethereum destination address!\"\n        );\n        _;\n    }\n\n    modifier onlyRelayerSigner() {\n        require(tx.origin == _relayerSigner, \"Invalid authority call!\");\n        _;\n    }\n\n    modifier denominatedCurrencyRestrict() {\n        require(\n            _denominatedCurrency != address(0),\n            \"Invalid denominated currency!\"\n        );\n\n        _;\n    }\n\n    event MemberAddedEvent(UnqWormholeStructs.MemberData);\n\n    function initialize(\n        bytes32 realmAddress,\n        bytes32 treasuryAuthority,\n        address denominatedCurrency,\n        address factoryContract\n    ) external initializer {\n        _realmAddress = realmAddress;\n\n        _treasuryAuthority = treasuryAuthority;\n\n        _denominatedCurrency = denominatedCurrency;\n\n        factory_contract = WormholeUnq(factoryContract);\n\n        members[treasuryAuthority] = UnqWormholeStructs.MemberData({\n            solanaAddress: treasuryAuthority,\n            ethAddress: tx.origin,\n            status: UnqWormholeStructs.MemberStatus.Accepted,\n            joinedAt: block.timestamp,\n            realmAddress: _realmAddress\n        });\n    }\n\n    function addNewMember(UnqWormholeStructs.AddMemberAction memory newMember)\n        external\n        nonExistingMember(newMember)\n    {\n        UnqWormholeStructs.MemberData memory memberData = UnqWormholeStructs\n            .MemberData({\n                realmAddress: _realmAddress,\n                solanaAddress: newMember.solanaAddress,\n                ethAddress: newMember.ethAddress,\n                status: UnqWormholeStructs.MemberStatus.Accepted,\n                joinedAt: block.timestamp\n            });\n        members[newMember.solanaAddress] = memberData;\n        emit MemberAddedEvent(memberData);\n    }\n\n    function receiveFunds(bytes32 memberAddress, uint8 nonce)\n        external\n        payable\n        existingMember(memberAddress, msg.sender)\n    {\n        require(\n            members[memberAddress].status ==\n                UnqWormholeStructs.MemberStatus.Accepted,\n            \"Not a member\"\n        );\n\n        require(msg.value >= 1000000000 wei, \"Invalid deposit amount\");\n\n        memberDeposits[tx.origin] += msg.value;\n\n        bytes memory vaaBytes = abi.encodePacked(\n            uint8(0),\n            _realmAddress,\n            memberAddress,\n            msg.value\n        );\n        factory_contract.pushWomrholeMessage(vaaBytes, nonce);\n    }\n\n    function getMemberData(bytes32 memberAddress)\n        public\n        view\n        returns (UnqWormholeStructs.MemberData memory)\n    {\n        return members[memberAddress];\n    }\n\n    function transferFunds(address payable destination, uint256 amount)\n        external\n    //onlyRelayerSigner\n    {\n        destination.transfer(amount);\n    }\n\n    function claimReward(\n        bytes32 solanaAddress,\n        address payable destination,\n        uint256 amount\n    ) external existingMember(solanaAddress, destination) onlyRelayerSigner {\n        if (_denominatedCurrency != address(0)) {\n            destination.transfer(amount);\n        } else {\n            ERC20 token = ERC20(_denominatedCurrency);\n            token.transferFrom(address(this), destination, amount);\n        }\n    }\n\n    function depositDenominatedCurrency(\n        bytes32 solanaAddress,\n        uint256 amount,\n        uint8 nonce\n    ) public denominatedCurrencyRestrict {\n        ERC20 token = ERC20(_denominatedCurrency);\n\n        token.transferFrom(msg.sender, address(this), amount);\n        memberDeposits[msg.sender] += amount;\n\n        bytes memory vaaBytes = abi.encodePacked(solanaAddress, amount);\n        factory_contract.pushWomrholeMessage(vaaBytes, nonce);\n    }\n\n    function getDenominatedCurrency() public view returns (address) {\n        return _denominatedCurrency;\n    }\n}\n",
  "sourcePath": "/Users/gorangutovic/Desktop/unique/unq-treasury-eth/contracts/Treasury/UnqTreasury.sol",
  "compiler": {
    "name": "solc",
    "version": "0.8.17+commit.8df45f5f.Emscripten.clang"
  },
  "schemaVersion": "3.4.11",
  "updatedAt": "2023-02-13T13:05:05.918Z",
  "networkType": "ethereum",
  "devdoc": {
    "kind": "dev",
    "methods": {},
    "version": 1
  },
  "userdoc": {
    "kind": "user",
    "methods": {},
    "version": 1
  }
}