{
  "contractName": "UnqTreasury",
  "abi": [
    {
      "inputs": [],
      "stateMutability": "nonpayable",
      "type": "constructor"
    },
    {
      "anonymous": false,
      "inputs": [
        {
          "indexed": false,
          "internalType": "uint8",
          "name": "version",
          "type": "uint8"
        }
      ],
      "name": "Initialized",
      "type": "event"
    },
    {
      "anonymous": false,
      "inputs": [
        {
          "components": [
            {
              "internalType": "bytes32",
              "name": "realmAddress",
              "type": "bytes32"
            },
            {
              "internalType": "bytes32",
              "name": "solanaAddress",
              "type": "bytes32"
            },
            {
              "internalType": "enum UnqWormholeStructs.MemberStatus",
              "name": "status",
              "type": "uint8"
            },
            {
              "internalType": "uint256",
              "name": "joinedAt",
              "type": "uint256"
            },
            {
              "internalType": "address",
              "name": "ethAddress",
              "type": "address"
            }
          ],
          "indexed": false,
          "internalType": "struct UnqWormholeStructs.MemberData",
          "name": "",
          "type": "tuple"
        }
      ],
      "name": "MemberAddedEvent",
      "type": "event"
    },
    {
      "inputs": [
        {
          "internalType": "bytes32",
          "name": "realmAddress",
          "type": "bytes32"
        },
        {
          "internalType": "bytes32",
          "name": "treasuryAuthority",
          "type": "bytes32"
        },
        {
          "internalType": "address",
          "name": "denominatedCurrency",
          "type": "address"
        },
        {
          "internalType": "address",
          "name": "factoryContract",
          "type": "address"
        },
        {
          "internalType": "address",
          "name": "creator",
          "type": "address"
        }
      ],
      "name": "initialize",
      "outputs": [],
      "stateMutability": "nonpayable",
      "type": "function"
    },
    {
      "inputs": [
        {
          "components": [
            {
              "internalType": "uint8",
              "name": "action",
              "type": "uint8"
            },
            {
              "internalType": "bytes32",
              "name": "realmAddress",
              "type": "bytes32"
            },
            {
              "internalType": "bytes32",
              "name": "solanaAddress",
              "type": "bytes32"
            },
            {
              "internalType": "address",
              "name": "ethAddress",
              "type": "address"
            }
          ],
          "internalType": "struct UnqWormholeStructs.AddMemberAction",
          "name": "newMember",
          "type": "tuple"
        }
      ],
      "name": "addNewMember",
      "outputs": [],
      "stateMutability": "nonpayable",
      "type": "function"
    },
    {
      "inputs": [
        {
          "internalType": "bytes32",
          "name": "memberAddress",
          "type": "bytes32"
        },
        {
          "internalType": "uint8",
          "name": "nonce",
          "type": "uint8"
        }
      ],
      "name": "receiveFunds",
      "outputs": [],
      "stateMutability": "payable",
      "type": "function",
      "payable": true
    },
    {
      "inputs": [
        {
          "internalType": "bytes32",
          "name": "memberAddress",
          "type": "bytes32"
        }
      ],
      "name": "getMemberData",
      "outputs": [
        {
          "components": [
            {
              "internalType": "bytes32",
              "name": "realmAddress",
              "type": "bytes32"
            },
            {
              "internalType": "bytes32",
              "name": "solanaAddress",
              "type": "bytes32"
            },
            {
              "internalType": "enum UnqWormholeStructs.MemberStatus",
              "name": "status",
              "type": "uint8"
            },
            {
              "internalType": "uint256",
              "name": "joinedAt",
              "type": "uint256"
            },
            {
              "internalType": "address",
              "name": "ethAddress",
              "type": "address"
            }
          ],
          "internalType": "struct UnqWormholeStructs.MemberData",
          "name": "",
          "type": "tuple"
        }
      ],
      "stateMutability": "view",
      "type": "function",
      "constant": true
    },
    {
      "inputs": [
        {
          "internalType": "address payable",
          "name": "destination",
          "type": "address"
        },
        {
          "internalType": "uint256",
          "name": "amount",
          "type": "uint256"
        }
      ],
      "name": "transferFunds",
      "outputs": [],
      "stateMutability": "nonpayable",
      "type": "function"
    },
    {
      "inputs": [
        {
          "internalType": "bytes32",
          "name": "solanaAddress",
          "type": "bytes32"
        },
        {
          "internalType": "address payable",
          "name": "destination",
          "type": "address"
        },
        {
          "internalType": "uint256",
          "name": "amount",
          "type": "uint256"
        }
      ],
      "name": "claimReward",
      "outputs": [],
      "stateMutability": "nonpayable",
      "type": "function"
    },
    {
      "inputs": [
        {
          "internalType": "bytes32",
          "name": "solanaAddress",
          "type": "bytes32"
        },
        {
          "internalType": "uint256",
          "name": "amount",
          "type": "uint256"
        },
        {
          "internalType": "uint8",
          "name": "nonce",
          "type": "uint8"
        }
      ],
      "name": "depositDenominatedCurrency",
      "outputs": [],
      "stateMutability": "nonpayable",
      "type": "function"
    },
    {
      "inputs": [],
      "name": "getDenominatedCurrency",
      "outputs": [
        {
          "internalType": "address",
          "name": "",
          "type": "address"
        }
      ],
      "stateMutability": "view",
      "type": "function",
      "constant": true
    }
  ],
  "bytecode": "0x60806040523480156200001157600080fd5b50620000226200002860201b60201c565b620001d3565b600060019054906101000a900460ff16156200007b576040517f08c379a0000000000000000000000000000000000000000000000000000000008152600401620000729062000176565b60405180910390fd5b60ff801660008054906101000a900460ff1660ff161015620000ed5760ff6000806101000a81548160ff021916908360ff1602179055507f7f26b83ff96e1f2b6a682f133852f6798a09c465da95921460cefb384740249860ff604051620000e49190620001b6565b60405180910390a15b565b600082825260208201905092915050565b7f496e697469616c697a61626c653a20636f6e747261637420697320696e69746960008201527f616c697a696e6700000000000000000000000000000000000000000000000000602082015250565b60006200015e602783620000ef565b91506200016b8262000100565b604082019050919050565b6000602082019050818103600083015262000191816200014f565b9050919050565b600060ff82169050919050565b620001b08162000198565b82525050565b6000602082019050620001cd6000830184620001a5565b92915050565b6119bd80620001e36000396000f3fe60806040526004361061007b5760003560e01c8063bd35f3211161004e578063bd35f32114610117578063c74e249314610140578063f25dfaf71461017d578063fb1d97dc146101a85761007b565b80631d978e4914610080578063464997701461009c57806363f66834146100c5578063990dc9db146100ee575b600080fd5b61009a60048036038101906100959190610e5d565b6101d1565b005b3480156100a857600080fd5b506100c360048036038101906100be9190610efb565b61045f565b005b3480156100d157600080fd5b506100ec60048036038101906100e79190610fea565b610726565b005b3480156100fa57600080fd5b506101156004803603810190610110919061103d565b61081a565b005b34801561012357600080fd5b5061013e6004803603810190610139919061107d565b610865565b005b34801561014c57600080fd5b50610167600480360381019061016291906110d0565b610ab0565b6040516101749190611209565b60405180910390f35b34801561018957600080fd5b50610192610b8c565b60405161019f9190611233565b60405180910390f35b3480156101b457600080fd5b506101cf60048036038101906101ca9190611357565b610bb6565b005b81338073ffffffffffffffffffffffffffffffffffffffff166005600084815260200190815260200160002060040160009054906101000a900473ffffffffffffffffffffffffffffffffffffffff1673ffffffffffffffffffffffffffffffffffffffff1614610277576040517f08c379a000000000000000000000000000000000000000000000000000000000815260040161026e90611407565b60405180910390fd5b60018081111561028a5761028961110c565b5b6005600086815260200190815260200160002060020160009054906101000a900460ff1660018111156102c0576102bf61110c565b5b14610300576040517f08c379a00000000000000000000000000000000000000000000000000000000081526004016102f790611473565b60405180910390fd5b633b9aca00341015610347576040517f08c379a000000000000000000000000000000000000000000000000000000000815260040161033e906114df565b60405180910390fd5b34600760003273ffffffffffffffffffffffffffffffffffffffff1673ffffffffffffffffffffffffffffffffffffffff1681526020019081526020016000206000828254610396919061152e565b9250508190555060008060015486346040516020016103b894939291906115da565b6040516020818303038152906040529050600460009054906101000a900473ffffffffffffffffffffffffffffffffffffffff1673ffffffffffffffffffffffffffffffffffffffff1663ac9a3db382866040518363ffffffff1660e01b81526004016104269291906116b6565b600060405180830381600087803b15801561044057600080fd5b505af1158015610454573d6000803e3d6000fd5b505050505050505050565b60008060019054906101000a900460ff161590508080156104905750600160008054906101000a900460ff1660ff16105b806104bd575061049f30610d5f565b1580156104bc5750600160008054906101000a900460ff1660ff16145b5b6104fc576040517f08c379a00000000000000000000000000000000000000000000000000000000081526004016104f390611758565b60405180910390fd5b60016000806101000a81548160ff021916908360ff1602179055508015610539576001600060016101000a81548160ff0219169083151502179055505b856001819055508460028190555083600360006101000a81548173ffffffffffffffffffffffffffffffffffffffff021916908373ffffffffffffffffffffffffffffffffffffffff16021790555082600460006101000a81548173ffffffffffffffffffffffffffffffffffffffff021916908373ffffffffffffffffffffffffffffffffffffffff1602179055506040518060a0016040528060015481526020018681526020016001808111156105f5576105f461110c565b5b81526020014281526020018373ffffffffffffffffffffffffffffffffffffffff1681525060056000878152602001908152602001600020600082015181600001556020820151816001015560408201518160020160006101000a81548160ff0219169083600181111561066c5761066b61110c565b5b02179055506060820151816003015560808201518160040160006101000a81548173ffffffffffffffffffffffffffffffffffffffff021916908373ffffffffffffffffffffffffffffffffffffffff160217905550905050801561071e5760008060016101000a81548160ff0219169083151502179055507f7f26b83ff96e1f2b6a682f133852f6798a09c465da95921460cefb3847402498600160405161071591906117bd565b60405180910390a15b505050505050565b82828073ffffffffffffffffffffffffffffffffffffffff166005600084815260200190815260200160002060040160009054906101000a900473ffffffffffffffffffffffffffffffffffffffff1673ffffffffffffffffffffffffffffffffffffffff16146107cc576040517f08c379a00000000000000000000000000000000000000000000000000000000081526004016107c390611407565b60405180910390fd5b8373ffffffffffffffffffffffffffffffffffffffff166108fc849081150290604051600060405180830381858888f19350505050158015610812573d6000803e3d6000fd5b505050505050565b8173ffffffffffffffffffffffffffffffffffffffff166108fc829081150290604051600060405180830381858888f19350505050158015610860573d6000803e3d6000fd5b505050565b600073ffffffffffffffffffffffffffffffffffffffff16600360009054906101000a900473ffffffffffffffffffffffffffffffffffffffff1673ffffffffffffffffffffffffffffffffffffffff16036108f6576040517f08c379a00000000000000000000000000000000000000000000000000000000081526004016108ed90611824565b60405180910390fd5b6000600360009054906101000a900473ffffffffffffffffffffffffffffffffffffffff1690508073ffffffffffffffffffffffffffffffffffffffff166323b872dd3330866040518463ffffffff1660e01b815260040161095a93929190611853565b6020604051808303816000875af1158015610979573d6000803e3d6000fd5b505050506040513d601f19601f8201168201806040525081019061099d91906118c2565b5082600760003373ffffffffffffffffffffffffffffffffffffffff1673ffffffffffffffffffffffffffffffffffffffff16815260200190815260200160002060008282546109ed919061152e565b9250508190555060008484604051602001610a099291906118ef565b6040516020818303038152906040529050600460009054906101000a900473ffffffffffffffffffffffffffffffffffffffff1673ffffffffffffffffffffffffffffffffffffffff1663ac9a3db382856040518363ffffffff1660e01b8152600401610a779291906116b6565b600060405180830381600087803b158015610a9157600080fd5b505af1158015610aa5573d6000803e3d6000fd5b505050505050505050565b610ab8610d82565b600560008381526020019081526020016000206040518060a001604052908160008201548152602001600182015481526020016002820160009054906101000a900460ff166001811115610b0f57610b0e61110c565b5b6001811115610b2157610b2061110c565b5b8152602001600382015481526020016004820160009054906101000a900473ffffffffffffffffffffffffffffffffffffffff1673ffffffffffffffffffffffffffffffffffffffff1673ffffffffffffffffffffffffffffffffffffffff16815250509050919050565b6000600360009054906101000a900473ffffffffffffffffffffffffffffffffffffffff16905090565b806000801b60056000836040015181526020019081526020016000206001015414610c16576040517f08c379a0000000000000000000000000000000000000000000000000000000008152600401610c0d90611967565b60405180910390fd5b60006040518060a00160405280600154815260200184604001518152602001600180811115610c4857610c4761110c565b5b8152602001428152602001846060015173ffffffffffffffffffffffffffffffffffffffff168152509050806005600085604001518152602001908152602001600020600082015181600001556020820151816001015560408201518160020160006101000a81548160ff02191690836001811115610cca57610cc961110c565b5b02179055506060820151816003015560808201518160040160006101000a81548173ffffffffffffffffffffffffffffffffffffffff021916908373ffffffffffffffffffffffffffffffffffffffff1602179055509050507f2034f42176ad2fb457ff86d86cfb31612b60d88b9f42a8af6d3e5d316a12eb6a81604051610d529190611209565b60405180910390a1505050565b6000808273ffffffffffffffffffffffffffffffffffffffff163b119050919050565b6040518060a00160405280600080191681526020016000801916815260200160006001811115610db557610db461110c565b5b815260200160008152602001600073ffffffffffffffffffffffffffffffffffffffff1681525090565b6000604051905090565b600080fd5b6000819050919050565b610e0181610dee565b8114610e0c57600080fd5b50565b600081359050610e1e81610df8565b92915050565b600060ff82169050919050565b610e3a81610e24565b8114610e4557600080fd5b50565b600081359050610e5781610e31565b92915050565b60008060408385031215610e7457610e73610de9565b5b6000610e8285828601610e0f565b9250506020610e9385828601610e48565b9150509250929050565b600073ffffffffffffffffffffffffffffffffffffffff82169050919050565b6000610ec882610e9d565b9050919050565b610ed881610ebd565b8114610ee357600080fd5b50565b600081359050610ef581610ecf565b92915050565b600080600080600060a08688031215610f1757610f16610de9565b5b6000610f2588828901610e0f565b9550506020610f3688828901610e0f565b9450506040610f4788828901610ee6565b9350506060610f5888828901610ee6565b9250506080610f6988828901610ee6565b9150509295509295909350565b6000610f8182610e9d565b9050919050565b610f9181610f76565b8114610f9c57600080fd5b50565b600081359050610fae81610f88565b92915050565b6000819050919050565b610fc781610fb4565b8114610fd257600080fd5b50565b600081359050610fe481610fbe565b92915050565b60008060006060848603121561100357611002610de9565b5b600061101186828701610e0f565b935050602061102286828701610f9f565b925050604061103386828701610fd5565b9150509250925092565b6000806040838503121561105457611053610de9565b5b600061106285828601610f9f565b925050602061107385828601610fd5565b9150509250929050565b60008060006060848603121561109657611095610de9565b5b60006110a486828701610e0f565b93505060206110b586828701610fd5565b92505060406110c686828701610e48565b9150509250925092565b6000602082840312156110e6576110e5610de9565b5b60006110f484828501610e0f565b91505092915050565b61110681610dee565b82525050565b7f4e487b7100000000000000000000000000000000000000000000000000000000600052602160045260246000fd5b6002811061114c5761114b61110c565b5b50565b600081905061115d8261113b565b919050565b600061116d8261114f565b9050919050565b61117d81611162565b82525050565b61118c81610fb4565b82525050565b61119b81610ebd565b82525050565b60a0820160008201516111b760008501826110fd565b5060208201516111ca60208501826110fd565b5060408201516111dd6040850182611174565b5060608201516111f06060850182611183565b5060808201516112036080850182611192565b50505050565b600060a08201905061121e60008301846111a1565b92915050565b61122d81610ebd565b82525050565b60006020820190506112486000830184611224565b92915050565b600080fd5b6000601f19601f8301169050919050565b7f4e487b7100000000000000000000000000000000000000000000000000000000600052604160045260246000fd5b61129c82611253565b810181811067ffffffffffffffff821117156112bb576112ba611264565b5b80604052505050565b60006112ce610ddf565b90506112da8282611293565b919050565b6000608082840312156112f5576112f461124e565b5b6112ff60806112c4565b9050600061130f84828501610e48565b600083015250602061132384828501610e0f565b602083015250604061133784828501610e0f565b604083015250606061134b84828501610ee6565b60608301525092915050565b60006080828403121561136d5761136c610de9565b5b600061137b848285016112df565b91505092915050565b600082825260208201905092915050565b7f57726f6e6720457468657265756d2064657374696e6174696f6e20616464726560008201527f7373210000000000000000000000000000000000000000000000000000000000602082015250565b60006113f1602383611384565b91506113fc82611395565b604082019050919050565b60006020820190508181036000830152611420816113e4565b9050919050565b7f4e6f742061206d656d6265720000000000000000000000000000000000000000600082015250565b600061145d600c83611384565b915061146882611427565b602082019050919050565b6000602082019050818103600083015261148c81611450565b9050919050565b7f496e76616c6964206465706f73697420616d6f756e7400000000000000000000600082015250565b60006114c9601683611384565b91506114d482611493565b602082019050919050565b600060208201905081810360008301526114f8816114bc565b9050919050565b7f4e487b7100000000000000000000000000000000000000000000000000000000600052601160045260246000fd5b600061153982610fb4565b915061154483610fb4565b925082820190508082111561155c5761155b6114ff565b5b92915050565b60008160f81b9050919050565b600061157a82611562565b9050919050565b61159261158d82610e24565b61156f565b82525050565b6000819050919050565b6115b36115ae82610dee565b611598565b82525050565b6000819050919050565b6115d46115cf82610fb4565b6115b9565b82525050565b60006115e68287611581565b6001820191506115f682866115a2565b60208201915061160682856115a2565b60208201915061161682846115c3565b60208201915081905095945050505050565b600081519050919050565b600082825260208201905092915050565b60005b83811015611662578082015181840152602081019050611647565b60008484015250505050565b600061167982611628565b6116838185611633565b9350611693818560208601611644565b61169c81611253565b840191505092915050565b6116b081610e24565b82525050565b600060408201905081810360008301526116d0818561166e565b90506116df60208301846116a7565b9392505050565b7f496e697469616c697a61626c653a20636f6e747261637420697320616c72656160008201527f647920696e697469616c697a6564000000000000000000000000000000000000602082015250565b6000611742602e83611384565b915061174d826116e6565b604082019050919050565b6000602082019050818103600083015261177181611735565b9050919050565b6000819050919050565b6000819050919050565b60006117a76117a261179d84611778565b611782565b610e24565b9050919050565b6117b78161178c565b82525050565b60006020820190506117d260008301846117ae565b92915050565b7f496e76616c69642064656e6f6d696e617465642063757272656e637921000000600082015250565b600061180e601d83611384565b9150611819826117d8565b602082019050919050565b6000602082019050818103600083015261183d81611801565b9050919050565b61184d81610fb4565b82525050565b60006060820190506118686000830186611224565b6118756020830185611224565b6118826040830184611844565b949350505050565b60008115159050919050565b61189f8161188a565b81146118aa57600080fd5b50565b6000815190506118bc81611896565b92915050565b6000602082840312156118d8576118d7610de9565b5b60006118e6848285016118ad565b91505092915050565b60006118fb82856115a2565b60208201915061190b82846115c3565b6020820191508190509392505050565b7f4d656d62657220616c7265647920696e20636c75622100000000000000000000600082015250565b6000611951601683611384565b915061195c8261191b565b602082019050919050565b6000602082019050818103600083015261198081611944565b905091905056fea264697066735822122071e77ac64ef88731deeff682c6e0544559935c532690aabadda98ad48be30b5164736f6c63430008110033",
  "immutableReferences": {},
  "source": "// SPDX-License-Identifier: Apache 2\npragma solidity 0.8.17;\nimport \"@openzeppelin/contracts-upgradeable/proxy/utils/Initializable.sol\";\nimport \"../structs/UnqWormholeStructs.sol\";\nimport \"@openzeppelin/contracts/token/ERC20/ERC20.sol\";\nimport \"../interface/IWormhole.sol\";\nimport \"../Wormhole/WormholeUnq.sol\";\n\ncontract UnqTreasury is Initializable {\n    bytes32 _realmAddress;\n    bytes32 _treasuryAuthority;\n    address _denominatedCurrency;\n    WormholeUnq factory_contract;\n    mapping(bytes32 => UnqWormholeStructs.MemberData) members;\n    address _relayerSigner;\n    mapping(address => uint256) memberDeposits;\n\n    constructor() {\n        _disableInitializers();\n    }\n\n    modifier nonExistingMember(\n        UnqWormholeStructs.AddMemberAction memory member\n    ) {\n        require(\n            members[member.solanaAddress].solanaAddress == bytes32(0),\n            \"Member alredy in club!\"\n        );\n        _;\n    }\n\n    modifier onlyAuthority(bytes32 authority) {\n        require(authority == _treasuryAuthority, \"Invalid permission\");\n        _;\n    }\n\n    modifier existingMember(bytes32 solanaAddress, address ethereumAddress) {\n        require(\n            members[solanaAddress].ethAddress == ethereumAddress,\n            \"Wrong Ethereum destination address!\"\n        );\n        _;\n    }\n\n    modifier onlyRelayerSigner() {\n        require(tx.origin == _relayerSigner, \"Invalid authority call!\");\n        _;\n    }\n\n    modifier denominatedCurrencyRestrict() {\n        require(\n            _denominatedCurrency != address(0),\n            \"Invalid denominated currency!\"\n        );\n\n        _;\n    }\n\n    event MemberAddedEvent(UnqWormholeStructs.MemberData);\n\n    function initialize(\n        bytes32 realmAddress,\n        bytes32 treasuryAuthority,\n        address denominatedCurrency,\n        address factoryContract,\n        address creator\n    ) external initializer {\n        _realmAddress = realmAddress;\n\n        _treasuryAuthority = treasuryAuthority;\n\n        _denominatedCurrency = denominatedCurrency;\n\n        factory_contract = WormholeUnq(factoryContract);\n\n        members[treasuryAuthority] = UnqWormholeStructs.MemberData({\n            solanaAddress: treasuryAuthority,\n            ethAddress: creator,\n            status: UnqWormholeStructs.MemberStatus.Accepted,\n            joinedAt: block.timestamp,\n            realmAddress: _realmAddress\n        });\n    }\n\n    function addNewMember(UnqWormholeStructs.AddMemberAction memory newMember)\n        external\n        nonExistingMember(newMember)\n    {\n        UnqWormholeStructs.MemberData memory memberData = UnqWormholeStructs\n            .MemberData({\n                realmAddress: _realmAddress,\n                solanaAddress: newMember.solanaAddress,\n                ethAddress: newMember.ethAddress,\n                status: UnqWormholeStructs.MemberStatus.Accepted,\n                joinedAt: block.timestamp\n            });\n        members[newMember.solanaAddress] = memberData;\n        emit MemberAddedEvent(memberData);\n    }\n\n    function receiveFunds(bytes32 memberAddress, uint8 nonce)\n        external\n        payable\n        existingMember(memberAddress, msg.sender)\n    {\n        require(\n            members[memberAddress].status ==\n                UnqWormholeStructs.MemberStatus.Accepted,\n            \"Not a member\"\n        );\n\n        require(msg.value >= 1000000000 wei, \"Invalid deposit amount\");\n\n        memberDeposits[tx.origin] += msg.value;\n\n        bytes memory vaaBytes = abi.encodePacked(\n            uint8(0),\n            _realmAddress,\n            memberAddress,\n            msg.value\n        );\n        factory_contract.pushWomrholeMessage(vaaBytes, nonce);\n    }\n\n    function getMemberData(bytes32 memberAddress)\n        public\n        view\n        returns (UnqWormholeStructs.MemberData memory)\n    {\n        return members[memberAddress];\n    }\n\n    function transferFunds(address payable destination, uint256 amount)\n        external\n    //onlyRelayerSigner\n    {\n        destination.transfer(amount);\n    }\n\n    function claimReward(\n        bytes32 solanaAddress,\n        address payable destination,\n        uint256 amount\n    )\n        external\n        existingMember(solanaAddress, destination) //onlyRelayerSigner\n    {\n        destination.transfer(amount);\n        // if (_denominatedCurrency == address(0)) {\n        //     destination.transfer(amount);\n        // } else {\n        //     ERC20 token = ERC20(_denominatedCurrency);\n        //     token.transferFrom(address(this), destination, amount);\n        // }\n    }\n\n    function depositDenominatedCurrency(\n        bytes32 solanaAddress,\n        uint256 amount,\n        uint8 nonce\n    ) public denominatedCurrencyRestrict {\n        ERC20 token = ERC20(_denominatedCurrency);\n\n        token.transferFrom(msg.sender, address(this), amount);\n        memberDeposits[msg.sender] += amount;\n\n        bytes memory vaaBytes = abi.encodePacked(solanaAddress, amount);\n        factory_contract.pushWomrholeMessage(vaaBytes, nonce);\n    }\n\n    function getDenominatedCurrency() public view returns (address) {\n        return _denominatedCurrency;\n    }\n}\n",
  "sourcePath": "/Users/gorangutovic/Desktop/unique/unq-treasury-eth/contracts/Treasury/UnqTreasury.sol",
  "compiler": {
    "name": "solc",
    "version": "0.8.17+commit.8df45f5f.Emscripten.clang"
  },
  "schemaVersion": "3.4.11",
  "updatedAt": "2023-02-20T10:53:17.328Z",
  "networkType": "ethereum",
  "devdoc": {
    "kind": "dev",
    "methods": {},
    "version": 1
  },
  "userdoc": {
    "kind": "user",
    "methods": {},
    "version": 1
  }
}