{
  "contractName": "WormholeUnq",
  "abi": [
    {
      "inputs": [
        {
          "internalType": "address",
          "name": "treasuryImplementation",
          "type": "address"
        },
        {
          "internalType": "address",
          "name": "relayerSigner",
          "type": "address"
        },
        {
          "internalType": "address",
          "name": "wormholeBridgeContract",
          "type": "address"
        }
      ],
      "stateMutability": "nonpayable",
      "type": "constructor"
    },
    {
      "anonymous": false,
      "inputs": [
        {
          "indexed": false,
          "internalType": "bytes32",
          "name": "",
          "type": "bytes32"
        },
        {
          "indexed": false,
          "internalType": "bytes32",
          "name": "",
          "type": "bytes32"
        },
        {
          "indexed": false,
          "internalType": "address",
          "name": "",
          "type": "address"
        }
      ],
      "name": "MemberEvent",
      "type": "event"
    },
    {
      "anonymous": false,
      "inputs": [
        {
          "indexed": true,
          "internalType": "address",
          "name": "previousOwner",
          "type": "address"
        },
        {
          "indexed": true,
          "internalType": "address",
          "name": "newOwner",
          "type": "address"
        }
      ],
      "name": "OwnershipTransferred",
      "type": "event"
    },
    {
      "anonymous": false,
      "inputs": [
        {
          "indexed": false,
          "internalType": "address",
          "name": "",
          "type": "address"
        },
        {
          "indexed": false,
          "internalType": "uint256",
          "name": "",
          "type": "uint256"
        }
      ],
      "name": "TransferFunds",
      "type": "event"
    },
    {
      "anonymous": false,
      "inputs": [
        {
          "indexed": false,
          "internalType": "bytes32",
          "name": "",
          "type": "bytes32"
        },
        {
          "indexed": false,
          "internalType": "bytes32",
          "name": "",
          "type": "bytes32"
        },
        {
          "indexed": false,
          "internalType": "address",
          "name": "",
          "type": "address"
        },
        {
          "indexed": false,
          "internalType": "address",
          "name": "",
          "type": "address"
        }
      ],
      "name": "TreasuryCreatedEvent",
      "type": "event"
    },
    {
      "inputs": [],
      "name": "owner",
      "outputs": [
        {
          "internalType": "address",
          "name": "",
          "type": "address"
        }
      ],
      "stateMutability": "view",
      "type": "function",
      "constant": true
    },
    {
      "inputs": [],
      "name": "renounceOwnership",
      "outputs": [],
      "stateMutability": "nonpayable",
      "type": "function"
    },
    {
      "inputs": [
        {
          "internalType": "address",
          "name": "newOwner",
          "type": "address"
        }
      ],
      "name": "transferOwnership",
      "outputs": [],
      "stateMutability": "nonpayable",
      "type": "function"
    },
    {
      "inputs": [
        {
          "internalType": "bytes",
          "name": "encodedVM",
          "type": "bytes"
        }
      ],
      "name": "parseVM",
      "outputs": [],
      "stateMutability": "nonpayable",
      "type": "function"
    },
    {
      "inputs": [
        {
          "internalType": "uint16",
          "name": "chainId",
          "type": "uint16"
        },
        {
          "internalType": "bytes32",
          "name": "bridgeContractAddress",
          "type": "bytes32"
        }
      ],
      "name": "registerContract",
      "outputs": [],
      "stateMutability": "nonpayable",
      "type": "function"
    },
    {
      "inputs": [
        {
          "internalType": "address payable",
          "name": "destination",
          "type": "address"
        },
        {
          "internalType": "uint256",
          "name": "percentage",
          "type": "uint256"
        }
      ],
      "name": "setPlatformFees",
      "outputs": [],
      "stateMutability": "nonpayable",
      "type": "function"
    },
    {
      "inputs": [
        {
          "internalType": "bytes",
          "name": "vm",
          "type": "bytes"
        }
      ],
      "name": "createEthTreasury",
      "outputs": [],
      "stateMutability": "nonpayable",
      "type": "function"
    },
    {
      "inputs": [
        {
          "internalType": "bytes",
          "name": "payload",
          "type": "bytes"
        }
      ],
      "name": "withdrawFunds",
      "outputs": [],
      "stateMutability": "nonpayable",
      "type": "function"
    },
    {
      "inputs": [],
      "name": "getBeacon",
      "outputs": [
        {
          "internalType": "address",
          "name": "",
          "type": "address"
        }
      ],
      "stateMutability": "view",
      "type": "function",
      "constant": true
    },
    {
      "inputs": [
        {
          "internalType": "bytes32",
          "name": "realmAddress",
          "type": "bytes32"
        }
      ],
      "name": "getTreasury",
      "outputs": [
        {
          "internalType": "address",
          "name": "treasury",
          "type": "address"
        }
      ],
      "stateMutability": "view",
      "type": "function",
      "constant": true
    },
    {
      "inputs": [],
      "name": "getOwner",
      "outputs": [
        {
          "internalType": "address",
          "name": "",
          "type": "address"
        }
      ],
      "stateMutability": "view",
      "type": "function",
      "constant": true
    },
    {
      "inputs": [
        {
          "internalType": "bytes",
          "name": "payload",
          "type": "bytes"
        },
        {
          "internalType": "uint8",
          "name": "nonce",
          "type": "uint8"
        }
      ],
      "name": "pushWomrholeMessage",
      "outputs": [],
      "stateMutability": "nonpayable",
      "type": "function"
    }
  ],
  "bytecode": "0x60c0604052600460a0908152503480156200001957600080fd5b50604051620053993803806200539983398181016040528101906200003f9190620002db565b6200005f620000536200019760201b60201c565b6200019f60201b60201c565b80600160006101000a81548173ffffffffffffffffffffffffffffffffffffffff021916908373ffffffffffffffffffffffffffffffffffffffff16021790555033600260006101000a81548173ffffffffffffffffffffffffffffffffffffffff021916908373ffffffffffffffffffffffffffffffffffffffff16021790555082604051620000f09062000263565b620000fc919062000348565b604051809103906000f08015801562000119573d6000803e3d6000fd5b5073ffffffffffffffffffffffffffffffffffffffff1660808173ffffffffffffffffffffffffffffffffffffffff168152505081600760006101000a81548173ffffffffffffffffffffffffffffffffffffffff021916908373ffffffffffffffffffffffffffffffffffffffff16021790555050505062000365565b600033905090565b60008060009054906101000a900473ffffffffffffffffffffffffffffffffffffffff169050816000806101000a81548173ffffffffffffffffffffffffffffffffffffffff021916908373ffffffffffffffffffffffffffffffffffffffff1602179055508173ffffffffffffffffffffffffffffffffffffffff168173ffffffffffffffffffffffffffffffffffffffff167f8be0079c531659141344cd1fd0a4f28419497f9722a3daafe3b4186f6b6457e060405160405180910390a35050565b611391806200400883390190565b600080fd5b600073ffffffffffffffffffffffffffffffffffffffff82169050919050565b6000620002a38262000276565b9050919050565b620002b58162000296565b8114620002c157600080fd5b50565b600081519050620002d581620002aa565b92915050565b600080600060608486031215620002f757620002f662000271565b5b60006200030786828701620002c4565b93505060206200031a86828701620002c4565b92505060406200032d86828701620002c4565b9150509250925092565b620003428162000296565b82525050565b60006020820190506200035f600083018462000337565b92915050565b60805160a051613bea6200041e6000396000818161027d015281816102c901528181610320015281816108e1015281816109290152818161098201528181610a5701528181611177015281816111c101528181611218015281816114cc015281816115230152818161157a0152818161164f015281816117b50152818161180101528181611856015281816118af01528181611b1101528181611b5d0152611bb40152600081816102550152610b2c0152613bea6000f3fe60806040523480156200001157600080fd5b5060043610620000c45760003560e01c8063a8432cac116200007b578063a8432cac146200017b578063a9e11893146200019b578063ac9a3db314620001bb578063ccc06fe514620001db578063e29086341462000211578063f2fde38b146200023157620000c4565b80632d6b3a6b14620000c95780633b56da6914620000eb57806351e2d7b5146200010b578063715018a6146200012b578063893d20e814620001375780638da5cb5b1462000159575b600080fd5b620000d362000251565b604051620000e2919062001e23565b60405180910390f35b62000109600480360381019062000103919062001fb6565b62000279565b005b62000129600480360381019062000123919062002081565b6200056c565b005b620001356200059a565b005b62000141620005b2565b60405162000150919062001e23565b60405180910390f35b62000163620005dc565b60405162000172919062001e23565b60405180910390f35b62000199600480360381019062000193919062002148565b62000605565b005b620001b96004803603810190620001b3919062001fb6565b62000738565b005b620001d96004803603810190620001d39190620021cd565b620007f1565b005b620001f96004803603810190620001f3919062002233565b6200089e565b60405162000208919062001e23565b60405180910390f35b6200022f600480360381019062000229919062001fb6565b620008db565b005b6200024f600480360381019062000249919062002296565b62000cec565b005b60007f0000000000000000000000000000000000000000000000000000000000000000905090565b60007f00000000000000000000000000000000000000000000000000000000000000006001620002aa9190620022f7565b90506000620002c3828462000d7690919063ffffffff16565b905060207f0000000000000000000000000000000000000000000000000000000000000000620002f49190620022f7565b82620003019190620022f7565b915060006200031a838562000d7690919063ffffffff16565b905060207f00000000000000000000000000000000000000000000000000000000000000006200034b9190620022f7565b83620003589190620022f7565b9250600062000371848662000d7690919063ffffffff16565b73__Bytes32Lib____________________________635ced058e90916040518263ffffffff1660e01b8152600401620003ab919062002343565b602060405180830381865af4158015620003c9573d6000803e3d6000fd5b505050506040513d601f19601f82011682018060405250810190620003ef919062002377565b9050602084620004009190620022f7565b9350600062000419858762000d7690919063ffffffff16565b73__Bytes32Lib____________________________635ced058e90916040518263ffffffff1660e01b815260040162000453919062002343565b602060405180830381865af415801562000471573d6000803e3d6000fd5b505050506040513d601f19601f8201168201806040525081019062000497919062002377565b90506000620004b0868862000d7690919063ffffffff16565b60001c905060006005600086815260200190815260200160002060009054906101000a900473ffffffffffffffffffffffffffffffffffffffff1690508073ffffffffffffffffffffffffffffffffffffffff1663d15c484e878685876040518563ffffffff1660e01b81526004016200052e9493929190620023dc565b600060405180830381600087803b1580156200054957600080fd5b505af11580156200055e573d6000803e3d6000fd5b505050505050505050505050565b6200057662000de2565b80600660008461ffff1661ffff168152602001908152602001600020819055505050565b620005a462000de2565b620005b0600062000e67565b565b6000600260009054906101000a900473ffffffffffffffffffffffffffffffffffffffff16905090565b60008060009054906101000a900473ffffffffffffffffffffffffffffffffffffffff16905090565b600760009054906101000a900473ffffffffffffffffffffffffffffffffffffffff1673ffffffffffffffffffffffffffffffffffffffff163373ffffffffffffffffffffffffffffffffffffffff161462000698576040517f08c379a00000000000000000000000000000000000000000000000000000000081526004016200068f906200248a565b60405180910390fd5b6000811080620006a9575061271081115b15620006ec576040517f08c379a0000000000000000000000000000000000000000000000000000000008152600401620006e390620024fc565b60405180910390fd5b81600360006101000a81548173ffffffffffffffffffffffffffffffffffffffff021916908373ffffffffffffffffffffffffffffffffffffffff160217905550806004819055505050565b6000600160009054906101000a900473ffffffffffffffffffffffffffffffffffffffff1673ffffffffffffffffffffffffffffffffffffffff1663a9e11893836040518263ffffffff1660e01b8152600401620007979190620025a7565b600060405180830381865afa158015620007b5573d6000803e3d6000fd5b505050506040513d6000823e3d601f19601f82011682018060405250810190620007e09190620029e3565b9050620007ed8162000f2b565b5050565b600160009054906101000a900473ffffffffffffffffffffffffffffffffffffffff1673ffffffffffffffffffffffffffffffffffffffff1663b19a437e828460006040518463ffffffff1660e01b8152600401620008539392919062002aba565b6020604051808303816000875af115801562000873573d6000803e3d6000fd5b505050506040513d601f19601f8201168201806040525081019062000899919062002afe565b505050565b60006005600083815260200190815260200160002060009054906101000a900473ffffffffffffffffffffffffffffffffffffffff169050919050565b600060017f00000000000000000000000000000000000000000000000000000000000000006200090c9190620022f7565b9050600062000925828462000d7690919063ffffffff16565b90507f00000000000000000000000000000000000000000000000000000000000000006020620009569190620022f7565b82620009639190620022f7565b915060006200097c838562000d7690919063ffffffff16565b905060207f0000000000000000000000000000000000000000000000000000000000000000620009ad9190620022f7565b83620009ba9190620022f7565b92506000620009d3848662000d7690919063ffffffff16565b73__Bytes32Lib____________________________635ced058e90916040518263ffffffff1660e01b815260040162000a0d919062002343565b602060405180830381865af415801562000a2b573d6000803e3d6000fd5b505050506040513d601f19601f8201168201806040525081019062000a51919062002377565b905060207f000000000000000000000000000000000000000000000000000000000000000062000a829190620022f7565b8462000a8f9190620022f7565b9350600062000aa8858762000d7690919063ffffffff16565b73__Bytes32Lib____________________________635ced058e90916040518263ffffffff1660e01b815260040162000ae2919062002343565b602060405180830381865af415801562000b00573d6000803e3d6000fd5b505050506040513d601f19601f8201168201806040525081019062000b26919062002377565b905060007f000000000000000000000000000000000000000000000000000000000000000063badd4e1c60e01b8686863087600760009054906101000a900473ffffffffffffffffffffffffffffffffffffffff16600360009054906101000a900473ffffffffffffffffffffffffffffffffffffffff1660045460405160240162000bba98979695949392919062002b30565b604051602081830303815290604052907bffffffffffffffffffffffffffffffffffffffffffffffffffffffff19166020820180517bffffffffffffffffffffffffffffffffffffffffffffffffffffffff838183161783525050505060405162000c259062001dd0565b62000c3292919062002bbe565b604051809103906000f08015801562000c4f573d6000803e3d6000fd5b5090507f9099ae82a8175f9cad9ec57c0a752f8c8e49bdf09ecda4762af8d3bfd52d6ecf8585858460405162000c89949392919062002bf2565b60405180910390a1806005600087815260200190815260200160002060006101000a81548173ffffffffffffffffffffffffffffffffffffffff021916908373ffffffffffffffffffffffffffffffffffffffff16021790555050505050505050565b62000cf662000de2565b600073ffffffffffffffffffffffffffffffffffffffff168173ffffffffffffffffffffffffffffffffffffffff160362000d68576040517f08c379a000000000000000000000000000000000000000000000000000000000815260040162000d5f9062002cb5565b60405180910390fd5b62000d738162000e67565b50565b600060208262000d879190620022f7565b8351101562000dcd576040517f08c379a000000000000000000000000000000000000000000000000000000000815260040162000dc49062002d27565b60405180910390fd5b60008260208501015190508091505092915050565b62000dec6200116b565b73ffffffffffffffffffffffffffffffffffffffff1662000e0c620005dc565b73ffffffffffffffffffffffffffffffffffffffff161462000e65576040517f08c379a000000000000000000000000000000000000000000000000000000000815260040162000e5c9062002d99565b60405180910390fd5b565b60008060009054906101000a900473ffffffffffffffffffffffffffffffffffffffff169050816000806101000a81548173ffffffffffffffffffffffffffffffffffffffff021916908373ffffffffffffffffffffffffffffffffffffffff1602179055508173ffffffffffffffffffffffffffffffffffffffff168173ffffffffffffffffffffffffffffffffffffffff167f8be0079c531659141344cd1fd0a4f28419497f9722a3daafe3b4186f6b6457e060405160405180910390a35050565b60008160e0015160008151811062000f485762000f4762002dbb565b5b602001015160f81c60f81b60f81c905060008160ff16600581111562000f735762000f7262002dea565b5b90506000600581111562000f8c5762000f8b62002dea565b5b81600581111562000fa25762000fa162002dea565b5b0362000fbd5762000fb78360e00151620008db565b62001166565b6002600581111562000fd45762000fd362002dea565b5b81600581111562000fea5762000fe962002dea565b5b03620010055762000fff8360e0015162000279565b62001165565b600360058111156200101c576200101b62002dea565b5b81600581111562001032576200103162002dea565b5b036200104d57620010478360e0015162001173565b62001164565b6001600581111562001064576200106362002dea565b5b8160058111156200107a576200107962002dea565b5b0362001095576200108f8360e00151620014b0565b62001163565b600580811115620010ab57620010aa62002dea565b5b816005811115620010c157620010c062002dea565b5b03620010dc57620010d68360e00151620017b1565b62001162565b60046005811115620010f357620010f262002dea565b5b81600581111562001109576200110862002dea565b5b0362001124576200111e8360e0015162001b0d565b62001161565b6040517f08c379a0000000000000000000000000000000000000000000000000000000008152600401620011589062002e69565b60405180910390fd5b5b5b5b5b5b505050565b600033905090565b60007f00000000000000000000000000000000000000000000000000000000000000006001620011a49190620022f7565b90506000620011bd828462000d7690919063ffffffff16565b90507f00000000000000000000000000000000000000000000000000000000000000006020620011ee9190620022f7565b82620011fb9190620022f7565b9150600062001214838562000d7690919063ffffffff16565b90507f00000000000000000000000000000000000000000000000000000000000000006020620012459190620022f7565b83620012529190620022f7565b925060006200126b848662000d7690919063ffffffff16565b73__Bytes32Lib____________________________635ced058e90916040518263ffffffff1660e01b8152600401620012a5919062002343565b602060405180830381865af4158015620012c3573d6000803e3d6000fd5b505050506040513d601f19601f82011682018060405250810190620012e9919062002377565b9050602084620012fa9190620022f7565b9350600062001313858762000d7690919063ffffffff16565b73__Bytes32Lib____________________________635ced058e90916040518263ffffffff1660e01b81526004016200134d919062002343565b602060405180830381865af41580156200136b573d6000803e3d6000fd5b505050506040513d601f19601f8201168201806040525081019062001391919062002377565b9050602085620013a29190620022f7565b945060006005600085815260200190815260200160002060009054906101000a900473ffffffffffffffffffffffffffffffffffffffff1690506000620013f3878962000d7690919063ffffffff16565b60001c90508173ffffffffffffffffffffffffffffffffffffffff166319e64f588583866040518463ffffffff1660e01b8152600401620014379392919062002e8b565b600060405180830381600087803b1580156200145257600080fd5b505af115801562001467573d6000803e3d6000fd5b505050507fc95f8b91b103304386b955ef73fadac189f8ad66b33369b6c34a17a60db7bd0a84826040516200149e92919062002ec8565b60405180910390a15050505050505050565b600080620014c8828462001d6490919063ffffffff16565b90507f00000000000000000000000000000000000000000000000000000000000000006001620014f99190620022f7565b82620015069190620022f7565b915060006200151f838562000d7690919063ffffffff16565b90507f00000000000000000000000000000000000000000000000000000000000000006020620015509190620022f7565b836200155d9190620022f7565b9250600062001576848662000d7690919063ffffffff16565b90507f00000000000000000000000000000000000000000000000000000000000000006020620015a79190620022f7565b84620015b49190620022f7565b93506000620015cd858762000d7690919063ffffffff16565b73__Bytes32Lib____________________________635ced058e90916040518263ffffffff1660e01b815260040162001607919062002343565b602060405180830381865af415801562001625573d6000803e3d6000fd5b505050506040513d601f19601f820116820180604052508101906200164b919062002377565b90507f000000000000000000000000000000000000000000000000000000000000000060206200167c9190620022f7565b85620016899190620022f7565b945060006005600085815260200190815260200160002060009054906101000a900473ffffffffffffffffffffffffffffffffffffffff1690508073ffffffffffffffffffffffffffffffffffffffff1663fb1d97dc60405180608001604052808860ff1681526020018781526020018681526020018573ffffffffffffffffffffffffffffffffffffffff168152506040518263ffffffff1660e01b815260040162001737919062002f85565b600060405180830381600087803b1580156200175257600080fd5b505af115801562001767573d6000803e3d6000fd5b505050507f783b09b8e9efccd70dd777755a66da9a5a3a6be7c7f8d4e92a8c25357b07f848848484604051620017a09392919062002fa2565b60405180910390a150505050505050565b60007f00000000000000000000000000000000000000000000000000000000000000006001620017e29190620022f7565b90506000620017fb828462000d7690919063ffffffff16565b905060207f00000000000000000000000000000000000000000000000000000000000000006200182c9190620022f7565b82620018399190620022f7565b9150600062001852838562000d7690919063ffffffff16565b90507f00000000000000000000000000000000000000000000000000000000000000006020620018839190620022f7565b83620018909190620022f7565b92506000620018a9848662000d7690919063ffffffff16565b905060207f0000000000000000000000000000000000000000000000000000000000000000620018da9190620022f7565b84620018e79190620022f7565b9350600062001900858762000d7690919063ffffffff16565b73__Bytes32Lib____________________________635ced058e90916040518263ffffffff1660e01b81526004016200193a919062002343565b602060405180830381865af415801562001958573d6000803e3d6000fd5b505050506040513d601f19601f820116820180604052508101906200197e919062002377565b90506020856200198f9190620022f7565b94506000620019a8868862000d7690919063ffffffff16565b73__Bytes32Lib____________________________635ced058e90916040518263ffffffff1660e01b8152600401620019e2919062002343565b602060405180830381865af415801562001a00573d6000803e3d6000fd5b505050506040513d601f19601f8201168201806040525081019062001a26919062002377565b905060208662001a379190620022f7565b9550600062001a50878962000d7690919063ffffffff16565b60001c905060006005600086815260200190815260200160002060009054906101000a900473ffffffffffffffffffffffffffffffffffffffff1690508073ffffffffffffffffffffffffffffffffffffffff166314ef5cfa878685876040518563ffffffff1660e01b815260040162001ace9493929190620023dc565b600060405180830381600087803b15801562001ae957600080fd5b505af115801562001afe573d6000803e3d6000fd5b50505050505050505050505050565b60007f0000000000000000000000000000000000000000000000000000000000000000600162001b3e9190620022f7565b9050600062001b57828462000d7690919063ffffffff16565b905060207f000000000000000000000000000000000000000000000000000000000000000062001b889190620022f7565b8262001b959190620022f7565b9150600062001bae838562000d7690919063ffffffff16565b905060207f000000000000000000000000000000000000000000000000000000000000000062001bdf9190620022f7565b8362001bec9190620022f7565b9250600062001c05848662000d7690919063ffffffff16565b73__Bytes32Lib____________________________635ced058e90916040518263ffffffff1660e01b815260040162001c3f919062002343565b602060405180830381865af415801562001c5d573d6000803e3d6000fd5b505050506040513d601f19601f8201168201806040525081019062001c83919062002377565b905060208462001c949190620022f7565b9350600062001cad858762000d7690919063ffffffff16565b60001c905060006005600085815260200190815260200160002060009054906101000a900473ffffffffffffffffffffffffffffffffffffffff1690508073ffffffffffffffffffffffffffffffffffffffff16637ac9245684846040518363ffffffff1660e01b815260040162001d2792919062002ec8565b600060405180830381600087803b15801562001d4257600080fd5b505af115801562001d57573d6000803e3d6000fd5b5050505050505050505050565b600060018262001d759190620022f7565b8351101562001dbb576040517f08c379a000000000000000000000000000000000000000000000000000000000815260040162001db2906200302f565b60405180910390fd5b60008260018501015190508091505092915050565b610b63806200305283390190565b600073ffffffffffffffffffffffffffffffffffffffff82169050919050565b600062001e0b8262001dde565b9050919050565b62001e1d8162001dfe565b82525050565b600060208201905062001e3a600083018462001e12565b92915050565b6000604051905090565b600080fd5b600080fd5b600080fd5b600080fd5b6000601f19601f8301169050919050565b7f4e487b7100000000000000000000000000000000000000000000000000000000600052604160045260246000fd5b62001ea98262001e5e565b810181811067ffffffffffffffff8211171562001ecb5762001eca62001e6f565b5b80604052505050565b600062001ee062001e40565b905062001eee828262001e9e565b919050565b600067ffffffffffffffff82111562001f115762001f1062001e6f565b5b62001f1c8262001e5e565b9050602081019050919050565b82818337600083830152505050565b600062001f4f62001f498462001ef3565b62001ed4565b90508281526020810184848401111562001f6e5762001f6d62001e59565b5b62001f7b84828562001f29565b509392505050565b600082601f83011262001f9b5762001f9a62001e54565b5b813562001fad84826020860162001f38565b91505092915050565b60006020828403121562001fcf5762001fce62001e4a565b5b600082013567ffffffffffffffff81111562001ff05762001fef62001e4f565b5b62001ffe8482850162001f83565b91505092915050565b600061ffff82169050919050565b620020208162002007565b81146200202c57600080fd5b50565b600081359050620020408162002015565b92915050565b6000819050919050565b6200205b8162002046565b81146200206757600080fd5b50565b6000813590506200207b8162002050565b92915050565b600080604083850312156200209b576200209a62001e4a565b5b6000620020ab858286016200202f565b9250506020620020be858286016200206a565b9150509250929050565b6000620020d58262001dde565b9050919050565b620020e781620020c8565b8114620020f357600080fd5b50565b6000813590506200210781620020dc565b92915050565b6000819050919050565b62002122816200210d565b81146200212e57600080fd5b50565b600081359050620021428162002117565b92915050565b6000806040838503121562002162576200216162001e4a565b5b60006200217285828601620020f6565b9250506020620021858582860162002131565b9150509250929050565b600060ff82169050919050565b620021a7816200218f565b8114620021b357600080fd5b50565b600081359050620021c7816200219c565b92915050565b60008060408385031215620021e757620021e662001e4a565b5b600083013567ffffffffffffffff81111562002208576200220762001e4f565b5b620022168582860162001f83565b92505060206200222985828601620021b6565b9150509250929050565b6000602082840312156200224c576200224b62001e4a565b5b60006200225c848285016200206a565b91505092915050565b620022708162001dfe565b81146200227c57600080fd5b50565b600081359050620022908162002265565b92915050565b600060208284031215620022af57620022ae62001e4a565b5b6000620022bf848285016200227f565b91505092915050565b7f4e487b7100000000000000000000000000000000000000000000000000000000600052601160045260246000fd5b600062002304826200210d565b915062002311836200210d565b92508282019050808211156200232c576200232b620022c8565b5b92915050565b6200233d8162002046565b82525050565b60006020820190506200235a600083018462002332565b92915050565b600081519050620023718162002265565b92915050565b60006020828403121562002390576200238f62001e4a565b5b6000620023a08482850162002360565b91505092915050565b620023b48162002046565b82525050565b620023c581620020c8565b82525050565b620023d6816200210d565b82525050565b6000608082019050620023f36000830187620023a9565b620024026020830186620023ba565b620024116040830185620023cb565b62002420606083018462001e12565b95945050505050565b600082825260208201905092915050565b7f496e76616c6964207369676e6572000000000000000000000000000000000000600082015250565b600062002472600e8362002429565b91506200247f826200243a565b602082019050919050565b60006020820190508181036000830152620024a58162002463565b9050919050565b7f496e76616c69642070657263656e7461676520616d6f756e7400000000000000600082015250565b6000620024e460198362002429565b9150620024f182620024ac565b602082019050919050565b600060208201905081810360008301526200251781620024d5565b9050919050565b600081519050919050565b600082825260208201905092915050565b60005b838110156200255a5780820151818401526020810190506200253d565b60008484015250505050565b600062002573826200251e565b6200257f818562002529565b9350620025918185602086016200253a565b6200259c8162001e5e565b840191505092915050565b60006020820190508181036000830152620025c3818462002566565b905092915050565b600080fd5b600080fd5b600081519050620025e6816200219c565b92915050565b600063ffffffff82169050919050565b6200260781620025ec565b81146200261357600080fd5b50565b6000815190506200262781620025fc565b92915050565b6000815190506200263e8162002015565b92915050565b600081519050620026558162002050565b92915050565b600067ffffffffffffffff82169050919050565b6200267a816200265b565b81146200268657600080fd5b50565b6000815190506200269a816200266f565b92915050565b6000620026b7620026b18462001ef3565b62001ed4565b905082815260208101848484011115620026d657620026d562001e59565b5b620026e38482856200253a565b509392505050565b600082601f83011262002703576200270262001e54565b5b815162002715848260208601620026a0565b91505092915050565b600067ffffffffffffffff8211156200273c576200273b62001e6f565b5b602082029050602081019050919050565b600080fd5b6000608082840312156200276b576200276a620025cb565b5b62002777608062001ed4565b90506000620027898482850162002644565b60008301525060206200279f8482850162002644565b6020830152506040620027b584828501620025d5565b6040830152506060620027cb84828501620025d5565b60608301525092915050565b6000620027ee620027e8846200271e565b62001ed4565b905080838252602082019050608084028301858111156200281457620028136200274d565b5b835b818110156200284157806200282c888262002752565b84526020840193505060808101905062002816565b5050509392505050565b600082601f83011262002863576200286262001e54565b5b815162002875848260208601620027d7565b91505092915050565b60006101608284031215620028985762002897620025cb565b5b620028a561016062001ed4565b90506000620028b784828501620025d5565b6000830152506020620028cd8482850162002616565b6020830152506040620028e38482850162002616565b6040830152506060620028f9848285016200262d565b60608301525060806200290f8482850162002644565b60808301525060a0620029258482850162002689565b60a08301525060c06200293b84828501620025d5565b60c08301525060e082015167ffffffffffffffff811115620029625762002961620025d0565b5b6200297084828501620026eb565b60e083015250610100620029878482850162002616565b6101008301525061012082015167ffffffffffffffff811115620029b057620029af620025d0565b5b620029be848285016200284b565b61012083015250610140620029d68482850162002644565b6101408301525092915050565b600060208284031215620029fc57620029fb62001e4a565b5b600082015167ffffffffffffffff81111562002a1d5762002a1c62001e4f565b5b62002a2b848285016200287e565b91505092915050565b6000819050919050565b600062002a5f62002a5962002a53846200218f565b62002a34565b620025ec565b9050919050565b62002a718162002a3e565b82525050565b6000819050919050565b600062002aa262002a9c62002a968462002a77565b62002a34565b6200218f565b9050919050565b62002ab48162002a81565b82525050565b600060608201905062002ad1600083018662002a66565b818103602083015262002ae5818562002566565b905062002af6604083018462002aa9565b949350505050565b60006020828403121562002b175762002b1662001e4a565b5b600062002b278482850162002689565b91505092915050565b60006101008201905062002b48600083018b620023a9565b62002b57602083018a620023a9565b62002b66604083018962001e12565b62002b75606083018862001e12565b62002b84608083018762001e12565b62002b9360a083018662001e12565b62002ba260c083018562001e12565b62002bb160e0830184620023cb565b9998505050505050505050565b600060408201905062002bd5600083018562001e12565b818103602083015262002be9818462002566565b90509392505050565b600060808201905062002c096000830187620023a9565b62002c186020830186620023a9565b62002c27604083018562001e12565b62002c36606083018462001e12565b95945050505050565b7f4f776e61626c653a206e6577206f776e657220697320746865207a65726f206160008201527f6464726573730000000000000000000000000000000000000000000000000000602082015250565b600062002c9d60268362002429565b915062002caa8262002c3f565b604082019050919050565b6000602082019050818103600083015262002cd08162002c8e565b9050919050565b7f746f427974657333325f6f75744f66426f756e64730000000000000000000000600082015250565b600062002d0f60158362002429565b915062002d1c8262002cd7565b602082019050919050565b6000602082019050818103600083015262002d428162002d00565b9050919050565b7f4f776e61626c653a2063616c6c6572206973206e6f7420746865206f776e6572600082015250565b600062002d8160208362002429565b915062002d8e8262002d49565b602082019050919050565b6000602082019050818103600083015262002db48162002d72565b9050919050565b7f4e487b7100000000000000000000000000000000000000000000000000000000600052603260045260246000fd5b7f4e487b7100000000000000000000000000000000000000000000000000000000600052602160045260246000fd5b7f556e737570706f7274656420554e51576f726d686f6c6520616374696f6e0000600082015250565b600062002e51601e8362002429565b915062002e5e8262002e19565b602082019050919050565b6000602082019050818103600083015262002e848162002e42565b9050919050565b600060608201905062002ea26000830186620023ba565b62002eb16020830185620023cb565b62002ec0604083018462001e12565b949350505050565b600060408201905062002edf600083018562001e12565b62002eee6020830184620023cb565b9392505050565b62002f00816200218f565b82525050565b62002f118162002046565b82525050565b62002f228162001dfe565b82525050565b60808201600082015162002f40600085018262002ef5565b50602082015162002f55602085018262002f06565b50604082015162002f6a604085018262002f06565b50606082015162002f7f606085018262002f17565b50505050565b600060808201905062002f9c600083018462002f28565b92915050565b600060608201905062002fb96000830186620023a9565b62002fc86020830185620023a9565b62002fd7604083018462001e12565b949350505050565b7f746f55696e74385f6f75744f66426f756e647300000000000000000000000000600082015250565b60006200301760138362002429565b9150620030248262002fdf565b602082019050919050565b600060208201905081810360008301526200304a8162003008565b905091905056fe608060405260405162000b6338038062000b638339818101604052810190610027919061063b565b6100398282600061004060201b60201c565b5050610929565b61004f8361012960201b60201c565b8273ffffffffffffffffffffffffffffffffffffffff167f1cf3b03a6cf19fa2baba4df148e9dcabedea7f8a5c07840e207e5c089be95d3e60405160405180910390a260008251118061009f5750805b15610124576101228373ffffffffffffffffffffffffffffffffffffffff16635c60da1b6040518163ffffffff1660e01b8152600401602060405180830381865afa1580156100f2573d6000803e3d6000fd5b505050506040513d601f19601f820116820180604052508101906101169190610697565b836102aa60201b60201c565b505b505050565b610138816102de60201b60201c565b610177576040517f08c379a000000000000000000000000000000000000000000000000000000000815260040161016e90610747565b60405180910390fd5b6101f48173ffffffffffffffffffffffffffffffffffffffff16635c60da1b6040518163ffffffff1660e01b8152600401602060405180830381865afa1580156101c5573d6000803e3d6000fd5b505050506040513d601f19601f820116820180604052508101906101e99190610697565b6102de60201b60201c565b610233576040517f08c379a000000000000000000000000000000000000000000000000000000000815260040161022a906107d9565b60405180910390fd5b806102667fa3f0ad74e5423aebfd80d3ef4346578335a9a72aeaee59ff6cb3582b35133d5060001b61030160201b60201c565b60000160006101000a81548173ffffffffffffffffffffffffffffffffffffffff021916908373ffffffffffffffffffffffffffffffffffffffff16021790555050565b60606102d6838360405180606001604052806027815260200162000b3c6027913961030b60201b60201c565b905092915050565b6000808273ffffffffffffffffffffffffffffffffffffffff163b119050919050565b6000819050919050565b60606000808573ffffffffffffffffffffffffffffffffffffffff16856040516103359190610840565b600060405180830381855af49150503d8060008114610370576040519150601f19603f3d011682016040523d82523d6000602084013e610375565b606091505b509150915061038c8683838761039760201b60201c565b925050509392505050565b606083156103ff5760008351036103f7576103b7856102de60201b60201c565b6103f6576040517f08c379a00000000000000000000000000000000000000000000000000000000081526004016103ed906108a3565b60405180910390fd5b5b829050610410565b61040f838361041860201b60201c565b5b949350505050565b60008251111561042b5781518083602001fd5b806040517f08c379a000000000000000000000000000000000000000000000000000000000815260040161045f9190610907565b60405180910390fd5b6000604051905090565b600080fd5b600080fd5b600073ffffffffffffffffffffffffffffffffffffffff82169050919050565b60006104a78261047c565b9050919050565b6104b78161049c565b81146104c257600080fd5b50565b6000815190506104d4816104ae565b92915050565b600080fd5b600080fd5b6000601f19601f8301169050919050565b7f4e487b7100000000000000000000000000000000000000000000000000000000600052604160045260246000fd5b61052d826104e4565b810181811067ffffffffffffffff8211171561054c5761054b6104f5565b5b80604052505050565b600061055f610468565b905061056b8282610524565b919050565b600067ffffffffffffffff82111561058b5761058a6104f5565b5b610594826104e4565b9050602081019050919050565b60005b838110156105bf5780820151818401526020810190506105a4565b60008484015250505050565b60006105de6105d984610570565b610555565b9050828152602081018484840111156105fa576105f96104df565b5b6106058482856105a1565b509392505050565b600082601f830112610622576106216104da565b5b81516106328482602086016105cb565b91505092915050565b6000806040838503121561065257610651610472565b5b6000610660858286016104c5565b925050602083015167ffffffffffffffff81111561068157610680610477565b5b61068d8582860161060d565b9150509250929050565b6000602082840312156106ad576106ac610472565b5b60006106bb848285016104c5565b91505092915050565b600082825260208201905092915050565b7f455243313936373a206e657720626561636f6e206973206e6f74206120636f6e60008201527f7472616374000000000000000000000000000000000000000000000000000000602082015250565b60006107316025836106c4565b915061073c826106d5565b604082019050919050565b6000602082019050818103600083015261076081610724565b9050919050565b7f455243313936373a20626561636f6e20696d706c656d656e746174696f6e206960008201527f73206e6f74206120636f6e747261637400000000000000000000000000000000602082015250565b60006107c36030836106c4565b91506107ce82610767565b604082019050919050565b600060208201905081810360008301526107f2816107b6565b9050919050565b600081519050919050565b600081905092915050565b600061081a826107f9565b6108248185610804565b93506108348185602086016105a1565b80840191505092915050565b600061084c828461080f565b915081905092915050565b7f416464726573733a2063616c6c20746f206e6f6e2d636f6e7472616374000000600082015250565b600061088d601d836106c4565b915061089882610857565b602082019050919050565b600060208201905081810360008301526108bc81610880565b9050919050565b600081519050919050565b60006108d9826108c3565b6108e381856106c4565b93506108f38185602086016105a1565b6108fc816104e4565b840191505092915050565b6000602082019050818103600083015261092181846108ce565b905092915050565b61020380620009396000396000f3fe6080604052366100135761001161001d565b005b61001b61001d565b005b610025610037565b610035610030610039565b6100b6565b565b565b60006100436100dc565b73ffffffffffffffffffffffffffffffffffffffff16635c60da1b6040518163ffffffff1660e01b8152600401602060405180830381865afa15801561008d573d6000803e3d6000fd5b505050506040513d601f19601f820116820180604052508101906100b191906101a0565b905090565b3660008037600080366000845af43d6000803e80600081146100d7573d6000f35b3d6000fd5b600061010a7fa3f0ad74e5423aebfd80d3ef4346578335a9a72aeaee59ff6cb3582b35133d5060001b610133565b60000160009054906101000a900473ffffffffffffffffffffffffffffffffffffffff16905090565b6000819050919050565b600080fd5b600073ffffffffffffffffffffffffffffffffffffffff82169050919050565b600061016d82610142565b9050919050565b61017d81610162565b811461018857600080fd5b50565b60008151905061019a81610174565b92915050565b6000602082840312156101b6576101b561013d565b5b60006101c48482850161018b565b9150509291505056fea2646970667358221220348a9bb9eb66b9d9029e4a97e3a702bb6010d5650cbfe8ab3f629695f291a1dc64736f6c63430008130033416464726573733a206c6f772d6c6576656c2064656c65676174652063616c6c206661696c6564a2646970667358221220b948c132aafe544deefac110530065d547f2c318ad83b4a9d641b3d8055554cf64736f6c6343000813003360a060405234801561001057600080fd5b5060405161139138038061139183398181016040528101906100329190610238565b61004e6100436100fc60201b60201c565b61010460201b60201c565b8060405161005b906101c8565b6100659190610274565b604051809103906000f080158015610081573d6000803e3d6000fd5b5073ffffffffffffffffffffffffffffffffffffffff1660808173ffffffffffffffffffffffffffffffffffffffff168152505032600160006101000a81548173ffffffffffffffffffffffffffffffffffffffff021916908373ffffffffffffffffffffffffffffffffffffffff1602179055505061028f565b600033905090565b60008060009054906101000a900473ffffffffffffffffffffffffffffffffffffffff169050816000806101000a81548173ffffffffffffffffffffffffffffffffffffffff021916908373ffffffffffffffffffffffffffffffffffffffff1602179055508173ffffffffffffffffffffffffffffffffffffffff168173ffffffffffffffffffffffffffffffffffffffff167f8be0079c531659141344cd1fd0a4f28419497f9722a3daafe3b4186f6b6457e060405160405180910390a35050565b6109cb806109c683390190565b600080fd5b600073ffffffffffffffffffffffffffffffffffffffff82169050919050565b6000610205826101da565b9050919050565b610215816101fa565b811461022057600080fd5b50565b6000815190506102328161020c565b92915050565b60006020828403121561024e5761024d6101d5565b5b600061025c84828501610223565b91505092915050565b61026e816101fa565b82525050565b60006020820190506102896000830184610265565b92915050565b60805161070e6102b860003960008181610105015281816101a1015261024b015261070e6000f3fe608060405234801561001057600080fd5b50600436106100625760003560e01c80635c60da1b146100675780636095b4b014610085578063715018a6146100a15780637792c319146100ab5780638da5cb5b146100c7578063f2fde38b146100e5575b600080fd5b61006f610101565b60405161007c919061050e565b60405180910390f35b61009f600480360381019061009a919061055a565b610197565b005b6100a961022d565b005b6100c560048036038101906100c0919061055a565b610241565b005b6100cf6102d7565b6040516100dc919061050e565b60405180910390f35b6100ff60048036038101906100fa919061055a565b610300565b005b60007f000000000000000000000000000000000000000000000000000000000000000073ffffffffffffffffffffffffffffffffffffffff16635c60da1b6040518163ffffffff1660e01b8152600401602060405180830381865afa15801561016e573d6000803e3d6000fd5b505050506040513d601f19601f82011682018060405250810190610192919061059c565b905090565b61019f610383565b7f000000000000000000000000000000000000000000000000000000000000000073ffffffffffffffffffffffffffffffffffffffff1663f2fde38b826040518263ffffffff1660e01b81526004016101f8919061050e565b600060405180830381600087803b15801561021257600080fd5b505af1158015610226573d6000803e3d6000fd5b5050505050565b610235610383565b61023f6000610401565b565b610249610383565b7f000000000000000000000000000000000000000000000000000000000000000073ffffffffffffffffffffffffffffffffffffffff16633659cfe6826040518263ffffffff1660e01b81526004016102a2919061050e565b600060405180830381600087803b1580156102bc57600080fd5b505af11580156102d0573d6000803e3d6000fd5b5050505050565b60008060009054906101000a900473ffffffffffffffffffffffffffffffffffffffff16905090565b610308610383565b600073ffffffffffffffffffffffffffffffffffffffff168173ffffffffffffffffffffffffffffffffffffffff1603610377576040517f08c379a000000000000000000000000000000000000000000000000000000000815260040161036e9061064c565b60405180910390fd5b61038081610401565b50565b61038b6104c5565b73ffffffffffffffffffffffffffffffffffffffff166103a96102d7565b73ffffffffffffffffffffffffffffffffffffffff16146103ff576040517f08c379a00000000000000000000000000000000000000000000000000000000081526004016103f6906106b8565b60405180910390fd5b565b60008060009054906101000a900473ffffffffffffffffffffffffffffffffffffffff169050816000806101000a81548173ffffffffffffffffffffffffffffffffffffffff021916908373ffffffffffffffffffffffffffffffffffffffff1602179055508173ffffffffffffffffffffffffffffffffffffffff168173ffffffffffffffffffffffffffffffffffffffff167f8be0079c531659141344cd1fd0a4f28419497f9722a3daafe3b4186f6b6457e060405160405180910390a35050565b600033905090565b600073ffffffffffffffffffffffffffffffffffffffff82169050919050565b60006104f8826104cd565b9050919050565b610508816104ed565b82525050565b600060208201905061052360008301846104ff565b92915050565b600080fd5b610537816104ed565b811461054257600080fd5b50565b6000813590506105548161052e565b92915050565b6000602082840312156105705761056f610529565b5b600061057e84828501610545565b91505092915050565b6000815190506105968161052e565b92915050565b6000602082840312156105b2576105b1610529565b5b60006105c084828501610587565b91505092915050565b600082825260208201905092915050565b7f4f776e61626c653a206e6577206f776e657220697320746865207a65726f206160008201527f6464726573730000000000000000000000000000000000000000000000000000602082015250565b60006106366026836105c9565b9150610641826105da565b604082019050919050565b6000602082019050818103600083015261066581610629565b9050919050565b7f4f776e61626c653a2063616c6c6572206973206e6f7420746865206f776e6572600082015250565b60006106a26020836105c9565b91506106ad8261066c565b602082019050919050565b600060208201905081810360008301526106d181610695565b905091905056fea2646970667358221220e391bc89310341a91170c27326c556a10b7fe725a2177cf3d4b7ca33c91dbc1e64736f6c63430008130033608060405234801561001057600080fd5b506040516109cb3803806109cb83398181016040528101906100329190610247565b61004e61004361006360201b60201c565b61006b60201b60201c565b61005d8161012f60201b60201c565b50610317565b600033905090565b60008060009054906101000a900473ffffffffffffffffffffffffffffffffffffffff169050816000806101000a81548173ffffffffffffffffffffffffffffffffffffffff021916908373ffffffffffffffffffffffffffffffffffffffff1602179055508173ffffffffffffffffffffffffffffffffffffffff168173ffffffffffffffffffffffffffffffffffffffff167f8be0079c531659141344cd1fd0a4f28419497f9722a3daafe3b4186f6b6457e060405160405180910390a35050565b61013e816101c160201b60201c565b61017d576040517f08c379a0000000000000000000000000000000000000000000000000000000008152600401610174906102f7565b60405180910390fd5b80600160006101000a81548173ffffffffffffffffffffffffffffffffffffffff021916908373ffffffffffffffffffffffffffffffffffffffff16021790555050565b6000808273ffffffffffffffffffffffffffffffffffffffff163b119050919050565b600080fd5b600073ffffffffffffffffffffffffffffffffffffffff82169050919050565b6000610214826101e9565b9050919050565b61022481610209565b811461022f57600080fd5b50565b6000815190506102418161021b565b92915050565b60006020828403121561025d5761025c6101e4565b5b600061026b84828501610232565b91505092915050565b600082825260208201905092915050565b7f5570677261646561626c65426561636f6e3a20696d706c656d656e746174696f60008201527f6e206973206e6f74206120636f6e747261637400000000000000000000000000602082015250565b60006102e1603383610274565b91506102ec82610285565b604082019050919050565b60006020820190508181036000830152610310816102d4565b9050919050565b6106a5806103266000396000f3fe608060405234801561001057600080fd5b50600436106100575760003560e01c80633659cfe61461005c5780635c60da1b14610078578063715018a6146100965780638da5cb5b146100a0578063f2fde38b146100be575b600080fd5b61007660048036038101906100719190610477565b6100da565b005b610080610131565b60405161008d91906104b3565b60405180910390f35b61009e61015b565b005b6100a861016f565b6040516100b591906104b3565b60405180910390f35b6100d860048036038101906100d39190610477565b610198565b005b6100e261021b565b6100eb81610299565b8073ffffffffffffffffffffffffffffffffffffffff167fbc7cd75a20ee27fd9adebab32041f755214dbc6bffa90cc0225b39da2e5c2d3b60405160405180910390a250565b6000600160009054906101000a900473ffffffffffffffffffffffffffffffffffffffff16905090565b61016361021b565b61016d6000610325565b565b60008060009054906101000a900473ffffffffffffffffffffffffffffffffffffffff16905090565b6101a061021b565b600073ffffffffffffffffffffffffffffffffffffffff168173ffffffffffffffffffffffffffffffffffffffff160361020f576040517f08c379a000000000000000000000000000000000000000000000000000000000815260040161020690610551565b60405180910390fd5b61021881610325565b50565b6102236103e9565b73ffffffffffffffffffffffffffffffffffffffff1661024161016f565b73ffffffffffffffffffffffffffffffffffffffff1614610297576040517f08c379a000000000000000000000000000000000000000000000000000000000815260040161028e906105bd565b60405180910390fd5b565b6102a2816103f1565b6102e1576040517f08c379a00000000000000000000000000000000000000000000000000000000081526004016102d89061064f565b60405180910390fd5b80600160006101000a81548173ffffffffffffffffffffffffffffffffffffffff021916908373ffffffffffffffffffffffffffffffffffffffff16021790555050565b60008060009054906101000a900473ffffffffffffffffffffffffffffffffffffffff169050816000806101000a81548173ffffffffffffffffffffffffffffffffffffffff021916908373ffffffffffffffffffffffffffffffffffffffff1602179055508173ffffffffffffffffffffffffffffffffffffffff168173ffffffffffffffffffffffffffffffffffffffff167f8be0079c531659141344cd1fd0a4f28419497f9722a3daafe3b4186f6b6457e060405160405180910390a35050565b600033905090565b6000808273ffffffffffffffffffffffffffffffffffffffff163b119050919050565b600080fd5b600073ffffffffffffffffffffffffffffffffffffffff82169050919050565b600061044482610419565b9050919050565b61045481610439565b811461045f57600080fd5b50565b6000813590506104718161044b565b92915050565b60006020828403121561048d5761048c610414565b5b600061049b84828501610462565b91505092915050565b6104ad81610439565b82525050565b60006020820190506104c860008301846104a4565b92915050565b600082825260208201905092915050565b7f4f776e61626c653a206e6577206f776e657220697320746865207a65726f206160008201527f6464726573730000000000000000000000000000000000000000000000000000602082015250565b600061053b6026836104ce565b9150610546826104df565b604082019050919050565b6000602082019050818103600083015261056a8161052e565b9050919050565b7f4f776e61626c653a2063616c6c6572206973206e6f7420746865206f776e6572600082015250565b60006105a76020836104ce565b91506105b282610571565b602082019050919050565b600060208201905081810360008301526105d68161059a565b9050919050565b7f5570677261646561626c65426561636f6e3a20696d706c656d656e746174696f60008201527f6e206973206e6f74206120636f6e747261637400000000000000000000000000602082015250565b60006106396033836104ce565b9150610644826105dd565b604082019050919050565b600060208201905081810360008301526106688161062c565b905091905056fea2646970667358221220d69e8e92745809479f1c6b08924400c32c983dee1e3e2b7fc8f8a6fba4e444d264736f6c63430008130033",
  "immutableReferences": {
    "3227": [
      {
        "length": 32,
        "start": 597
      },
      {
        "length": 32,
        "start": 2860
      }
    ],
    "3250": [
      {
        "length": 32,
        "start": 637
      },
      {
        "length": 32,
        "start": 713
      },
      {
        "length": 32,
        "start": 800
      },
      {
        "length": 32,
        "start": 2273
      },
      {
        "length": 32,
        "start": 2345
      },
      {
        "length": 32,
        "start": 2434
      },
      {
        "length": 32,
        "start": 2647
      },
      {
        "length": 32,
        "start": 4471
      },
      {
        "length": 32,
        "start": 4545
      },
      {
        "length": 32,
        "start": 4632
      },
      {
        "length": 32,
        "start": 5324
      },
      {
        "length": 32,
        "start": 5411
      },
      {
        "length": 32,
        "start": 5498
      },
      {
        "length": 32,
        "start": 5711
      },
      {
        "length": 32,
        "start": 6069
      },
      {
        "length": 32,
        "start": 6145
      },
      {
        "length": 32,
        "start": 6230
      },
      {
        "length": 32,
        "start": 6319
      },
      {
        "length": 32,
        "start": 6929
      },
      {
        "length": 32,
        "start": 7005
      },
      {
        "length": 32,
        "start": 7092
      }
    ]
  },
  "source": "// SPDX-License-Identifier: Apache 2\npragma solidity ^0.8.19;\n\nimport \"../interface/IWormhole.sol\";\nimport \"../structs/UnqWormholeStructs.sol\";\nimport \"@openzeppelin/contracts/access/Ownable.sol\";\nimport \"@openzeppelin/contracts/proxy/beacon/BeaconProxy.sol\";\nimport \"./WormholeUnqBeacon.sol\";\nimport \"../libraries/BytesLib.sol\";\nimport \"../libraries/Bytes32Lib.sol\";\nimport \"../Treasury/UnqTreasury.sol\";\nimport \"@openzeppelin/contracts/token/ERC20/ERC20.sol\";\npragma experimental ABIEncoderV2;\n\ncontract WormholeUnq is UnqWormholeStructs, Ownable {\n    using BytesLib for bytes;\n    using Bytes32Lib for bytes32;\n\n    IWormhole core_contract;\n    address _owner;\n    WormholeUnqBeacon immutable _unqBeacon;\n    address _platformFeeDestination;\n    uint256 _platformFeePercentage;\n    mapping(bytes32 => address) _treasuries;\n    mapping(uint16 => bytes32) _bridgeContracts;\n    address _relayerSigner;\n\n    event TransferFunds(address, uint256);\n\n    uint256 immutable CHAIN_ID_PAD = 4;\n\n    modifier onlyRelayerSigner() {\n        require(msg.sender == _relayerSigner, \"Invalid signer\");\n\n        _;\n    }\n\n    constructor(\n        address treasuryImplementation,\n        address relayerSigner,\n        address wormholeBridgeContract\n    ) {\n        core_contract = IWormhole(wormholeBridgeContract);\n        _owner = msg.sender;\n        _unqBeacon = new WormholeUnqBeacon(treasuryImplementation);\n        _relayerSigner = relayerSigner;\n    }\n\n    modifier onlyRegisteredContract(IWormhole.VM memory vm) {\n        bytes32 registeredChain = _bridgeContracts[vm.emitterChainId];\n        require(vm.emitterAddress == registeredChain, \"Wrong emitter address\");\n        _;\n    }\n\n    event TreasuryCreatedEvent(bytes32, bytes32, address, address);\n    event MemberEvent(bytes32, bytes32, address);\n\n    function parseVM(bytes memory encodedVM) public {\n        IWormhole.VM memory vm = core_contract.parseVM(encodedVM);\n\n        getActionFromPayload(vm);\n    }\n\n    function registerContract(\n        uint16 chainId,\n        bytes32 bridgeContractAddress\n    ) public onlyOwner {\n        _bridgeContracts[chainId] = bridgeContractAddress;\n    }\n\n    //TODO:add modifier for only registered contracts\n    function getActionFromPayload(IWormhole.VM memory vm) private {\n        uint8 actionBytes = uint8(vm.payload[0]);\n\n        UnqWormholeAction action = UnqWormholeAction(actionBytes);\n        if (action == UnqWormholeAction.CreateTreasury) {\n            createEthTreasury(vm.payload);\n        } else if (action == UnqWormholeAction.WithdrawFunds) {\n            withdrawFunds(vm.payload);\n        } else if (action == UnqWormholeAction.TransferFunds) {\n            transferFunds(vm.payload);\n        } else if (action == UnqWormholeAction.AddMember) {\n            addMember(vm.payload);\n        } else if (action == UnqWormholeAction.ClaimFunds) {\n            claimFunds(vm.payload);\n        } else if (action == UnqWormholeAction.ExecuteWithdrawal) {\n            executeProposal(vm.payload);\n        } else {\n            revert(\"Unsupported UNQWormhole action\");\n        }\n    }\n\n    function setPlatformFees(\n        address payable destination,\n        uint256 percentage\n    ) external onlyRelayerSigner {\n        if (percentage < 0 || percentage > 10000) {\n            revert(\"Invalid percentage amount\");\n        }\n\n        _platformFeeDestination = destination;\n        _platformFeePercentage = percentage;\n    }\n\n    function createEthTreasury(bytes memory vm) public {\n        uint256 index = CHAIN_ID_PAD + 1;\n        bytes32 solanaTreasury = vm.toBytes32(index);\n        index += 32 + CHAIN_ID_PAD;\n        bytes32 treasuryAuthority = vm.toBytes32(index);\n        index += CHAIN_ID_PAD + 32;\n        address denominatedCurrency = (vm.toBytes32(index)).bytes32ToAddress();\n        index += CHAIN_ID_PAD + 32;\n        address creator = (vm.toBytes32(index)).bytes32ToAddress();\n\n        BeaconProxy treasury = new BeaconProxy(\n            address(_unqBeacon),\n            abi.encodeWithSelector(\n                UnqTreasury(payable(address(0))).initialize.selector,\n                solanaTreasury,\n                treasuryAuthority,\n                denominatedCurrency,\n                address(this),\n                creator,\n                _relayerSigner,\n                _platformFeeDestination,\n                _platformFeePercentage\n            )\n        );\n\n        emit TreasuryCreatedEvent(\n            solanaTreasury,\n            treasuryAuthority,\n            denominatedCurrency,\n            address(treasury)\n        );\n\n        _treasuries[solanaTreasury] = address(treasury);\n    }\n\n    function transferFunds(bytes memory payload) private {\n        uint256 index = 1 + CHAIN_ID_PAD;\n        bytes32 _proposalAddress = payload.toBytes32(index);\n        index += 32 + CHAIN_ID_PAD;\n        bytes32 solanaTreasury = payload.toBytes32(index);\n        index += 32 + CHAIN_ID_PAD;\n        address destination = (payload.toBytes32(index)).bytes32ToAddress();\n        index += 32;\n        address currency = (payload.toBytes32(index)).bytes32ToAddress();\n        index += 32;\n        UnqTreasury treasury = UnqTreasury(_treasuries[solanaTreasury]);\n        uint256 amount = uint256(payload.toBytes32(index));\n\n        treasury.transferFunds(payable(destination), amount, currency);\n        emit TransferFunds(destination, amount);\n    }\n\n    function claimFunds(bytes memory payload) private {\n        uint256 index = 1 + CHAIN_ID_PAD;\n        bytes32 _proposalAddress = payload.toBytes32(index);\n        index += CHAIN_ID_PAD + 32;\n        bytes32 solanaAddress = payload.toBytes32(index);\n        index += 32 + CHAIN_ID_PAD;\n        bytes32 solanaTreasury = payload.toBytes32(index);\n        index += CHAIN_ID_PAD + 32;\n        address ethAddress = (payload.toBytes32(index)).bytes32ToAddress();\n        index += 32;\n        address currency = (payload.toBytes32(index)).bytes32ToAddress();\n        index += 32;\n        uint256 amount = uint256(payload.toBytes32(index));\n        UnqTreasury treasury = UnqTreasury(_treasuries[solanaTreasury]);\n\n        treasury.claimFunds(\n            solanaAddress,\n            payable(ethAddress),\n            amount,\n            currency\n        );\n    }\n\n    function executeProposal(bytes memory payload) private {\n        uint256 index = 1 + CHAIN_ID_PAD;\n        bytes32 proposalAddress = payload.toBytes32(index);\n        index += CHAIN_ID_PAD + 32;\n        bytes32 solanaTreasuryAddress = payload.toBytes32(index);\n        index += CHAIN_ID_PAD + 32;\n        address currency = (payload.toBytes32(index)).bytes32ToAddress();\n        index += 32;\n        uint256 amount = uint256(payload.toBytes32(index));\n        UnqTreasury treasury = UnqTreasury(_treasuries[solanaTreasuryAddress]);\n\n        treasury.executeWithdrawal(currency, amount);\n    }\n\n    function addMember(bytes memory payload) private {\n        uint256 index = 0;\n        uint8 action = payload.toUint8(index);\n        index += 1 + CHAIN_ID_PAD;\n        bytes32 solanaTreasury = payload.toBytes32(index);\n        index += 32 + CHAIN_ID_PAD;\n        bytes32 solanaAddress = payload.toBytes32(index);\n        index += 32 + CHAIN_ID_PAD;\n        address ethAddress = (payload.toBytes32(index)).bytes32ToAddress();\n        index += 32 + CHAIN_ID_PAD;\n\n        UnqTreasury treasury = UnqTreasury(_treasuries[solanaTreasury]);\n        treasury.addNewMember(\n            UnqWormholeStructs.AddMemberAction(\n                action,\n                solanaTreasury,\n                solanaAddress,\n                ethAddress\n            )\n        );\n        emit MemberEvent(solanaTreasury, solanaAddress, ethAddress);\n    }\n\n    function withdrawFunds(bytes memory payload) public {\n        uint256 index = 1 + CHAIN_ID_PAD;\n        bytes32 memberAddress = payload.toBytes32(index);\n        index += CHAIN_ID_PAD + 32;\n        bytes32 treasuryData = payload.toBytes32(index);\n        index += CHAIN_ID_PAD + 32;\n        address destinationAddress = (payload.toBytes32(index))\n            .bytes32ToAddress();\n        index += 32;\n        address currency = (payload.toBytes32(index)).bytes32ToAddress();\n        uint256 amount = uint256(payload.toBytes32(index));\n\n        UnqTreasury treasury = UnqTreasury(_treasuries[treasuryData]);\n\n        treasury.withdrawFunds(\n            memberAddress,\n            payable(destinationAddress),\n            amount,\n            currency\n        );\n    }\n\n    function getBeacon() public view returns (address) {\n        return address(_unqBeacon);\n    }\n\n    function getTreasury(\n        bytes32 realmAddress\n    ) public view returns (address treasury) {\n        return _treasuries[realmAddress];\n    }\n\n    function getOwner() public view returns (address) {\n        return _owner;\n    }\n\n    function pushWomrholeMessage(bytes memory payload, uint8 nonce) public {\n        core_contract.publishMessage(nonce, payload, 0);\n    }\n}\n",
  "sourcePath": "/Users/gorangutovic/Desktop/unique/unq-treasury-eth/contracts/Wormhole/WormholeUnq.sol",
  "compiler": {
    "name": "solc",
    "version": "0.8.19+commit.7dd6d404.Emscripten.clang"
  },
  "schemaVersion": "3.4.11",
  "updatedAt": "2023-05-26T08:48:11.795Z",
  "networkType": "ethereum",
  "devdoc": {
    "kind": "dev",
    "methods": {
      "owner()": {
        "details": "Returns the address of the current owner."
      },
      "renounceOwnership()": {
        "details": "Leaves the contract without owner. It will not be possible to call `onlyOwner` functions anymore. Can only be called by the current owner. NOTE: Renouncing ownership will leave the contract without an owner, thereby removing any functionality that is only available to the owner."
      },
      "transferOwnership(address)": {
        "details": "Transfers ownership of the contract to a new account (`newOwner`). Can only be called by the current owner."
      }
    },
    "version": 1
  },
  "userdoc": {
    "kind": "user",
    "methods": {},
    "version": 1
  }
}