{
  "contractName": "WormholeUnq",
  "abi": [
    {
      "inputs": [
        {
          "internalType": "address",
          "name": "treasuryImplementation",
          "type": "address"
        },
        {
          "internalType": "address",
          "name": "relayerSigner",
          "type": "address"
        },
        {
          "internalType": "address",
          "name": "wormholeBridgeContract",
          "type": "address"
        }
      ],
      "stateMutability": "nonpayable",
      "type": "constructor"
    },
    {
      "anonymous": false,
      "inputs": [
        {
          "indexed": false,
          "internalType": "bytes32",
          "name": "",
          "type": "bytes32"
        },
        {
          "indexed": false,
          "internalType": "bytes32",
          "name": "",
          "type": "bytes32"
        },
        {
          "indexed": false,
          "internalType": "address",
          "name": "",
          "type": "address"
        }
      ],
      "name": "MemberEvent",
      "type": "event"
    },
    {
      "anonymous": false,
      "inputs": [
        {
          "indexed": true,
          "internalType": "address",
          "name": "previousOwner",
          "type": "address"
        },
        {
          "indexed": true,
          "internalType": "address",
          "name": "newOwner",
          "type": "address"
        }
      ],
      "name": "OwnershipTransferred",
      "type": "event"
    },
    {
      "anonymous": false,
      "inputs": [
        {
          "indexed": false,
          "internalType": "address",
          "name": "",
          "type": "address"
        },
        {
          "indexed": false,
          "internalType": "uint256",
          "name": "",
          "type": "uint256"
        }
      ],
      "name": "TransferFunds",
      "type": "event"
    },
    {
      "anonymous": false,
      "inputs": [
        {
          "indexed": false,
          "internalType": "bytes32",
          "name": "",
          "type": "bytes32"
        },
        {
          "indexed": false,
          "internalType": "bytes32",
          "name": "",
          "type": "bytes32"
        },
        {
          "indexed": false,
          "internalType": "address",
          "name": "",
          "type": "address"
        },
        {
          "indexed": false,
          "internalType": "address",
          "name": "",
          "type": "address"
        }
      ],
      "name": "TreasuryCreatedEvent",
      "type": "event"
    },
    {
      "inputs": [],
      "name": "owner",
      "outputs": [
        {
          "internalType": "address",
          "name": "",
          "type": "address"
        }
      ],
      "stateMutability": "view",
      "type": "function",
      "constant": true
    },
    {
      "inputs": [],
      "name": "renounceOwnership",
      "outputs": [],
      "stateMutability": "nonpayable",
      "type": "function"
    },
    {
      "inputs": [
        {
          "internalType": "address",
          "name": "newOwner",
          "type": "address"
        }
      ],
      "name": "transferOwnership",
      "outputs": [],
      "stateMutability": "nonpayable",
      "type": "function"
    },
    {
      "inputs": [
        {
          "internalType": "bytes",
          "name": "encodedVM",
          "type": "bytes"
        }
      ],
      "name": "parseVM",
      "outputs": [],
      "stateMutability": "nonpayable",
      "type": "function"
    },
    {
      "inputs": [
        {
          "internalType": "uint16",
          "name": "chainId",
          "type": "uint16"
        },
        {
          "internalType": "bytes32",
          "name": "bridgeContractAddress",
          "type": "bytes32"
        }
      ],
      "name": "registerContract",
      "outputs": [],
      "stateMutability": "nonpayable",
      "type": "function"
    },
    {
      "inputs": [
        {
          "internalType": "bytes",
          "name": "vm",
          "type": "bytes"
        }
      ],
      "name": "createEthTreasury",
      "outputs": [],
      "stateMutability": "nonpayable",
      "type": "function"
    },
    {
      "inputs": [],
      "name": "getBeacon",
      "outputs": [
        {
          "internalType": "address",
          "name": "",
          "type": "address"
        }
      ],
      "stateMutability": "view",
      "type": "function",
      "constant": true
    },
    {
      "inputs": [
        {
          "internalType": "bytes32",
          "name": "realmAddress",
          "type": "bytes32"
        }
      ],
      "name": "getTreasury",
      "outputs": [
        {
          "internalType": "address",
          "name": "treasury",
          "type": "address"
        }
      ],
      "stateMutability": "view",
      "type": "function",
      "constant": true
    },
    {
      "inputs": [],
      "name": "getOwner",
      "outputs": [
        {
          "internalType": "address",
          "name": "",
          "type": "address"
        }
      ],
      "stateMutability": "view",
      "type": "function",
      "constant": true
    },
    {
      "inputs": [
        {
          "internalType": "bytes",
          "name": "payload",
          "type": "bytes"
        },
        {
          "internalType": "uint8",
          "name": "nonce",
          "type": "uint8"
        }
      ],
      "name": "pushWomrholeMessage",
      "outputs": [],
      "stateMutability": "nonpayable",
      "type": "function"
    }
  ],
  "bytecode": "0x60e0604052600460a090815250633b9aca0060c0908152503480156200002457600080fd5b50604051620049493803806200494983398181016040528101906200004a9190620002e6565b6200006a6200005e620001a260201b60201c565b620001aa60201b60201c565b80600160006101000a81548173ffffffffffffffffffffffffffffffffffffffff021916908373ffffffffffffffffffffffffffffffffffffffff16021790555033600260006101000a81548173ffffffffffffffffffffffffffffffffffffffff021916908373ffffffffffffffffffffffffffffffffffffffff16021790555082604051620000fb906200026e565b62000107919062000353565b604051809103906000f08015801562000124573d6000803e3d6000fd5b5073ffffffffffffffffffffffffffffffffffffffff1660808173ffffffffffffffffffffffffffffffffffffffff168152505081600560006101000a81548173ffffffffffffffffffffffffffffffffffffffff021916908373ffffffffffffffffffffffffffffffffffffffff16021790555050505062000370565b600033905090565b60008060009054906101000a900473ffffffffffffffffffffffffffffffffffffffff169050816000806101000a81548173ffffffffffffffffffffffffffffffffffffffff021916908373ffffffffffffffffffffffffffffffffffffffff1602179055508173ffffffffffffffffffffffffffffffffffffffff168173ffffffffffffffffffffffffffffffffffffffff167f8be0079c531659141344cd1fd0a4f28419497f9722a3daafe3b4186f6b6457e060405160405180910390a35050565b61139180620035b883390190565b600080fd5b600073ffffffffffffffffffffffffffffffffffffffff82169050919050565b6000620002ae8262000281565b9050919050565b620002c081620002a1565b8114620002cc57600080fd5b50565b600081519050620002e081620002b5565b92915050565b6000806000606084860312156200030257620003016200027c565b5b60006200031286828701620002cf565b93505060206200032586828701620002cf565b92505060406200033886828701620002cf565b9150509250925092565b6200034d81620002a1565b82525050565b60006020820190506200036a600083018462000342565b92915050565b60805160a05160c0516131a86200041060003960008181610e330152611082015260008181610463015281816104ab01528181610504015281816105d901528181610c1b01528181610c6501528181610cbc01528181610d1501528181610ef901528181610f4301528181610f9a015281816111d0015281816112270152818161127e01526113530152600081816101fd01526106ae01526131a86000f3fe60806040523480156200001157600080fd5b5060043610620000ac5760003560e01c8063a9e11893116200006f578063a9e118931462000143578063ac9a3db31462000163578063ccc06fe51462000183578063e290863414620001b9578063f2fde38b14620001d957620000ac565b80632d6b3a6b14620000b157806351e2d7b514620000d3578063715018a614620000f3578063893d20e814620000ff5780638da5cb5b1462000121575b600080fd5b620000bb620001f9565b604051620000ca919062001574565b60405180910390f35b620000f16004803603810190620000eb91906200161f565b62000221565b005b620000fd6200024f565b005b6200010962000267565b60405162000118919062001574565b60405180910390f35b6200012b62000291565b6040516200013a919062001574565b60405180910390f35b6200016160048036038101906200015b9190620017c8565b620002ba565b005b6200018160048036038101906200017b919062001857565b62000373565b005b620001a160048036038101906200019b9190620018bd565b62000420565b604051620001b0919062001574565b60405180910390f35b620001d76004803603810190620001d19190620017c8565b6200045d565b005b620001f76004803603810190620001f1919062001920565b62000822565b005b60007f0000000000000000000000000000000000000000000000000000000000000000905090565b6200022b620008ac565b80600460008461ffff1661ffff168152602001908152602001600020819055505050565b62000259620008ac565b62000265600062000931565b565b6000600260009054906101000a900473ffffffffffffffffffffffffffffffffffffffff16905090565b60008060009054906101000a900473ffffffffffffffffffffffffffffffffffffffff16905090565b6000600160009054906101000a900473ffffffffffffffffffffffffffffffffffffffff1673ffffffffffffffffffffffffffffffffffffffff1663a9e11893836040518263ffffffff1660e01b8152600401620003199190620019db565b600060405180830381865afa15801562000337573d6000803e3d6000fd5b505050506040513d6000823e3d601f19601f8201168201806040525081019062000362919062001e17565b90506200036f81620009f5565b5050565b600160009054906101000a900473ffffffffffffffffffffffffffffffffffffffff1673ffffffffffffffffffffffffffffffffffffffff1663b19a437e828460006040518463ffffffff1660e01b8152600401620003d59392919062001eee565b6020604051808303816000875af1158015620003f5573d6000803e3d6000fd5b505050506040513d601f19601f820116820180604052508101906200041b919062001f32565b505050565b60006003600083815260200190815260200160002060009054906101000a900473ffffffffffffffffffffffffffffffffffffffff169050919050565b600060017f00000000000000000000000000000000000000000000000000000000000000006200048e919062001f9d565b90506000620004a7828462000ba390919063ffffffff16565b90507f00000000000000000000000000000000000000000000000000000000000000006020620004d8919062001f9d565b82620004e5919062001f9d565b91506000620004fe838562000ba390919063ffffffff16565b905060207f00000000000000000000000000000000000000000000000000000000000000006200052f919062001f9d565b836200053c919062001f9d565b9250600062000555848662000ba390919063ffffffff16565b73__Bytes32Lib____________________________635ced058e90916040518263ffffffff1660e01b81526004016200058f919062001fe9565b602060405180830381865af4158015620005ad573d6000803e3d6000fd5b505050506040513d601f19601f82011682018060405250810190620005d391906200201d565b905060207f000000000000000000000000000000000000000000000000000000000000000062000604919062001f9d565b8462000611919062001f9d565b935060006200062a858762000ba390919063ffffffff16565b73__Bytes32Lib____________________________635ced058e90916040518263ffffffff1660e01b815260040162000664919062001fe9565b602060405180830381865af415801562000682573d6000803e3d6000fd5b505050506040513d601f19601f82011682018060405250810190620006a891906200201d565b905060007f0000000000000000000000000000000000000000000000000000000000000000634649977060e01b8686863087604051602401620006f095949392919062002060565b604051602081830303815290604052907bffffffffffffffffffffffffffffffffffffffffffffffffffffffff19166020820180517bffffffffffffffffffffffffffffffffffffffffffffffffffffffff83818316178352505050506040516200075b9062001521565b62000768929190620020bd565b604051809103906000f08015801562000785573d6000803e3d6000fd5b5090507f9099ae82a8175f9cad9ec57c0a752f8c8e49bdf09ecda4762af8d3bfd52d6ecf85858584604051620007bf9493929190620020f1565b60405180910390a1806003600087815260200190815260200160002060006101000a81548173ffffffffffffffffffffffffffffffffffffffff021916908373ffffffffffffffffffffffffffffffffffffffff16021790555050505050505050565b6200082c620008ac565b600073ffffffffffffffffffffffffffffffffffffffff168173ffffffffffffffffffffffffffffffffffffffff16036200089e576040517f08c379a00000000000000000000000000000000000000000000000000000000081526004016200089590620021c5565b60405180910390fd5b620008a98162000931565b50565b620008b662000c0f565b73ffffffffffffffffffffffffffffffffffffffff16620008d662000291565b73ffffffffffffffffffffffffffffffffffffffff16146200092f576040517f08c379a0000000000000000000000000000000000000000000000000000000008152600401620009269062002237565b60405180910390fd5b565b60008060009054906101000a900473ffffffffffffffffffffffffffffffffffffffff169050816000806101000a81548173ffffffffffffffffffffffffffffffffffffffff021916908373ffffffffffffffffffffffffffffffffffffffff1602179055508173ffffffffffffffffffffffffffffffffffffffff168173ffffffffffffffffffffffffffffffffffffffff167f8be0079c531659141344cd1fd0a4f28419497f9722a3daafe3b4186f6b6457e060405160405180910390a35050565b60008160e0015160008151811062000a125762000a1162002259565b5b602001015160f81c60f81b60f81c905060008160ff16600381111562000a3d5762000a3c62002288565b5b90506000600381111562000a565762000a5562002288565b5b81600381111562000a6c5762000a6b62002288565b5b0362000a875762000a818360e001516200045d565b62000b9e565b6002600381111562000a9e5762000a9d62002288565b5b81600381111562000ab45762000ab362002288565b5b0362000acf5762000ac98360e0015162000c17565b62000b9d565b60038081111562000ae55762000ae462002288565b5b81600381111562000afb5762000afa62002288565b5b0362000b165762000b108360e0015162000ef5565b62000b9c565b6001600381111562000b2d5762000b2c62002288565b5b81600381111562000b435762000b4262002288565b5b0362000b5e5762000b588360e00151620011b4565b62000b9b565b6040517f08c379a000000000000000000000000000000000000000000000000000000000815260040162000b929062002307565b60405180910390fd5b5b5b5b505050565b600060208262000bb4919062001f9d565b8351101562000bfa576040517f08c379a000000000000000000000000000000000000000000000000000000000815260040162000bf19062002379565b60405180910390fd5b60008260208501015190508091505092915050565b600033905090565b60007f0000000000000000000000000000000000000000000000000000000000000000600162000c48919062001f9d565b9050600062000c61828462000ba390919063ffffffff16565b90507f0000000000000000000000000000000000000000000000000000000000000000602062000c92919062001f9d565b8262000c9f919062001f9d565b9150600062000cb8838562000ba390919063ffffffff16565b90507f0000000000000000000000000000000000000000000000000000000000000000602062000ce9919062001f9d565b8362000cf6919062001f9d565b9250600062000d0f848662000ba390919063ffffffff16565b905060207f000000000000000000000000000000000000000000000000000000000000000062000d40919062001f9d565b8462000d4d919062001f9d565b9350600062000d66858762000ba390919063ffffffff16565b73__Bytes32Lib____________________________635ced058e90916040518263ffffffff1660e01b815260040162000da0919062001fe9565b602060405180830381865af415801562000dbe573d6000803e3d6000fd5b505050506040513d601f19601f8201168201806040525081019062000de491906200201d565b905060006003600084815260200190815260200160002060009054906101000a900473ffffffffffffffffffffffffffffffffffffffff16905060208662000e2d919062001f9d565b955060007f000000000000000000000000000000000000000000000000000000000000000062000e67888a62000ba390919063ffffffff16565b60001c62000e7691906200239b565b90508173ffffffffffffffffffffffffffffffffffffffff166363f668348685846040518463ffffffff1660e01b815260040162000eb7939291906200241c565b600060405180830381600087803b15801562000ed257600080fd5b505af115801562000ee7573d6000803e3d6000fd5b505050505050505050505050565b60007f0000000000000000000000000000000000000000000000000000000000000000600162000f26919062001f9d565b9050600062000f3f828462000ba390919063ffffffff16565b90507f0000000000000000000000000000000000000000000000000000000000000000602062000f70919062001f9d565b8262000f7d919062001f9d565b9150600062000f96838562000ba390919063ffffffff16565b90507f0000000000000000000000000000000000000000000000000000000000000000602062000fc7919062001f9d565b8362000fd4919062001f9d565b9250600062000fed848662000ba390919063ffffffff16565b73__Bytes32Lib____________________________635ced058e90916040518263ffffffff1660e01b815260040162001027919062001fe9565b602060405180830381865af415801562001045573d6000803e3d6000fd5b505050506040513d601f19601f820116820180604052508101906200106b91906200201d565b90506020846200107c919062001f9d565b935060007f0000000000000000000000000000000000000000000000000000000000000000620010b6868862000ba390919063ffffffff16565b60001c620010c591906200239b565b905060006003600085815260200190815260200160002060009054906101000a900473ffffffffffffffffffffffffffffffffffffffff1690508073ffffffffffffffffffffffffffffffffffffffff1663990dc9db84846040518363ffffffff1660e01b81526004016200113c92919062002459565b600060405180830381600087803b1580156200115757600080fd5b505af11580156200116c573d6000803e3d6000fd5b505050507fc95f8b91b103304386b955ef73fadac189f8ad66b33369b6c34a17a60db7bd0a8383604051620011a392919062002486565b60405180910390a150505050505050565b600080620011cc8284620014b590919063ffffffff16565b90507f00000000000000000000000000000000000000000000000000000000000000006001620011fd919062001f9d565b826200120a919062001f9d565b9150600062001223838562000ba390919063ffffffff16565b90507f0000000000000000000000000000000000000000000000000000000000000000602062001254919062001f9d565b8362001261919062001f9d565b925060006200127a848662000ba390919063ffffffff16565b90507f00000000000000000000000000000000000000000000000000000000000000006020620012ab919062001f9d565b84620012b8919062001f9d565b93506000620012d1858762000ba390919063ffffffff16565b73__Bytes32Lib____________________________635ced058e90916040518263ffffffff1660e01b81526004016200130b919062001fe9565b602060405180830381865af415801562001329573d6000803e3d6000fd5b505050506040513d601f19601f820116820180604052508101906200134f91906200201d565b90507f0000000000000000000000000000000000000000000000000000000000000000602062001380919062001f9d565b856200138d919062001f9d565b945060006003600085815260200190815260200160002060009054906101000a900473ffffffffffffffffffffffffffffffffffffffff1690508073ffffffffffffffffffffffffffffffffffffffff1663fb1d97dc60405180608001604052808860ff1681526020018781526020018681526020018573ffffffffffffffffffffffffffffffffffffffff168152506040518263ffffffff1660e01b81526004016200143b919062002543565b600060405180830381600087803b1580156200145657600080fd5b505af11580156200146b573d6000803e3d6000fd5b505050507f783b09b8e9efccd70dd777755a66da9a5a3a6be7c7f8d4e92a8c25357b07f848848484604051620014a49392919062002560565b60405180910390a150505050505050565b6000600182620014c6919062001f9d565b835110156200150c576040517f08c379a00000000000000000000000000000000000000000000000000000000081526004016200150390620025ed565b60405180910390fd5b60008260018501015190508091505092915050565b610b63806200261083390190565b600073ffffffffffffffffffffffffffffffffffffffff82169050919050565b60006200155c826200152f565b9050919050565b6200156e816200154f565b82525050565b60006020820190506200158b600083018462001563565b92915050565b6000604051905090565b600080fd5b600080fd5b600061ffff82169050919050565b620015be81620015a5565b8114620015ca57600080fd5b50565b600081359050620015de81620015b3565b92915050565b6000819050919050565b620015f981620015e4565b81146200160557600080fd5b50565b6000813590506200161981620015ee565b92915050565b600080604083850312156200163957620016386200159b565b5b60006200164985828601620015cd565b92505060206200165c8582860162001608565b9150509250929050565b600080fd5b600080fd5b6000601f19601f8301169050919050565b7f4e487b7100000000000000000000000000000000000000000000000000000000600052604160045260246000fd5b620016bb8262001670565b810181811067ffffffffffffffff82111715620016dd57620016dc62001681565b5b80604052505050565b6000620016f262001591565b9050620017008282620016b0565b919050565b600067ffffffffffffffff82111562001723576200172262001681565b5b6200172e8262001670565b9050602081019050919050565b82818337600083830152505050565b6000620017616200175b8462001705565b620016e6565b90508281526020810184848401111562001780576200177f6200166b565b5b6200178d8482856200173b565b509392505050565b600082601f830112620017ad57620017ac62001666565b5b8135620017bf8482602086016200174a565b91505092915050565b600060208284031215620017e157620017e06200159b565b5b600082013567ffffffffffffffff811115620018025762001801620015a0565b5b620018108482850162001795565b91505092915050565b600060ff82169050919050565b620018318162001819565b81146200183d57600080fd5b50565b600081359050620018518162001826565b92915050565b600080604083850312156200187157620018706200159b565b5b600083013567ffffffffffffffff811115620018925762001891620015a0565b5b620018a08582860162001795565b9250506020620018b38582860162001840565b9150509250929050565b600060208284031215620018d657620018d56200159b565b5b6000620018e68482850162001608565b91505092915050565b620018fa816200154f565b81146200190657600080fd5b50565b6000813590506200191a81620018ef565b92915050565b6000602082840312156200193957620019386200159b565b5b6000620019498482850162001909565b91505092915050565b600081519050919050565b600082825260208201905092915050565b60005b838110156200198e57808201518184015260208101905062001971565b60008484015250505050565b6000620019a78262001952565b620019b381856200195d565b9350620019c58185602086016200196e565b620019d08162001670565b840191505092915050565b60006020820190508181036000830152620019f781846200199a565b905092915050565b600080fd5b600080fd5b60008151905062001a1a8162001826565b92915050565b600063ffffffff82169050919050565b62001a3b8162001a20565b811462001a4757600080fd5b50565b60008151905062001a5b8162001a30565b92915050565b60008151905062001a7281620015b3565b92915050565b60008151905062001a8981620015ee565b92915050565b600067ffffffffffffffff82169050919050565b62001aae8162001a8f565b811462001aba57600080fd5b50565b60008151905062001ace8162001aa3565b92915050565b600062001aeb62001ae58462001705565b620016e6565b90508281526020810184848401111562001b0a5762001b096200166b565b5b62001b178482856200196e565b509392505050565b600082601f83011262001b375762001b3662001666565b5b815162001b4984826020860162001ad4565b91505092915050565b600067ffffffffffffffff82111562001b705762001b6f62001681565b5b602082029050602081019050919050565b600080fd5b60006080828403121562001b9f5762001b9e620019ff565b5b62001bab6080620016e6565b9050600062001bbd8482850162001a78565b600083015250602062001bd38482850162001a78565b602083015250604062001be98482850162001a09565b604083015250606062001bff8482850162001a09565b60608301525092915050565b600062001c2262001c1c8462001b52565b620016e6565b9050808382526020820190506080840283018581111562001c485762001c4762001b81565b5b835b8181101562001c75578062001c60888262001b86565b84526020840193505060808101905062001c4a565b5050509392505050565b600082601f83011262001c975762001c9662001666565b5b815162001ca984826020860162001c0b565b91505092915050565b6000610160828403121562001ccc5762001ccb620019ff565b5b62001cd9610160620016e6565b9050600062001ceb8482850162001a09565b600083015250602062001d018482850162001a4a565b602083015250604062001d178482850162001a4a565b604083015250606062001d2d8482850162001a61565b606083015250608062001d438482850162001a78565b60808301525060a062001d598482850162001abd565b60a08301525060c062001d6f8482850162001a09565b60c08301525060e082015167ffffffffffffffff81111562001d965762001d9562001a04565b5b62001da48482850162001b1f565b60e08301525061010062001dbb8482850162001a4a565b6101008301525061012082015167ffffffffffffffff81111562001de45762001de362001a04565b5b62001df28482850162001c7f565b6101208301525061014062001e0a8482850162001a78565b6101408301525092915050565b60006020828403121562001e305762001e2f6200159b565b5b600082015167ffffffffffffffff81111562001e515762001e50620015a0565b5b62001e5f8482850162001cb2565b91505092915050565b6000819050919050565b600062001e9362001e8d62001e878462001819565b62001e68565b62001a20565b9050919050565b62001ea58162001e72565b82525050565b6000819050919050565b600062001ed662001ed062001eca8462001eab565b62001e68565b62001819565b9050919050565b62001ee88162001eb5565b82525050565b600060608201905062001f05600083018662001e9a565b818103602083015262001f1981856200199a565b905062001f2a604083018462001edd565b949350505050565b60006020828403121562001f4b5762001f4a6200159b565b5b600062001f5b8482850162001abd565b91505092915050565b6000819050919050565b7f4e487b7100000000000000000000000000000000000000000000000000000000600052601160045260246000fd5b600062001faa8262001f64565b915062001fb78362001f64565b925082820190508082111562001fd25762001fd162001f6e565b5b92915050565b62001fe381620015e4565b82525050565b600060208201905062002000600083018462001fd8565b92915050565b6000815190506200201781620018ef565b92915050565b6000602082840312156200203657620020356200159b565b5b6000620020468482850162002006565b91505092915050565b6200205a81620015e4565b82525050565b600060a0820190506200207760008301886200204f565b6200208660208301876200204f565b62002095604083018662001563565b620020a4606083018562001563565b620020b3608083018462001563565b9695505050505050565b6000604082019050620020d4600083018562001563565b8181036020830152620020e881846200199a565b90509392505050565b60006080820190506200210860008301876200204f565b6200211760208301866200204f565b62002126604083018562001563565b62002135606083018462001563565b95945050505050565b600082825260208201905092915050565b7f4f776e61626c653a206e6577206f776e657220697320746865207a65726f206160008201527f6464726573730000000000000000000000000000000000000000000000000000602082015250565b6000620021ad6026836200213e565b9150620021ba826200214f565b604082019050919050565b60006020820190508181036000830152620021e0816200219e565b9050919050565b7f4f776e61626c653a2063616c6c6572206973206e6f7420746865206f776e6572600082015250565b60006200221f6020836200213e565b91506200222c82620021e7565b602082019050919050565b60006020820190508181036000830152620022528162002210565b9050919050565b7f4e487b7100000000000000000000000000000000000000000000000000000000600052603260045260246000fd5b7f4e487b7100000000000000000000000000000000000000000000000000000000600052602160045260246000fd5b7f556e737570706f7274656420554e51576f726d686f6c6520616374696f6e0000600082015250565b6000620022ef601e836200213e565b9150620022fc82620022b7565b602082019050919050565b600060208201905081810360008301526200232281620022e0565b9050919050565b7f746f427974657333325f6f75744f66426f756e64730000000000000000000000600082015250565b6000620023616015836200213e565b91506200236e8262002329565b602082019050919050565b60006020820190508181036000830152620023948162002352565b9050919050565b6000620023a88262001f64565b9150620023b58362001f64565b9250828202620023c58162001f64565b91508282048414831517620023df57620023de62001f6e565b5b5092915050565b6000620023f3826200152f565b9050919050565b6200240581620023e6565b82525050565b620024168162001f64565b82525050565b60006060820190506200243360008301866200204f565b620024426020830185620023fa565b6200245160408301846200240b565b949350505050565b6000604082019050620024706000830185620023fa565b6200247f60208301846200240b565b9392505050565b60006040820190506200249d600083018562001563565b620024ac60208301846200240b565b9392505050565b620024be8162001819565b82525050565b620024cf81620015e4565b82525050565b620024e0816200154f565b82525050565b608082016000820151620024fe6000850182620024b3565b506020820151620025136020850182620024c4565b506040820151620025286040850182620024c4565b5060608201516200253d6060850182620024d5565b50505050565b60006080820190506200255a6000830184620024e6565b92915050565b60006060820190506200257760008301866200204f565b6200258660208301856200204f565b62002595604083018462001563565b949350505050565b7f746f55696e74385f6f75744f66426f756e647300000000000000000000000000600082015250565b6000620025d56013836200213e565b9150620025e2826200259d565b602082019050919050565b600060208201905081810360008301526200260881620025c6565b905091905056fe608060405260405162000b6338038062000b638339818101604052810190610027919061063b565b6100398282600061004060201b60201c565b5050610929565b61004f8361012960201b60201c565b8273ffffffffffffffffffffffffffffffffffffffff167f1cf3b03a6cf19fa2baba4df148e9dcabedea7f8a5c07840e207e5c089be95d3e60405160405180910390a260008251118061009f5750805b15610124576101228373ffffffffffffffffffffffffffffffffffffffff16635c60da1b6040518163ffffffff1660e01b8152600401602060405180830381865afa1580156100f2573d6000803e3d6000fd5b505050506040513d601f19601f820116820180604052508101906101169190610697565b836102aa60201b60201c565b505b505050565b610138816102de60201b60201c565b610177576040517f08c379a000000000000000000000000000000000000000000000000000000000815260040161016e90610747565b60405180910390fd5b6101f48173ffffffffffffffffffffffffffffffffffffffff16635c60da1b6040518163ffffffff1660e01b8152600401602060405180830381865afa1580156101c5573d6000803e3d6000fd5b505050506040513d601f19601f820116820180604052508101906101e99190610697565b6102de60201b60201c565b610233576040517f08c379a000000000000000000000000000000000000000000000000000000000815260040161022a906107d9565b60405180910390fd5b806102667fa3f0ad74e5423aebfd80d3ef4346578335a9a72aeaee59ff6cb3582b35133d5060001b61030160201b60201c565b60000160006101000a81548173ffffffffffffffffffffffffffffffffffffffff021916908373ffffffffffffffffffffffffffffffffffffffff16021790555050565b60606102d6838360405180606001604052806027815260200162000b3c6027913961030b60201b60201c565b905092915050565b6000808273ffffffffffffffffffffffffffffffffffffffff163b119050919050565b6000819050919050565b60606000808573ffffffffffffffffffffffffffffffffffffffff16856040516103359190610840565b600060405180830381855af49150503d8060008114610370576040519150601f19603f3d011682016040523d82523d6000602084013e610375565b606091505b509150915061038c8683838761039760201b60201c565b925050509392505050565b606083156103ff5760008351036103f7576103b7856102de60201b60201c565b6103f6576040517f08c379a00000000000000000000000000000000000000000000000000000000081526004016103ed906108a3565b60405180910390fd5b5b829050610410565b61040f838361041860201b60201c565b5b949350505050565b60008251111561042b5781518083602001fd5b806040517f08c379a000000000000000000000000000000000000000000000000000000000815260040161045f9190610907565b60405180910390fd5b6000604051905090565b600080fd5b600080fd5b600073ffffffffffffffffffffffffffffffffffffffff82169050919050565b60006104a78261047c565b9050919050565b6104b78161049c565b81146104c257600080fd5b50565b6000815190506104d4816104ae565b92915050565b600080fd5b600080fd5b6000601f19601f8301169050919050565b7f4e487b7100000000000000000000000000000000000000000000000000000000600052604160045260246000fd5b61052d826104e4565b810181811067ffffffffffffffff8211171561054c5761054b6104f5565b5b80604052505050565b600061055f610468565b905061056b8282610524565b919050565b600067ffffffffffffffff82111561058b5761058a6104f5565b5b610594826104e4565b9050602081019050919050565b60005b838110156105bf5780820151818401526020810190506105a4565b60008484015250505050565b60006105de6105d984610570565b610555565b9050828152602081018484840111156105fa576105f96104df565b5b6106058482856105a1565b509392505050565b600082601f830112610622576106216104da565b5b81516106328482602086016105cb565b91505092915050565b6000806040838503121561065257610651610472565b5b6000610660858286016104c5565b925050602083015167ffffffffffffffff81111561068157610680610477565b5b61068d8582860161060d565b9150509250929050565b6000602082840312156106ad576106ac610472565b5b60006106bb848285016104c5565b91505092915050565b600082825260208201905092915050565b7f455243313936373a206e657720626561636f6e206973206e6f74206120636f6e60008201527f7472616374000000000000000000000000000000000000000000000000000000602082015250565b60006107316025836106c4565b915061073c826106d5565b604082019050919050565b6000602082019050818103600083015261076081610724565b9050919050565b7f455243313936373a20626561636f6e20696d706c656d656e746174696f6e206960008201527f73206e6f74206120636f6e747261637400000000000000000000000000000000602082015250565b60006107c36030836106c4565b91506107ce82610767565b604082019050919050565b600060208201905081810360008301526107f2816107b6565b9050919050565b600081519050919050565b600081905092915050565b600061081a826107f9565b6108248185610804565b93506108348185602086016105a1565b80840191505092915050565b600061084c828461080f565b915081905092915050565b7f416464726573733a2063616c6c20746f206e6f6e2d636f6e7472616374000000600082015250565b600061088d601d836106c4565b915061089882610857565b602082019050919050565b600060208201905081810360008301526108bc81610880565b9050919050565b600081519050919050565b60006108d9826108c3565b6108e381856106c4565b93506108f38185602086016105a1565b6108fc816104e4565b840191505092915050565b6000602082019050818103600083015261092181846108ce565b905092915050565b61020380620009396000396000f3fe6080604052366100135761001161001d565b005b61001b61001d565b005b610025610037565b610035610030610039565b6100b6565b565b565b60006100436100dc565b73ffffffffffffffffffffffffffffffffffffffff16635c60da1b6040518163ffffffff1660e01b8152600401602060405180830381865afa15801561008d573d6000803e3d6000fd5b505050506040513d601f19601f820116820180604052508101906100b191906101a0565b905090565b3660008037600080366000845af43d6000803e80600081146100d7573d6000f35b3d6000fd5b600061010a7fa3f0ad74e5423aebfd80d3ef4346578335a9a72aeaee59ff6cb3582b35133d5060001b610133565b60000160009054906101000a900473ffffffffffffffffffffffffffffffffffffffff16905090565b6000819050919050565b600080fd5b600073ffffffffffffffffffffffffffffffffffffffff82169050919050565b600061016d82610142565b9050919050565b61017d81610162565b811461018857600080fd5b50565b60008151905061019a81610174565b92915050565b6000602082840312156101b6576101b561013d565b5b60006101c48482850161018b565b9150509291505056fea2646970667358221220348a9bb9eb66b9d9029e4a97e3a702bb6010d5650cbfe8ab3f629695f291a1dc64736f6c63430008130033416464726573733a206c6f772d6c6576656c2064656c65676174652063616c6c206661696c6564a2646970667358221220279b022d8ee6725609e5e2af5bfb370647e2bae9e79b847e3dda06dd77eaa54664736f6c6343000813003360a060405234801561001057600080fd5b5060405161139138038061139183398181016040528101906100329190610238565b61004e6100436100fc60201b60201c565b61010460201b60201c565b8060405161005b906101c8565b6100659190610274565b604051809103906000f080158015610081573d6000803e3d6000fd5b5073ffffffffffffffffffffffffffffffffffffffff1660808173ffffffffffffffffffffffffffffffffffffffff168152505032600160006101000a81548173ffffffffffffffffffffffffffffffffffffffff021916908373ffffffffffffffffffffffffffffffffffffffff1602179055505061028f565b600033905090565b60008060009054906101000a900473ffffffffffffffffffffffffffffffffffffffff169050816000806101000a81548173ffffffffffffffffffffffffffffffffffffffff021916908373ffffffffffffffffffffffffffffffffffffffff1602179055508173ffffffffffffffffffffffffffffffffffffffff168173ffffffffffffffffffffffffffffffffffffffff167f8be0079c531659141344cd1fd0a4f28419497f9722a3daafe3b4186f6b6457e060405160405180910390a35050565b6109cb806109c683390190565b600080fd5b600073ffffffffffffffffffffffffffffffffffffffff82169050919050565b6000610205826101da565b9050919050565b610215816101fa565b811461022057600080fd5b50565b6000815190506102328161020c565b92915050565b60006020828403121561024e5761024d6101d5565b5b600061025c84828501610223565b91505092915050565b61026e816101fa565b82525050565b60006020820190506102896000830184610265565b92915050565b60805161070e6102b860003960008181610105015281816101a1015261024b015261070e6000f3fe608060405234801561001057600080fd5b50600436106100625760003560e01c80635c60da1b146100675780636095b4b014610085578063715018a6146100a15780637792c319146100ab5780638da5cb5b146100c7578063f2fde38b146100e5575b600080fd5b61006f610101565b60405161007c919061050e565b60405180910390f35b61009f600480360381019061009a919061055a565b610197565b005b6100a961022d565b005b6100c560048036038101906100c0919061055a565b610241565b005b6100cf6102d7565b6040516100dc919061050e565b60405180910390f35b6100ff60048036038101906100fa919061055a565b610300565b005b60007f000000000000000000000000000000000000000000000000000000000000000073ffffffffffffffffffffffffffffffffffffffff16635c60da1b6040518163ffffffff1660e01b8152600401602060405180830381865afa15801561016e573d6000803e3d6000fd5b505050506040513d601f19601f82011682018060405250810190610192919061059c565b905090565b61019f610383565b7f000000000000000000000000000000000000000000000000000000000000000073ffffffffffffffffffffffffffffffffffffffff1663f2fde38b826040518263ffffffff1660e01b81526004016101f8919061050e565b600060405180830381600087803b15801561021257600080fd5b505af1158015610226573d6000803e3d6000fd5b5050505050565b610235610383565b61023f6000610401565b565b610249610383565b7f000000000000000000000000000000000000000000000000000000000000000073ffffffffffffffffffffffffffffffffffffffff16633659cfe6826040518263ffffffff1660e01b81526004016102a2919061050e565b600060405180830381600087803b1580156102bc57600080fd5b505af11580156102d0573d6000803e3d6000fd5b5050505050565b60008060009054906101000a900473ffffffffffffffffffffffffffffffffffffffff16905090565b610308610383565b600073ffffffffffffffffffffffffffffffffffffffff168173ffffffffffffffffffffffffffffffffffffffff1603610377576040517f08c379a000000000000000000000000000000000000000000000000000000000815260040161036e9061064c565b60405180910390fd5b61038081610401565b50565b61038b6104c5565b73ffffffffffffffffffffffffffffffffffffffff166103a96102d7565b73ffffffffffffffffffffffffffffffffffffffff16146103ff576040517f08c379a00000000000000000000000000000000000000000000000000000000081526004016103f6906106b8565b60405180910390fd5b565b60008060009054906101000a900473ffffffffffffffffffffffffffffffffffffffff169050816000806101000a81548173ffffffffffffffffffffffffffffffffffffffff021916908373ffffffffffffffffffffffffffffffffffffffff1602179055508173ffffffffffffffffffffffffffffffffffffffff168173ffffffffffffffffffffffffffffffffffffffff167f8be0079c531659141344cd1fd0a4f28419497f9722a3daafe3b4186f6b6457e060405160405180910390a35050565b600033905090565b600073ffffffffffffffffffffffffffffffffffffffff82169050919050565b60006104f8826104cd565b9050919050565b610508816104ed565b82525050565b600060208201905061052360008301846104ff565b92915050565b600080fd5b610537816104ed565b811461054257600080fd5b50565b6000813590506105548161052e565b92915050565b6000602082840312156105705761056f610529565b5b600061057e84828501610545565b91505092915050565b6000815190506105968161052e565b92915050565b6000602082840312156105b2576105b1610529565b5b60006105c084828501610587565b91505092915050565b600082825260208201905092915050565b7f4f776e61626c653a206e6577206f776e657220697320746865207a65726f206160008201527f6464726573730000000000000000000000000000000000000000000000000000602082015250565b60006106366026836105c9565b9150610641826105da565b604082019050919050565b6000602082019050818103600083015261066581610629565b9050919050565b7f4f776e61626c653a2063616c6c6572206973206e6f7420746865206f776e6572600082015250565b60006106a26020836105c9565b91506106ad8261066c565b602082019050919050565b600060208201905081810360008301526106d181610695565b905091905056fea2646970667358221220e391bc89310341a91170c27326c556a10b7fe725a2177cf3d4b7ca33c91dbc1e64736f6c63430008130033608060405234801561001057600080fd5b506040516109cb3803806109cb83398181016040528101906100329190610247565b61004e61004361006360201b60201c565b61006b60201b60201c565b61005d8161012f60201b60201c565b50610317565b600033905090565b60008060009054906101000a900473ffffffffffffffffffffffffffffffffffffffff169050816000806101000a81548173ffffffffffffffffffffffffffffffffffffffff021916908373ffffffffffffffffffffffffffffffffffffffff1602179055508173ffffffffffffffffffffffffffffffffffffffff168173ffffffffffffffffffffffffffffffffffffffff167f8be0079c531659141344cd1fd0a4f28419497f9722a3daafe3b4186f6b6457e060405160405180910390a35050565b61013e816101c160201b60201c565b61017d576040517f08c379a0000000000000000000000000000000000000000000000000000000008152600401610174906102f7565b60405180910390fd5b80600160006101000a81548173ffffffffffffffffffffffffffffffffffffffff021916908373ffffffffffffffffffffffffffffffffffffffff16021790555050565b6000808273ffffffffffffffffffffffffffffffffffffffff163b119050919050565b600080fd5b600073ffffffffffffffffffffffffffffffffffffffff82169050919050565b6000610214826101e9565b9050919050565b61022481610209565b811461022f57600080fd5b50565b6000815190506102418161021b565b92915050565b60006020828403121561025d5761025c6101e4565b5b600061026b84828501610232565b91505092915050565b600082825260208201905092915050565b7f5570677261646561626c65426561636f6e3a20696d706c656d656e746174696f60008201527f6e206973206e6f74206120636f6e747261637400000000000000000000000000602082015250565b60006102e1603383610274565b91506102ec82610285565b604082019050919050565b60006020820190508181036000830152610310816102d4565b9050919050565b6106a5806103266000396000f3fe608060405234801561001057600080fd5b50600436106100575760003560e01c80633659cfe61461005c5780635c60da1b14610078578063715018a6146100965780638da5cb5b146100a0578063f2fde38b146100be575b600080fd5b61007660048036038101906100719190610477565b6100da565b005b610080610131565b60405161008d91906104b3565b60405180910390f35b61009e61015b565b005b6100a861016f565b6040516100b591906104b3565b60405180910390f35b6100d860048036038101906100d39190610477565b610198565b005b6100e261021b565b6100eb81610299565b8073ffffffffffffffffffffffffffffffffffffffff167fbc7cd75a20ee27fd9adebab32041f755214dbc6bffa90cc0225b39da2e5c2d3b60405160405180910390a250565b6000600160009054906101000a900473ffffffffffffffffffffffffffffffffffffffff16905090565b61016361021b565b61016d6000610325565b565b60008060009054906101000a900473ffffffffffffffffffffffffffffffffffffffff16905090565b6101a061021b565b600073ffffffffffffffffffffffffffffffffffffffff168173ffffffffffffffffffffffffffffffffffffffff160361020f576040517f08c379a000000000000000000000000000000000000000000000000000000000815260040161020690610551565b60405180910390fd5b61021881610325565b50565b6102236103e9565b73ffffffffffffffffffffffffffffffffffffffff1661024161016f565b73ffffffffffffffffffffffffffffffffffffffff1614610297576040517f08c379a000000000000000000000000000000000000000000000000000000000815260040161028e906105bd565b60405180910390fd5b565b6102a2816103f1565b6102e1576040517f08c379a00000000000000000000000000000000000000000000000000000000081526004016102d89061064f565b60405180910390fd5b80600160006101000a81548173ffffffffffffffffffffffffffffffffffffffff021916908373ffffffffffffffffffffffffffffffffffffffff16021790555050565b60008060009054906101000a900473ffffffffffffffffffffffffffffffffffffffff169050816000806101000a81548173ffffffffffffffffffffffffffffffffffffffff021916908373ffffffffffffffffffffffffffffffffffffffff1602179055508173ffffffffffffffffffffffffffffffffffffffff168173ffffffffffffffffffffffffffffffffffffffff167f8be0079c531659141344cd1fd0a4f28419497f9722a3daafe3b4186f6b6457e060405160405180910390a35050565b600033905090565b6000808273ffffffffffffffffffffffffffffffffffffffff163b119050919050565b600080fd5b600073ffffffffffffffffffffffffffffffffffffffff82169050919050565b600061044482610419565b9050919050565b61045481610439565b811461045f57600080fd5b50565b6000813590506104718161044b565b92915050565b60006020828403121561048d5761048c610414565b5b600061049b84828501610462565b91505092915050565b6104ad81610439565b82525050565b60006020820190506104c860008301846104a4565b92915050565b600082825260208201905092915050565b7f4f776e61626c653a206e6577206f776e657220697320746865207a65726f206160008201527f6464726573730000000000000000000000000000000000000000000000000000602082015250565b600061053b6026836104ce565b9150610546826104df565b604082019050919050565b6000602082019050818103600083015261056a8161052e565b9050919050565b7f4f776e61626c653a2063616c6c6572206973206e6f7420746865206f776e6572600082015250565b60006105a76020836104ce565b91506105b282610571565b602082019050919050565b600060208201905081810360008301526105d68161059a565b9050919050565b7f5570677261646561626c65426561636f6e3a20696d706c656d656e746174696f60008201527f6e206973206e6f74206120636f6e747261637400000000000000000000000000602082015250565b60006106396033836104ce565b9150610644826105dd565b604082019050919050565b600060208201905081810360008301526106688161062c565b905091905056fea2646970667358221220d69e8e92745809479f1c6b08924400c32c983dee1e3e2b7fc8f8a6fba4e444d264736f6c63430008130033",
  "immutableReferences": {
    "2845": [
      {
        "length": 32,
        "start": 509
      },
      {
        "length": 32,
        "start": 1710
      }
    ],
    "2864": [
      {
        "length": 32,
        "start": 1123
      },
      {
        "length": 32,
        "start": 1195
      },
      {
        "length": 32,
        "start": 1284
      },
      {
        "length": 32,
        "start": 1497
      },
      {
        "length": 32,
        "start": 3099
      },
      {
        "length": 32,
        "start": 3173
      },
      {
        "length": 32,
        "start": 3260
      },
      {
        "length": 32,
        "start": 3349
      },
      {
        "length": 32,
        "start": 3833
      },
      {
        "length": 32,
        "start": 3907
      },
      {
        "length": 32,
        "start": 3994
      },
      {
        "length": 32,
        "start": 4560
      },
      {
        "length": 32,
        "start": 4647
      },
      {
        "length": 32,
        "start": 4734
      },
      {
        "length": 32,
        "start": 4947
      }
    ],
    "2867": [
      {
        "length": 32,
        "start": 3635
      },
      {
        "length": 32,
        "start": 4226
      }
    ]
  },
  "source": "// SPDX-License-Identifier: Apache 2\npragma solidity ^0.8.19;\n\nimport \"../interface/IWormhole.sol\";\nimport \"../structs/UnqWormholeStructs.sol\";\nimport \"@openzeppelin/contracts/access/Ownable.sol\";\nimport \"@openzeppelin/contracts/proxy/beacon/BeaconProxy.sol\";\nimport \"./WormholeUnqBeacon.sol\";\nimport \"../libraries/BytesLib.sol\";\nimport \"../libraries/Bytes32Lib.sol\";\nimport \"../Treasury/UnqTreasury.sol\";\n\npragma experimental ABIEncoderV2;\n\ncontract WormholeUnq is UnqWormholeStructs, Ownable {\n    using BytesLib for bytes;\n    using Bytes32Lib for bytes32;\n\n    IWormhole core_contract;\n    address _owner;\n    WormholeUnqBeacon immutable _unqBeacon;\n    mapping(bytes32 => address) _treasuries;\n    mapping(uint16 => bytes32) _bridgeContracts;\n    address _relayerSigner;\n\n    event TransferFunds(address, uint256);\n\n    uint256 immutable CHAIN_ID_PAD = 4;\n    uint256 immutable CURRENCY_DIVIDER = 1000000000;\n\n    constructor(\n        address treasuryImplementation,\n        address relayerSigner,\n        address wormholeBridgeContract\n    ) {\n        core_contract = IWormhole(wormholeBridgeContract);\n        _owner = msg.sender;\n        _unqBeacon = new WormholeUnqBeacon(treasuryImplementation);\n        _relayerSigner = relayerSigner;\n    }\n\n    modifier onlyRegisteredContract(IWormhole.VM memory vm) {\n        bytes32 registeredChain = _bridgeContracts[vm.emitterChainId];\n        require(vm.emitterAddress == registeredChain, \"Wrong emitter address\");\n        _;\n    }\n\n    event TreasuryCreatedEvent(bytes32, bytes32, address, address);\n    event MemberEvent(bytes32, bytes32, address);\n\n    function parseVM(bytes memory encodedVM) public {\n        IWormhole.VM memory vm = core_contract.parseVM(encodedVM);\n\n        getActionFromPayload(vm);\n    }\n\n    function registerContract(\n        uint16 chainId,\n        bytes32 bridgeContractAddress\n    ) public onlyOwner {\n        _bridgeContracts[chainId] = bridgeContractAddress;\n    }\n\n    //TODO:add modifier for only registered contracts\n    function getActionFromPayload(IWormhole.VM memory vm) private {\n        uint8 actionBytes = uint8(vm.payload[0]);\n\n        UnqWormholeAction action = UnqWormholeAction(actionBytes);\n        if (action == UnqWormholeAction.CreateTreasury) {\n            createEthTreasury(vm.payload);\n        } else if (action == UnqWormholeAction.WithdrawFunds) {\n            claimFunds(vm.payload);\n        } else if (action == UnqWormholeAction.TransferFunds) {\n            transferFunds(vm.payload);\n        } else if (action == UnqWormholeAction.AddMember) {\n            addMember(vm.payload);\n        } else {\n            revert(\"Unsupported UNQWormhole action\");\n        }\n    }\n\n    function createEthTreasury(bytes memory vm) public {\n        uint256 index = CHAIN_ID_PAD + 1;\n        bytes32 realmAddress = vm.toBytes32(index);\n        index += 32 + CHAIN_ID_PAD;\n        bytes32 treasuryAuthority = vm.toBytes32(index);\n        index += CHAIN_ID_PAD + 32;\n        address denominatedCurrency = (vm.toBytes32(index)).bytes32ToAddress();\n        index += CHAIN_ID_PAD + 32;\n        address creator = (vm.toBytes32(index)).bytes32ToAddress();\n\n        BeaconProxy treasury = new BeaconProxy(\n            address(_unqBeacon),\n            abi.encodeWithSelector(\n                UnqTreasury(payable(address(0))).initialize.selector,\n                realmAddress,\n                treasuryAuthority,\n                denominatedCurrency,\n                address(this),\n                creator\n            )\n        );\n\n        emit TreasuryCreatedEvent(\n            realmAddress,\n            treasuryAuthority,\n            denominatedCurrency,\n            address(treasury)\n        );\n\n        _treasuries[realmAddress] = address(treasury);\n    }\n\n    function transferFunds(bytes memory payload) private {\n        uint256 index = 1 + CHAIN_ID_PAD;\n        bytes32 proposalAddress = payload.toBytes32(index);\n        index += 32 + CHAIN_ID_PAD;\n        bytes32 realmAddress = payload.toBytes32(index);\n        index += 32 + CHAIN_ID_PAD;\n        address destination = (payload.toBytes32(index)).bytes32ToAddress();\n        index += 32;\n\n        uint256 amount = uint256(payload.toBytes32(index)) * CURRENCY_DIVIDER;\n        UnqTreasury treasury = UnqTreasury(_treasuries[realmAddress]);\n        treasury.transferFunds(payable(destination), amount);\n        emit TransferFunds(destination, amount);\n    }\n\n    function claimFunds(bytes memory payload) private {\n        uint256 index = 1 + CHAIN_ID_PAD;\n        bytes32 proposalAddress = payload.toBytes32(index);\n        index += 32 + CHAIN_ID_PAD;\n        bytes32 solanaAddress = payload.toBytes32(index);\n        index += 32 + CHAIN_ID_PAD;\n        bytes32 clubAddress = payload.toBytes32(index);\n        index += CHAIN_ID_PAD + 32;\n        address ethAddress = (payload.toBytes32(index)).bytes32ToAddress();\n        UnqTreasury treasury = UnqTreasury(_treasuries[clubAddress]);\n        index += 32;\n        uint256 amount = uint256(payload.toBytes32(index)) * CURRENCY_DIVIDER;\n        treasury.claimReward(solanaAddress, payable(ethAddress), amount);\n    }\n\n    function addMember(bytes memory payload) private {\n        uint256 index = 0;\n        uint8 action = payload.toUint8(index);\n        index += 1 + CHAIN_ID_PAD;\n        bytes32 realmAddress = payload.toBytes32(index);\n        index += 32 + CHAIN_ID_PAD;\n        bytes32 solanaAddress = payload.toBytes32(index);\n        index += 32 + CHAIN_ID_PAD;\n        address ethAddress = (payload.toBytes32(index)).bytes32ToAddress();\n        index += 32 + CHAIN_ID_PAD;\n\n        UnqTreasury treasury = UnqTreasury(_treasuries[realmAddress]);\n        treasury.addNewMember(\n            UnqWormholeStructs.AddMemberAction(\n                action,\n                realmAddress,\n                solanaAddress,\n                ethAddress\n            )\n        );\n        emit MemberEvent(realmAddress, solanaAddress, ethAddress);\n    }\n\n    function getBeacon() public view returns (address) {\n        return address(_unqBeacon);\n    }\n\n    function getTreasury(\n        bytes32 realmAddress\n    ) public view returns (address treasury) {\n        return _treasuries[realmAddress];\n    }\n\n    function getOwner() public view returns (address) {\n        return _owner;\n    }\n\n    function pushWomrholeMessage(bytes memory payload, uint8 nonce) public {\n        core_contract.publishMessage(nonce, payload, 0);\n    }\n}\n",
  "sourcePath": "/Users/gorangutovic/Desktop/unique/unq-treasury-eth/contracts/Wormhole/WormholeUnq.sol",
  "compiler": {
    "name": "solc",
    "version": "0.8.19+commit.7dd6d404.Emscripten.clang"
  },
  "schemaVersion": "3.4.11",
  "updatedAt": "2023-04-05T10:09:09.180Z",
  "networkType": "ethereum",
  "devdoc": {
    "kind": "dev",
    "methods": {
      "owner()": {
        "details": "Returns the address of the current owner."
      },
      "renounceOwnership()": {
        "details": "Leaves the contract without owner. It will not be possible to call `onlyOwner` functions anymore. Can only be called by the current owner. NOTE: Renouncing ownership will leave the contract without an owner, thereby removing any functionality that is only available to the owner."
      },
      "transferOwnership(address)": {
        "details": "Transfers ownership of the contract to a new account (`newOwner`). Can only be called by the current owner."
      }
    },
    "version": 1
  },
  "userdoc": {
    "kind": "user",
    "methods": {},
    "version": 1
  }
}