{
  "contractName": "WormholeUnq",
  "abi": [
    {
      "inputs": [
        {
          "internalType": "address",
          "name": "treasuryImplementation",
          "type": "address"
        },
        {
          "internalType": "address",
          "name": "relayerSigner",
          "type": "address"
        },
        {
          "internalType": "address",
          "name": "wormholeBridgeContract",
          "type": "address"
        }
      ],
      "stateMutability": "nonpayable",
      "type": "constructor"
    },
    {
      "anonymous": false,
      "inputs": [
        {
          "indexed": false,
          "internalType": "bytes32",
          "name": "",
          "type": "bytes32"
        },
        {
          "indexed": false,
          "internalType": "bytes32",
          "name": "",
          "type": "bytes32"
        },
        {
          "indexed": false,
          "internalType": "address",
          "name": "",
          "type": "address"
        }
      ],
      "name": "MemberEvent",
      "type": "event"
    },
    {
      "anonymous": false,
      "inputs": [
        {
          "indexed": true,
          "internalType": "address",
          "name": "previousOwner",
          "type": "address"
        },
        {
          "indexed": true,
          "internalType": "address",
          "name": "newOwner",
          "type": "address"
        }
      ],
      "name": "OwnershipTransferred",
      "type": "event"
    },
    {
      "anonymous": false,
      "inputs": [
        {
          "indexed": false,
          "internalType": "bytes32",
          "name": "",
          "type": "bytes32"
        },
        {
          "indexed": false,
          "internalType": "bytes32",
          "name": "",
          "type": "bytes32"
        },
        {
          "indexed": false,
          "internalType": "address",
          "name": "",
          "type": "address"
        },
        {
          "indexed": false,
          "internalType": "address",
          "name": "",
          "type": "address"
        }
      ],
      "name": "TreasuryCreatedEvent",
      "type": "event"
    },
    {
      "inputs": [],
      "name": "owner",
      "outputs": [
        {
          "internalType": "address",
          "name": "",
          "type": "address"
        }
      ],
      "stateMutability": "view",
      "type": "function",
      "constant": true
    },
    {
      "inputs": [],
      "name": "renounceOwnership",
      "outputs": [],
      "stateMutability": "nonpayable",
      "type": "function"
    },
    {
      "inputs": [
        {
          "internalType": "address",
          "name": "newOwner",
          "type": "address"
        }
      ],
      "name": "transferOwnership",
      "outputs": [],
      "stateMutability": "nonpayable",
      "type": "function"
    },
    {
      "inputs": [
        {
          "internalType": "bytes",
          "name": "encodedVM",
          "type": "bytes"
        }
      ],
      "name": "parseVM",
      "outputs": [],
      "stateMutability": "nonpayable",
      "type": "function"
    },
    {
      "inputs": [
        {
          "internalType": "uint16",
          "name": "chainId",
          "type": "uint16"
        },
        {
          "internalType": "bytes32",
          "name": "bridgeContractAddress",
          "type": "bytes32"
        }
      ],
      "name": "registerContract",
      "outputs": [],
      "stateMutability": "nonpayable",
      "type": "function"
    },
    {
      "inputs": [
        {
          "internalType": "bytes",
          "name": "vm",
          "type": "bytes"
        }
      ],
      "name": "createEthTreasury",
      "outputs": [],
      "stateMutability": "nonpayable",
      "type": "function"
    },
    {
      "inputs": [],
      "name": "getBeacon",
      "outputs": [
        {
          "internalType": "address",
          "name": "",
          "type": "address"
        }
      ],
      "stateMutability": "view",
      "type": "function",
      "constant": true
    },
    {
      "inputs": [
        {
          "internalType": "bytes32",
          "name": "realmAddress",
          "type": "bytes32"
        }
      ],
      "name": "getTreasury",
      "outputs": [
        {
          "internalType": "address",
          "name": "treasury",
          "type": "address"
        }
      ],
      "stateMutability": "view",
      "type": "function",
      "constant": true
    },
    {
      "inputs": [],
      "name": "getOwner",
      "outputs": [
        {
          "internalType": "address",
          "name": "",
          "type": "address"
        }
      ],
      "stateMutability": "view",
      "type": "function",
      "constant": true
    }
  ],
  "bytecode": "0x60c0604052600460a0908152503480156200001957600080fd5b5060405162004da638038062004da683398181016040528101906200003f9190620002db565b6200005f620000536200019760201b60201c565b6200019f60201b60201c565b80600160006101000a81548173ffffffffffffffffffffffffffffffffffffffff021916908373ffffffffffffffffffffffffffffffffffffffff16021790555033600260006101000a81548173ffffffffffffffffffffffffffffffffffffffff021916908373ffffffffffffffffffffffffffffffffffffffff16021790555082604051620000f09062000263565b620000fc919062000348565b604051809103906000f08015801562000119573d6000803e3d6000fd5b5073ffffffffffffffffffffffffffffffffffffffff1660808173ffffffffffffffffffffffffffffffffffffffff168152505081600560006101000a81548173ffffffffffffffffffffffffffffffffffffffff021916908373ffffffffffffffffffffffffffffffffffffffff16021790555050505062000365565b600033905090565b60008060009054906101000a900473ffffffffffffffffffffffffffffffffffffffff169050816000806101000a81548173ffffffffffffffffffffffffffffffffffffffff021916908373ffffffffffffffffffffffffffffffffffffffff1602179055508173ffffffffffffffffffffffffffffffffffffffff168173ffffffffffffffffffffffffffffffffffffffff167f8be0079c531659141344cd1fd0a4f28419497f9722a3daafe3b4186f6b6457e060405160405180910390a35050565b6113958062003a1183390190565b600080fd5b600073ffffffffffffffffffffffffffffffffffffffff82169050919050565b6000620002a38262000276565b9050919050565b620002b58162000296565b8114620002c157600080fd5b50565b600081519050620002d581620002aa565b92915050565b600080600060608486031215620002f757620002f662000271565b5b60006200030786828701620002c4565b93505060206200031a86828701620002c4565b92505060406200032d86828701620002c4565b9150509250925092565b620003428162000296565b82525050565b60006020820190506200035f600083018462000337565b92915050565b60805160a05161361d620003f4600039600081816103da015281816104220152818161047b01528181610adc01528181610b2601528181610bfb01528181610c8a01528181610d8501528181610dcf01528181610ea401528181610fec015281816110430152818161109a015281816110f101526111c60152600081816101d10152610550015261361d6000f3fe60806040523480156200001157600080fd5b5060043610620000a05760003560e01c80638da5cb5b116200006f5780638da5cb5b1462000115578063a9e118931462000137578063ccc06fe51462000157578063e2908634146200018d578063f2fde38b14620001ad57620000a0565b80632d6b3a6b14620000a557806351e2d7b514620000c7578063715018a614620000e7578063893d20e814620000f3575b600080fd5b620000af620001cd565b604051620000be91906200151a565b60405180910390f35b620000e56004803603810190620000df9190620015c5565b620001f5565b005b620000f162000223565b005b620000fd6200023b565b6040516200010c91906200151a565b60405180910390f35b6200011f62000265565b6040516200012e91906200151a565b60405180910390f35b6200015560048036038101906200014f91906200176e565b6200028e565b005b6200017560048036038101906200016f9190620017bf565b62000397565b6040516200018491906200151a565b60405180910390f35b620001ab6004803603810190620001a591906200176e565b620003d4565b005b620001cb6004803603810190620001c5919062001822565b620006e3565b005b60007f0000000000000000000000000000000000000000000000000000000000000000905090565b620001ff6200076d565b80600460008461ffff1661ffff168152602001908152602001600020819055505050565b6200022d6200076d565b620002396000620007f2565b565b6000600260009054906101000a900473ffffffffffffffffffffffffffffffffffffffff16905090565b60008060009054906101000a900473ffffffffffffffffffffffffffffffffffffffff16905090565b6000806000600160009054906101000a900473ffffffffffffffffffffffffffffffffffffffff1673ffffffffffffffffffffffffffffffffffffffff1663c0fd8bde856040518263ffffffff1660e01b8152600401620002f09190620018dd565b600060405180830381865afa1580156200030e573d6000803e3d6000fd5b505050506040513d6000823e3d601f19601f8201168201806040525081019062000339919062001e31565b92509250925081819062000385576040517f08c379a00000000000000000000000000000000000000000000000000000000081526004016200037c919062001f28565b60405180910390fd5b506200039183620008b6565b50505050565b60006003600083815260200190815260200160002060009054906101000a900473ffffffffffffffffffffffffffffffffffffffff169050919050565b600060017f000000000000000000000000000000000000000000000000000000000000000062000405919062001f85565b905060006200041e828462000a6490919063ffffffff16565b90507f000000000000000000000000000000000000000000000000000000000000000060206200044f919062001f85565b826200045c919062001f85565b9150600062000475838562000a6490919063ffffffff16565b905060207f0000000000000000000000000000000000000000000000000000000000000000620004a6919062001f85565b83620004b3919062001f85565b92506000620004cc848662000a6490919063ffffffff16565b73__Bytes32Lib____________________________635ced058e90916040518263ffffffff1660e01b815260040162000506919062001fd1565b602060405180830381865af415801562000524573d6000803e3d6000fd5b505050506040513d601f19601f820116820180604052508101906200054a919062002005565b905060007f0000000000000000000000000000000000000000000000000000000000000000631f57365e60e01b858585600160009054906101000a900473ffffffffffffffffffffffffffffffffffffffff16604051602401620005b2949392919062002048565b604051602081830303815290604052907bffffffffffffffffffffffffffffffffffffffffffffffffffffffff19166020820180517bffffffffffffffffffffffffffffffffffffffffffffffffffffffff83818316178352505050506040516200061d90620014c7565b6200062a92919062002095565b604051809103906000f08015801562000647573d6000803e3d6000fd5b5090507f9099ae82a8175f9cad9ec57c0a752f8c8e49bdf09ecda4762af8d3bfd52d6ecf8484848460405162000681949392919062002048565b60405180910390a1806003600086815260200190815260200160002060006101000a81548173ffffffffffffffffffffffffffffffffffffffff021916908373ffffffffffffffffffffffffffffffffffffffff160217905550505050505050565b620006ed6200076d565b600073ffffffffffffffffffffffffffffffffffffffff168173ffffffffffffffffffffffffffffffffffffffff16036200075f576040517f08c379a000000000000000000000000000000000000000000000000000000000815260040162000756906200213f565b60405180910390fd5b6200076a81620007f2565b50565b6200077762000ad0565b73ffffffffffffffffffffffffffffffffffffffff166200079762000265565b73ffffffffffffffffffffffffffffffffffffffff1614620007f0576040517f08c379a0000000000000000000000000000000000000000000000000000000008152600401620007e790620021b1565b60405180910390fd5b565b60008060009054906101000a900473ffffffffffffffffffffffffffffffffffffffff169050816000806101000a81548173ffffffffffffffffffffffffffffffffffffffff021916908373ffffffffffffffffffffffffffffffffffffffff1602179055508173ffffffffffffffffffffffffffffffffffffffff168173ffffffffffffffffffffffffffffffffffffffff167f8be0079c531659141344cd1fd0a4f28419497f9722a3daafe3b4186f6b6457e060405160405180910390a35050565b60008160e00151600081518110620008d357620008d2620021d3565b5b602001015160f81c60f81b60f81c905060008160ff166003811115620008fe57620008fd62002202565b5b90506000600381111562000917576200091662002202565b5b8160038111156200092d576200092c62002202565b5b036200094857620009428360e00151620003d4565b62000a5f565b600260038111156200095f576200095e62002202565b5b81600381111562000975576200097462002202565b5b0362000990576200098a8360e0015162000ad8565b62000a5e565b600380811115620009a657620009a562002202565b5b816003811115620009bc57620009bb62002202565b5b03620009d757620009d18360e0015162000d81565b62000a5d565b60016003811115620009ee57620009ed62002202565b5b81600381111562000a045762000a0362002202565b5b0362000a1f5762000a198360e0015162000fd0565b62000a5c565b6040517f08c379a000000000000000000000000000000000000000000000000000000000815260040162000a539062002281565b60405180910390fd5b5b5b5b505050565b600060208262000a75919062001f85565b8351101562000abb576040517f08c379a000000000000000000000000000000000000000000000000000000000815260040162000ab290620022f3565b60405180910390fd5b60008260208501015190508091505092915050565b600033905090565b60007f0000000000000000000000000000000000000000000000000000000000000000600162000b09919062001f85565b9050600062000b22828462000a6490919063ffffffff16565b90507f0000000000000000000000000000000000000000000000000000000000000000602062000b53919062001f85565b8262000b60919062001f85565b9150600062000b79838562000a6490919063ffffffff16565b73__Bytes32Lib____________________________635ced058e90916040518263ffffffff1660e01b815260040162000bb3919062001fd1565b602060405180830381865af415801562000bd1573d6000803e3d6000fd5b505050506040513d601f19601f8201168201806040525081019062000bf7919062002005565b90507f0000000000000000000000000000000000000000000000000000000000000000602062000c28919062001f85565b8362000c35919062001f85565b9250600062000c4e848662000a6490919063ffffffff16565b905060006003600083815260200190815260200160002060009054906101000a900473ffffffffffffffffffffffffffffffffffffffff1690507f0000000000000000000000000000000000000000000000000000000000000000602062000cb7919062001f85565b8562000cc4919062001f85565b9450600062000cee866001895162000cdd919062002315565b896200132f9092919063ffffffff16565b80602001905181019062000d03919062002381565b90508173ffffffffffffffffffffffffffffffffffffffff166363f668348686846040518463ffffffff1660e01b815260040162000d4493929190620023e9565b600060405180830381600087803b15801562000d5f57600080fd5b505af115801562000d74573d6000803e3d6000fd5b5050505050505050505050565b60007f0000000000000000000000000000000000000000000000000000000000000000600162000db2919062001f85565b9050600062000dcb828462000a6490919063ffffffff16565b90507f0000000000000000000000000000000000000000000000000000000000000000602062000dfc919062001f85565b8262000e09919062001f85565b9150600062000e22838562000a6490919063ffffffff16565b73__Bytes32Lib____________________________635ced058e90916040518263ffffffff1660e01b815260040162000e5c919062001fd1565b602060405180830381865af415801562000e7a573d6000803e3d6000fd5b505050506040513d601f19601f8201168201806040525081019062000ea0919062002005565b90507f0000000000000000000000000000000000000000000000000000000000000000602062000ed1919062001f85565b8362000ede919062001f85565b9250600062000f08846001875162000ef7919062002315565b876200132f9092919063ffffffff16565b80602001905181019062000f1d919062002381565b905060006003600085815260200190815260200160002060009054906101000a900473ffffffffffffffffffffffffffffffffffffffff1690508073ffffffffffffffffffffffffffffffffffffffff1663990dc9db84846040518363ffffffff1660e01b815260040162000f9492919062002426565b600060405180830381600087803b15801562000faf57600080fd5b505af115801562000fc4573d6000803e3d6000fd5b50505050505050505050565b60008062000fe882846200145b90919063ffffffff16565b90507f0000000000000000000000000000000000000000000000000000000000000000600162001019919062001f85565b8262001026919062001f85565b915060006200103f838562000a6490919063ffffffff16565b90507f0000000000000000000000000000000000000000000000000000000000000000602062001070919062001f85565b836200107d919062001f85565b9250600062001096848662000a6490919063ffffffff16565b90507f00000000000000000000000000000000000000000000000000000000000000006020620010c7919062001f85565b84620010d4919062001f85565b93506000620010ed858762000a6490919063ffffffff16565b90507f000000000000000000000000000000000000000000000000000000000000000060206200111e919062001f85565b856200112b919062001f85565b9450600062001144868862000a6490919063ffffffff16565b73__Bytes32Lib____________________________635ced058e90916040518263ffffffff1660e01b81526004016200117e919062001fd1565b602060405180830381865af41580156200119c573d6000803e3d6000fd5b505050506040513d601f19601f82011682018060405250810190620011c2919062002005565b90507f00000000000000000000000000000000000000000000000000000000000000006020620011f3919062001f85565b8662001200919062001f85565b955060006003600086815260200190815260200160002060009054906101000a900473ffffffffffffffffffffffffffffffffffffffff1690508073ffffffffffffffffffffffffffffffffffffffff16634675f1256040518060a001604052808960ff1681526020018881526020018781526020018681526020018573ffffffffffffffffffffffffffffffffffffffff168152506040518263ffffffff1660e01b8152600401620012b49190620024f8565b600060405180830381600087803b158015620012cf57600080fd5b505af1158015620012e4573d6000803e3d6000fd5b505050507f783b09b8e9efccd70dd777755a66da9a5a3a6be7c7f8d4e92a8c25357b07f8488585846040516200131d9392919062002515565b60405180910390a15050505050505050565b606081601f8362001341919062001f85565b101562001385576040517f08c379a00000000000000000000000000000000000000000000000000000000081526004016200137c90620025a2565b60405180910390fd5b818362001393919062001f85565b84511015620013d9576040517f08c379a0000000000000000000000000000000000000000000000000000000008152600401620013d09062002614565b60405180910390fd5b6060821560008114620013fc57604051915060008252602082016040526200144f565b6040519150601f8416801560200281840101858101878315602002848b0101015b818310156200143c57805183526020830192506020810190506200141d565b50868552601f19601f8301166040525050505b50809150509392505050565b60006001826200146c919062001f85565b83511015620014b2576040517f08c379a0000000000000000000000000000000000000000000000000000000008152600401620014a99062002686565b60405180910390fd5b60008260018501015190508091505092915050565b610f3f80620026a983390190565b600073ffffffffffffffffffffffffffffffffffffffff82169050919050565b60006200150282620014d5565b9050919050565b6200151481620014f5565b82525050565b600060208201905062001531600083018462001509565b92915050565b6000604051905090565b600080fd5b600080fd5b600061ffff82169050919050565b62001564816200154b565b81146200157057600080fd5b50565b600081359050620015848162001559565b92915050565b6000819050919050565b6200159f816200158a565b8114620015ab57600080fd5b50565b600081359050620015bf8162001594565b92915050565b60008060408385031215620015df57620015de62001541565b5b6000620015ef8582860162001573565b92505060206200160285828601620015ae565b9150509250929050565b600080fd5b600080fd5b6000601f19601f8301169050919050565b7f4e487b7100000000000000000000000000000000000000000000000000000000600052604160045260246000fd5b620016618262001616565b810181811067ffffffffffffffff8211171562001683576200168262001627565b5b80604052505050565b60006200169862001537565b9050620016a6828262001656565b919050565b600067ffffffffffffffff821115620016c957620016c862001627565b5b620016d48262001616565b9050602081019050919050565b82818337600083830152505050565b6000620017076200170184620016ab565b6200168c565b90508281526020810184848401111562001726576200172562001611565b5b62001733848285620016e1565b509392505050565b600082601f8301126200175357620017526200160c565b5b813562001765848260208601620016f0565b91505092915050565b60006020828403121562001787576200178662001541565b5b600082013567ffffffffffffffff811115620017a857620017a762001546565b5b620017b6848285016200173b565b91505092915050565b600060208284031215620017d857620017d762001541565b5b6000620017e884828501620015ae565b91505092915050565b620017fc81620014f5565b81146200180857600080fd5b50565b6000813590506200181c81620017f1565b92915050565b6000602082840312156200183b576200183a62001541565b5b60006200184b848285016200180b565b91505092915050565b600081519050919050565b600082825260208201905092915050565b60005b838110156200189057808201518184015260208101905062001873565b60008484015250505050565b6000620018a98262001854565b620018b581856200185f565b9350620018c781856020860162001870565b620018d28162001616565b840191505092915050565b60006020820190508181036000830152620018f981846200189c565b905092915050565b600080fd5b600080fd5b600060ff82169050919050565b62001923816200190b565b81146200192f57600080fd5b50565b600081519050620019438162001918565b92915050565b600063ffffffff82169050919050565b620019648162001949565b81146200197057600080fd5b50565b600081519050620019848162001959565b92915050565b6000815190506200199b8162001559565b92915050565b600081519050620019b28162001594565b92915050565b600067ffffffffffffffff82169050919050565b620019d781620019b8565b8114620019e357600080fd5b50565b600081519050620019f781620019cc565b92915050565b600062001a1462001a0e84620016ab565b6200168c565b90508281526020810184848401111562001a335762001a3262001611565b5b62001a4084828562001870565b509392505050565b600082601f83011262001a605762001a5f6200160c565b5b815162001a72848260208601620019fd565b91505092915050565b600067ffffffffffffffff82111562001a995762001a9862001627565b5b602082029050602081019050919050565b600080fd5b60006080828403121562001ac85762001ac762001901565b5b62001ad460806200168c565b9050600062001ae684828501620019a1565b600083015250602062001afc84828501620019a1565b602083015250604062001b128482850162001932565b604083015250606062001b288482850162001932565b60608301525092915050565b600062001b4b62001b458462001a7b565b6200168c565b9050808382526020820190506080840283018581111562001b715762001b7062001aaa565b5b835b8181101562001b9e578062001b89888262001aaf565b84526020840193505060808101905062001b73565b5050509392505050565b600082601f83011262001bc05762001bbf6200160c565b5b815162001bd284826020860162001b34565b91505092915050565b6000610160828403121562001bf55762001bf462001901565b5b62001c026101606200168c565b9050600062001c148482850162001932565b600083015250602062001c2a8482850162001973565b602083015250604062001c408482850162001973565b604083015250606062001c56848285016200198a565b606083015250608062001c6c84828501620019a1565b60808301525060a062001c8284828501620019e6565b60a08301525060c062001c988482850162001932565b60c08301525060e082015167ffffffffffffffff81111562001cbf5762001cbe62001906565b5b62001ccd8482850162001a48565b60e08301525061010062001ce48482850162001973565b6101008301525061012082015167ffffffffffffffff81111562001d0d5762001d0c62001906565b5b62001d1b8482850162001ba8565b6101208301525061014062001d3384828501620019a1565b6101408301525092915050565b60008115159050919050565b62001d578162001d40565b811462001d6357600080fd5b50565b60008151905062001d778162001d4c565b92915050565b600067ffffffffffffffff82111562001d9b5762001d9a62001627565b5b62001da68262001616565b9050602081019050919050565b600062001dca62001dc48462001d7d565b6200168c565b90508281526020810184848401111562001de95762001de862001611565b5b62001df684828562001870565b509392505050565b600082601f83011262001e165762001e156200160c565b5b815162001e2884826020860162001db3565b91505092915050565b60008060006060848603121562001e4d5762001e4c62001541565b5b600084015167ffffffffffffffff81111562001e6e5762001e6d62001546565b5b62001e7c8682870162001bdb565b935050602062001e8f8682870162001d66565b925050604084015167ffffffffffffffff81111562001eb35762001eb262001546565b5b62001ec18682870162001dfe565b9150509250925092565b600081519050919050565b600082825260208201905092915050565b600062001ef48262001ecb565b62001f00818562001ed6565b935062001f1281856020860162001870565b62001f1d8162001616565b840191505092915050565b6000602082019050818103600083015262001f44818462001ee7565b905092915050565b6000819050919050565b7f4e487b7100000000000000000000000000000000000000000000000000000000600052601160045260246000fd5b600062001f928262001f4c565b915062001f9f8362001f4c565b925082820190508082111562001fba5762001fb962001f56565b5b92915050565b62001fcb816200158a565b82525050565b600060208201905062001fe8600083018462001fc0565b92915050565b60008151905062001fff81620017f1565b92915050565b6000602082840312156200201e576200201d62001541565b5b60006200202e8482850162001fee565b91505092915050565b62002042816200158a565b82525050565b60006080820190506200205f600083018762002037565b6200206e602083018662002037565b6200207d604083018562001509565b6200208c606083018462001509565b95945050505050565b6000604082019050620020ac600083018562001509565b8181036020830152620020c081846200189c565b90509392505050565b7f4f776e61626c653a206e6577206f776e657220697320746865207a65726f206160008201527f6464726573730000000000000000000000000000000000000000000000000000602082015250565b60006200212760268362001ed6565b91506200213482620020c9565b604082019050919050565b600060208201905081810360008301526200215a8162002118565b9050919050565b7f4f776e61626c653a2063616c6c6572206973206e6f7420746865206f776e6572600082015250565b60006200219960208362001ed6565b9150620021a68262002161565b602082019050919050565b60006020820190508181036000830152620021cc816200218a565b9050919050565b7f4e487b7100000000000000000000000000000000000000000000000000000000600052603260045260246000fd5b7f4e487b7100000000000000000000000000000000000000000000000000000000600052602160045260246000fd5b7f556e737570706f7274656420554e51576f726d686f6c6520616374696f6e0000600082015250565b600062002269601e8362001ed6565b9150620022768262002231565b602082019050919050565b600060208201905081810360008301526200229c816200225a565b9050919050565b7f746f427974657333325f6f75744f66426f756e64730000000000000000000000600082015250565b6000620022db60158362001ed6565b9150620022e882620022a3565b602082019050919050565b600060208201905081810360008301526200230e81620022cc565b9050919050565b6000620023228262001f4c565b91506200232f8362001f4c565b92508282039050818111156200234a576200234962001f56565b5b92915050565b6200235b8162001f4c565b81146200236757600080fd5b50565b6000815190506200237b8162002350565b92915050565b6000602082840312156200239a576200239962001541565b5b6000620023aa848285016200236a565b91505092915050565b6000620023c082620014d5565b9050919050565b620023d281620023b3565b82525050565b620023e38162001f4c565b82525050565b600060608201905062002400600083018662002037565b6200240f6020830185620023c7565b6200241e6040830184620023d8565b949350505050565b60006040820190506200243d6000830185620023c7565b6200244c6020830184620023d8565b9392505050565b6200245e816200190b565b82525050565b6200246f816200158a565b82525050565b6200248081620014f5565b82525050565b60a0820160008201516200249e600085018262002453565b506020820151620024b3602085018262002464565b506040820151620024c8604085018262002464565b506060820151620024dd606085018262002464565b506080820151620024f2608085018262002475565b50505050565b600060a0820190506200250f600083018462002486565b92915050565b60006060820190506200252c600083018662002037565b6200253b602083018562002037565b6200254a604083018462001509565b949350505050565b7f736c6963655f6f766572666c6f77000000000000000000000000000000000000600082015250565b60006200258a600e8362001ed6565b9150620025978262002552565b602082019050919050565b60006020820190508181036000830152620025bd816200257b565b9050919050565b7f736c6963655f6f75744f66426f756e6473000000000000000000000000000000600082015250565b6000620025fc60118362001ed6565b91506200260982620025c4565b602082019050919050565b600060208201905081810360008301526200262f81620025ed565b9050919050565b7f746f55696e74385f6f75744f66426f756e647300000000000000000000000000600082015250565b60006200266e60138362001ed6565b91506200267b8262002636565b602082019050919050565b60006020820190508181036000830152620026a1816200265f565b905091905056fe608060405260405162000f3f38038062000f3f8339818101604052810190620000299190620006a6565b6200003d828260006200004560201b60201c565b5050620009c7565b62000056836200013c60201b60201c565b8273ffffffffffffffffffffffffffffffffffffffff167f1cf3b03a6cf19fa2baba4df148e9dcabedea7f8a5c07840e207e5c089be95d3e60405160405180910390a2600082511180620000a75750805b156200013757620001358373ffffffffffffffffffffffffffffffffffffffff16635c60da1b6040518163ffffffff1660e01b8152600401602060405180830381865afa158015620000fd573d6000803e3d6000fd5b505050506040513d601f19601f820116820180604052508101906200012391906200070c565b83620002db60201b620000371760201c565b505b505050565b62000152816200031160201b620000641760201c565b62000194576040517f08c379a00000000000000000000000000000000000000000000000000000000081526004016200018b90620007c5565b60405180910390fd5b6200021b8173ffffffffffffffffffffffffffffffffffffffff16635c60da1b6040518163ffffffff1660e01b8152600401602060405180830381865afa158015620001e4573d6000803e3d6000fd5b505050506040513d601f19601f820116820180604052508101906200020a91906200070c565b6200031160201b620000641760201c565b6200025d576040517f08c379a000000000000000000000000000000000000000000000000000000000815260040162000254906200085d565b60405180910390fd5b80620002977fa3f0ad74e5423aebfd80d3ef4346578335a9a72aeaee59ff6cb3582b35133d5060001b6200033460201b620000871760201c565b60000160006101000a81548173ffffffffffffffffffffffffffffffffffffffff021916908373ffffffffffffffffffffffffffffffffffffffff16021790555050565b606062000309838360405180606001604052806027815260200162000f18602791396200033e60201b60201c565b905092915050565b6000808273ffffffffffffffffffffffffffffffffffffffff163b119050919050565b6000819050919050565b60606000808573ffffffffffffffffffffffffffffffffffffffff16856040516200036a9190620008cc565b600060405180830381855af49150503d8060008114620003a7576040519150601f19603f3d011682016040523d82523d6000602084013e620003ac565b606091505b5091509150620003c586838387620003d060201b60201c565b925050509392505050565b60608315620004405760008351036200043757620003f4856200031160201b60201c565b62000436576040517f08c379a00000000000000000000000000000000000000000000000000000000081526004016200042d9062000935565b60405180910390fd5b5b82905062000453565b6200045283836200045b60201b60201c565b5b949350505050565b6000825111156200046f5781518083602001fd5b806040517f08c379a0000000000000000000000000000000000000000000000000000000008152600401620004a59190620009a3565b60405180910390fd5b6000604051905090565b600080fd5b600080fd5b600073ffffffffffffffffffffffffffffffffffffffff82169050919050565b6000620004ef82620004c2565b9050919050565b6200050181620004e2565b81146200050d57600080fd5b50565b6000815190506200052181620004f6565b92915050565b600080fd5b600080fd5b6000601f19601f8301169050919050565b7f4e487b7100000000000000000000000000000000000000000000000000000000600052604160045260246000fd5b6200057c8262000531565b810181811067ffffffffffffffff821117156200059e576200059d62000542565b5b80604052505050565b6000620005b3620004ae565b9050620005c1828262000571565b919050565b600067ffffffffffffffff821115620005e457620005e362000542565b5b620005ef8262000531565b9050602081019050919050565b60005b838110156200061c578082015181840152602081019050620005ff565b60008484015250505050565b60006200063f6200063984620005c6565b620005a7565b9050828152602081018484840111156200065e576200065d6200052c565b5b6200066b848285620005fc565b509392505050565b600082601f8301126200068b576200068a62000527565b5b81516200069d84826020860162000628565b91505092915050565b60008060408385031215620006c057620006bf620004b8565b5b6000620006d08582860162000510565b925050602083015167ffffffffffffffff811115620006f457620006f3620004bd565b5b620007028582860162000673565b9150509250929050565b600060208284031215620007255762000724620004b8565b5b6000620007358482850162000510565b91505092915050565b600082825260208201905092915050565b7f455243313936373a206e657720626561636f6e206973206e6f74206120636f6e60008201527f7472616374000000000000000000000000000000000000000000000000000000602082015250565b6000620007ad6025836200073e565b9150620007ba826200074f565b604082019050919050565b60006020820190508181036000830152620007e0816200079e565b9050919050565b7f455243313936373a20626561636f6e20696d706c656d656e746174696f6e206960008201527f73206e6f74206120636f6e747261637400000000000000000000000000000000602082015250565b6000620008456030836200073e565b91506200085282620007e7565b604082019050919050565b60006020820190508181036000830152620008788162000836565b9050919050565b600081519050919050565b600081905092915050565b6000620008a2826200087f565b620008ae81856200088a565b9350620008c0818560208601620005fc565b80840191505092915050565b6000620008da828462000895565b915081905092915050565b7f416464726573733a2063616c6c20746f206e6f6e2d636f6e7472616374000000600082015250565b60006200091d601d836200073e565b91506200092a82620008e5565b602082019050919050565b6000602082019050818103600083015262000950816200090e565b9050919050565b600081519050919050565b60006200096f8262000957565b6200097b81856200073e565b93506200098d818560208601620005fc565b620009988162000531565b840191505092915050565b60006020820190508181036000830152620009bf818462000962565b905092915050565b61054180620009d76000396000f3fe6080604052366100135761001161001d565b005b61001b61001d565b005b610025610091565b610035610030610093565b610110565b565b606061005c83836040518060600160405280602781526020016104e560279139610136565b905092915050565b6000808273ffffffffffffffffffffffffffffffffffffffff163b119050919050565b6000819050919050565b565b600061009d6101bc565b73ffffffffffffffffffffffffffffffffffffffff16635c60da1b6040518163ffffffff1660e01b8152600401602060405180830381865afa1580156100e7573d6000803e3d6000fd5b505050506040513d601f19601f8201168201806040525081019061010b919061033b565b905090565b3660008037600080366000845af43d6000803e8060008114610131573d6000f35b3d6000fd5b60606000808573ffffffffffffffffffffffffffffffffffffffff168560405161016091906103d9565b600060405180830381855af49150503d806000811461019b576040519150601f19603f3d011682016040523d82523d6000602084013e6101a0565b606091505b50915091506101b186838387610213565b925050509392505050565b60006101ea7fa3f0ad74e5423aebfd80d3ef4346578335a9a72aeaee59ff6cb3582b35133d5060001b610087565b60000160009054906101000a900473ffffffffffffffffffffffffffffffffffffffff16905090565b6060831561027557600083510361026d5761022d85610064565b61026c576040517f08c379a00000000000000000000000000000000000000000000000000000000081526004016102639061044d565b60405180910390fd5b5b829050610280565b61027f8383610288565b5b949350505050565b60008251111561029b5781518083602001fd5b806040517f08c379a00000000000000000000000000000000000000000000000000000000081526004016102cf91906104c2565b60405180910390fd5b600080fd5b600073ffffffffffffffffffffffffffffffffffffffff82169050919050565b6000610308826102dd565b9050919050565b610318816102fd565b811461032357600080fd5b50565b6000815190506103358161030f565b92915050565b600060208284031215610351576103506102d8565b5b600061035f84828501610326565b91505092915050565b600081519050919050565b600081905092915050565b60005b8381101561039c578082015181840152602081019050610381565b60008484015250505050565b60006103b382610368565b6103bd8185610373565b93506103cd81856020860161037e565b80840191505092915050565b60006103e582846103a8565b915081905092915050565b600082825260208201905092915050565b7f416464726573733a2063616c6c20746f206e6f6e2d636f6e7472616374000000600082015250565b6000610437601d836103f0565b915061044282610401565b602082019050919050565b600060208201905081810360008301526104668161042a565b9050919050565b600081519050919050565b6000601f19601f8301169050919050565b60006104948261046d565b61049e81856103f0565b93506104ae81856020860161037e565b6104b781610478565b840191505092915050565b600060208201905081810360008301526104dc8184610489565b90509291505056fe416464726573733a206c6f772d6c6576656c2064656c65676174652063616c6c206661696c6564a26469706673582212202c7207dfd2b6e6bf237d231d38b838badd9a562a0a064d8527a8b8e12f46be4464736f6c63430008110033416464726573733a206c6f772d6c6576656c2064656c65676174652063616c6c206661696c6564a2646970667358221220eebca091126f972519c79e49616ed5a812a64cbd3174292fa5b3f2426fe2057c64736f6c6343000811003360a060405234801561001057600080fd5b5060405161139538038061139583398181016040528101906100329190610238565b61004e6100436100fc60201b60201c565b61010460201b60201c565b8060405161005b906101c8565b6100659190610274565b604051809103906000f080158015610081573d6000803e3d6000fd5b5073ffffffffffffffffffffffffffffffffffffffff1660808173ffffffffffffffffffffffffffffffffffffffff168152505032600160006101000a81548173ffffffffffffffffffffffffffffffffffffffff021916908373ffffffffffffffffffffffffffffffffffffffff1602179055505061028f565b600033905090565b60008060009054906101000a900473ffffffffffffffffffffffffffffffffffffffff169050816000806101000a81548173ffffffffffffffffffffffffffffffffffffffff021916908373ffffffffffffffffffffffffffffffffffffffff1602179055508173ffffffffffffffffffffffffffffffffffffffff168173ffffffffffffffffffffffffffffffffffffffff167f8be0079c531659141344cd1fd0a4f28419497f9722a3daafe3b4186f6b6457e060405160405180910390a35050565b6109cf806109c683390190565b600080fd5b600073ffffffffffffffffffffffffffffffffffffffff82169050919050565b6000610205826101da565b9050919050565b610215816101fa565b811461022057600080fd5b50565b6000815190506102328161020c565b92915050565b60006020828403121561024e5761024d6101d5565b5b600061025c84828501610223565b91505092915050565b61026e816101fa565b82525050565b60006020820190506102896000830184610265565b92915050565b60805161070e6102b860003960008181610105015281816101a1015261024b015261070e6000f3fe608060405234801561001057600080fd5b50600436106100625760003560e01c80635c60da1b146100675780636095b4b014610085578063715018a6146100a15780637792c319146100ab5780638da5cb5b146100c7578063f2fde38b146100e5575b600080fd5b61006f610101565b60405161007c919061050e565b60405180910390f35b61009f600480360381019061009a919061055a565b610197565b005b6100a961022d565b005b6100c560048036038101906100c0919061055a565b610241565b005b6100cf6102d7565b6040516100dc919061050e565b60405180910390f35b6100ff60048036038101906100fa919061055a565b610300565b005b60007f000000000000000000000000000000000000000000000000000000000000000073ffffffffffffffffffffffffffffffffffffffff16635c60da1b6040518163ffffffff1660e01b8152600401602060405180830381865afa15801561016e573d6000803e3d6000fd5b505050506040513d601f19601f82011682018060405250810190610192919061059c565b905090565b61019f610383565b7f000000000000000000000000000000000000000000000000000000000000000073ffffffffffffffffffffffffffffffffffffffff1663f2fde38b826040518263ffffffff1660e01b81526004016101f8919061050e565b600060405180830381600087803b15801561021257600080fd5b505af1158015610226573d6000803e3d6000fd5b5050505050565b610235610383565b61023f6000610401565b565b610249610383565b7f000000000000000000000000000000000000000000000000000000000000000073ffffffffffffffffffffffffffffffffffffffff16633659cfe6826040518263ffffffff1660e01b81526004016102a2919061050e565b600060405180830381600087803b1580156102bc57600080fd5b505af11580156102d0573d6000803e3d6000fd5b5050505050565b60008060009054906101000a900473ffffffffffffffffffffffffffffffffffffffff16905090565b610308610383565b600073ffffffffffffffffffffffffffffffffffffffff168173ffffffffffffffffffffffffffffffffffffffff1603610377576040517f08c379a000000000000000000000000000000000000000000000000000000000815260040161036e9061064c565b60405180910390fd5b61038081610401565b50565b61038b6104c5565b73ffffffffffffffffffffffffffffffffffffffff166103a96102d7565b73ffffffffffffffffffffffffffffffffffffffff16146103ff576040517f08c379a00000000000000000000000000000000000000000000000000000000081526004016103f6906106b8565b60405180910390fd5b565b60008060009054906101000a900473ffffffffffffffffffffffffffffffffffffffff169050816000806101000a81548173ffffffffffffffffffffffffffffffffffffffff021916908373ffffffffffffffffffffffffffffffffffffffff1602179055508173ffffffffffffffffffffffffffffffffffffffff168173ffffffffffffffffffffffffffffffffffffffff167f8be0079c531659141344cd1fd0a4f28419497f9722a3daafe3b4186f6b6457e060405160405180910390a35050565b600033905090565b600073ffffffffffffffffffffffffffffffffffffffff82169050919050565b60006104f8826104cd565b9050919050565b610508816104ed565b82525050565b600060208201905061052360008301846104ff565b92915050565b600080fd5b610537816104ed565b811461054257600080fd5b50565b6000813590506105548161052e565b92915050565b6000602082840312156105705761056f610529565b5b600061057e84828501610545565b91505092915050565b6000815190506105968161052e565b92915050565b6000602082840312156105b2576105b1610529565b5b60006105c084828501610587565b91505092915050565b600082825260208201905092915050565b7f4f776e61626c653a206e6577206f776e657220697320746865207a65726f206160008201527f6464726573730000000000000000000000000000000000000000000000000000602082015250565b60006106366026836105c9565b9150610641826105da565b604082019050919050565b6000602082019050818103600083015261066581610629565b9050919050565b7f4f776e61626c653a2063616c6c6572206973206e6f7420746865206f776e6572600082015250565b60006106a26020836105c9565b91506106ad8261066c565b602082019050919050565b600060208201905081810360008301526106d181610695565b905091905056fea264697066735822122035aff64720d6b452aff3708a79e95f4905b84abdc42007a7720bd99dc0cf71f764736f6c63430008110033608060405234801561001057600080fd5b506040516109cf3803806109cf8339818101604052810190610032919061024b565b61004e61004361006360201b60201c565b61006b60201b60201c565b61005d8161012f60201b60201c565b5061031b565b600033905090565b60008060009054906101000a900473ffffffffffffffffffffffffffffffffffffffff169050816000806101000a81548173ffffffffffffffffffffffffffffffffffffffff021916908373ffffffffffffffffffffffffffffffffffffffff1602179055508173ffffffffffffffffffffffffffffffffffffffff168173ffffffffffffffffffffffffffffffffffffffff167f8be0079c531659141344cd1fd0a4f28419497f9722a3daafe3b4186f6b6457e060405160405180910390a35050565b610142816101c560201b61021b1760201c565b610181576040517f08c379a0000000000000000000000000000000000000000000000000000000008152600401610178906102fb565b60405180910390fd5b80600160006101000a81548173ffffffffffffffffffffffffffffffffffffffff021916908373ffffffffffffffffffffffffffffffffffffffff16021790555050565b6000808273ffffffffffffffffffffffffffffffffffffffff163b119050919050565b600080fd5b600073ffffffffffffffffffffffffffffffffffffffff82169050919050565b6000610218826101ed565b9050919050565b6102288161020d565b811461023357600080fd5b50565b6000815190506102458161021f565b92915050565b600060208284031215610261576102606101e8565b5b600061026f84828501610236565b91505092915050565b600082825260208201905092915050565b7f5570677261646561626c65426561636f6e3a20696d706c656d656e746174696f60008201527f6e206973206e6f74206120636f6e747261637400000000000000000000000000602082015250565b60006102e5603383610278565b91506102f082610289565b604082019050919050565b60006020820190508181036000830152610314816102d8565b9050919050565b6106a58061032a6000396000f3fe608060405234801561001057600080fd5b50600436106100575760003560e01c80633659cfe61461005c5780635c60da1b14610078578063715018a6146100965780638da5cb5b146100a0578063f2fde38b146100be575b600080fd5b61007660048036038101906100719190610477565b6100da565b005b610080610131565b60405161008d91906104b3565b60405180910390f35b61009e61015b565b005b6100a861016f565b6040516100b591906104b3565b60405180910390f35b6100d860048036038101906100d39190610477565b610198565b005b6100e261023e565b6100eb816102bc565b8073ffffffffffffffffffffffffffffffffffffffff167fbc7cd75a20ee27fd9adebab32041f755214dbc6bffa90cc0225b39da2e5c2d3b60405160405180910390a250565b6000600160009054906101000a900473ffffffffffffffffffffffffffffffffffffffff16905090565b61016361023e565b61016d6000610348565b565b60008060009054906101000a900473ffffffffffffffffffffffffffffffffffffffff16905090565b6101a061023e565b600073ffffffffffffffffffffffffffffffffffffffff168173ffffffffffffffffffffffffffffffffffffffff160361020f576040517f08c379a000000000000000000000000000000000000000000000000000000000815260040161020690610551565b60405180910390fd5b61021881610348565b50565b6000808273ffffffffffffffffffffffffffffffffffffffff163b119050919050565b61024661040c565b73ffffffffffffffffffffffffffffffffffffffff1661026461016f565b73ffffffffffffffffffffffffffffffffffffffff16146102ba576040517f08c379a00000000000000000000000000000000000000000000000000000000081526004016102b1906105bd565b60405180910390fd5b565b6102c58161021b565b610304576040517f08c379a00000000000000000000000000000000000000000000000000000000081526004016102fb9061064f565b60405180910390fd5b80600160006101000a81548173ffffffffffffffffffffffffffffffffffffffff021916908373ffffffffffffffffffffffffffffffffffffffff16021790555050565b60008060009054906101000a900473ffffffffffffffffffffffffffffffffffffffff169050816000806101000a81548173ffffffffffffffffffffffffffffffffffffffff021916908373ffffffffffffffffffffffffffffffffffffffff1602179055508173ffffffffffffffffffffffffffffffffffffffff168173ffffffffffffffffffffffffffffffffffffffff167f8be0079c531659141344cd1fd0a4f28419497f9722a3daafe3b4186f6b6457e060405160405180910390a35050565b600033905090565b600080fd5b600073ffffffffffffffffffffffffffffffffffffffff82169050919050565b600061044482610419565b9050919050565b61045481610439565b811461045f57600080fd5b50565b6000813590506104718161044b565b92915050565b60006020828403121561048d5761048c610414565b5b600061049b84828501610462565b91505092915050565b6104ad81610439565b82525050565b60006020820190506104c860008301846104a4565b92915050565b600082825260208201905092915050565b7f4f776e61626c653a206e6577206f776e657220697320746865207a65726f206160008201527f6464726573730000000000000000000000000000000000000000000000000000602082015250565b600061053b6026836104ce565b9150610546826104df565b604082019050919050565b6000602082019050818103600083015261056a8161052e565b9050919050565b7f4f776e61626c653a2063616c6c6572206973206e6f7420746865206f776e6572600082015250565b60006105a76020836104ce565b91506105b282610571565b602082019050919050565b600060208201905081810360008301526105d68161059a565b9050919050565b7f5570677261646561626c65426561636f6e3a20696d706c656d656e746174696f60008201527f6e206973206e6f74206120636f6e747261637400000000000000000000000000602082015250565b60006106396033836104ce565b9150610644826105dd565b604082019050919050565b600060208201905081810360008301526106688161062c565b905091905056fea2646970667358221220c89b6a61b644ec4a3d9e842c0121a7093e4a93ea650998ef9857cb2969c9db1164736f6c63430008110033",
  "immutableReferences": {
    "2654": [
      {
        "length": 32,
        "start": 465
      },
      {
        "length": 32,
        "start": 1360
      }
    ],
    "2667": [
      {
        "length": 32,
        "start": 986
      },
      {
        "length": 32,
        "start": 1058
      },
      {
        "length": 32,
        "start": 1147
      },
      {
        "length": 32,
        "start": 2780
      },
      {
        "length": 32,
        "start": 2854
      },
      {
        "length": 32,
        "start": 3067
      },
      {
        "length": 32,
        "start": 3210
      },
      {
        "length": 32,
        "start": 3461
      },
      {
        "length": 32,
        "start": 3535
      },
      {
        "length": 32,
        "start": 3748
      },
      {
        "length": 32,
        "start": 4076
      },
      {
        "length": 32,
        "start": 4163
      },
      {
        "length": 32,
        "start": 4250
      },
      {
        "length": 32,
        "start": 4337
      },
      {
        "length": 32,
        "start": 4550
      }
    ]
  },
  "source": "// SPDX-License-Identifier: Apache 2\npragma solidity ^0.8.7;\n\nimport \"../interface/IWormhole.sol\";\nimport \"../structs/UnqWormholeStructs.sol\";\nimport \"@openzeppelin/contracts/access/Ownable.sol\";\nimport \"@openzeppelin/contracts/proxy/beacon/BeaconProxy.sol\";\nimport \"./WormholeUnqBeacon.sol\";\nimport \"../libraries/BytesLib.sol\";\nimport \"../libraries/Bytes32Lib.sol\";\nimport \"../Treasury/UnqTreasury.sol\";\n\npragma experimental ABIEncoderV2;\n\ncontract WormholeUnq is UnqWormholeStructs, Ownable {\n    using BytesLib for bytes;\n    using Bytes32Lib for bytes32;\n\n    IWormhole core_contract;\n    address _owner;\n    WormholeUnqBeacon immutable _unqBeacon;\n    mapping(bytes32 => address) _treasuries;\n    mapping(uint16 => bytes32) _bridgeContracts;\n    address _relayerSigner;\n\n    uint256 immutable CHAIN_ID_PAD = 4;\n\n    constructor(\n        address treasuryImplementation,\n        address relayerSigner,\n        address wormholeBridgeContract\n    ) {\n        core_contract = IWormhole(wormholeBridgeContract);\n        _owner = msg.sender;\n        _unqBeacon = new WormholeUnqBeacon(treasuryImplementation);\n        _relayerSigner = relayerSigner;\n    }\n\n    modifier onlyRegisteredContract(IWormhole.VM memory vm) {\n        bytes32 registeredChain = _bridgeContracts[vm.emitterChainId];\n        require(vm.emitterAddress == registeredChain, \"Wrong emitter address\");\n        _;\n    }\n\n    event TreasuryCreatedEvent(bytes32, bytes32, address, address);\n    event MemberEvent(bytes32, bytes32, address);\n\n    function parseVM(bytes memory encodedVM) public {\n        (\n            IWormhole.VM memory vm,\n            bool valid,\n            string memory reason\n        ) = core_contract.parseAndVerifyVM(encodedVM);\n\n        require(valid, reason);\n\n        getActionFromPayload(vm);\n    }\n\n    function registerContract(uint16 chainId, bytes32 bridgeContractAddress)\n        public\n        onlyOwner\n    {\n        _bridgeContracts[chainId] = bridgeContractAddress;\n    }\n\n    //TODO:add modifier for only registered contracts\n    function getActionFromPayload(IWormhole.VM memory vm) private {\n        uint8 actionBytes = uint8(vm.payload[0]);\n\n        UnqWormholeAction action = UnqWormholeAction(actionBytes);\n        if (action == UnqWormholeAction.CreateTreasury) {\n            createEthTreasury(vm.payload);\n        } else if (action == UnqWormholeAction.WithdrawFunds) {\n            claimFunds(vm.payload);\n        } else if (action == UnqWormholeAction.TransferFunds) {\n            transferFunds(vm.payload);\n        } else if (action == UnqWormholeAction.AddMember) {\n            addMember(vm.payload);\n        } else {\n            revert(\"Unsupported UNQWormhole action\");\n        }\n    }\n\n    function createEthTreasury(bytes memory vm) public {\n        uint256 index = CHAIN_ID_PAD + 1;\n        bytes32 realmAddress = vm.toBytes32(index);\n        index += 32 + CHAIN_ID_PAD;\n        bytes32 treasuryAuthority = vm.toBytes32(index);\n        index += CHAIN_ID_PAD + 32;\n        address denominatedCurrency = (vm.toBytes32(index)).bytes32ToAddress();\n\n        BeaconProxy treasury = new BeaconProxy(\n            address(_unqBeacon),\n            abi.encodeWithSelector(\n                UnqTreasury(payable(address(0))).initialize.selector,\n                realmAddress,\n                treasuryAuthority,\n                denominatedCurrency,\n                address(core_contract)\n            )\n        );\n\n        emit TreasuryCreatedEvent(\n            realmAddress,\n            treasuryAuthority,\n            denominatedCurrency,\n            address(treasury)\n        );\n\n        _treasuries[realmAddress] = address(treasury);\n    }\n\n    function transferFunds(bytes memory payload) private {\n        uint256 index = 1 + CHAIN_ID_PAD;\n        bytes32 realmAddress = payload.toBytes32(index);\n        index += 32 + CHAIN_ID_PAD;\n        address destination = (payload.toBytes32(index)).bytes32ToAddress();\n        index += 32 + CHAIN_ID_PAD;\n        uint256 amount = abi.decode(\n            payload.slice(index, payload.length - 1),\n            (uint256)\n        );\n        UnqTreasury treasury = UnqTreasury(_treasuries[realmAddress]);\n        treasury.transferFunds(payable(destination), amount);\n    }\n\n    function claimFunds(bytes memory payload) private {\n        uint256 index = 1 + CHAIN_ID_PAD;\n        bytes32 solanaAddress = payload.toBytes32(index);\n        index += 32 + CHAIN_ID_PAD;\n        address ethAddress = (payload.toBytes32(index)).bytes32ToAddress();\n        index += 32 + CHAIN_ID_PAD;\n        bytes32 realmAddress = payload.toBytes32(index);\n        UnqTreasury treasury = UnqTreasury(_treasuries[realmAddress]);\n        index += 32 + CHAIN_ID_PAD;\n        uint256 amount = abi.decode(\n            payload.slice(index, payload.length - 1),\n            (uint256)\n        );\n        treasury.claimReward(solanaAddress, payable(ethAddress), amount);\n    }\n\n    function addMember(bytes memory payload) private {\n        uint256 index = 0;\n        uint8 action = payload.toUint8(index);\n        index += 1 + CHAIN_ID_PAD;\n        bytes32 realmAddress = payload.toBytes32(index);\n        index += 32 + CHAIN_ID_PAD;\n        bytes32 solanaAddress = payload.toBytes32(index);\n        index += 32 + CHAIN_ID_PAD;\n        bytes32 authority = payload.toBytes32(index);\n        index += 32 + CHAIN_ID_PAD;\n        address ethAddress = (payload.toBytes32(index)).bytes32ToAddress();\n        index += 32 + CHAIN_ID_PAD;\n\n        UnqTreasury treasury = UnqTreasury(_treasuries[realmAddress]);\n        treasury.addNewMember(\n            UnqWormholeStructs.AddMemberAction(\n                action,\n                realmAddress,\n                solanaAddress,\n                authority,\n                ethAddress\n            )\n        );\n        emit MemberEvent(realmAddress, solanaAddress, ethAddress);\n    }\n\n    function getBeacon() public view returns (address) {\n        return address(_unqBeacon);\n    }\n\n    function getTreasury(bytes32 realmAddress)\n        public\n        view\n        returns (address treasury)\n    {\n        return _treasuries[realmAddress];\n    }\n\n    function getOwner() public view returns (address) {\n        return _owner;\n    }\n}\n",
  "sourcePath": "/Users/gorangutovic/Desktop/unique/unq-treasury-eth/contracts/Wormhole/WormholeUnq.sol",
  "compiler": {
    "name": "solc",
    "version": "0.8.17+commit.8df45f5f.Emscripten.clang"
  },
  "schemaVersion": "3.4.11",
  "updatedAt": "2023-02-09T09:07:46.960Z",
  "networkType": "ethereum",
  "devdoc": {
    "kind": "dev",
    "methods": {
      "owner()": {
        "details": "Returns the address of the current owner."
      },
      "renounceOwnership()": {
        "details": "Leaves the contract without owner. It will not be possible to call `onlyOwner` functions anymore. Can only be called by the current owner. NOTE: Renouncing ownership will leave the contract without an owner, thereby removing any functionality that is only available to the owner."
      },
      "transferOwnership(address)": {
        "details": "Transfers ownership of the contract to a new account (`newOwner`). Can only be called by the current owner."
      }
    },
    "version": 1
  },
  "userdoc": {
    "kind": "user",
    "methods": {},
    "version": 1
  }
}