{
  "contractName": "WormholeUnq",
  "abi": [
    {
      "inputs": [
        {
          "internalType": "address",
          "name": "treasuryImplementation",
          "type": "address"
        },
        {
          "internalType": "address",
          "name": "relayerSigner",
          "type": "address"
        },
        {
          "internalType": "address",
          "name": "wormholeBridgeContract",
          "type": "address"
        }
      ],
      "stateMutability": "nonpayable",
      "type": "constructor"
    },
    {
      "anonymous": false,
      "inputs": [
        {
          "indexed": false,
          "internalType": "bytes32",
          "name": "",
          "type": "bytes32"
        },
        {
          "indexed": false,
          "internalType": "bytes32",
          "name": "",
          "type": "bytes32"
        },
        {
          "indexed": false,
          "internalType": "address",
          "name": "",
          "type": "address"
        }
      ],
      "name": "MemberEvent",
      "type": "event"
    },
    {
      "anonymous": false,
      "inputs": [
        {
          "indexed": true,
          "internalType": "address",
          "name": "previousOwner",
          "type": "address"
        },
        {
          "indexed": true,
          "internalType": "address",
          "name": "newOwner",
          "type": "address"
        }
      ],
      "name": "OwnershipTransferred",
      "type": "event"
    },
    {
      "anonymous": false,
      "inputs": [
        {
          "indexed": false,
          "internalType": "address",
          "name": "",
          "type": "address"
        },
        {
          "indexed": false,
          "internalType": "uint256",
          "name": "",
          "type": "uint256"
        }
      ],
      "name": "TransferFunds",
      "type": "event"
    },
    {
      "anonymous": false,
      "inputs": [
        {
          "indexed": false,
          "internalType": "bytes32",
          "name": "",
          "type": "bytes32"
        },
        {
          "indexed": false,
          "internalType": "bytes32",
          "name": "",
          "type": "bytes32"
        },
        {
          "indexed": false,
          "internalType": "address",
          "name": "",
          "type": "address"
        },
        {
          "indexed": false,
          "internalType": "address",
          "name": "",
          "type": "address"
        }
      ],
      "name": "TreasuryCreatedEvent",
      "type": "event"
    },
    {
      "inputs": [],
      "name": "owner",
      "outputs": [
        {
          "internalType": "address",
          "name": "",
          "type": "address"
        }
      ],
      "stateMutability": "view",
      "type": "function",
      "constant": true
    },
    {
      "inputs": [],
      "name": "renounceOwnership",
      "outputs": [],
      "stateMutability": "nonpayable",
      "type": "function"
    },
    {
      "inputs": [
        {
          "internalType": "address",
          "name": "newOwner",
          "type": "address"
        }
      ],
      "name": "transferOwnership",
      "outputs": [],
      "stateMutability": "nonpayable",
      "type": "function"
    },
    {
      "inputs": [
        {
          "internalType": "bytes",
          "name": "encodedVM",
          "type": "bytes"
        }
      ],
      "name": "parseVM",
      "outputs": [],
      "stateMutability": "nonpayable",
      "type": "function"
    },
    {
      "inputs": [
        {
          "internalType": "uint16",
          "name": "chainId",
          "type": "uint16"
        },
        {
          "internalType": "bytes32",
          "name": "bridgeContractAddress",
          "type": "bytes32"
        }
      ],
      "name": "registerContract",
      "outputs": [],
      "stateMutability": "nonpayable",
      "type": "function"
    },
    {
      "inputs": [
        {
          "internalType": "bytes",
          "name": "vm",
          "type": "bytes"
        }
      ],
      "name": "createEthTreasury",
      "outputs": [],
      "stateMutability": "nonpayable",
      "type": "function"
    },
    {
      "inputs": [],
      "name": "getBeacon",
      "outputs": [
        {
          "internalType": "address",
          "name": "",
          "type": "address"
        }
      ],
      "stateMutability": "view",
      "type": "function",
      "constant": true
    },
    {
      "inputs": [
        {
          "internalType": "bytes32",
          "name": "realmAddress",
          "type": "bytes32"
        }
      ],
      "name": "getTreasury",
      "outputs": [
        {
          "internalType": "address",
          "name": "treasury",
          "type": "address"
        }
      ],
      "stateMutability": "view",
      "type": "function",
      "constant": true
    },
    {
      "inputs": [],
      "name": "getOwner",
      "outputs": [
        {
          "internalType": "address",
          "name": "",
          "type": "address"
        }
      ],
      "stateMutability": "view",
      "type": "function",
      "constant": true
    },
    {
      "inputs": [
        {
          "internalType": "bytes",
          "name": "payload",
          "type": "bytes"
        },
        {
          "internalType": "uint8",
          "name": "nonce",
          "type": "uint8"
        }
      ],
      "name": "pushWomrholeMessage",
      "outputs": [],
      "stateMutability": "nonpayable",
      "type": "function"
    }
  ],
  "bytecode": "0x60c0604052600460a0908152503480156200001957600080fd5b5060405162004a7138038062004a7183398181016040528101906200003f9190620002db565b6200005f620000536200019760201b60201c565b6200019f60201b60201c565b80600160006101000a81548173ffffffffffffffffffffffffffffffffffffffff021916908373ffffffffffffffffffffffffffffffffffffffff16021790555033600260006101000a81548173ffffffffffffffffffffffffffffffffffffffff021916908373ffffffffffffffffffffffffffffffffffffffff16021790555082604051620000f09062000263565b620000fc919062000348565b604051809103906000f08015801562000119573d6000803e3d6000fd5b5073ffffffffffffffffffffffffffffffffffffffff1660808173ffffffffffffffffffffffffffffffffffffffff168152505081600560006101000a81548173ffffffffffffffffffffffffffffffffffffffff021916908373ffffffffffffffffffffffffffffffffffffffff16021790555050505062000365565b600033905090565b60008060009054906101000a900473ffffffffffffffffffffffffffffffffffffffff169050816000806101000a81548173ffffffffffffffffffffffffffffffffffffffff021916908373ffffffffffffffffffffffffffffffffffffffff1602179055508173ffffffffffffffffffffffffffffffffffffffff168173ffffffffffffffffffffffffffffffffffffffff167f8be0079c531659141344cd1fd0a4f28419497f9722a3daafe3b4186f6b6457e060405160405180910390a35050565b61139180620036e083390190565b600080fd5b600073ffffffffffffffffffffffffffffffffffffffff82169050919050565b6000620002a38262000276565b9050919050565b620002b58162000296565b8114620002c157600080fd5b50565b600081519050620002d581620002aa565b92915050565b600080600060608486031215620002f757620002f662000271565b5b60006200030786828701620002c4565b93505060206200031a86828701620002c4565b92505060406200032d86828701620002c4565b9150509250925092565b620003428162000296565b82525050565b60006020820190506200035f600083018462000337565b92915050565b60805160a0516132fa620003e660003960008181610463015281816104ab01528181610504015281816105d901528181610c8c01528181610cd601528181610d2f015281816110400152818161108a0152818161133d01528181611394015281816113eb01526114c00152600081816101fd01526106ae01526132fa6000f3fe60806040523480156200001157600080fd5b5060043610620000ac5760003560e01c8063a9e11893116200006f578063a9e118931462000143578063ac9a3db31462000163578063ccc06fe51462000183578063e290863414620001b9578063f2fde38b14620001d957620000ac565b80632d6b3a6b14620000b157806351e2d7b514620000d3578063715018a614620000f3578063893d20e814620000ff5780638da5cb5b1462000121575b600080fd5b620000bb620001f9565b604051620000ca9190620016e1565b60405180910390f35b620000f16004803603810190620000eb91906200178c565b62000221565b005b620000fd6200024f565b005b6200010962000267565b604051620001189190620016e1565b60405180910390f35b6200012b62000291565b6040516200013a9190620016e1565b60405180910390f35b6200016160048036038101906200015b919062001935565b620002ba565b005b6200018160048036038101906200017b9190620019c4565b62000373565b005b620001a160048036038101906200019b919062001a2a565b62000420565b604051620001b09190620016e1565b60405180910390f35b620001d76004803603810190620001d1919062001935565b6200045d565b005b620001f76004803603810190620001f1919062001a8d565b62000846565b005b60007f0000000000000000000000000000000000000000000000000000000000000000905090565b6200022b620008d0565b80600460008461ffff1661ffff168152602001908152602001600020819055505050565b62000259620008d0565b62000265600062000955565b565b6000600260009054906101000a900473ffffffffffffffffffffffffffffffffffffffff16905090565b60008060009054906101000a900473ffffffffffffffffffffffffffffffffffffffff16905090565b6000600160009054906101000a900473ffffffffffffffffffffffffffffffffffffffff1673ffffffffffffffffffffffffffffffffffffffff1663a9e11893836040518263ffffffff1660e01b815260040162000319919062001b48565b600060405180830381865afa15801562000337573d6000803e3d6000fd5b505050506040513d6000823e3d601f19601f8201168201806040525081019062000362919062001f84565b90506200036f8162000a19565b5050565b600160009054906101000a900473ffffffffffffffffffffffffffffffffffffffff1673ffffffffffffffffffffffffffffffffffffffff1663b19a437e828460006040518463ffffffff1660e01b8152600401620003d5939291906200205b565b6020604051808303816000875af1158015620003f5573d6000803e3d6000fd5b505050506040513d601f19601f820116820180604052508101906200041b91906200209f565b505050565b60006003600083815260200190815260200160002060009054906101000a900473ffffffffffffffffffffffffffffffffffffffff169050919050565b600060017f00000000000000000000000000000000000000000000000000000000000000006200048e91906200210a565b90506000620004a7828462000c1490919063ffffffff16565b90507f00000000000000000000000000000000000000000000000000000000000000006020620004d891906200210a565b82620004e591906200210a565b91506000620004fe838562000c1490919063ffffffff16565b905060207f00000000000000000000000000000000000000000000000000000000000000006200052f91906200210a565b836200053c91906200210a565b9250600062000555848662000c1490919063ffffffff16565b73__Bytes32Lib____________________________635ced058e90916040518263ffffffff1660e01b81526004016200058f919062002156565b602060405180830381865af4158015620005ad573d6000803e3d6000fd5b505050506040513d601f19601f82011682018060405250810190620005d391906200218a565b905060207f00000000000000000000000000000000000000000000000000000000000000006200060491906200210a565b846200061191906200210a565b935060006200062a858762000c1490919063ffffffff16565b73__Bytes32Lib____________________________635ced058e90916040518263ffffffff1660e01b815260040162000664919062002156565b602060405180830381865af415801562000682573d6000803e3d6000fd5b505050506040513d601f19601f82011682018060405250810190620006a891906200218a565b905060007f00000000000000000000000000000000000000000000000000000000000000006389d29c4c60e01b8686863087600560009054906101000a900473ffffffffffffffffffffffffffffffffffffffff166040516024016200071496959493929190620021cd565b604051602081830303815290604052907bffffffffffffffffffffffffffffffffffffffffffffffffffffffff19166020820180517bffffffffffffffffffffffffffffffffffffffffffffffffffffffff83818316178352505050506040516200077f906200168e565b6200078c9291906200223a565b604051809103906000f080158015620007a9573d6000803e3d6000fd5b5090507f9099ae82a8175f9cad9ec57c0a752f8c8e49bdf09ecda4762af8d3bfd52d6ecf85858584604051620007e394939291906200226e565b60405180910390a1806003600087815260200190815260200160002060006101000a81548173ffffffffffffffffffffffffffffffffffffffff021916908373ffffffffffffffffffffffffffffffffffffffff16021790555050505050505050565b62000850620008d0565b600073ffffffffffffffffffffffffffffffffffffffff168173ffffffffffffffffffffffffffffffffffffffff1603620008c2576040517f08c379a0000000000000000000000000000000000000000000000000000000008152600401620008b99062002342565b60405180910390fd5b620008cd8162000955565b50565b620008da62000c80565b73ffffffffffffffffffffffffffffffffffffffff16620008fa62000291565b73ffffffffffffffffffffffffffffffffffffffff161462000953576040517f08c379a00000000000000000000000000000000000000000000000000000000081526004016200094a90620023b4565b60405180910390fd5b565b60008060009054906101000a900473ffffffffffffffffffffffffffffffffffffffff169050816000806101000a81548173ffffffffffffffffffffffffffffffffffffffff021916908373ffffffffffffffffffffffffffffffffffffffff1602179055508173ffffffffffffffffffffffffffffffffffffffff168173ffffffffffffffffffffffffffffffffffffffff167f8be0079c531659141344cd1fd0a4f28419497f9722a3daafe3b4186f6b6457e060405160405180910390a35050565b60008160e0015160008151811062000a365762000a35620023d6565b5b602001015160f81c60f81b60f81c905060008160ff16600581111562000a615762000a6062002405565b5b90506000600581111562000a7a5762000a7962002405565b5b81600581111562000a905762000a8f62002405565b5b0362000aab5762000aa58360e001516200045d565b62000c0f565b6002600581111562000ac25762000ac162002405565b5b81600581111562000ad85762000ad762002405565b5b0362000af55762000aef8360e00151600162000c88565b62000c0e565b6003600581111562000b0c5762000b0b62002405565b5b81600581111562000b225762000b2162002405565b5b0362000b3d5762000b378360e001516200103c565b62000c0d565b6001600581111562000b545762000b5362002405565b5b81600581111562000b6a5762000b6962002405565b5b0362000b855762000b7f8360e0015162001321565b62000c0c565b60058081111562000b9b5762000b9a62002405565b5b81600581111562000bb15762000bb062002405565b5b0362000bce5762000bc88360e00151600062000c88565b62000c0b565b6040517f08c379a000000000000000000000000000000000000000000000000000000000815260040162000c029062002484565b60405180910390fd5b5b5b5b5b505050565b600060208262000c2591906200210a565b8351101562000c6b576040517f08c379a000000000000000000000000000000000000000000000000000000000815260040162000c6290620024f6565b60405180910390fd5b60008260208501015190508091505092915050565b600033905090565b60007f0000000000000000000000000000000000000000000000000000000000000000600162000cb991906200210a565b9050600062000cd2828562000c1490919063ffffffff16565b90507f0000000000000000000000000000000000000000000000000000000000000000602062000d0391906200210a565b8262000d1091906200210a565b9150600062000d29838662000c1490919063ffffffff16565b905060207f000000000000000000000000000000000000000000000000000000000000000062000d5a91906200210a565b8362000d6791906200210a565b9250600062000d80848762000c1490919063ffffffff16565b73__Bytes32Lib____________________________635ced058e90916040518263ffffffff1660e01b815260040162000dba919062002156565b602060405180830381865af415801562000dd8573d6000803e3d6000fd5b505050506040513d601f19601f8201168201806040525081019062000dfe91906200218a565b905060208462000e0f91906200210a565b9350600062000e28858862000c1490919063ffffffff16565b73__Bytes32Lib____________________________635ced058e90916040518263ffffffff1660e01b815260040162000e62919062002156565b602060405180830381865af415801562000e80573d6000803e3d6000fd5b505050506040513d601f19601f8201168201806040525081019062000ea691906200218a565b905060208562000eb791906200210a565b9450600062000ed0868962000c1490919063ffffffff16565b60001c905060006003600086815260200190815260200160002060009054906101000a900473ffffffffffffffffffffffffffffffffffffffff1690506000600181111562000f245762000f2362002405565b5b88600181111562000f3a5762000f3962002405565b5b0362000fbb578073ffffffffffffffffffffffffffffffffffffffff166314ef5cfa878685876040518563ffffffff1660e01b815260040162000f8194939291906200254e565b600060405180830381600087803b15801562000f9c57600080fd5b505af115801562000fb1573d6000803e3d6000fd5b5050505062001031565b8073ffffffffffffffffffffffffffffffffffffffff1663d15c484e878685876040518563ffffffff1660e01b815260040162000ffc94939291906200254e565b600060405180830381600087803b1580156200101757600080fd5b505af11580156200102c573d6000803e3d6000fd5b505050505b505050505050505050565b60007f000000000000000000000000000000000000000000000000000000000000000060016200106d91906200210a565b9050600062001086828462000c1490919063ffffffff16565b90507f00000000000000000000000000000000000000000000000000000000000000006020620010b791906200210a565b82620010c491906200210a565b91506000620010dd838562000c1490919063ffffffff16565b73__Bytes32Lib____________________________635ced058e90916040518263ffffffff1660e01b815260040162001117919062002156565b602060405180830381865af415801562001135573d6000803e3d6000fd5b505050506040513d601f19601f820116820180604052508101906200115b91906200218a565b90506020836200116c91906200210a565b9250600062001185848662000c1490919063ffffffff16565b73__Bytes32Lib____________________________635ced058e90916040518263ffffffff1660e01b8152600401620011bf919062002156565b602060405180830381865af4158015620011dd573d6000803e3d6000fd5b505050506040513d601f19601f820116820180604052508101906200120391906200218a565b90506020846200121491906200210a565b935060006003600085815260200190815260200160002060009054906101000a900473ffffffffffffffffffffffffffffffffffffffff169050600062001265868862000c1490919063ffffffff16565b60001c90508173ffffffffffffffffffffffffffffffffffffffff166319e64f588583866040518463ffffffff1660e01b8152600401620012a9939291906200259b565b600060405180830381600087803b158015620012c457600080fd5b505af1158015620012d9573d6000803e3d6000fd5b505050507fc95f8b91b103304386b955ef73fadac189f8ad66b33369b6c34a17a60db7bd0a848260405162001310929190620025d8565b60405180910390a150505050505050565b6000806200133982846200162290919063ffffffff16565b90507f000000000000000000000000000000000000000000000000000000000000000060016200136a91906200210a565b826200137791906200210a565b9150600062001390838562000c1490919063ffffffff16565b90507f00000000000000000000000000000000000000000000000000000000000000006020620013c191906200210a565b83620013ce91906200210a565b92506000620013e7848662000c1490919063ffffffff16565b90507f000000000000000000000000000000000000000000000000000000000000000060206200141891906200210a565b846200142591906200210a565b935060006200143e858762000c1490919063ffffffff16565b73__Bytes32Lib____________________________635ced058e90916040518263ffffffff1660e01b815260040162001478919062002156565b602060405180830381865af415801562001496573d6000803e3d6000fd5b505050506040513d601f19601f82011682018060405250810190620014bc91906200218a565b90507f00000000000000000000000000000000000000000000000000000000000000006020620014ed91906200210a565b85620014fa91906200210a565b945060006003600085815260200190815260200160002060009054906101000a900473ffffffffffffffffffffffffffffffffffffffff1690508073ffffffffffffffffffffffffffffffffffffffff1663fb1d97dc60405180608001604052808860ff1681526020018781526020018681526020018573ffffffffffffffffffffffffffffffffffffffff168152506040518263ffffffff1660e01b8152600401620015a8919062002695565b600060405180830381600087803b158015620015c357600080fd5b505af1158015620015d8573d6000803e3d6000fd5b505050507f783b09b8e9efccd70dd777755a66da9a5a3a6be7c7f8d4e92a8c25357b07f8488484846040516200161193929190620026b2565b60405180910390a150505050505050565b60006001826200163391906200210a565b8351101562001679576040517f08c379a000000000000000000000000000000000000000000000000000000000815260040162001670906200273f565b60405180910390fd5b60008260018501015190508091505092915050565b610b63806200276283390190565b600073ffffffffffffffffffffffffffffffffffffffff82169050919050565b6000620016c9826200169c565b9050919050565b620016db81620016bc565b82525050565b6000602082019050620016f86000830184620016d0565b92915050565b6000604051905090565b600080fd5b600080fd5b600061ffff82169050919050565b6200172b8162001712565b81146200173757600080fd5b50565b6000813590506200174b8162001720565b92915050565b6000819050919050565b620017668162001751565b81146200177257600080fd5b50565b60008135905062001786816200175b565b92915050565b60008060408385031215620017a657620017a562001708565b5b6000620017b6858286016200173a565b9250506020620017c98582860162001775565b9150509250929050565b600080fd5b600080fd5b6000601f19601f8301169050919050565b7f4e487b7100000000000000000000000000000000000000000000000000000000600052604160045260246000fd5b6200182882620017dd565b810181811067ffffffffffffffff821117156200184a5762001849620017ee565b5b80604052505050565b60006200185f620016fe565b90506200186d82826200181d565b919050565b600067ffffffffffffffff82111562001890576200188f620017ee565b5b6200189b82620017dd565b9050602081019050919050565b82818337600083830152505050565b6000620018ce620018c88462001872565b62001853565b905082815260208101848484011115620018ed57620018ec620017d8565b5b620018fa848285620018a8565b509392505050565b600082601f8301126200191a5762001919620017d3565b5b81356200192c848260208601620018b7565b91505092915050565b6000602082840312156200194e576200194d62001708565b5b600082013567ffffffffffffffff8111156200196f576200196e6200170d565b5b6200197d8482850162001902565b91505092915050565b600060ff82169050919050565b6200199e8162001986565b8114620019aa57600080fd5b50565b600081359050620019be8162001993565b92915050565b60008060408385031215620019de57620019dd62001708565b5b600083013567ffffffffffffffff811115620019ff57620019fe6200170d565b5b62001a0d8582860162001902565b925050602062001a2085828601620019ad565b9150509250929050565b60006020828403121562001a435762001a4262001708565b5b600062001a538482850162001775565b91505092915050565b62001a6781620016bc565b811462001a7357600080fd5b50565b60008135905062001a878162001a5c565b92915050565b60006020828403121562001aa65762001aa562001708565b5b600062001ab68482850162001a76565b91505092915050565b600081519050919050565b600082825260208201905092915050565b60005b8381101562001afb57808201518184015260208101905062001ade565b60008484015250505050565b600062001b148262001abf565b62001b20818562001aca565b935062001b3281856020860162001adb565b62001b3d81620017dd565b840191505092915050565b6000602082019050818103600083015262001b64818462001b07565b905092915050565b600080fd5b600080fd5b60008151905062001b878162001993565b92915050565b600063ffffffff82169050919050565b62001ba88162001b8d565b811462001bb457600080fd5b50565b60008151905062001bc88162001b9d565b92915050565b60008151905062001bdf8162001720565b92915050565b60008151905062001bf6816200175b565b92915050565b600067ffffffffffffffff82169050919050565b62001c1b8162001bfc565b811462001c2757600080fd5b50565b60008151905062001c3b8162001c10565b92915050565b600062001c5862001c528462001872565b62001853565b90508281526020810184848401111562001c775762001c76620017d8565b5b62001c8484828562001adb565b509392505050565b600082601f83011262001ca45762001ca3620017d3565b5b815162001cb684826020860162001c41565b91505092915050565b600067ffffffffffffffff82111562001cdd5762001cdc620017ee565b5b602082029050602081019050919050565b600080fd5b60006080828403121562001d0c5762001d0b62001b6c565b5b62001d18608062001853565b9050600062001d2a8482850162001be5565b600083015250602062001d408482850162001be5565b602083015250604062001d568482850162001b76565b604083015250606062001d6c8482850162001b76565b60608301525092915050565b600062001d8f62001d898462001cbf565b62001853565b9050808382526020820190506080840283018581111562001db55762001db462001cee565b5b835b8181101562001de2578062001dcd888262001cf3565b84526020840193505060808101905062001db7565b5050509392505050565b600082601f83011262001e045762001e03620017d3565b5b815162001e1684826020860162001d78565b91505092915050565b6000610160828403121562001e395762001e3862001b6c565b5b62001e4661016062001853565b9050600062001e588482850162001b76565b600083015250602062001e6e8482850162001bb7565b602083015250604062001e848482850162001bb7565b604083015250606062001e9a8482850162001bce565b606083015250608062001eb08482850162001be5565b60808301525060a062001ec68482850162001c2a565b60a08301525060c062001edc8482850162001b76565b60c08301525060e082015167ffffffffffffffff81111562001f035762001f0262001b71565b5b62001f118482850162001c8c565b60e08301525061010062001f288482850162001bb7565b6101008301525061012082015167ffffffffffffffff81111562001f515762001f5062001b71565b5b62001f5f8482850162001dec565b6101208301525061014062001f778482850162001be5565b6101408301525092915050565b60006020828403121562001f9d5762001f9c62001708565b5b600082015167ffffffffffffffff81111562001fbe5762001fbd6200170d565b5b62001fcc8482850162001e1f565b91505092915050565b6000819050919050565b60006200200062001ffa62001ff48462001986565b62001fd5565b62001b8d565b9050919050565b620020128162001fdf565b82525050565b6000819050919050565b6000620020436200203d620020378462002018565b62001fd5565b62001986565b9050919050565b620020558162002022565b82525050565b600060608201905062002072600083018662002007565b818103602083015262002086818562001b07565b90506200209760408301846200204a565b949350505050565b600060208284031215620020b857620020b762001708565b5b6000620020c88482850162001c2a565b91505092915050565b6000819050919050565b7f4e487b7100000000000000000000000000000000000000000000000000000000600052601160045260246000fd5b60006200211782620020d1565b91506200212483620020d1565b92508282019050808211156200213f576200213e620020db565b5b92915050565b620021508162001751565b82525050565b60006020820190506200216d600083018462002145565b92915050565b600081519050620021848162001a5c565b92915050565b600060208284031215620021a357620021a262001708565b5b6000620021b38482850162002173565b91505092915050565b620021c78162001751565b82525050565b600060c082019050620021e46000830189620021bc565b620021f36020830188620021bc565b620022026040830187620016d0565b620022116060830186620016d0565b620022206080830185620016d0565b6200222f60a0830184620016d0565b979650505050505050565b6000604082019050620022516000830185620016d0565b818103602083015262002265818462001b07565b90509392505050565b6000608082019050620022856000830187620021bc565b620022946020830186620021bc565b620022a36040830185620016d0565b620022b26060830184620016d0565b95945050505050565b600082825260208201905092915050565b7f4f776e61626c653a206e6577206f776e657220697320746865207a65726f206160008201527f6464726573730000000000000000000000000000000000000000000000000000602082015250565b60006200232a602683620022bb565b91506200233782620022cc565b604082019050919050565b600060208201905081810360008301526200235d816200231b565b9050919050565b7f4f776e61626c653a2063616c6c6572206973206e6f7420746865206f776e6572600082015250565b60006200239c602083620022bb565b9150620023a98262002364565b602082019050919050565b60006020820190508181036000830152620023cf816200238d565b9050919050565b7f4e487b7100000000000000000000000000000000000000000000000000000000600052603260045260246000fd5b7f4e487b7100000000000000000000000000000000000000000000000000000000600052602160045260246000fd5b7f556e737570706f7274656420554e51576f726d686f6c6520616374696f6e0000600082015250565b60006200246c601e83620022bb565b9150620024798262002434565b602082019050919050565b600060208201905081810360008301526200249f816200245d565b9050919050565b7f746f427974657333325f6f75744f66426f756e64730000000000000000000000600082015250565b6000620024de601583620022bb565b9150620024eb82620024a6565b602082019050919050565b600060208201905081810360008301526200251181620024cf565b9050919050565b600062002525826200169c565b9050919050565b620025378162002518565b82525050565b6200254881620020d1565b82525050565b6000608082019050620025656000830187620021bc565b6200257460208301866200252c565b6200258360408301856200253d565b620025926060830184620016d0565b95945050505050565b6000606082019050620025b260008301866200252c565b620025c160208301856200253d565b620025d06040830184620016d0565b949350505050565b6000604082019050620025ef6000830185620016d0565b620025fe60208301846200253d565b9392505050565b620026108162001986565b82525050565b620026218162001751565b82525050565b6200263281620016bc565b82525050565b60808201600082015162002650600085018262002605565b50602082015162002665602085018262002616565b5060408201516200267a604085018262002616565b5060608201516200268f606085018262002627565b50505050565b6000608082019050620026ac600083018462002638565b92915050565b6000606082019050620026c96000830186620021bc565b620026d86020830185620021bc565b620026e76040830184620016d0565b949350505050565b7f746f55696e74385f6f75744f66426f756e647300000000000000000000000000600082015250565b600062002727601383620022bb565b91506200273482620026ef565b602082019050919050565b600060208201905081810360008301526200275a8162002718565b905091905056fe608060405260405162000b6338038062000b638339818101604052810190610027919061063b565b6100398282600061004060201b60201c565b5050610929565b61004f8361012960201b60201c565b8273ffffffffffffffffffffffffffffffffffffffff167f1cf3b03a6cf19fa2baba4df148e9dcabedea7f8a5c07840e207e5c089be95d3e60405160405180910390a260008251118061009f5750805b15610124576101228373ffffffffffffffffffffffffffffffffffffffff16635c60da1b6040518163ffffffff1660e01b8152600401602060405180830381865afa1580156100f2573d6000803e3d6000fd5b505050506040513d601f19601f820116820180604052508101906101169190610697565b836102aa60201b60201c565b505b505050565b610138816102de60201b60201c565b610177576040517f08c379a000000000000000000000000000000000000000000000000000000000815260040161016e90610747565b60405180910390fd5b6101f48173ffffffffffffffffffffffffffffffffffffffff16635c60da1b6040518163ffffffff1660e01b8152600401602060405180830381865afa1580156101c5573d6000803e3d6000fd5b505050506040513d601f19601f820116820180604052508101906101e99190610697565b6102de60201b60201c565b610233576040517f08c379a000000000000000000000000000000000000000000000000000000000815260040161022a906107d9565b60405180910390fd5b806102667fa3f0ad74e5423aebfd80d3ef4346578335a9a72aeaee59ff6cb3582b35133d5060001b61030160201b60201c565b60000160006101000a81548173ffffffffffffffffffffffffffffffffffffffff021916908373ffffffffffffffffffffffffffffffffffffffff16021790555050565b60606102d6838360405180606001604052806027815260200162000b3c6027913961030b60201b60201c565b905092915050565b6000808273ffffffffffffffffffffffffffffffffffffffff163b119050919050565b6000819050919050565b60606000808573ffffffffffffffffffffffffffffffffffffffff16856040516103359190610840565b600060405180830381855af49150503d8060008114610370576040519150601f19603f3d011682016040523d82523d6000602084013e610375565b606091505b509150915061038c8683838761039760201b60201c565b925050509392505050565b606083156103ff5760008351036103f7576103b7856102de60201b60201c565b6103f6576040517f08c379a00000000000000000000000000000000000000000000000000000000081526004016103ed906108a3565b60405180910390fd5b5b829050610410565b61040f838361041860201b60201c565b5b949350505050565b60008251111561042b5781518083602001fd5b806040517f08c379a000000000000000000000000000000000000000000000000000000000815260040161045f9190610907565b60405180910390fd5b6000604051905090565b600080fd5b600080fd5b600073ffffffffffffffffffffffffffffffffffffffff82169050919050565b60006104a78261047c565b9050919050565b6104b78161049c565b81146104c257600080fd5b50565b6000815190506104d4816104ae565b92915050565b600080fd5b600080fd5b6000601f19601f8301169050919050565b7f4e487b7100000000000000000000000000000000000000000000000000000000600052604160045260246000fd5b61052d826104e4565b810181811067ffffffffffffffff8211171561054c5761054b6104f5565b5b80604052505050565b600061055f610468565b905061056b8282610524565b919050565b600067ffffffffffffffff82111561058b5761058a6104f5565b5b610594826104e4565b9050602081019050919050565b60005b838110156105bf5780820151818401526020810190506105a4565b60008484015250505050565b60006105de6105d984610570565b610555565b9050828152602081018484840111156105fa576105f96104df565b5b6106058482856105a1565b509392505050565b600082601f830112610622576106216104da565b5b81516106328482602086016105cb565b91505092915050565b6000806040838503121561065257610651610472565b5b6000610660858286016104c5565b925050602083015167ffffffffffffffff81111561068157610680610477565b5b61068d8582860161060d565b9150509250929050565b6000602082840312156106ad576106ac610472565b5b60006106bb848285016104c5565b91505092915050565b600082825260208201905092915050565b7f455243313936373a206e657720626561636f6e206973206e6f74206120636f6e60008201527f7472616374000000000000000000000000000000000000000000000000000000602082015250565b60006107316025836106c4565b915061073c826106d5565b604082019050919050565b6000602082019050818103600083015261076081610724565b9050919050565b7f455243313936373a20626561636f6e20696d706c656d656e746174696f6e206960008201527f73206e6f74206120636f6e747261637400000000000000000000000000000000602082015250565b60006107c36030836106c4565b91506107ce82610767565b604082019050919050565b600060208201905081810360008301526107f2816107b6565b9050919050565b600081519050919050565b600081905092915050565b600061081a826107f9565b6108248185610804565b93506108348185602086016105a1565b80840191505092915050565b600061084c828461080f565b915081905092915050565b7f416464726573733a2063616c6c20746f206e6f6e2d636f6e7472616374000000600082015250565b600061088d601d836106c4565b915061089882610857565b602082019050919050565b600060208201905081810360008301526108bc81610880565b9050919050565b600081519050919050565b60006108d9826108c3565b6108e381856106c4565b93506108f38185602086016105a1565b6108fc816104e4565b840191505092915050565b6000602082019050818103600083015261092181846108ce565b905092915050565b61020380620009396000396000f3fe6080604052366100135761001161001d565b005b61001b61001d565b005b610025610037565b610035610030610039565b6100b6565b565b565b60006100436100dc565b73ffffffffffffffffffffffffffffffffffffffff16635c60da1b6040518163ffffffff1660e01b8152600401602060405180830381865afa15801561008d573d6000803e3d6000fd5b505050506040513d601f19601f820116820180604052508101906100b191906101a0565b905090565b3660008037600080366000845af43d6000803e80600081146100d7573d6000f35b3d6000fd5b600061010a7fa3f0ad74e5423aebfd80d3ef4346578335a9a72aeaee59ff6cb3582b35133d5060001b610133565b60000160009054906101000a900473ffffffffffffffffffffffffffffffffffffffff16905090565b6000819050919050565b600080fd5b600073ffffffffffffffffffffffffffffffffffffffff82169050919050565b600061016d82610142565b9050919050565b61017d81610162565b811461018857600080fd5b50565b60008151905061019a81610174565b92915050565b6000602082840312156101b6576101b561013d565b5b60006101c48482850161018b565b9150509291505056fea2646970667358221220348a9bb9eb66b9d9029e4a97e3a702bb6010d5650cbfe8ab3f629695f291a1dc64736f6c63430008130033416464726573733a206c6f772d6c6576656c2064656c65676174652063616c6c206661696c6564a2646970667358221220da263c5fb8eda5c11028e9d75737fc5f8ef53d3a0175f219525614fd3970fad164736f6c6343000813003360a060405234801561001057600080fd5b5060405161139138038061139183398181016040528101906100329190610238565b61004e6100436100fc60201b60201c565b61010460201b60201c565b8060405161005b906101c8565b6100659190610274565b604051809103906000f080158015610081573d6000803e3d6000fd5b5073ffffffffffffffffffffffffffffffffffffffff1660808173ffffffffffffffffffffffffffffffffffffffff168152505032600160006101000a81548173ffffffffffffffffffffffffffffffffffffffff021916908373ffffffffffffffffffffffffffffffffffffffff1602179055505061028f565b600033905090565b60008060009054906101000a900473ffffffffffffffffffffffffffffffffffffffff169050816000806101000a81548173ffffffffffffffffffffffffffffffffffffffff021916908373ffffffffffffffffffffffffffffffffffffffff1602179055508173ffffffffffffffffffffffffffffffffffffffff168173ffffffffffffffffffffffffffffffffffffffff167f8be0079c531659141344cd1fd0a4f28419497f9722a3daafe3b4186f6b6457e060405160405180910390a35050565b6109cb806109c683390190565b600080fd5b600073ffffffffffffffffffffffffffffffffffffffff82169050919050565b6000610205826101da565b9050919050565b610215816101fa565b811461022057600080fd5b50565b6000815190506102328161020c565b92915050565b60006020828403121561024e5761024d6101d5565b5b600061025c84828501610223565b91505092915050565b61026e816101fa565b82525050565b60006020820190506102896000830184610265565b92915050565b60805161070e6102b860003960008181610105015281816101a1015261024b015261070e6000f3fe608060405234801561001057600080fd5b50600436106100625760003560e01c80635c60da1b146100675780636095b4b014610085578063715018a6146100a15780637792c319146100ab5780638da5cb5b146100c7578063f2fde38b146100e5575b600080fd5b61006f610101565b60405161007c919061050e565b60405180910390f35b61009f600480360381019061009a919061055a565b610197565b005b6100a961022d565b005b6100c560048036038101906100c0919061055a565b610241565b005b6100cf6102d7565b6040516100dc919061050e565b60405180910390f35b6100ff60048036038101906100fa919061055a565b610300565b005b60007f000000000000000000000000000000000000000000000000000000000000000073ffffffffffffffffffffffffffffffffffffffff16635c60da1b6040518163ffffffff1660e01b8152600401602060405180830381865afa15801561016e573d6000803e3d6000fd5b505050506040513d601f19601f82011682018060405250810190610192919061059c565b905090565b61019f610383565b7f000000000000000000000000000000000000000000000000000000000000000073ffffffffffffffffffffffffffffffffffffffff1663f2fde38b826040518263ffffffff1660e01b81526004016101f8919061050e565b600060405180830381600087803b15801561021257600080fd5b505af1158015610226573d6000803e3d6000fd5b5050505050565b610235610383565b61023f6000610401565b565b610249610383565b7f000000000000000000000000000000000000000000000000000000000000000073ffffffffffffffffffffffffffffffffffffffff16633659cfe6826040518263ffffffff1660e01b81526004016102a2919061050e565b600060405180830381600087803b1580156102bc57600080fd5b505af11580156102d0573d6000803e3d6000fd5b5050505050565b60008060009054906101000a900473ffffffffffffffffffffffffffffffffffffffff16905090565b610308610383565b600073ffffffffffffffffffffffffffffffffffffffff168173ffffffffffffffffffffffffffffffffffffffff1603610377576040517f08c379a000000000000000000000000000000000000000000000000000000000815260040161036e9061064c565b60405180910390fd5b61038081610401565b50565b61038b6104c5565b73ffffffffffffffffffffffffffffffffffffffff166103a96102d7565b73ffffffffffffffffffffffffffffffffffffffff16146103ff576040517f08c379a00000000000000000000000000000000000000000000000000000000081526004016103f6906106b8565b60405180910390fd5b565b60008060009054906101000a900473ffffffffffffffffffffffffffffffffffffffff169050816000806101000a81548173ffffffffffffffffffffffffffffffffffffffff021916908373ffffffffffffffffffffffffffffffffffffffff1602179055508173ffffffffffffffffffffffffffffffffffffffff168173ffffffffffffffffffffffffffffffffffffffff167f8be0079c531659141344cd1fd0a4f28419497f9722a3daafe3b4186f6b6457e060405160405180910390a35050565b600033905090565b600073ffffffffffffffffffffffffffffffffffffffff82169050919050565b60006104f8826104cd565b9050919050565b610508816104ed565b82525050565b600060208201905061052360008301846104ff565b92915050565b600080fd5b610537816104ed565b811461054257600080fd5b50565b6000813590506105548161052e565b92915050565b6000602082840312156105705761056f610529565b5b600061057e84828501610545565b91505092915050565b6000815190506105968161052e565b92915050565b6000602082840312156105b2576105b1610529565b5b60006105c084828501610587565b91505092915050565b600082825260208201905092915050565b7f4f776e61626c653a206e6577206f776e657220697320746865207a65726f206160008201527f6464726573730000000000000000000000000000000000000000000000000000602082015250565b60006106366026836105c9565b9150610641826105da565b604082019050919050565b6000602082019050818103600083015261066581610629565b9050919050565b7f4f776e61626c653a2063616c6c6572206973206e6f7420746865206f776e6572600082015250565b60006106a26020836105c9565b91506106ad8261066c565b602082019050919050565b600060208201905081810360008301526106d181610695565b905091905056fea2646970667358221220e391bc89310341a91170c27326c556a10b7fe725a2177cf3d4b7ca33c91dbc1e64736f6c63430008130033608060405234801561001057600080fd5b506040516109cb3803806109cb83398181016040528101906100329190610247565b61004e61004361006360201b60201c565b61006b60201b60201c565b61005d8161012f60201b60201c565b50610317565b600033905090565b60008060009054906101000a900473ffffffffffffffffffffffffffffffffffffffff169050816000806101000a81548173ffffffffffffffffffffffffffffffffffffffff021916908373ffffffffffffffffffffffffffffffffffffffff1602179055508173ffffffffffffffffffffffffffffffffffffffff168173ffffffffffffffffffffffffffffffffffffffff167f8be0079c531659141344cd1fd0a4f28419497f9722a3daafe3b4186f6b6457e060405160405180910390a35050565b61013e816101c160201b60201c565b61017d576040517f08c379a0000000000000000000000000000000000000000000000000000000008152600401610174906102f7565b60405180910390fd5b80600160006101000a81548173ffffffffffffffffffffffffffffffffffffffff021916908373ffffffffffffffffffffffffffffffffffffffff16021790555050565b6000808273ffffffffffffffffffffffffffffffffffffffff163b119050919050565b600080fd5b600073ffffffffffffffffffffffffffffffffffffffff82169050919050565b6000610214826101e9565b9050919050565b61022481610209565b811461022f57600080fd5b50565b6000815190506102418161021b565b92915050565b60006020828403121561025d5761025c6101e4565b5b600061026b84828501610232565b91505092915050565b600082825260208201905092915050565b7f5570677261646561626c65426561636f6e3a20696d706c656d656e746174696f60008201527f6e206973206e6f74206120636f6e747261637400000000000000000000000000602082015250565b60006102e1603383610274565b91506102ec82610285565b604082019050919050565b60006020820190508181036000830152610310816102d4565b9050919050565b6106a5806103266000396000f3fe608060405234801561001057600080fd5b50600436106100575760003560e01c80633659cfe61461005c5780635c60da1b14610078578063715018a6146100965780638da5cb5b146100a0578063f2fde38b146100be575b600080fd5b61007660048036038101906100719190610477565b6100da565b005b610080610131565b60405161008d91906104b3565b60405180910390f35b61009e61015b565b005b6100a861016f565b6040516100b591906104b3565b60405180910390f35b6100d860048036038101906100d39190610477565b610198565b005b6100e261021b565b6100eb81610299565b8073ffffffffffffffffffffffffffffffffffffffff167fbc7cd75a20ee27fd9adebab32041f755214dbc6bffa90cc0225b39da2e5c2d3b60405160405180910390a250565b6000600160009054906101000a900473ffffffffffffffffffffffffffffffffffffffff16905090565b61016361021b565b61016d6000610325565b565b60008060009054906101000a900473ffffffffffffffffffffffffffffffffffffffff16905090565b6101a061021b565b600073ffffffffffffffffffffffffffffffffffffffff168173ffffffffffffffffffffffffffffffffffffffff160361020f576040517f08c379a000000000000000000000000000000000000000000000000000000000815260040161020690610551565b60405180910390fd5b61021881610325565b50565b6102236103e9565b73ffffffffffffffffffffffffffffffffffffffff1661024161016f565b73ffffffffffffffffffffffffffffffffffffffff1614610297576040517f08c379a000000000000000000000000000000000000000000000000000000000815260040161028e906105bd565b60405180910390fd5b565b6102a2816103f1565b6102e1576040517f08c379a00000000000000000000000000000000000000000000000000000000081526004016102d89061064f565b60405180910390fd5b80600160006101000a81548173ffffffffffffffffffffffffffffffffffffffff021916908373ffffffffffffffffffffffffffffffffffffffff16021790555050565b60008060009054906101000a900473ffffffffffffffffffffffffffffffffffffffff169050816000806101000a81548173ffffffffffffffffffffffffffffffffffffffff021916908373ffffffffffffffffffffffffffffffffffffffff1602179055508173ffffffffffffffffffffffffffffffffffffffff168173ffffffffffffffffffffffffffffffffffffffff167f8be0079c531659141344cd1fd0a4f28419497f9722a3daafe3b4186f6b6457e060405160405180910390a35050565b600033905090565b6000808273ffffffffffffffffffffffffffffffffffffffff163b119050919050565b600080fd5b600073ffffffffffffffffffffffffffffffffffffffff82169050919050565b600061044482610419565b9050919050565b61045481610439565b811461045f57600080fd5b50565b6000813590506104718161044b565b92915050565b60006020828403121561048d5761048c610414565b5b600061049b84828501610462565b91505092915050565b6104ad81610439565b82525050565b60006020820190506104c860008301846104a4565b92915050565b600082825260208201905092915050565b7f4f776e61626c653a206e6577206f776e657220697320746865207a65726f206160008201527f6464726573730000000000000000000000000000000000000000000000000000602082015250565b600061053b6026836104ce565b9150610546826104df565b604082019050919050565b6000602082019050818103600083015261056a8161052e565b9050919050565b7f4f776e61626c653a2063616c6c6572206973206e6f7420746865206f776e6572600082015250565b60006105a76020836104ce565b91506105b282610571565b602082019050919050565b600060208201905081810360008301526105d68161059a565b9050919050565b7f5570677261646561626c65426561636f6e3a20696d706c656d656e746174696f60008201527f6e206973206e6f74206120636f6e747261637400000000000000000000000000602082015250565b60006106396033836104ce565b9150610644826105dd565b604082019050919050565b600060208201905081810360008301526106688161062c565b905091905056fea2646970667358221220d69e8e92745809479f1c6b08924400c32c983dee1e3e2b7fc8f8a6fba4e444d264736f6c63430008130033",
  "immutableReferences": {
    "3198": [
      {
        "length": 32,
        "start": 509
      },
      {
        "length": 32,
        "start": 1710
      }
    ],
    "3217": [
      {
        "length": 32,
        "start": 1123
      },
      {
        "length": 32,
        "start": 1195
      },
      {
        "length": 32,
        "start": 1284
      },
      {
        "length": 32,
        "start": 1497
      },
      {
        "length": 32,
        "start": 3212
      },
      {
        "length": 32,
        "start": 3286
      },
      {
        "length": 32,
        "start": 3375
      },
      {
        "length": 32,
        "start": 4160
      },
      {
        "length": 32,
        "start": 4234
      },
      {
        "length": 32,
        "start": 4925
      },
      {
        "length": 32,
        "start": 5012
      },
      {
        "length": 32,
        "start": 5099
      },
      {
        "length": 32,
        "start": 5312
      }
    ]
  },
  "source": "// SPDX-License-Identifier: Apache 2\npragma solidity ^0.8.19;\n\nimport \"../interface/IWormhole.sol\";\nimport \"../structs/UnqWormholeStructs.sol\";\nimport \"@openzeppelin/contracts/access/Ownable.sol\";\nimport \"@openzeppelin/contracts/proxy/beacon/BeaconProxy.sol\";\nimport \"./WormholeUnqBeacon.sol\";\nimport \"../libraries/BytesLib.sol\";\nimport \"../libraries/Bytes32Lib.sol\";\nimport \"../Treasury/UnqTreasury.sol\";\nimport \"@openzeppelin/contracts/token/ERC20/ERC20.sol\";\npragma experimental ABIEncoderV2;\n\ncontract WormholeUnq is UnqWormholeStructs, Ownable {\n    using BytesLib for bytes;\n    using Bytes32Lib for bytes32;\n\n    IWormhole core_contract;\n    address _owner;\n    WormholeUnqBeacon immutable _unqBeacon;\n    mapping(bytes32 => address) _treasuries;\n    mapping(uint16 => bytes32) _bridgeContracts;\n    address _relayerSigner;\n\n    event TransferFunds(address, uint256);\n\n    uint256 immutable CHAIN_ID_PAD = 4;\n\n    constructor(\n        address treasuryImplementation,\n        address relayerSigner,\n        address wormholeBridgeContract\n    ) {\n        core_contract = IWormhole(wormholeBridgeContract);\n        _owner = msg.sender;\n        _unqBeacon = new WormholeUnqBeacon(treasuryImplementation);\n        _relayerSigner = relayerSigner;\n    }\n\n    modifier onlyRegisteredContract(IWormhole.VM memory vm) {\n        bytes32 registeredChain = _bridgeContracts[vm.emitterChainId];\n        require(vm.emitterAddress == registeredChain, \"Wrong emitter address\");\n        _;\n    }\n\n    event TreasuryCreatedEvent(bytes32, bytes32, address, address);\n    event MemberEvent(bytes32, bytes32, address);\n\n    function parseVM(bytes memory encodedVM) public {\n        IWormhole.VM memory vm = core_contract.parseVM(encodedVM);\n\n        getActionFromPayload(vm);\n    }\n\n    function registerContract(\n        uint16 chainId,\n        bytes32 bridgeContractAddress\n    ) public onlyOwner {\n        _bridgeContracts[chainId] = bridgeContractAddress;\n    }\n\n    //TODO:add modifier for only registered contracts\n    function getActionFromPayload(IWormhole.VM memory vm) private {\n        uint8 actionBytes = uint8(vm.payload[0]);\n\n        UnqWormholeAction action = UnqWormholeAction(actionBytes);\n        if (action == UnqWormholeAction.CreateTreasury) {\n            createEthTreasury(vm.payload);\n        } else if (action == UnqWormholeAction.WithdrawFunds) {\n            withdrawFunds(\n                vm.payload,\n                UnqWormholeStructs.ClaimWithdrawAction.WithdrawFunds\n            );\n        } else if (action == UnqWormholeAction.TransferFunds) {\n            transferFunds(vm.payload);\n        } else if (action == UnqWormholeAction.AddMember) {\n            addMember(vm.payload);\n        } else if (action == UnqWormholeAction.ClaimFunds) {\n            withdrawFunds(\n                vm.payload,\n                UnqWormholeStructs.ClaimWithdrawAction.ClaimFunds\n            );\n        } else {\n            revert(\"Unsupported UNQWormhole action\");\n        }\n    }\n\n    function createEthTreasury(bytes memory vm) public {\n        uint256 index = CHAIN_ID_PAD + 1;\n        bytes32 solanaTreasury = vm.toBytes32(index);\n        index += 32 + CHAIN_ID_PAD;\n        bytes32 treasuryAuthority = vm.toBytes32(index);\n        index += CHAIN_ID_PAD + 32;\n        address denominatedCurrency = (vm.toBytes32(index)).bytes32ToAddress();\n        index += CHAIN_ID_PAD + 32;\n        address creator = (vm.toBytes32(index)).bytes32ToAddress();\n\n        BeaconProxy treasury = new BeaconProxy(\n            address(_unqBeacon),\n            abi.encodeWithSelector(\n                UnqTreasury(payable(address(0))).initialize.selector,\n                solanaTreasury,\n                treasuryAuthority,\n                denominatedCurrency,\n                address(this),\n                creator,\n                _relayerSigner\n            )\n        );\n\n        emit TreasuryCreatedEvent(\n            solanaTreasury,\n            treasuryAuthority,\n            denominatedCurrency,\n            address(treasury)\n        );\n\n        _treasuries[solanaTreasury] = address(treasury);\n    }\n\n    function transferFunds(bytes memory payload) private {\n        uint256 index = 1 + CHAIN_ID_PAD;\n        bytes32 solanaTreasury = payload.toBytes32(index);\n        index += 32 + CHAIN_ID_PAD;\n        address destination = (payload.toBytes32(index)).bytes32ToAddress();\n        index += 32;\n        address currency = (payload.toBytes32(index)).bytes32ToAddress();\n        index += 32;\n        UnqTreasury treasury = UnqTreasury(_treasuries[solanaTreasury]);\n        uint256 amount = uint256(payload.toBytes32(index));\n\n        treasury.transferFunds(payable(destination), amount, currency);\n        emit TransferFunds(destination, amount);\n    }\n\n    function withdrawFunds(\n        bytes memory payload,\n        UnqWormholeStructs.ClaimWithdrawAction action\n    ) private {\n        uint256 index = 1 + CHAIN_ID_PAD;\n        bytes32 solanaAddress = payload.toBytes32(index);\n        index += 32 + CHAIN_ID_PAD;\n        bytes32 solanaTreasury = payload.toBytes32(index);\n        index += CHAIN_ID_PAD + 32;\n        address ethAddress = (payload.toBytes32(index)).bytes32ToAddress();\n        index += 32;\n        address currency = (payload.toBytes32(index)).bytes32ToAddress();\n        index += 32;\n        uint256 amount = uint256(payload.toBytes32(index));\n        UnqTreasury treasury = UnqTreasury(_treasuries[solanaTreasury]);\n\n        if (action == UnqWormholeStructs.ClaimWithdrawAction.ClaimFunds) {\n            treasury.claimFunds(\n                solanaAddress,\n                payable(ethAddress),\n                amount,\n                currency\n            );\n        } else {\n            treasury.withdrawFunds(\n                solanaAddress,\n                payable(ethAddress),\n                amount,\n                currency\n            );\n        }\n    }\n\n    function executeProposal(bytes memory payload) private {\n        uint256 index = 1 + CHAIN_ID_PAD;\n\n        bytes32 solanaTreasuryAddress = payload.toBytes32(index);\n        index += 32;\n        address currency = (payload.toBytes32(index)).bytes32ToAddress();\n        index += 32;\n        uint256 amount = uint256(payload.toBytes32(index));\n        UnqTreasury treasury = UnqTreasury(_treasuries[solanaTreasuryAddress]);\n\n        treasury.executeWithdrawal(currency, amount);\n    }\n\n    function addMember(bytes memory payload) private {\n        uint256 index = 0;\n        uint8 action = payload.toUint8(index);\n        index += 1 + CHAIN_ID_PAD;\n        bytes32 solanaTreasury = payload.toBytes32(index);\n        index += 32 + CHAIN_ID_PAD;\n        bytes32 solanaAddress = payload.toBytes32(index);\n        index += 32 + CHAIN_ID_PAD;\n        address ethAddress = (payload.toBytes32(index)).bytes32ToAddress();\n        index += 32 + CHAIN_ID_PAD;\n\n        UnqTreasury treasury = UnqTreasury(_treasuries[solanaTreasury]);\n        treasury.addNewMember(\n            UnqWormholeStructs.AddMemberAction(\n                action,\n                solanaTreasury,\n                solanaAddress,\n                ethAddress\n            )\n        );\n        emit MemberEvent(solanaTreasury, solanaAddress, ethAddress);\n    }\n\n    function getBeacon() public view returns (address) {\n        return address(_unqBeacon);\n    }\n\n    function getTreasury(\n        bytes32 realmAddress\n    ) public view returns (address treasury) {\n        return _treasuries[realmAddress];\n    }\n\n    function getOwner() public view returns (address) {\n        return _owner;\n    }\n\n    function pushWomrholeMessage(bytes memory payload, uint8 nonce) public {\n        core_contract.publishMessage(nonce, payload, 0);\n    }\n}\n",
  "sourcePath": "/Users/gorangutovic/Desktop/unique/unq-treasury-eth/contracts/Wormhole/WormholeUnq.sol",
  "compiler": {
    "name": "solc",
    "version": "0.8.19+commit.7dd6d404.Emscripten.clang"
  },
  "schemaVersion": "3.4.11",
  "updatedAt": "2023-05-25T10:45:06.707Z",
  "networkType": "ethereum",
  "devdoc": {
    "kind": "dev",
    "methods": {
      "owner()": {
        "details": "Returns the address of the current owner."
      },
      "renounceOwnership()": {
        "details": "Leaves the contract without owner. It will not be possible to call `onlyOwner` functions anymore. Can only be called by the current owner. NOTE: Renouncing ownership will leave the contract without an owner, thereby removing any functionality that is only available to the owner."
      },
      "transferOwnership(address)": {
        "details": "Transfers ownership of the contract to a new account (`newOwner`). Can only be called by the current owner."
      }
    },
    "version": 1
  },
  "userdoc": {
    "kind": "user",
    "methods": {},
    "version": 1
  }
}