{
  "contractName": "WormholeUnq",
  "abi": [
    {
      "inputs": [
        {
          "internalType": "address",
          "name": "treasuryImplementation",
          "type": "address"
        },
        {
          "internalType": "address",
          "name": "relayerSigner",
          "type": "address"
        }
      ],
      "stateMutability": "nonpayable",
      "type": "constructor"
    },
    {
      "anonymous": false,
      "inputs": [
        {
          "indexed": false,
          "internalType": "bytes32",
          "name": "",
          "type": "bytes32"
        },
        {
          "indexed": false,
          "internalType": "bytes32",
          "name": "",
          "type": "bytes32"
        },
        {
          "indexed": false,
          "internalType": "address",
          "name": "",
          "type": "address"
        }
      ],
      "name": "MemberEvent",
      "type": "event"
    },
    {
      "anonymous": false,
      "inputs": [
        {
          "indexed": true,
          "internalType": "address",
          "name": "previousOwner",
          "type": "address"
        },
        {
          "indexed": true,
          "internalType": "address",
          "name": "newOwner",
          "type": "address"
        }
      ],
      "name": "OwnershipTransferred",
      "type": "event"
    },
    {
      "anonymous": false,
      "inputs": [
        {
          "indexed": false,
          "internalType": "bytes32",
          "name": "",
          "type": "bytes32"
        },
        {
          "indexed": false,
          "internalType": "bytes32",
          "name": "",
          "type": "bytes32"
        },
        {
          "indexed": false,
          "internalType": "address",
          "name": "",
          "type": "address"
        },
        {
          "indexed": false,
          "internalType": "address",
          "name": "",
          "type": "address"
        }
      ],
      "name": "TreasuryCreatedEvent",
      "type": "event"
    },
    {
      "inputs": [],
      "name": "owner",
      "outputs": [
        {
          "internalType": "address",
          "name": "",
          "type": "address"
        }
      ],
      "stateMutability": "view",
      "type": "function",
      "constant": true
    },
    {
      "inputs": [],
      "name": "renounceOwnership",
      "outputs": [],
      "stateMutability": "nonpayable",
      "type": "function"
    },
    {
      "inputs": [
        {
          "internalType": "address",
          "name": "newOwner",
          "type": "address"
        }
      ],
      "name": "transferOwnership",
      "outputs": [],
      "stateMutability": "nonpayable",
      "type": "function"
    },
    {
      "inputs": [
        {
          "internalType": "bytes",
          "name": "encodedVM",
          "type": "bytes"
        }
      ],
      "name": "parseVM",
      "outputs": [],
      "stateMutability": "nonpayable",
      "type": "function"
    },
    {
      "inputs": [
        {
          "internalType": "uint16",
          "name": "chainId",
          "type": "uint16"
        },
        {
          "internalType": "bytes32",
          "name": "bridgeContractAddress",
          "type": "bytes32"
        }
      ],
      "name": "registerContract",
      "outputs": [],
      "stateMutability": "nonpayable",
      "type": "function"
    },
    {
      "inputs": [
        {
          "internalType": "bytes",
          "name": "vm",
          "type": "bytes"
        }
      ],
      "name": "createEthTreasury",
      "outputs": [],
      "stateMutability": "nonpayable",
      "type": "function"
    },
    {
      "inputs": [],
      "name": "getBeacon",
      "outputs": [
        {
          "internalType": "address",
          "name": "",
          "type": "address"
        }
      ],
      "stateMutability": "view",
      "type": "function",
      "constant": true
    },
    {
      "inputs": [
        {
          "internalType": "bytes32",
          "name": "realmAddress",
          "type": "bytes32"
        }
      ],
      "name": "getTreasury",
      "outputs": [
        {
          "internalType": "address",
          "name": "treasury",
          "type": "address"
        }
      ],
      "stateMutability": "view",
      "type": "function",
      "constant": true
    },
    {
      "inputs": [],
      "name": "getOwner",
      "outputs": [
        {
          "internalType": "address",
          "name": "",
          "type": "address"
        }
      ],
      "stateMutability": "view",
      "type": "function",
      "constant": true
    }
  ],
  "bytecode": "0x60c0604052600460a0908152503480156200001957600080fd5b506040516200450f3803806200450f83398181016040528101906200003f9190620002ee565b6200005f62000053620001aa60201b60201c565b620001b260201b60201c565b73c89ce4735882c9f0f0fe26686c53074e09b0d550600160006101000a81548173ffffffffffffffffffffffffffffffffffffffff021916908373ffffffffffffffffffffffffffffffffffffffff16021790555033600260006101000a81548173ffffffffffffffffffffffffffffffffffffffff021916908373ffffffffffffffffffffffffffffffffffffffff16021790555081604051620001049062000276565b62000110919062000346565b604051809103906000f0801580156200012d573d6000803e3d6000fd5b5073ffffffffffffffffffffffffffffffffffffffff1660808173ffffffffffffffffffffffffffffffffffffffff168152505080600560006101000a81548173ffffffffffffffffffffffffffffffffffffffff021916908373ffffffffffffffffffffffffffffffffffffffff160217905550505062000363565b600033905090565b60008060009054906101000a900473ffffffffffffffffffffffffffffffffffffffff169050816000806101000a81548173ffffffffffffffffffffffffffffffffffffffff021916908373ffffffffffffffffffffffffffffffffffffffff1602179055508173ffffffffffffffffffffffffffffffffffffffff168173ffffffffffffffffffffffffffffffffffffffff167f8be0079c531659141344cd1fd0a4f28419497f9722a3daafe3b4186f6b6457e060405160405180910390a35050565b611395806200317a83390190565b600080fd5b600073ffffffffffffffffffffffffffffffffffffffff82169050919050565b6000620002b68262000289565b9050919050565b620002c881620002a9565b8114620002d457600080fd5b50565b600081519050620002e881620002bd565b92915050565b6000806040838503121562000308576200030762000284565b5b60006200031885828601620002d7565b92505060206200032b85828601620002d7565b9150509250929050565b6200034081620002a9565b82525050565b60006020820190506200035d600083018462000335565b92915050565b60805160a051612db9620003c1600039600081816103da015281816104220152818161047b01528181610ad601528181610b2d01528181610b8401528181610bdb0152610cb00152600081816101d101526105500152612db96000f3fe60806040523480156200001157600080fd5b5060043610620000a05760003560e01c80638da5cb5b116200006f5780638da5cb5b1462000115578063a9e118931462000137578063ccc06fe51462000157578063e2908634146200018d578063f2fde38b14620001ad57620000a0565b80632d6b3a6b14620000a557806351e2d7b514620000c7578063715018a614620000e7578063893d20e814620000f3575b600080fd5b620000af620001cd565b604051620000be919062000ed8565b60405180910390f35b620000e56004803603810190620000df919062000f83565b620001f5565b005b620000f162000223565b005b620000fd6200023b565b6040516200010c919062000ed8565b60405180910390f35b6200011f62000265565b6040516200012e919062000ed8565b60405180910390f35b6200015560048036038101906200014f91906200112c565b6200028e565b005b6200017560048036038101906200016f91906200117d565b62000397565b60405162000184919062000ed8565b60405180910390f35b620001ab6004803603810190620001a591906200112c565b620003d4565b005b620001cb6004803603810190620001c59190620011e0565b620006bf565b005b60007f0000000000000000000000000000000000000000000000000000000000000000905090565b620001ff62000749565b80600460008461ffff1661ffff168152602001908152602001600020819055505050565b6200022d62000749565b620002396000620007ce565b565b6000600260009054906101000a900473ffffffffffffffffffffffffffffffffffffffff16905090565b60008060009054906101000a900473ffffffffffffffffffffffffffffffffffffffff16905090565b6000806000600160009054906101000a900473ffffffffffffffffffffffffffffffffffffffff1673ffffffffffffffffffffffffffffffffffffffff1663c0fd8bde856040518263ffffffff1660e01b8152600401620002f091906200129b565b600060405180830381865afa1580156200030e573d6000803e3d6000fd5b505050506040513d6000823e3d601f19601f82011682018060405250810190620003399190620017ef565b92509250925081819062000385576040517f08c379a00000000000000000000000000000000000000000000000000000000081526004016200037c9190620018e6565b60405180910390fd5b50620003918362000892565b50505050565b60006003600083815260200190815260200160002060009054906101000a900473ffffffffffffffffffffffffffffffffffffffff169050919050565b600060017f000000000000000000000000000000000000000000000000000000000000000062000405919062001943565b905060006200041e828462000a4090919063ffffffff16565b90507f000000000000000000000000000000000000000000000000000000000000000060206200044f919062001943565b826200045c919062001943565b9150600062000475838562000a4090919063ffffffff16565b905060207f0000000000000000000000000000000000000000000000000000000000000000620004a6919062001943565b83620004b3919062001943565b92506000620004cc848662000a4090919063ffffffff16565b73__Bytes32Lib____________________________635ced058e90916040518263ffffffff1660e01b81526004016200050691906200198f565b602060405180830381865af415801562000524573d6000803e3d6000fd5b505050506040513d601f19601f820116820180604052508101906200054a9190620019c3565b905060007f0000000000000000000000000000000000000000000000000000000000000000637917222260e01b8585856040516024016200058e9392919062001a06565b604051602081830303815290604052907bffffffffffffffffffffffffffffffffffffffffffffffffffffffff19166020820180517bffffffffffffffffffffffffffffffffffffffffffffffffffffffff8381831617835250505050604051620005f99062000e85565b6200060692919062001a43565b604051809103906000f08015801562000623573d6000803e3d6000fd5b5090507f9099ae82a8175f9cad9ec57c0a752f8c8e49bdf09ecda4762af8d3bfd52d6ecf848484846040516200065d949392919062001a77565b60405180910390a1806003600086815260200190815260200160002060006101000a81548173ffffffffffffffffffffffffffffffffffffffff021916908373ffffffffffffffffffffffffffffffffffffffff160217905550505050505050565b620006c962000749565b600073ffffffffffffffffffffffffffffffffffffffff168173ffffffffffffffffffffffffffffffffffffffff16036200073b576040517f08c379a0000000000000000000000000000000000000000000000000000000008152600401620007329062001b3a565b60405180910390fd5b6200074681620007ce565b50565b6200075362000aac565b73ffffffffffffffffffffffffffffffffffffffff166200077362000265565b73ffffffffffffffffffffffffffffffffffffffff1614620007cc576040517f08c379a0000000000000000000000000000000000000000000000000000000008152600401620007c39062001bac565b60405180910390fd5b565b60008060009054906101000a900473ffffffffffffffffffffffffffffffffffffffff169050816000806101000a81548173ffffffffffffffffffffffffffffffffffffffff021916908373ffffffffffffffffffffffffffffffffffffffff1602179055508173ffffffffffffffffffffffffffffffffffffffff168173ffffffffffffffffffffffffffffffffffffffff167f8be0079c531659141344cd1fd0a4f28419497f9722a3daafe3b4186f6b6457e060405160405180910390a35050565b60008160e00151600081518110620008af57620008ae62001bce565b5b602001015160f81c60f81b60f81c905060008160ff166003811115620008da57620008d962001bfd565b5b905060006003811115620008f357620008f262001bfd565b5b81600381111562000909576200090862001bfd565b5b0362000924576200091e8360e00151620003d4565b62000a3b565b600260038111156200093b576200093a62001bfd565b5b81600381111562000951576200095062001bfd565b5b036200096c57620009668360e0015162000ab4565b62000a3a565b60038081111562000982576200098162001bfd565b5b81600381111562000998576200099762001bfd565b5b03620009b357620009ad8360e0015162000ab7565b62000a39565b60016003811115620009ca57620009c962001bfd565b5b816003811115620009e057620009df62001bfd565b5b03620009fb57620009f58360e0015162000aba565b62000a38565b6040517f08c379a000000000000000000000000000000000000000000000000000000000815260040162000a2f9062001c7c565b60405180910390fd5b5b5b5b505050565b600060208262000a51919062001943565b8351101562000a97576040517f08c379a000000000000000000000000000000000000000000000000000000000815260040162000a8e9062001cee565b60405180910390fd5b60008260208501015190508091505092915050565b600033905090565b50565b50565b60008062000ad2828462000e1990919063ffffffff16565b90507f0000000000000000000000000000000000000000000000000000000000000000600162000b03919062001943565b8262000b10919062001943565b9150600062000b29838562000a4090919063ffffffff16565b90507f0000000000000000000000000000000000000000000000000000000000000000602062000b5a919062001943565b8362000b67919062001943565b9250600062000b80848662000a4090919063ffffffff16565b90507f0000000000000000000000000000000000000000000000000000000000000000602062000bb1919062001943565b8462000bbe919062001943565b9350600062000bd7858762000a4090919063ffffffff16565b90507f0000000000000000000000000000000000000000000000000000000000000000602062000c08919062001943565b8562000c15919062001943565b9450600062000c2e868862000a4090919063ffffffff16565b73__Bytes32Lib____________________________635ced058e90916040518263ffffffff1660e01b815260040162000c6891906200198f565b602060405180830381865af415801562000c86573d6000803e3d6000fd5b505050506040513d601f19601f8201168201806040525081019062000cac9190620019c3565b90507f0000000000000000000000000000000000000000000000000000000000000000602062000cdd919062001943565b8662000cea919062001943565b955060006003600086815260200190815260200160002060009054906101000a900473ffffffffffffffffffffffffffffffffffffffff1690508073ffffffffffffffffffffffffffffffffffffffff16634675f1256040518060a001604052808960ff1681526020018881526020018781526020018681526020018573ffffffffffffffffffffffffffffffffffffffff168152506040518263ffffffff1660e01b815260040162000d9e919062001db5565b600060405180830381600087803b15801562000db957600080fd5b505af115801562000dce573d6000803e3d6000fd5b505050507f783b09b8e9efccd70dd777755a66da9a5a3a6be7c7f8d4e92a8c25357b07f84885858460405162000e079392919062001a06565b60405180910390a15050505050505050565b600060018262000e2a919062001943565b8351101562000e70576040517f08c379a000000000000000000000000000000000000000000000000000000000815260040162000e679062001e22565b60405180910390fd5b60008260018501015190508091505092915050565b610f3f8062001e4583390190565b600073ffffffffffffffffffffffffffffffffffffffff82169050919050565b600062000ec08262000e93565b9050919050565b62000ed28162000eb3565b82525050565b600060208201905062000eef600083018462000ec7565b92915050565b6000604051905090565b600080fd5b600080fd5b600061ffff82169050919050565b62000f228162000f09565b811462000f2e57600080fd5b50565b60008135905062000f428162000f17565b92915050565b6000819050919050565b62000f5d8162000f48565b811462000f6957600080fd5b50565b60008135905062000f7d8162000f52565b92915050565b6000806040838503121562000f9d5762000f9c62000eff565b5b600062000fad8582860162000f31565b925050602062000fc08582860162000f6c565b9150509250929050565b600080fd5b600080fd5b6000601f19601f8301169050919050565b7f4e487b7100000000000000000000000000000000000000000000000000000000600052604160045260246000fd5b6200101f8262000fd4565b810181811067ffffffffffffffff8211171562001041576200104062000fe5565b5b80604052505050565b60006200105662000ef5565b905062001064828262001014565b919050565b600067ffffffffffffffff82111562001087576200108662000fe5565b5b620010928262000fd4565b9050602081019050919050565b82818337600083830152505050565b6000620010c5620010bf8462001069565b6200104a565b905082815260208101848484011115620010e457620010e362000fcf565b5b620010f18482856200109f565b509392505050565b600082601f83011262001111576200111062000fca565b5b813562001123848260208601620010ae565b91505092915050565b60006020828403121562001145576200114462000eff565b5b600082013567ffffffffffffffff81111562001166576200116562000f04565b5b6200117484828501620010f9565b91505092915050565b60006020828403121562001196576200119562000eff565b5b6000620011a68482850162000f6c565b91505092915050565b620011ba8162000eb3565b8114620011c657600080fd5b50565b600081359050620011da81620011af565b92915050565b600060208284031215620011f957620011f862000eff565b5b60006200120984828501620011c9565b91505092915050565b600081519050919050565b600082825260208201905092915050565b60005b838110156200124e57808201518184015260208101905062001231565b60008484015250505050565b6000620012678262001212565b6200127381856200121d565b9350620012858185602086016200122e565b620012908162000fd4565b840191505092915050565b60006020820190508181036000830152620012b781846200125a565b905092915050565b600080fd5b600080fd5b600060ff82169050919050565b620012e181620012c9565b8114620012ed57600080fd5b50565b6000815190506200130181620012d6565b92915050565b600063ffffffff82169050919050565b620013228162001307565b81146200132e57600080fd5b50565b600081519050620013428162001317565b92915050565b600081519050620013598162000f17565b92915050565b600081519050620013708162000f52565b92915050565b600067ffffffffffffffff82169050919050565b620013958162001376565b8114620013a157600080fd5b50565b600081519050620013b5816200138a565b92915050565b6000620013d2620013cc8462001069565b6200104a565b905082815260208101848484011115620013f157620013f062000fcf565b5b620013fe8482856200122e565b509392505050565b600082601f8301126200141e576200141d62000fca565b5b815162001430848260208601620013bb565b91505092915050565b600067ffffffffffffffff82111562001457576200145662000fe5565b5b602082029050602081019050919050565b600080fd5b600060808284031215620014865762001485620012bf565b5b6200149260806200104a565b90506000620014a4848285016200135f565b6000830152506020620014ba848285016200135f565b6020830152506040620014d084828501620012f0565b6040830152506060620014e684828501620012f0565b60608301525092915050565b600062001509620015038462001439565b6200104a565b905080838252602082019050608084028301858111156200152f576200152e62001468565b5b835b818110156200155c57806200154788826200146d565b84526020840193505060808101905062001531565b5050509392505050565b600082601f8301126200157e576200157d62000fca565b5b815162001590848260208601620014f2565b91505092915050565b60006101608284031215620015b357620015b2620012bf565b5b620015c06101606200104a565b90506000620015d284828501620012f0565b6000830152506020620015e88482850162001331565b6020830152506040620015fe8482850162001331565b6040830152506060620016148482850162001348565b60608301525060806200162a848285016200135f565b60808301525060a06200164084828501620013a4565b60a08301525060c06200165684828501620012f0565b60c08301525060e082015167ffffffffffffffff8111156200167d576200167c620012c4565b5b6200168b8482850162001406565b60e083015250610100620016a28482850162001331565b6101008301525061012082015167ffffffffffffffff811115620016cb57620016ca620012c4565b5b620016d98482850162001566565b61012083015250610140620016f1848285016200135f565b6101408301525092915050565b60008115159050919050565b6200171581620016fe565b81146200172157600080fd5b50565b60008151905062001735816200170a565b92915050565b600067ffffffffffffffff82111562001759576200175862000fe5565b5b620017648262000fd4565b9050602081019050919050565b60006200178862001782846200173b565b6200104a565b905082815260208101848484011115620017a757620017a662000fcf565b5b620017b48482856200122e565b509392505050565b600082601f830112620017d457620017d362000fca565b5b8151620017e684826020860162001771565b91505092915050565b6000806000606084860312156200180b576200180a62000eff565b5b600084015167ffffffffffffffff8111156200182c576200182b62000f04565b5b6200183a8682870162001599565b93505060206200184d8682870162001724565b925050604084015167ffffffffffffffff81111562001871576200187062000f04565b5b6200187f86828701620017bc565b9150509250925092565b600081519050919050565b600082825260208201905092915050565b6000620018b28262001889565b620018be818562001894565b9350620018d08185602086016200122e565b620018db8162000fd4565b840191505092915050565b60006020820190508181036000830152620019028184620018a5565b905092915050565b6000819050919050565b7f4e487b7100000000000000000000000000000000000000000000000000000000600052601160045260246000fd5b600062001950826200190a565b91506200195d836200190a565b925082820190508082111562001978576200197762001914565b5b92915050565b620019898162000f48565b82525050565b6000602082019050620019a660008301846200197e565b92915050565b600081519050620019bd81620011af565b92915050565b600060208284031215620019dc57620019db62000eff565b5b6000620019ec84828501620019ac565b91505092915050565b62001a008162000f48565b82525050565b600060608201905062001a1d6000830186620019f5565b62001a2c6020830185620019f5565b62001a3b604083018462000ec7565b949350505050565b600060408201905062001a5a600083018562000ec7565b818103602083015262001a6e81846200125a565b90509392505050565b600060808201905062001a8e6000830187620019f5565b62001a9d6020830186620019f5565b62001aac604083018562000ec7565b62001abb606083018462000ec7565b95945050505050565b7f4f776e61626c653a206e6577206f776e657220697320746865207a65726f206160008201527f6464726573730000000000000000000000000000000000000000000000000000602082015250565b600062001b2260268362001894565b915062001b2f8262001ac4565b604082019050919050565b6000602082019050818103600083015262001b558162001b13565b9050919050565b7f4f776e61626c653a2063616c6c6572206973206e6f7420746865206f776e6572600082015250565b600062001b9460208362001894565b915062001ba18262001b5c565b602082019050919050565b6000602082019050818103600083015262001bc78162001b85565b9050919050565b7f4e487b7100000000000000000000000000000000000000000000000000000000600052603260045260246000fd5b7f4e487b7100000000000000000000000000000000000000000000000000000000600052602160045260246000fd5b7f556e737570706f7274656420554e51576f726d686f6c6520616374696f6e0000600082015250565b600062001c64601e8362001894565b915062001c718262001c2c565b602082019050919050565b6000602082019050818103600083015262001c978162001c55565b9050919050565b7f746f427974657333325f6f75744f66426f756e64730000000000000000000000600082015250565b600062001cd660158362001894565b915062001ce38262001c9e565b602082019050919050565b6000602082019050818103600083015262001d098162001cc7565b9050919050565b62001d1b81620012c9565b82525050565b62001d2c8162000f48565b82525050565b62001d3d8162000eb3565b82525050565b60a08201600082015162001d5b600085018262001d10565b50602082015162001d70602085018262001d21565b50604082015162001d85604085018262001d21565b50606082015162001d9a606085018262001d21565b50608082015162001daf608085018262001d32565b50505050565b600060a08201905062001dcc600083018462001d43565b92915050565b7f746f55696e74385f6f75744f66426f756e647300000000000000000000000000600082015250565b600062001e0a60138362001894565b915062001e178262001dd2565b602082019050919050565b6000602082019050818103600083015262001e3d8162001dfb565b905091905056fe608060405260405162000f3f38038062000f3f8339818101604052810190620000299190620006a6565b6200003d828260006200004560201b60201c565b5050620009c7565b62000056836200013c60201b60201c565b8273ffffffffffffffffffffffffffffffffffffffff167f1cf3b03a6cf19fa2baba4df148e9dcabedea7f8a5c07840e207e5c089be95d3e60405160405180910390a2600082511180620000a75750805b156200013757620001358373ffffffffffffffffffffffffffffffffffffffff16635c60da1b6040518163ffffffff1660e01b8152600401602060405180830381865afa158015620000fd573d6000803e3d6000fd5b505050506040513d601f19601f820116820180604052508101906200012391906200070c565b83620002db60201b620000371760201c565b505b505050565b62000152816200031160201b620000641760201c565b62000194576040517f08c379a00000000000000000000000000000000000000000000000000000000081526004016200018b90620007c5565b60405180910390fd5b6200021b8173ffffffffffffffffffffffffffffffffffffffff16635c60da1b6040518163ffffffff1660e01b8152600401602060405180830381865afa158015620001e4573d6000803e3d6000fd5b505050506040513d601f19601f820116820180604052508101906200020a91906200070c565b6200031160201b620000641760201c565b6200025d576040517f08c379a000000000000000000000000000000000000000000000000000000000815260040162000254906200085d565b60405180910390fd5b80620002977fa3f0ad74e5423aebfd80d3ef4346578335a9a72aeaee59ff6cb3582b35133d5060001b6200033460201b620000871760201c565b60000160006101000a81548173ffffffffffffffffffffffffffffffffffffffff021916908373ffffffffffffffffffffffffffffffffffffffff16021790555050565b606062000309838360405180606001604052806027815260200162000f18602791396200033e60201b60201c565b905092915050565b6000808273ffffffffffffffffffffffffffffffffffffffff163b119050919050565b6000819050919050565b60606000808573ffffffffffffffffffffffffffffffffffffffff16856040516200036a9190620008cc565b600060405180830381855af49150503d8060008114620003a7576040519150601f19603f3d011682016040523d82523d6000602084013e620003ac565b606091505b5091509150620003c586838387620003d060201b60201c565b925050509392505050565b60608315620004405760008351036200043757620003f4856200031160201b60201c565b62000436576040517f08c379a00000000000000000000000000000000000000000000000000000000081526004016200042d9062000935565b60405180910390fd5b5b82905062000453565b6200045283836200045b60201b60201c565b5b949350505050565b6000825111156200046f5781518083602001fd5b806040517f08c379a0000000000000000000000000000000000000000000000000000000008152600401620004a59190620009a3565b60405180910390fd5b6000604051905090565b600080fd5b600080fd5b600073ffffffffffffffffffffffffffffffffffffffff82169050919050565b6000620004ef82620004c2565b9050919050565b6200050181620004e2565b81146200050d57600080fd5b50565b6000815190506200052181620004f6565b92915050565b600080fd5b600080fd5b6000601f19601f8301169050919050565b7f4e487b7100000000000000000000000000000000000000000000000000000000600052604160045260246000fd5b6200057c8262000531565b810181811067ffffffffffffffff821117156200059e576200059d62000542565b5b80604052505050565b6000620005b3620004ae565b9050620005c1828262000571565b919050565b600067ffffffffffffffff821115620005e457620005e362000542565b5b620005ef8262000531565b9050602081019050919050565b60005b838110156200061c578082015181840152602081019050620005ff565b60008484015250505050565b60006200063f6200063984620005c6565b620005a7565b9050828152602081018484840111156200065e576200065d6200052c565b5b6200066b848285620005fc565b509392505050565b600082601f8301126200068b576200068a62000527565b5b81516200069d84826020860162000628565b91505092915050565b60008060408385031215620006c057620006bf620004b8565b5b6000620006d08582860162000510565b925050602083015167ffffffffffffffff811115620006f457620006f3620004bd565b5b620007028582860162000673565b9150509250929050565b600060208284031215620007255762000724620004b8565b5b6000620007358482850162000510565b91505092915050565b600082825260208201905092915050565b7f455243313936373a206e657720626561636f6e206973206e6f74206120636f6e60008201527f7472616374000000000000000000000000000000000000000000000000000000602082015250565b6000620007ad6025836200073e565b9150620007ba826200074f565b604082019050919050565b60006020820190508181036000830152620007e0816200079e565b9050919050565b7f455243313936373a20626561636f6e20696d706c656d656e746174696f6e206960008201527f73206e6f74206120636f6e747261637400000000000000000000000000000000602082015250565b6000620008456030836200073e565b91506200085282620007e7565b604082019050919050565b60006020820190508181036000830152620008788162000836565b9050919050565b600081519050919050565b600081905092915050565b6000620008a2826200087f565b620008ae81856200088a565b9350620008c0818560208601620005fc565b80840191505092915050565b6000620008da828462000895565b915081905092915050565b7f416464726573733a2063616c6c20746f206e6f6e2d636f6e7472616374000000600082015250565b60006200091d601d836200073e565b91506200092a82620008e5565b602082019050919050565b6000602082019050818103600083015262000950816200090e565b9050919050565b600081519050919050565b60006200096f8262000957565b6200097b81856200073e565b93506200098d818560208601620005fc565b620009988162000531565b840191505092915050565b60006020820190508181036000830152620009bf818462000962565b905092915050565b61054180620009d76000396000f3fe6080604052366100135761001161001d565b005b61001b61001d565b005b610025610091565b610035610030610093565b610110565b565b606061005c83836040518060600160405280602781526020016104e560279139610136565b905092915050565b6000808273ffffffffffffffffffffffffffffffffffffffff163b119050919050565b6000819050919050565b565b600061009d6101bc565b73ffffffffffffffffffffffffffffffffffffffff16635c60da1b6040518163ffffffff1660e01b8152600401602060405180830381865afa1580156100e7573d6000803e3d6000fd5b505050506040513d601f19601f8201168201806040525081019061010b919061033b565b905090565b3660008037600080366000845af43d6000803e8060008114610131573d6000f35b3d6000fd5b60606000808573ffffffffffffffffffffffffffffffffffffffff168560405161016091906103d9565b600060405180830381855af49150503d806000811461019b576040519150601f19603f3d011682016040523d82523d6000602084013e6101a0565b606091505b50915091506101b186838387610213565b925050509392505050565b60006101ea7fa3f0ad74e5423aebfd80d3ef4346578335a9a72aeaee59ff6cb3582b35133d5060001b610087565b60000160009054906101000a900473ffffffffffffffffffffffffffffffffffffffff16905090565b6060831561027557600083510361026d5761022d85610064565b61026c576040517f08c379a00000000000000000000000000000000000000000000000000000000081526004016102639061044d565b60405180910390fd5b5b829050610280565b61027f8383610288565b5b949350505050565b60008251111561029b5781518083602001fd5b806040517f08c379a00000000000000000000000000000000000000000000000000000000081526004016102cf91906104c2565b60405180910390fd5b600080fd5b600073ffffffffffffffffffffffffffffffffffffffff82169050919050565b6000610308826102dd565b9050919050565b610318816102fd565b811461032357600080fd5b50565b6000815190506103358161030f565b92915050565b600060208284031215610351576103506102d8565b5b600061035f84828501610326565b91505092915050565b600081519050919050565b600081905092915050565b60005b8381101561039c578082015181840152602081019050610381565b60008484015250505050565b60006103b382610368565b6103bd8185610373565b93506103cd81856020860161037e565b80840191505092915050565b60006103e582846103a8565b915081905092915050565b600082825260208201905092915050565b7f416464726573733a2063616c6c20746f206e6f6e2d636f6e7472616374000000600082015250565b6000610437601d836103f0565b915061044282610401565b602082019050919050565b600060208201905081810360008301526104668161042a565b9050919050565b600081519050919050565b6000601f19601f8301169050919050565b60006104948261046d565b61049e81856103f0565b93506104ae81856020860161037e565b6104b781610478565b840191505092915050565b600060208201905081810360008301526104dc8184610489565b90509291505056fe416464726573733a206c6f772d6c6576656c2064656c65676174652063616c6c206661696c6564a26469706673582212202c7207dfd2b6e6bf237d231d38b838badd9a562a0a064d8527a8b8e12f46be4464736f6c63430008110033416464726573733a206c6f772d6c6576656c2064656c65676174652063616c6c206661696c6564a2646970667358221220da54fc1d464432a451234d5a5ad0f99267a246915dbe53171a266d7e93da016f64736f6c6343000811003360a060405234801561001057600080fd5b5060405161139538038061139583398181016040528101906100329190610238565b61004e6100436100fc60201b60201c565b61010460201b60201c565b8060405161005b906101c8565b6100659190610274565b604051809103906000f080158015610081573d6000803e3d6000fd5b5073ffffffffffffffffffffffffffffffffffffffff1660808173ffffffffffffffffffffffffffffffffffffffff168152505032600160006101000a81548173ffffffffffffffffffffffffffffffffffffffff021916908373ffffffffffffffffffffffffffffffffffffffff1602179055505061028f565b600033905090565b60008060009054906101000a900473ffffffffffffffffffffffffffffffffffffffff169050816000806101000a81548173ffffffffffffffffffffffffffffffffffffffff021916908373ffffffffffffffffffffffffffffffffffffffff1602179055508173ffffffffffffffffffffffffffffffffffffffff168173ffffffffffffffffffffffffffffffffffffffff167f8be0079c531659141344cd1fd0a4f28419497f9722a3daafe3b4186f6b6457e060405160405180910390a35050565b6109cf806109c683390190565b600080fd5b600073ffffffffffffffffffffffffffffffffffffffff82169050919050565b6000610205826101da565b9050919050565b610215816101fa565b811461022057600080fd5b50565b6000815190506102328161020c565b92915050565b60006020828403121561024e5761024d6101d5565b5b600061025c84828501610223565b91505092915050565b61026e816101fa565b82525050565b60006020820190506102896000830184610265565b92915050565b60805161070e6102b860003960008181610105015281816101a1015261024b015261070e6000f3fe608060405234801561001057600080fd5b50600436106100625760003560e01c80635c60da1b146100675780636095b4b014610085578063715018a6146100a15780637792c319146100ab5780638da5cb5b146100c7578063f2fde38b146100e5575b600080fd5b61006f610101565b60405161007c919061050e565b60405180910390f35b61009f600480360381019061009a919061055a565b610197565b005b6100a961022d565b005b6100c560048036038101906100c0919061055a565b610241565b005b6100cf6102d7565b6040516100dc919061050e565b60405180910390f35b6100ff60048036038101906100fa919061055a565b610300565b005b60007f000000000000000000000000000000000000000000000000000000000000000073ffffffffffffffffffffffffffffffffffffffff16635c60da1b6040518163ffffffff1660e01b8152600401602060405180830381865afa15801561016e573d6000803e3d6000fd5b505050506040513d601f19601f82011682018060405250810190610192919061059c565b905090565b61019f610383565b7f000000000000000000000000000000000000000000000000000000000000000073ffffffffffffffffffffffffffffffffffffffff1663f2fde38b826040518263ffffffff1660e01b81526004016101f8919061050e565b600060405180830381600087803b15801561021257600080fd5b505af1158015610226573d6000803e3d6000fd5b5050505050565b610235610383565b61023f6000610401565b565b610249610383565b7f000000000000000000000000000000000000000000000000000000000000000073ffffffffffffffffffffffffffffffffffffffff16633659cfe6826040518263ffffffff1660e01b81526004016102a2919061050e565b600060405180830381600087803b1580156102bc57600080fd5b505af11580156102d0573d6000803e3d6000fd5b5050505050565b60008060009054906101000a900473ffffffffffffffffffffffffffffffffffffffff16905090565b610308610383565b600073ffffffffffffffffffffffffffffffffffffffff168173ffffffffffffffffffffffffffffffffffffffff1603610377576040517f08c379a000000000000000000000000000000000000000000000000000000000815260040161036e9061064c565b60405180910390fd5b61038081610401565b50565b61038b6104c5565b73ffffffffffffffffffffffffffffffffffffffff166103a96102d7565b73ffffffffffffffffffffffffffffffffffffffff16146103ff576040517f08c379a00000000000000000000000000000000000000000000000000000000081526004016103f6906106b8565b60405180910390fd5b565b60008060009054906101000a900473ffffffffffffffffffffffffffffffffffffffff169050816000806101000a81548173ffffffffffffffffffffffffffffffffffffffff021916908373ffffffffffffffffffffffffffffffffffffffff1602179055508173ffffffffffffffffffffffffffffffffffffffff168173ffffffffffffffffffffffffffffffffffffffff167f8be0079c531659141344cd1fd0a4f28419497f9722a3daafe3b4186f6b6457e060405160405180910390a35050565b600033905090565b600073ffffffffffffffffffffffffffffffffffffffff82169050919050565b60006104f8826104cd565b9050919050565b610508816104ed565b82525050565b600060208201905061052360008301846104ff565b92915050565b600080fd5b610537816104ed565b811461054257600080fd5b50565b6000813590506105548161052e565b92915050565b6000602082840312156105705761056f610529565b5b600061057e84828501610545565b91505092915050565b6000815190506105968161052e565b92915050565b6000602082840312156105b2576105b1610529565b5b60006105c084828501610587565b91505092915050565b600082825260208201905092915050565b7f4f776e61626c653a206e6577206f776e657220697320746865207a65726f206160008201527f6464726573730000000000000000000000000000000000000000000000000000602082015250565b60006106366026836105c9565b9150610641826105da565b604082019050919050565b6000602082019050818103600083015261066581610629565b9050919050565b7f4f776e61626c653a2063616c6c6572206973206e6f7420746865206f776e6572600082015250565b60006106a26020836105c9565b91506106ad8261066c565b602082019050919050565b600060208201905081810360008301526106d181610695565b905091905056fea264697066735822122035aff64720d6b452aff3708a79e95f4905b84abdc42007a7720bd99dc0cf71f764736f6c63430008110033608060405234801561001057600080fd5b506040516109cf3803806109cf8339818101604052810190610032919061024b565b61004e61004361006360201b60201c565b61006b60201b60201c565b61005d8161012f60201b60201c565b5061031b565b600033905090565b60008060009054906101000a900473ffffffffffffffffffffffffffffffffffffffff169050816000806101000a81548173ffffffffffffffffffffffffffffffffffffffff021916908373ffffffffffffffffffffffffffffffffffffffff1602179055508173ffffffffffffffffffffffffffffffffffffffff168173ffffffffffffffffffffffffffffffffffffffff167f8be0079c531659141344cd1fd0a4f28419497f9722a3daafe3b4186f6b6457e060405160405180910390a35050565b610142816101c560201b61021b1760201c565b610181576040517f08c379a0000000000000000000000000000000000000000000000000000000008152600401610178906102fb565b60405180910390fd5b80600160006101000a81548173ffffffffffffffffffffffffffffffffffffffff021916908373ffffffffffffffffffffffffffffffffffffffff16021790555050565b6000808273ffffffffffffffffffffffffffffffffffffffff163b119050919050565b600080fd5b600073ffffffffffffffffffffffffffffffffffffffff82169050919050565b6000610218826101ed565b9050919050565b6102288161020d565b811461023357600080fd5b50565b6000815190506102458161021f565b92915050565b600060208284031215610261576102606101e8565b5b600061026f84828501610236565b91505092915050565b600082825260208201905092915050565b7f5570677261646561626c65426561636f6e3a20696d706c656d656e746174696f60008201527f6e206973206e6f74206120636f6e747261637400000000000000000000000000602082015250565b60006102e5603383610278565b91506102f082610289565b604082019050919050565b60006020820190508181036000830152610314816102d8565b9050919050565b6106a58061032a6000396000f3fe608060405234801561001057600080fd5b50600436106100575760003560e01c80633659cfe61461005c5780635c60da1b14610078578063715018a6146100965780638da5cb5b146100a0578063f2fde38b146100be575b600080fd5b61007660048036038101906100719190610477565b6100da565b005b610080610131565b60405161008d91906104b3565b60405180910390f35b61009e61015b565b005b6100a861016f565b6040516100b591906104b3565b60405180910390f35b6100d860048036038101906100d39190610477565b610198565b005b6100e261023e565b6100eb816102bc565b8073ffffffffffffffffffffffffffffffffffffffff167fbc7cd75a20ee27fd9adebab32041f755214dbc6bffa90cc0225b39da2e5c2d3b60405160405180910390a250565b6000600160009054906101000a900473ffffffffffffffffffffffffffffffffffffffff16905090565b61016361023e565b61016d6000610348565b565b60008060009054906101000a900473ffffffffffffffffffffffffffffffffffffffff16905090565b6101a061023e565b600073ffffffffffffffffffffffffffffffffffffffff168173ffffffffffffffffffffffffffffffffffffffff160361020f576040517f08c379a000000000000000000000000000000000000000000000000000000000815260040161020690610551565b60405180910390fd5b61021881610348565b50565b6000808273ffffffffffffffffffffffffffffffffffffffff163b119050919050565b61024661040c565b73ffffffffffffffffffffffffffffffffffffffff1661026461016f565b73ffffffffffffffffffffffffffffffffffffffff16146102ba576040517f08c379a00000000000000000000000000000000000000000000000000000000081526004016102b1906105bd565b60405180910390fd5b565b6102c58161021b565b610304576040517f08c379a00000000000000000000000000000000000000000000000000000000081526004016102fb9061064f565b60405180910390fd5b80600160006101000a81548173ffffffffffffffffffffffffffffffffffffffff021916908373ffffffffffffffffffffffffffffffffffffffff16021790555050565b60008060009054906101000a900473ffffffffffffffffffffffffffffffffffffffff169050816000806101000a81548173ffffffffffffffffffffffffffffffffffffffff021916908373ffffffffffffffffffffffffffffffffffffffff1602179055508173ffffffffffffffffffffffffffffffffffffffff168173ffffffffffffffffffffffffffffffffffffffff167f8be0079c531659141344cd1fd0a4f28419497f9722a3daafe3b4186f6b6457e060405160405180910390a35050565b600033905090565b600080fd5b600073ffffffffffffffffffffffffffffffffffffffff82169050919050565b600061044482610419565b9050919050565b61045481610439565b811461045f57600080fd5b50565b6000813590506104718161044b565b92915050565b60006020828403121561048d5761048c610414565b5b600061049b84828501610462565b91505092915050565b6104ad81610439565b82525050565b60006020820190506104c860008301846104a4565b92915050565b600082825260208201905092915050565b7f4f776e61626c653a206e6577206f776e657220697320746865207a65726f206160008201527f6464726573730000000000000000000000000000000000000000000000000000602082015250565b600061053b6026836104ce565b9150610546826104df565b604082019050919050565b6000602082019050818103600083015261056a8161052e565b9050919050565b7f4f776e61626c653a2063616c6c6572206973206e6f7420746865206f776e6572600082015250565b60006105a76020836104ce565b91506105b282610571565b602082019050919050565b600060208201905081810360008301526105d68161059a565b9050919050565b7f5570677261646561626c65426561636f6e3a20696d706c656d656e746174696f60008201527f6e206973206e6f74206120636f6e747261637400000000000000000000000000602082015250565b60006106396033836104ce565b9150610644826105dd565b604082019050919050565b600060208201905081810360008301526106688161062c565b905091905056fea2646970667358221220c89b6a61b644ec4a3d9e842c0121a7093e4a93ea650998ef9857cb2969c9db1164736f6c63430008110033",
  "immutableReferences": {
    "2547": [
      {
        "length": 32,
        "start": 465
      },
      {
        "length": 32,
        "start": 1360
      }
    ],
    "2560": [
      {
        "length": 32,
        "start": 986
      },
      {
        "length": 32,
        "start": 1058
      },
      {
        "length": 32,
        "start": 1147
      },
      {
        "length": 32,
        "start": 2774
      },
      {
        "length": 32,
        "start": 2861
      },
      {
        "length": 32,
        "start": 2948
      },
      {
        "length": 32,
        "start": 3035
      },
      {
        "length": 32,
        "start": 3248
      }
    ]
  },
  "source": "// SPDX-License-Identifier: Apache 2\npragma solidity ^0.8.7;\n\nimport \"../interface/IWormhole.sol\";\nimport \"../structs/UnqWormholeStructs.sol\";\nimport \"@openzeppelin/contracts/access/Ownable.sol\";\nimport \"@openzeppelin/contracts/proxy/beacon/BeaconProxy.sol\";\nimport \"./WormholeUnqBeacon.sol\";\nimport \"../libraries/BytesLib.sol\";\nimport \"../libraries/Bytes32Lib.sol\";\nimport \"../Treasury/UnqTreasury.sol\";\n\npragma experimental ABIEncoderV2;\n\ncontract WormholeUnq is UnqWormholeStructs, Ownable {\n    using BytesLib for bytes;\n    using Bytes32Lib for bytes32;\n\n    IWormhole core_contract;\n    address _owner;\n    WormholeUnqBeacon immutable _unqBeacon;\n    mapping(bytes32 => address) _treasuries;\n    mapping(uint16 => bytes32) _bridgeContracts;\n    address _relayerSigner;\n\n    uint256 immutable CHAIN_ID_PAD = 4;\n\n    constructor(address treasuryImplementation, address relayerSigner) {\n        core_contract = IWormhole(0xC89Ce4735882C9F0f0FE26686c53074E09B0D550);\n        _owner = msg.sender;\n        _unqBeacon = new WormholeUnqBeacon(treasuryImplementation);\n        _relayerSigner = relayerSigner;\n    }\n\n    modifier onlyRegisteredContract(IWormhole.VM memory vm) {\n        bytes32 registeredChain = _bridgeContracts[vm.emitterChainId];\n        require(vm.emitterAddress == registeredChain, \"Wrong emitter address\");\n        _;\n    }\n\n    event TreasuryCreatedEvent(bytes32, bytes32, address, address);\n    event MemberEvent(bytes32, bytes32, address);\n\n    function parseVM(bytes memory encodedVM) public {\n        (\n            IWormhole.VM memory vm,\n            bool valid,\n            string memory reason\n        ) = core_contract.parseAndVerifyVM(encodedVM);\n\n        require(valid, reason);\n\n        getActionFromPayload(vm);\n    }\n\n    function registerContract(uint16 chainId, bytes32 bridgeContractAddress)\n        public\n        onlyOwner\n    {\n        _bridgeContracts[chainId] = bridgeContractAddress;\n    }\n\n    //TODO:add modifier for only registered contracts\n    function getActionFromPayload(IWormhole.VM memory vm) private {\n        uint8 actionBytes = uint8(vm.payload[0]);\n\n        UnqWormholeAction action = UnqWormholeAction(actionBytes);\n        if (action == UnqWormholeAction.CreateTreasury) {\n            createEthTreasury(vm.payload);\n        } else if (action == UnqWormholeAction.WithdrawFunds) {\n            claimFunds(vm.payload);\n        } else if (action == UnqWormholeAction.TransferFunds) {\n            transferFunds(vm.payload);\n        } else if (action == UnqWormholeAction.AddMember) {\n            addMember(vm.payload);\n        } else {\n            revert(\"Unsupported UNQWormhole action\");\n        }\n    }\n\n    function createEthTreasury(bytes memory vm) public {\n        uint256 index = CHAIN_ID_PAD + 1;\n        bytes32 realmAddress = vm.toBytes32(index);\n        index += 32 + CHAIN_ID_PAD;\n        bytes32 treasuryAuthority = vm.toBytes32(index);\n        index += CHAIN_ID_PAD + 32;\n        address denominatedCurrency = (vm.toBytes32(index)).bytes32ToAddress();\n\n        BeaconProxy treasury = new BeaconProxy(\n            address(_unqBeacon),\n            abi.encodeWithSelector(\n                UnqTreasury(payable(address(0))).initialize.selector,\n                realmAddress,\n                treasuryAuthority,\n                denominatedCurrency\n            )\n        );\n\n        emit TreasuryCreatedEvent(\n            realmAddress,\n            treasuryAuthority,\n            denominatedCurrency,\n            address(treasury)\n        );\n\n        _treasuries[realmAddress] = address(treasury);\n    }\n\n    function transferFunds(bytes memory payload) private {}\n\n    function claimFunds(bytes memory payload) private {}\n\n    function addMember(bytes memory payload) private {\n        uint256 index = 0;\n        uint8 action = payload.toUint8(index);\n        index += 1 + CHAIN_ID_PAD;\n        bytes32 realmAddress = payload.toBytes32(index);\n        index += 32 + CHAIN_ID_PAD;\n        bytes32 solanaAddress = payload.toBytes32(index);\n        index += 32 + CHAIN_ID_PAD;\n        bytes32 authority = payload.toBytes32(index);\n        index += 32 + CHAIN_ID_PAD;\n        address ethAddress = (payload.toBytes32(index)).bytes32ToAddress();\n        index += 32 + CHAIN_ID_PAD;\n\n        UnqTreasury treasury = UnqTreasury(_treasuries[realmAddress]);\n        treasury.addNewMember(\n            UnqWormholeStructs.AddMemberAction(\n                action,\n                realmAddress,\n                solanaAddress,\n                authority,\n                ethAddress\n            )\n        );\n        emit MemberEvent(realmAddress, solanaAddress, ethAddress);\n    }\n\n    function getBeacon() public view returns (address) {\n        return address(_unqBeacon);\n    }\n\n    function getTreasury(bytes32 realmAddress)\n        public\n        view\n        returns (address treasury)\n    {\n        return _treasuries[realmAddress];\n    }\n\n    function getOwner() public view returns (address) {\n        return _owner;\n    }\n}\n",
  "sourcePath": "/Users/gorangutovic/Desktop/unique/unq-treasury-eth/contracts/Wormhole/WormholeUnq.sol",
  "compiler": {
    "name": "solc",
    "version": "0.8.17+commit.8df45f5f.Emscripten.clang"
  },
  "schemaVersion": "3.4.11",
  "updatedAt": "2023-02-08T10:06:18.043Z",
  "networkType": "ethereum",
  "devdoc": {
    "kind": "dev",
    "methods": {
      "owner()": {
        "details": "Returns the address of the current owner."
      },
      "renounceOwnership()": {
        "details": "Leaves the contract without owner. It will not be possible to call `onlyOwner` functions anymore. Can only be called by the current owner. NOTE: Renouncing ownership will leave the contract without an owner, thereby removing any functionality that is only available to the owner."
      },
      "transferOwnership(address)": {
        "details": "Transfers ownership of the contract to a new account (`newOwner`). Can only be called by the current owner."
      }
    },
    "version": 1
  },
  "userdoc": {
    "kind": "user",
    "methods": {},
    "version": 1
  }
}